:020000040800F2
:1000000060070020290200088D0E0008810A000800
:10001000890E000875030008E317000800000000BF
:10002000000000000000000000000000151400089F
:100030000504000800000000B10F00082D1500089D
:10004000430200084302000843020008430200087C
:10005000430200084302000843020008430200086C
:10006000430200084302000843020008430200085C
:10007000430200084302000843020008430200084C
:10008000430200084302000843020008430200083C
:10009000430200084302000843020008430200082C
:1000A000430200084302000843020008430200081C
:1000B000430200084302000843020008430200080C
:1000C00043020008430200084302000843020008FC
:1000D00043020008C5150008430200084302000857
:1000E00043020008430200084302000843020008DC
:1000F00043020008430200084302000843020008CC
:1001000043020008430200084302000843020008BB
:1001100043020008430200084302000843020008AB
:10012000430200084302000843020008430200089B
:10013000430200084302000843020008430200088B
:10014000430200084302000843020008430200087B
:10015000430200084302000843020008430200086B
:10016000430200084302000843020008430200085B
:10017000430200084302000843020008430200084B
:10018000430200084302000800F002F800F03CF8C7
:100190000AA090E8000C82448344AAF10107DA45E2
:1001A00001D100F031F8AFF2090EBAE80F0013F0F8
:1001B000010F18BFFB1A43F00103184750750100E7
:1001C00070750100103A24BF78C878C1FAD8520778
:1001D00024BF30C830C144BF04680C6070470000C1
:1001E0000023002400250026103A28BF78C1FBD840
:1001F000520728BF30C148BF0B6070471FB501F0E0
:10020000FBFC1FBD10B510BD00F06EF81146FFF7E6
:10021000F5FF01F059FB00F0A0F803B4FFF7F2FF7F
:1002200003BC01F0E0FA0000094880470948004794
:10023000FEE7FEE7FEE7FEE7FEE7FEE7FEE7FEE796
:10024000FEE7FEE704480549054A064B70470000F3
:1002500031150008890100086001002060070020B6
:100260006003002060030020704700000FB40449C1
:1002700010B503AA029800F009F810BC5DF814FB51
:10028000100000207047704770477047074B70B5EB
:100290000D467B4400F011F80446284600F020F893
:1002A00010B14FF0FF3070BD204670BD1716000032
:1002B00001694A1C02610878704700B58FB0CDE92A
:1002C00001310021059105497944CDE9031011461A
:1002D000684600F02EF80FB000BD0000E5FFFFFFFC
:1002E000007B00F080007047754600F03FF8AE4696
:1002F00005006946534620F00700854618B020B532
:10030000FFF7A0FFBDE820404FF000064FF00007C8
:100310004FF000084FF0000B21F00701AC46ACE8AD
:10032000C009ACE8C009ACE8C009ACE8C0098D461A
:1003300070472DE9F04106460024D6E90170F568C2
:100340008046304603E04146B847641C3046A84723
:100350000028F8D12046BDE8F08110B50446AFF37F
:1003600000802046BDE81040FFF757BF00487047A7
:100370000001002000BFFEE738B501244EF67D7075
:1003800000F0F6FB1CA04EF67D731F220A210090A0
:10039000142000F0F7F9C82001F046FA25E04FF6E6
:1003A000FF7000F0E5FB4FF4967001F03DFA00207D
:1003B00000F0DEFB4FF4967001F036FA4FF478400F
:1003C00000F0D6FB4FF4967001F02EFA4FF4FC606B
:1003D00000F0CEFB4FF4967001F026FA1F2000F0DB
:1003E000C7FB4FF4967001F01FFA201EA4F1010123
:1003F000CCB2D4D138BD0000436F6C6F722054650D
:10040000737400007047F8B506460F4614461D4643
:100410004FF6FF703B46224639460090304600F0CA
:10042000BBFA4FF6FF702B463246394600903046F5
:1004300000F0B2FA48F210406A1E93B291B2721CF8
:10044000009090B2224600F0A7FA44F208202B4612
:10045000224629460090304600F09EFA48F21040AD
:10046000631E9AB27B1C99B2631E009098B22B4611
:1004700000F092FA44F208202B46224639460090BA
:10048000204600F089FAF8BD08B54EF67D7000F000
:100490006FFB22A04EF67D731F220A2100901020D0
:1004A00000F070F94FF47A7001F0BEF94EF67D70ED
:1004B00000F05EFB1DA04EF67D730022102100901F
:1004C000084600F05FF91DA04EF67D73002224213E
:1004D0000090202000F056F91BA04EF67D731F22DD
:1004E00034210090102000F04DF91BA04EF67D73D2
:1004F0004FF4784246210090102000F043F91AA0F2
:100500004EF67D734FF4FC6264210090102000F0E1
:1005100039F94FF4E16001F087F908BDCEC4D7D6B0
:10052000CFD4CABEB2E2CAD400000000C7B6C8EB3E
:10053000CABDBFAAB7A2CDF800000000D6D0CEC475
:10054000B2E2CAD400000000D7A8D7A2D2BABEA790
:10055000C5FAB7A200000000C8ABB3CCBCBCCAF55A
:10056000D6A7B3D6000000006D63756465762E745F
:10057000616F62616F000000F0B50A460021002340
:10058000002400BF3DE0012505FA01F3156805EAE6
:1005900003049C4234D105684F000326BE40B54396
:1005A000056015794E00B54006683543056015793C
:1005B000012D02D01579022D16D185684F00032632
:1005C000BE40B543856055794E00B54086683543D9
:1005D0008560456801268E40B5434560456896793B
:1005E0008E40B6B235434560C5684F000326BE4015
:1005F000B543C560D5794E00B540C6683543C56082
:10060000491C1029BFD3F0BDF0B5002300244D07CD
:10061000ED0E02FA05F3CE1000F1200555F8265034
:100620004E07F70E0F26BE40B543CF1000F120064F
:1006300046F82750CE1000F1200555F8265045EA1F
:100640000304CE1000F1200545F82640F0BD41839B
:100650007047018370472DE9F04706460F469046E4
:100660009A46002445464FEA4800C0F103094AE093
:100670007A1991B2321990B2524600F0EAF97A1919
:1006800091B2321B90B2524600F0E3F97A1B91B25C
:10069000321990B2524600F0DCF97A1B91B2321B4B
:1006A00090B2524600F0D5F93A1991B2721990B24F
:1006B000524600F0CEF93A1991B2721B90B25246EE
:1006C00000F0C7F93A1B91B2721990B2524600F08D
:1006D000C0F93A1B91B2721B90B2524600F0B9F9C0
:1006E000B9F1000F05DA042000FB049000F10609BF
:1006F00007E0601B042101FB009000F10A09681E5D
:1007000085B2601C84B2AC42B2DBAC4237D17A19FC
:1007100091B2321990B2524600F09BF97A1991B217
:10072000321990B2524600F094F97A1B91B2321904
:1007300090B2524600F08DF97A1B91B2321B90B202
:10074000524600F086F93A1991B2721990B25246A7
:1007500000F07FF93A1991B2721B90B2524600F044
:1007600078F93A1B91B2721990B2524600F071F9C1
:100770003A1B91B2721B90B2524600F06AF9BDE882
:10078000F08700002DE9F84F0746884693469A46C1
:10079000DDF828900097B3E099F8000080283DDA52
:1007A00099F800600D2E05D1009F08F110001FFA86
:1007B00080F830E0202E03DDA6F1200086B200E0B4
:1007C0000026002422E000251CE004EB061050491E
:1007D000085C80212941084040B108EB040291B235
:1007E0007A1990B25A4600F034F909E0D34507D09F
:1007F00008EB040291B27A1990B2524600F029F93E
:10080000681CC5B2082DE0DB601CC4B2102CDADB1A
:1008100007F1080087B209F1010971E0002668E0DC
:1008200006EB06103B4911F8100099F800108842B9
:100830005DD106EB0610374901EB4000407899F88E
:100840000110884253D100244FE0002520E006EB40
:100850000610304901EB4000801C10F81410802075
:100860002841014041B108EB040291B27A1990B2DB
:100870005A4600F0EEF809E0D34507D008EB040231
:1008800091B27A1990B2524600F0E3F8681CC5B2F2
:10089000082DDCDB002524E006EB06101D4901EBEA
:1008A0004000801C012101EB4401405C8021294172
:1008B000084048B108EB040291B27A19083290B2AC
:1008C0005A4600F0C6F80AE0D34508D008EB040207
:1008D00091B27A19083290B2524600F0BAF8681C08
:1008E000C5B2082DD8DB601CC4B2102CADDB701C67
:1008F00086B23A2E94DB09F1020907F1100087B2A3
:1009000099F8000000287FF447AFBDE8F88F000099
:10091000021C0008742900082DE9F05F074688468C
:1009200092469946002531E000242BE019490A98A7
:1009300001EBC01000EB850010F804B000261DE0AC
:100940008020304100EA0B0050B108EB050291B263
:1009500007EBC402324490B2524600F07AF80BE042
:10096000CA4509D008EB050291B207EBC402324434
:1009700090B24A4600F06DF8701CC6B2082EDFDB5C
:10098000601CC4B2042CD1DB681CC5B2202DCBDBAB
:10099000BDE8F09FF32100082DE9FF4F83B08046AA
:1009A00089464946404600F026FA0598A0EB08051E
:1009B0000698A0EB0906002D02DB0120029003E05F
:1009C0004FF0FF3002906D42002E02DB01200190BB
:1009D00003E04FF0FF30019076424FEA450A4FEABC
:1009E000460BB54219DDABEB0504002712E0494682
:1009F0004046109A00F02DF8002C05DBA4EB0A0409
:100A0000019848441FFA80F95C44029840441FFA58
:100A100080F87F1CAF42EADD18E0AAEB060400274D
:100A200012E049464046109A00F013F8002C05DB0E
:100A3000A4EB0B04029840441FFA80F85444019838
:100A400048441FFA80F97F1CB742EADD07B0BDE8D1
:100A5000F08F2DE9F04104460D461646AF1CBBB29F
:100A6000E71CBAB26F1CB9B2A71CB8B200F09AF971
:100A7000301200F0CFF9F0B200F0CCF9BDE8F0810F
:100A800000BFFEE71CB50121062000F093FA45F2F5
:100A90000200009001208DF8040000208DF806006F
:100AA00003208DF8050001208DF8070069461448E1
:100AB000FFF762FD2020009001208DF80400002047
:100AC0008DF8060003208DF8050001208DF8070041
:100AD00069460C48FFF750FD4FF480410848FFF786
:100AE000B8FD00F0E1FB02210548FFF7B2FD02214D
:100AF0000348FFF7ACFD02210148FFF7AAFD1CBD2A
:100B0000000402400008024010B52C20084908816A
:100B10000020887180200880A02048802A204881F9
:100B20002B208881C021362000F0A4F910BD0000E0
:100B3000280000201CB50121084600F03BFA0220E5
:100B4000009001208DF8040000208DF8060003209D
:100B50008DF8050001208DF8070069460348FFF76E
:100B60000BFD02210148FFF774FD1CBD000002408F
:100B700070B50446A02381220121022000F012F961
:100B80002C2000F05FF900250BE0002606E0201283
:100B900000F040F9E0B200F03DF9761C802EF6D36B
:100BA0006D1CA02DF1D370BD10B5FFF76BFF00F0E9
:100BB000E5F8112000F046F9C82000F035FEB1201C
:100BC00000F040F9052000F025F93C2000F022F962
:100BD0003C2000F01FF9B22000F034F9052000F0AD
:100BE00019F93C2000F016F93C2000F013F9B3206D
:100BF00000F028F9052000F00DF93C2000F00AF97A
:100C00003C2000F007F9052000F004F93C2000F03A
:100C100001F93C2000F0FEF8B42000F013F90320A5
:100C200000F0F8F8C02000F00DF9282000F0F2F8EC
:100C3000082000F0EFF8042000F0ECF8C12000F0EC
:100C400001F9C02000F0E6F8C22000F0FBF80D200A
:100C500000F0E0F8002000F0DDF8C32000F0F2F82A
:100C60008D2000F0D7F82A2000F0D4F8C42000F03E
:100C7000E9F88D2000F0CEF8EE2000F0CBF8C5208A
:100C800000F0E0F81A2000F0C5F8362000F0DAF89D
:100C9000C02000F0BFF8E02000F0D4F8042000F0FD
:100CA000B9F8222000F0B6F8072000F0B3F80A20C7
:100CB00000F0B0F82E2000F0ADF8302000F0AAF8D7
:100CC000252000F0A7F82A2000F0A4F8282000F042
:100CD000A1F8262000F09EF82E2000F09BF83A2084
:100CE00000F098F8002000F095F8012000F092F84C
:100CF000032000F08FF8132000F08CF8E12000F0C2
:100D0000A1F8042000F086F8162000F083F80620F1
:100D100000F080F80D2000F07DF82D2000F07AF82A
:100D2000262000F077F8232000F074F8272000F048
:100D300071F8272000F06EF8252000F06BF82D20C8
:100D400000F068F83B2000F065F8002000F062F841
:100D5000012000F05FF8042000F05CF8132000F0A0
:100D600059F83A2000F06EF8052000F053F82920D9
:100D700000F068F8FFF7C8FE10BD000010B54FF492
:100D800080410748FFF763FC642000F04DFD4FF4FD
:100D900080410348FFF75DFC642000F045FD10BD75
:100DA000000402402DE9F04104460D4616461F4658
:100DB0002A2000F047F8002000F02CF8E0B200F004
:100DC00029F8002000F026F8F0B200F023F82B20DC
:100DD00000F038F8002000F01DF8E8B200F01AF832
:100DE000002000F017F8F8B200F014F82C2000F002
:100DF00029F8BDE8F08170B504460D466E1CB3B20B
:100E0000A61CB2B26E1CB1B2A61CB0B2FFF7CAFFEC
:100E100070BD000010B504464FF480510748FFF73D
:100E200016FC20210648FFF714FC204600F0ECFADF
:100E30004FF480510148FFF70CFC10BD0004024044
:100E40000008024010B504464FF480510748FFF7F0
:100E5000FEFB20210648FFF7FAFB204600F0D4FAFB
:100E60004FF480510148FFF7F4FB10BD000402402D
:100E70000008024070B505460C462846FFF7E2FF21
:100E80002046FFF7C7FF70BD00BFFEE770470000B8
:100E900070B5002100230F22C4781CB3174C2468BE
:100EA00004F4E064C4F5E064C4F30721C1F1040470
:100EB000E3B20A4144789C40E1B284781440214373
:100EC0000C07210E0E4C05786155047804F01F05BF
:100ED0000124AC4005786D11AD0005F1E025C5F8A1
:100EE000004109E0047804F01F050124AC40054DE1
:100EF0000678761145F8264070BD00000CED00E044
:100F000000E400E080E100E002490143024A116090
:100F1000704700000000FA050CED00E0F8B5002471
:100F20004EF67D70FFF724FE1DA04EF67D734FF444
:100F30007842142100901020FFF724FC4FF47A70BF
:100F400000F072FC4EF67D70FFF712FE00BF1FE04E
:100F5000032094FBF0F04005050C032094FBF0F116
:100F600000FB114000EB80004FF6FF7101EAC00664
:100F70000E48005D4EF67D734FF47842294600908E
:100F80003046FFF7C9FC642000F04EFC601CC4B280
:100F90000A2CDDDB4FF4FA6000F046FCF8BD0000DF
:100FA0004E756D2054657374000000000000002031
:100FB0007047000029B1064A12680243044B1A60C8
:100FC00004E0034A12688243014B1A607047000034
:100FD0003038024029B1064A12680243044B1A60B5
:100FE00004E0034A12688243014B1A607047000014
:100FF0004038024029B1064A12680243044B1A6085
:1010000004E0034A12688243014B1A6070470000F3
:101010002038024029B1064A12680243044B1A6084
:1010200004E0034A12688243014B1A6070470000D3
:1010300044380240F0B50021002200240225002699
:101040000223324F3F6807F00C0121B1042905D07B
:10105000082937D105E02E4F076036E02D4F076095
:1010600033E02A4F3F1F3F68C7F38056274F3F1F8B
:101070003F6807F03F036EB1264FB7FBF3F7DFF889
:101080008CC0ACF1040CDCF800C0CCF3881C07FB6E
:101090000CF40CE01E4FB7FBF3F7DFF870C0ACF1B7
:1010A000040CDCF800C0CCF3881C07FB0CF4174FD1
:1010B0003F1F3F68C7F301477F1C7D00B4FBF5F776
:1010C000076002E0124F076000BF00BF0F4F3F688C
:1010D00007F0F0010909104F7A5C0768D7404760B4
:1010E0000A4F3F6807F4E051890A0B4F7A5C476862
:1010F000D7408760054F3F6807F46041490B064FB2
:101100007A5C4768D740C760F0BD000008380240ED
:101110000024F40000127A001600002008B54EF6F4
:101120007D70FFF725FD4CA04EF67D731F22022136
:1011300000900820FFF726FB4BA04EF67D731F2280
:10114000142100902020FFF71DFB3A237122262155
:101150000F20FFF758F947A04EF67D734FF4FC625D
:10116000282100901020FFF70DFB58237122442105
:101170000F20FFF748F943A04EF67D731F2246214A
:1011800000901020FFF7FEFA7623712262210F20D3
:10119000FFF739F93FA04EF67D734FF47842642192
:1011A00000901020FFF7EEFA3E4840794EF67D732E
:1011B0004FF478427D2100906420FFF7ADFB4FF49F
:1011C0007A7000F031FB374800794EF67D734FF4AA
:1011D00078427D2100906420FFF79EFB4FF47A70E7
:1011E00000F022FB2F48C0784EF67D734FF4784212
:1011F0007D2100906420FFF78FFB4FF47A7000F0A0
:1012000013FB284880784EF67D734FF478427D2199
:1012100000906420FFF780FB4FF47A7000F004FB2D
:10122000204840784EF67D734FF478427D2100903F
:101230006420FFF771FB4FF47A7000F0F5FA19485B
:1012400000784EF67D734FF478427D210090642043
:10125000FFF762FB08BD00004D6375646576B5E776
:10126000D7D3BCBCCAF50000D2BABEA7B2E2CAD47A
:1012700000000000D1D5C9ABCCEEB3E4B2E2CAD4D1
:1012800000000000CEC4D7D6CFD4CABEB2E2CAD4C2
:1012900000000000CDBCC6ACCFD4CABEB2E2CAD4F6
:1012A000000000000000002000B587B001210220EE
:1012B000FFF780FE01218803FFF78CFE4FF42040EA
:1012C000059002208DF8180000208DF81A000220E9
:1012D0008DF8190001208DF81B0005A91E48FFF7A5
:1012E0004BF905220D211C48FFF78EF905220F212D
:1012F0001948FFF789F901218803FFF77BFE0021D8
:101300004FF48040FFF776FE0020ADF800004FF468
:101310008270ADF802000020ADF804000220ADF8A4
:1013200006000120ADF808004002ADF80A000020D8
:10133000ADF80C00ADF80E000720ADF810006946BE
:10134000064800F043F80121044800F025F8FF208A
:1013500000F006F807B000BD00040240003800406D
:1013600010B5044600BF02210A4800F021F8002809
:10137000F9D02146074800F027F800BF01210548B1
:1013800000F016F80028F9D0024800F01AF8C0B2B0
:1013900010BD00000038004021B1028842F0400238
:1013A000028004E002884FF6BF731A400280704743
:1013B0000246002013890B400BB1012000E0002001
:1013C00070470146888970478181704710B50022B7
:1013D000028802F441520B884C8823438C882343B3
:1013E000CC8823430C8923434C8923438C89234392
:1013F000CC8923431A430280838B4FF2FF7423402E
:1014000083830B8A038210BD10B504462046FFF784
:10141000A7FF10BD704700000CB5002001900090A0
:101420003448006840F480303249086000BF3148D9
:10143000006800F4003000900198401C0190009872
:1014400018B90198B0F5A04FF1D12A48006800F40E
:10145000003010B10120009001E0002000900098C1
:10146000012846D123484030006840F0805021498F
:10147000403108602048006840F440401E49086040
:101480001C48083000681B4908310860084600689D
:1014900040F4004008600846006840F4A05008602E
:1014A0001648091F0860081F006840F08070091F77
:1014B000086000BF0F48006800F000700028F9D0F5
:1014C00040F205700E4908600A480830006820F0B4
:1014D00003000849083108600846006840F002002F
:1014E000086000BF03480830006800F00C000828BE
:1014F000F8D10CBD0038024000700040085440078D
:10150000003C0240042808D14FF0E021096941F075
:1015100004014FF0E022116107E04FF0E02109697A
:1015200021F004014FF0E022116170477047000084
:1015300010B51548006840F470001349086013485E
:10154000006840F001001149086000200F4908318F
:1015500008600E4800680E4908400C4908600D48B4
:10156000091D0860081F006820F48020091F08601A
:10157000002006490C310860FFF74EFF4FF0006075
:1015800001498039086010BD88ED00E00038024054
:10159000FFFFF6FE1030002410B5FFF7BFFDFEF789
:1015A000EBFEFFF7BBFCFEF76FFF00F091FA4FF484
:1015B000966000F039F900F0F7F94FF4FA6000F0A6
:1015C00033F910BD10B540F225511D4800F04AF81E
:1015D00010B31B4800F000F9C4B21A48008800F4A8
:1015E0000040C8B91748008800F4804060B10A2C58
:1015F00003D000201349088020E01248008840F4FE
:1016000000401049088019E00D2C06D10D480088D3
:1016100040F480400B49088010E00A480088C0F37D
:101620000D0009490C5407480088401C05490880F2
:1016300008460088C72801DD0020088010BD000092
:1016400000100140140000203600002021B18289E2
:1016500042F40052828104E082894DF6FF731A4001
:101660008281704770B502460024002300250020C7
:1016700040F66A16B14200D100BFC1F3421501F035
:101680001F03012606FA03F3012D02D19689334088
:1016900006E0022D02D1168A334001E0968A3340DB
:1016A0000C12012606FA04F41688344013B10CB16A
:1016B000012000E0002070BDF0B5034600240026A4
:1016C0000025002040F66A17B94200D100BF184635
:1016D000C1F3421401F01F06012707FA06F5012C99
:1016E00001D10C3004E0022C01D1103000E01430A4
:1016F0001AB107682F43076002E00768AF4307602D
:10170000F0BD00002DE9FF4705460E460024A14626
:1017100000BFA046B08900B100BF2C8A24F4405419
:10172000F08804432C82AC8941F20C608443B08879
:1017300031890843718908430443AC81AC8A24F49D
:101740004074B0890443AC826846FFF773FC2048BC
:10175000854202D01F48854202D1DDF80C9001E09D
:10176000DDF80890A88900F4004040B109EBC900F9
:1017700000EB091031684900B0FBF1F707E009EB15
:10178000C90000EB091031688900B0FBF1F7642053
:10179000B7FBF0F004012009642101FB1078A8894F
:1017A00000F4004040B1322000EBC800B0FBF1F083
:1017B00000F00700044308E0322000EB0810642129
:1017C000B0FBF1F000F00F0004432C81BDE8FF876F
:1017D000001001400014014001468888C0F3080051
:1017E000704700BFFEE700BF7047000010B5044619
:1017F0006FF00400FFF786FEE11704EB5171C1F3AF
:10180000C701074A11701046007800EB4001C1EB98
:10181000C0104FF6FF7101EAC0000249088010BDF8
:101820000A0000200C00002070B504464FF4077039
:1018300094FBF0F0C6B24FF4077094FBF0F100FB9C
:10184000114085B205E04FF4077000F009F8701EF2
:10185000C6B2002EF7D115B1284600F001F870BDD0
:101860000146114A12884A434FF0E0235A61002290
:101870009A611A46126942F001021A6100BF4FF0E4
:10188000E022106900F001021AB100F48032002A4F
:10189000F5D04FF0E022126922F001024FF0E02370
:1018A0001A6100229A6170470C00002000BF054AAF
:1018B000128802F04002002AF9D0C2B2014B9A808D
:1018C000704700000010014008B54FF4A060FFF71A
:1018D0001BFBA820FFF78AFF4FF4E13000F036F938
:1018E00019A0FEF7C3FC1EA0FEF7C0FCFFF722F90B
:1018F000FFF75AF94EF67D70FFF73AF91DA04EF644
:101900007D734FF47842102100900020FEF73AFFDB
:101910001CA04EF67D731F22202100900020FEF7B0
:1019200031FF1CA04EF67D731F2230210090002055
:10193000FEF728FF07E0FFF72FFE03A0FEF796FC57
:1019400007A0FEF793FCF6E70D0A2053544D3332FF
:1019500046347878BACBD0C4B0E50D0A0000000058
:101960000D0A20B2E2CAD4B3CCD0F2C0FDB3CC0D84
:101970000A00000020202053544D3332463478783A
:101980002000000020D2BABEA7B2E2CAD4B3CCD0A5
:10199000F20000006D63756465762E74616F62619C
:1019A0006F2E636F6D20000008B54EF67D70FFF757
:1019B000DFF843A04EF67D731F220A210090082015
:1019C000FEF7E0FE4FF47A70FFF72EFF4EF67D70C3
:1019D000FFF7CEF84FF4784000237F22194600909D
:1019E0001846FEF7D9FF4FF4784001237F221946AD
:1019F00000900020FEF7D0FF4FF478409F237F2215
:101A0000002100901046FEF7C7FF4FF478409F2357
:101A10007E22002100901046FEF7BEFF4FF4784072
:101A20009F237F22194600900020FEF7B5FF4FF458
:101A300078409E237F22194600900020FEF7ACFFDD
:101A40004FF478409F230022114600901046FEF785
:101A5000A3FF4FF478409F230122002100901046FD
:101A6000FEF79AFF4FF47843322240210846FEF7F2
:101A7000F2FD4FF4FC63282240210846FEF7EBFDFF
:101A80001F231E2240210846FEF7E5FD00204F23BC
:101A90006E22194600900A20FEF77EFF0020502398
:101AA0006E22194600900A20FEF776FF002051238F
:101AB0006E22194600900A20FEF76EFF08BD000056
:101AC000436972636C65CFD4CABEB2E2CAD4000067
:101AD0002DE9F8434EF67D70FFF74AF816A04EF652
:101AE0007D731F220A2100901020FEF74BFE4FF459
:101AF0007A70FFF799FE4EF67D70FFF739F84FF0D8
:101B00000008002414E000250FE0404608F1010819
:101B10000D490E5C404608F101080F5C3046FFF7A6
:101B200079F93846FFF776F96D1C802DEDDB641CE2
:101B3000A02CE8DBBDE8F883CDBCC6ACCFD4CABED0
:101B4000B2E2CAD4000000000C37000810B588B01B
:101B5000044601210846FFF72DFA01211020FFF766
:101B600059FA072209212248FEF74EFD07220A21D1
:101B70001F48FEF749FD4FF4C060069002208DF823
:101B80001C008DF81D0000208DF81E0001208DF82E
:101B90001F0006A91648FEF7EFFC02940020ADF8DE
:101BA0000C00ADF80E00ADF81000ADF814000C20DC
:101BB000ADF8120002A90F48FFF7A4FD01210D485E
:101BC000FFF744FD012240F225510A48FFF774FD5A
:101BD00025208DF8040003208DF805008DF80600FF
:101BE00001208DF8070001A8FFF752F908B010BDD9
:101BF00000000240001001404FF04070E1EE100A7A
:101C0000704700000000000000000000000000001D
:101C10000000001010101010101010100000101014
:101C2000000000006C6C2424000000000100000093
:101C300000000024242424FE48484848FC9090904A
:101C4000900000103C549290503814121292547824
:101C500010000000225C94A8481010242A525488D6
:101C60000000000030484850206E54948C888A74DC
:101C700000000000303010100000000000000000E4
:101C80000000000408101020202020202010100840
:101C90000400008040202010101010101020204060
:101CA000800000000000105438103854100000006C
:101CB000000000000010101010FE101010100000A6
:101CC00000000000000000000000000000001010F4
:101CD000200000000000000000FE000000000000E6
:101CE00000000000000000000000000000001010D4
:101CF00000000000040408081010202040408080EC
:101D000000000000384482828282828282824438CB
:101D10000000000010701010101010101010107C37
:101D2000000000003844828204081020408284FCB5
:101D30000000000038448202043804020282443861
:101D400000000000040C141424244444FE04040E77
:101D500000000000FC808080B8C482020282847887
:101D6000000000003C428280B8C4828282824438F3
:101D7000000000007E4282040408080810101010C1
:101D80000000000038448282443844828282443811
:101D900000000000384482828282463A028244383F
:101DA00000000000000010100000000010100000F3
:101DB00000000000000010100000000000101020C3
:101DC0000000000000000618608060180600000097
:101DD0000000000000000000FE0000FE0000000007
:101DE000000000000000C0300C020C30C0000000F9
:101DF0000000003844828202040810101000101005
:101E0000000000003844829AAAAAAAAAAA96804290
:101E10003C00000010101028282844447C4444EE64
:101E200000000000FC424242427C4242424242FCEC
:101E3000000000003C4482808080808082824438A0
:101E400000000000F844424242424242424244F80A
:101E500000000000FC444240447C4440404244FCBA
:101E600000000000FC444240447C4440404040F0BC
:101E700000000000344C828080808E8484844C3446
:101E800000000000EE444444447C4444444444EE96
:101E9000000000007C101010101010101010107CAA
:101EA000000000003E080808080808080888887034
:101EB00000000000EE44484850605048484444EE5A
:101EC00000000000E040404040404040404244FCB0
:101ED00000000000C6446C6C6C545454444444EEFE
:101EE00000000000CE4464646454544C4C4C44E400
:101EF00000000000384482828282828282824438DA
:101F000000000000F844424242447840404040E033
:101F100000000000384482828282828282BA443C7D
:101F200002000000F048444444487048444444E6F9
:101F3000000000003C44828040300C020282447861
:101F4000000000007C549210101010101010103877
:101F500000000000EE4444444444444444444438B3
:101F600000000000EE4444444428282828101010A3
:101F700000000000EE445454545454542828282897
:101F800000000000EE44442828101028284444EEA5
:101F900000000000EE4444282828101010101038CB
:101FA000000000007E44840808102020408284FC49
:101FB0000000001C10101010101010101010101045
:101FC0001C000000EE445454FE5454542828282881
:101FD00000000070101010101010101010101010D1
:101FE0007000003048840000000000000000000085
:101FF00000000000000000000000000000000000E1
:10200000FE00004020000000000000000000000072
:1020100000000000000000007884047C84848C763A
:1020200000000000C04040405864424242426458B0
:1020300000000000000000003844808080804438A8
:10204000000000000C040404344C848484844C3666
:102050000000000000000000788484FC8080847808
:102060000000000018242020F820202020202070CC
:1020700000000000000000003A444478807C828226
:102080007C000000C040404058644444444444EE56
:102090000000000010100000301010101010103858
:1020A00000000000101000003010101010101090F0
:1020B00060000000C04040405C485060504844EE22
:1020C0000000000030101010101110101010103906
:1020D0000000000000000000ACD29292929292D6D2
:1020E000000000000000000058E44444444444EE72
:1020F00000000000000000003844828282824438E0
:102100000000000000000000D864424242645840D1
:10211000E000000000000000364C8484844C34044D
:102120000E000000000000006C30202020202070F5
:102130000000000000000000788884601884447863
:102140000000000000202020F8202020202024185B
:102150000000000000000000C64242424242463AEF
:102160000000000000000000EE4444282828101061
:102170000000000000000000EE44445454282828C9
:102180000000000000000000EE442810102844EE7B
:102190000000000000000000EE444428281010A0B9
:1021A000C0000000000000007E448810204284FC33
:1021B0000000000C10101010106010101010101003
:1021C0000C00001010101010101010101010101033
:1021D000100000C0202020202018202020202020B7
:1021E000C00000000000000000728C000000000031
:1021F00000000000000000001FE000003FF00000B1
:102200003FF000001FE0000180060003C00F000344
:10221000C00F0003C00F0003C00F0003C00F000376
:10222000C00F0003C00F0003C00F00030003000035
:102230000000000000000000000000030003000395
:10224000C00F0003C00F0003C00F0003C00F000346
:10225000C00F0003C00F0003C00F0003C00F000138
:10226000800600001FE000003FF000003FF000008B
:102270001FE00000000000000000000000800000DF
:10228000018000000380000007800000078000003C
:102290000780000007800000078000000780000022
:1022A0000780000007800000078000000180000018
:1022B000000000000000000000000000018000009D
:1022C00007800000078000000780000007800000F2
:1022D00007800000078000000780000007800000E2
:1022E00007800000038000000180000000800000E3
:1022F00000000000000000001FE000003FF00000B0
:10230000FFF00001FFE0000000060000000F0000E9
:10231000000F0000000F0000000F0000000F000081
:10232000000F0000000F0000000F00001FE300007E
:102330007FF800007FF800001FE0000300000003AA
:10234000C0000003C0000003C0000003C000000381
:10235000C0000003C0000003C0000003C000000173
:10236000800000001FF000003FF800003FFC00006C
:102370001FFE000000000003FF800001FFC00000FE
:10238000FFC000007F80000000180000003C00003B
:10239000003C0000003C0000003C0000003C00004D
:1023A000003C0000003C0000003C00007F8C00016D
:1023B000FFE00001FFF000007F800000000C000043
:1023C000003C0000003C0000003C0000003C00001D
:1023D000003C0000003C0000003C0000003C00000D
:1023E000001800007F800000FFC00001FFC0000354
:1023F000FF80000000000000000000020001000358
:102400000003000380070003C00F0003C00F000398
:10241000C00F0003C00F0003C00F0003C00F000374
:10242000C00F0003C00F0003C00F00031FE3000034
:102430007FF800007FFC00001FE0000000030000A8
:10244000000F0000000F0000000F0000000F000050
:10245000000F0000000F0000000F0000000F000040
:10246000000F000000070000000300000001000052
:1024700000000000000000001FFC00003FF800000A
:102480003FF000001FE0000180000003C0000003D7
:10249000C0000003C0000003C0000003C000000330
:1024A000C0000003C0000003C00000031FE00000E4
:1024B0007FF800007FF800001FE00000000300002C
:1024C000000F0000000F0000000F0000000F0000D0
:1024D000000F0000000F0000000F0000000F0000C0
:1024E000000600003FE000007FF00000FFF0000168
:1024F000FFE00000000000001FFC00003FF80000AB
:102500003FF000001FE0000180000003C000000356
:10251000C0000003C0000003C0000003C0000003AF
:10252000C0000003C0000003C00000031FE0000063
:102530007FF800007FFC00001FE0000300030003A1
:10254000C00F0003C00F0003C00F0003C00F000343
:10255000C00F0003C00F0003C00F0003C00F000135
:10256000800600001FE000003FF000003FF0000088
:102570001FE0000000000007FFE00003FFC00001B3
:10258000FF880000FF1800000038000000780000FD
:10259000007800000078000000780000007800005B
:1025A00000780000007800000078000000180000AB
:1025B0000000000000000000000000000018000003
:1025C000007800000078000000780000007800002B
:1025D000007800000078000000780000007800001B
:1025E000007800000038000000180000000800001B
:1025F00000000000000000001FE000003FF00000AD
:102600003FF000001FE0000180060003C00F000340
:10261000C00F0003C00F0003C00F0003C00F000372
:10262000C00F0003C00F0003C00F00031FE3000032
:102630007FF800007FFC00001FE0000300030003A0
:10264000C00F0003C00F0003C00F0003C00F000342
:10265000C00F0003C00F0003C00F0003C00F000134
:10266000800600001FE000003FF000003FF0000087
:102670001FE00000000000001FE000003FF000002D
:102680003FF000001FE0000180060003C00F0003C0
:10269000C00F0003C00F0003C00F0003C00F0003F2
:1026A000C00F0003C00F0003C00F00031FE30000B2
:1026B0007FF800007FFC00001FE000000003000026
:1026C000000F0000000F0000000F0000000F0000CE
:1026D000000F0000000F0000000F0000000F0000BE
:1026E000000600001FE000003FF000007FF0000047
:1026F000FFE00000000000000000000000000000FB
:1027000000000000000000000000000000000000C9
:1027100000000000000000000000000000000000B9
:1027200000000000000000000000000000000000A9
:102730000000000000000000000000000000000099
:102740000000000000000000780000007800000099
:102750007800000078000000780000007800000099
:102760000000000000000000000000000000000069
:102770000000000000000000000000000000000059
:102780000000000000000000000000000000000049
:1027900000000000070000000F8000000F80000014
:1027A0000F80000007000000000000000000000093
:1027B0000000000000000000000000000000000019
:1027C000070000000F8000000F8000000F80000055
:1027D00007000000000000000000000000000000F2
:1027E00000000000000000000000000000000000E9
:1027F00000000000000000000000000000000000D9
:1028000000000007C006000FE0060000000C0030CA
:102810001818003018180030183000301830003008
:102820001860003008C00007C0C0000FE080000042
:1028300000000000000FE0000607C000063018008E
:102840000C3018000C301800183018003030180008
:102850003030180060000000C00FE000C007C0006A
:102860000000000000000000000000000000000068
:102870000000000000000000000000000000000058
:1028800000000000000000000000000700E0000859
:1028900087FC00088E03000898018007180080005C
:1028A00030000000300000007000000060000000F8
:1028B0006000000060000000600000006000000098
:1028C0007000000030000000300000003800000000
:1028D000180100000C03000007FC000001F00000DC
:1028E00000000000000000000000000000000000E8
:1028F00000000000000000000000000000000000D8
:1029000000000000000000000000000000000000C7
:1029100000000000000000000000000000000000B7
:1029200000000000000000000000000000000000A7
:102930003FF000007FF000007FE00000FFC00000DB
:102940000000000000000000000000000000000087
:102950000000000000000000000000000000000077
:102960000000000000000000000000000000000067
:1029700000000000B5E70200020002007FF04210F4
:1029800042107FF0421042107FF04200020802081D
:1029900001F800000000D7D37FF000200040008045
:1029A00001000200FFF80200020002000200020023
:1029B00002000E0000000000C8AB01000100028010
:1029C0000440082010102FE8C106010001001FF08C
:1029D0000100010001007FFC0000B6AF0040004094
:1029E0007C40004001FC0044FE44204420442084FC
:1029F00048844484FD04450402280410BCBC102013
:102A00001020102013FEFC201020102015FC18842C
:102A10003088D04810501020105051882606CAF532
:102A200001000120011001107FFC038005400540DA
:102A300009201110210841040102010001000100D8
:102A4000D2BA0080404027F81140014082784248C5
:102A500016A81AD02350222042204250028800009B
:102A60000000BEA73FE020203FE020203FE0000024
:102A7000FDF885088508FDF885088508FDF88508B6
:102A800000000000B2E200084F8828880AA88AA83F
:102A90004AA80AA82AA82AA842284508848888881B
:102AA000103800000000CAD44050204820400FF8E1
:102AB0000040E04027402240224022202A2833A81C
:102AC0002E18000800000000B3CC00001BF0E2103C
:102AD000221023F0F800200033F068806080A3F01B
:102AE0002080208027F800000000D0F202000100C2
:102AF0003FF820002FF02020224021803FF820883E
:102B0000209040804080838000000000D1D52000CC
:102B100010F87E20444028F87E8848A850A864A871
:102B200048A872A884501888610800000000C9AB4A
:102B3000100010003FE0404080807FF042104210C3
:102B400042107FF04000400840083FF800000000BD
:102B5000CCEE20802FF8208027F0F41027F02410EE
:102B600027F0241027F03410CFF8022004100000C2
:102B70000000B3E404000200FFF808001040202029
:102B80007FF0089008800880088010882088C0782E
:102B900000000000CEC4040002000200FFF8104054
:102BA00010400880088005000200050008803060A1
:102BB000C01800000000D7D604000200FFF880080B
:102BC00080083FC0008001000200FFF80200020000
:102BD00002000E0000000000CFD43FE020202020A3
:102BE0003FE0202020203FE008804890289028A047
:102BF00008800880FFF800000000CABE00003FE027
:102C0000000000000000FFF8020012401220221015
:102C10004208820802000E0000000000CDBC7FF8D0
:102C20004008440847C84848548843084CC873388B
:102C300040884C08430840887FF800000000C6AC7C
:102C400000802080208020803FF020002000200095
:102C50003FC0204020402040404080400000000015
:102C6000B4A520403840484091F07D505550555013
:102C70007D5055F054407C40545057F88C0800006B
:102C80000000C3FE2220222027F8FA2027F024107B
:102C900027F03410E7F020802FF821402220EC1894
:102CA00000000000CAE440804140F22044108BE85C
:102CB000A000F78824A827A834A8E7A824A8248877
:102CC00025B800000000C8EB080004000400020062
:102CD00002000500050008800880104010402020F8
:102CE0004010800800000000C8AB02000200050090
:102CF000088010402020DFD8020002001FC0020020
:102D000002000200FFF800000000B3CC00001BF03E
:102D1000E210221023F0F800200033F06880608079
:102D2000A3F02080208027F800000000BCBC208099
:102D300020802080F7F02080208027E03220E220D1
:102D40002140208021402220EC1800000000CAF51C
:102D50000200024002200200FFF807000A800A80F9
:102D600012402220421082080200020000000000EF
:102D7000D6A702000200FFF8020002007FE0102048
:102D80001040088005000200050018C0E03800006F
:102D90000000B3D62080208023F0F880208027F820
:102DA00028203020E7F82020222021202020E0E0E9
:102DB00000000000D7A8020002007FF00400040019
:102DC000FFF8080010003FE0002000401C800300D6
:102DD000008000000000D7A201004080200017F012
:102DE000008080804080008017F01080208020804C
:102DF00040804FF800000000C5FA204024402440E5
:102E0000F4482450276024403440E44024402440C7
:102E100025482648E43800000000B7A2020022201E
:102E2000221044007FF8040008000FE01420244022
:102E30004280810006C0383800000000B3C900A0FD
:102E4000009000807FF8408040907C90449044A0A7
:102E500044A0444858A84118820800000000B9A6C0
:102E600001000100F90023F0211021102110211090
:102E700021103910C2100210041008600000000078
:102E8000D2C60000002000780CE4790451681030AC
:102E90007E6019981A3C2FE448E40838003000603E
:102EA0000000D1A100000120012003FC6220342099
:102EB000042003FC240021B021202220323E1800EF
:102EC0000FE00000D4F10000000010FC1304110C0E
:102ED0003DF8703E10D015907CF0503E18101BFE4F
:102EE000023000200000CFEE0000000003FE006072
:102EF0007C4012FC11041106113611241F44794440
:102F000000C0009C01860000C4BF000000000FE06C
:102F10003C18200820043E04600460047E04600421
:102F2000200C20081FF001800000B6CC0000080033
:102F300011FC103E3EF82D8C2904490409043E8CF6
:102F400050FC10881EC811FC100E0000B0B4000028
:102F50000040006012FE13023A427F4410C41BFE80
:102F60003C987190113011A00078004C0000C8B757
:102F70000000004000F878C41F8C313821EC212675
:102F8000413A7DE2272225FA3D2601240104000072
:102F9000B6A80000010001705FFC700420042FF847
:102FA00001001100113821C431003F0063E04038B6
:102FB0000000B3A4000000000818086008C00B005F
:102FC0001E00181C7FF01000118010E01838098EC8
:102FD0000F000000B0B400000040006012FE1302B9
:102FE0003A427F4410C41BFE3C987190113011A0EE
:102FF0000078004C0000B7B50000000007F806009C
:10300000240014F8078C04042408261825F0647C96
:1030100064C220801FC00000BBD8000000001FF069
:1030200030182008278C2C44284428442CC427849A
:103030002004300C1FF803800000C7B601002108EF
:1030400021083FF800202220223EFF422294221035
:103050003E10221022283E2822440082CABD004889
:10306000004400440040FFFE004000403E40084055
:103070000840082008220F12780A20060002BFAA82
:1030800000007FFC08200820082008200820FFFE00
:103090000820082008200820102010202020402090
:1030A000B7A201001110110822003FFC0200040029
:1030B00007F80A080908111010A0204040A00318C2
:1030C0001C06CDF800007FFC4004400442145294DA
:1030D0004A54442444244A544A54529461044004B7
:1030E00040144008D6D001000100010001003FF863
:1030F000210821082108210821083FF821080100A2
:10310000010001000100CEC4020001000100FFFE29
:1031100010101010082008200440028001000280D6
:10312000044008203018C006B2E2000427C414444A
:103130001454855445544554155415542554E55498
:1031400021042284224424140808CAD400282024FC
:103150001024102007FE0020F02017E0112011108D
:103160001110151019CA170A02060002000000000B
:10317000000000000000000000000000000000004F
:103180000000000000000000000000000000B4BFCC
:10319000000000000000020100063FC00C3FE018E4
:1031A00003001002003336603726203E66301C6470
:1031B0003018642031FEE03F1FC01C0C00000C00E2
:1031C0000704003E07F00001C000000000000000FE
:1031D0000000000000000000C9AB0000000000007B
:1031E00001FE0003E3000703000C03001C3F003B4B
:1031F000FFC03F30600C30200C30200C10200C1031
:10320000600FFFC0083F000800000800600E3FE0AC
:1032100007FC0000000000000000000000000000AB
:103220000000CCEE00000000000000030000FFE002
:103230000C07F00C06000CFF803FF0E01FC0600C94
:10324000FE300CCC3004F83004FF2004C0201FFEF8
:10325000603EC06001FFF001FFF0006060004000D0
:10326000000000000000000000000000B3E40000C7
:103270000000000000200000300007FFF03FFFE0EA
:103280000300000601800C01800801C01807E00F50
:10329000FE7007E0000206000604000404000404B7
:1032A000000C06700C07E0000000000000000000A9
:1032B000000000000000B2E200000000000000007A
:1032C0003039FC301FCC300706B00F06F01907B0BC
:1032D0003137B03136F01F27F00167F001E5F0011A
:1032E000E1F00041F00CF8B03CD830008C300080A8
:1032F000300000000000000000000000000000009E
:10330000CAD40000000000000803600C03700C0326
:1033100030003FE0003F800801003C0180047F80D6
:10332000047D800C00800C10C00C10C00C18400CE8
:103330001C600F7E6006703000003000000000004E
:1033400000000000000000000000CEC400000000EB
:10335000C00000E00000700001FFE01FFFC0180186
:1033600000000300000600000E00001C000E180004
:1033700007300001E00000F00000FC00018F0003B6
:1033800003C00201E0000000000000000000000097
:1033900000000000D7D60000000000000020000060
:1033A0003F0031FFE03FC02038003030FE2033C600
:1033B00060100200000C00001800001800000C0053
:1033C00007FFE03FFFE0000400000C00000C0000DD
:1033D0000000000000000000000000000000CFD44A
:1033E00000000000000007FF000F03C00C00401F9A
:1033F000F8601800600800400E01C007FF000000E0
:10340000000184000184001987800F8CE0078C2064
:1034100000CC0003FFE01FFFC00000000000000020
:103420000000000000000000CABE00000000000014
:103430000E00001FFFC0007FE00000000000000041
:103440000000000000003FC03FFFE00030000030FF
:10345000000030000613000C13C00C18F018180000
:10346000181800000000000000000000000000002C
:103470000000CDBC00000000000007FF000F03802B
:103480001CC0C019FC6011C66033062033E630361C
:10349000FF30301FF030703030FC30339F3036005A
:1034A0002010E060187C400E01C003FF00003800CF
:1034B000000000000000000000000000C6AC00009A
:1034C000000000000818001808001808001808007C
:1034D000180C201FFFF01FF800180000100000104B
:1034E000F8001FFE001E030010030010030010036D
:1034F000001003001802000000000000000000009F
:10350000000000000000CFD400000000000007FF12
:10351000000F03C00C00401FF86018006008004056
:103520000E01C007FF0000000001840001840019A3
:1035300087800F8CE0078C2000CC0003FFE01FFF8A
:10354000C0000000000000000000000000000000BB
:10355000CABE0000000000000E00001FFFC0007F78
:10356000E0000000000000000000000000003FC07C
:103570003FFFE00030000030000030000613000C78
:1035800013C00C18F01818001818000000000000F4
:1035900000000000000000000000B4A500000000D2
:1035A00000000601800FC1801E6180304FC020CF17
:1035B000E0078D303FC9303379303379303FFB300D
:1035C00037FF203267E03FE3803FE3C03263603281
:1035D00067F0304FB0000000000000000000000065
:1035E00000000000C3FE0000000000000030C0002A
:1035F000FFF00C79C00C1F800C7FE03FE0600CC036
:10360000300CFC3004C03007C0301E60603C3FC04E
:10361000041C00047FE000FFE00030C00060600098
:103620000000000000000000000000000000CAE4EC
:103630000000000000000C03800C0FC0081C703F4D
:1036400070001F9FC0101FC0100000367C3017E6AE
:10365000301FE3B0067FB00277F007E3F03F7FF062
:103660001336F0032630032630000000000000006F
:103670000000000000000000C8EB00000000000097
:1036800006000003800001C00000E00000700000A0
:10369000780000CC0000C600018300030180070011
:1036A000C00600E00C007018003018000030000068
:1036B000000000000000000000000000000000000A
:1036C00000000000000000000000000000000000FA
:1036D00000000000000000000000000000000000EA
:1036E00000000000000000000000000000000000DA
:105F30000000000000000000000000000020080039
:105F400000000020000008000020002008000020C1
:105F500000820905126A0C300D350D1605760BEF1F
:105F600008E40000002000000000002000000801FC
:105F700000010020000000000020000000000000E0
:105F80000000000000000000000000000000080009
:105F90000001002000000001080000000081002036
:105FA0000000080000400020004000000000000049
:105FB00000000000000000000000000000000000E1
:105FC00000000000000000000000000000000000D1
:105FD00000000000000000000000000000000000C1
:105FE00000000000000000000000000000000000B1
:105FF00000000000000000000000000000000000A1
:106000000000000000000000000000000000000090
:106010000000000000000000000000000000000080
:106020000000000000000000000000000000000070
:106030000000000000000000000000000000000060
:1060400000000020000000000060000000C5255591
:106050001FFD079D17BE17FF07FF07FF07FE17FF6E
:106060001FFE1CB310C50000000008000000002047
:1060700000200801000000000800002100000000CE
:1060800000000000000000000000000000020820E6
:106090000800000100200206253416191F1B26DB0C
:1060A00005D81DFA171B1E3709A6002000000000A6
:1060B00000000000000000000000000000000000E0
:1060C00000000000000000000000000000000000D0
:1060D00000000000000000000000000000000000C0
:1060E00000000000000000000000000000000000B0
:1060F00000000000000000000000000000000000A0
:10610000000000000000000000000000000000008F
:10611000000000000000000000000000000000007F
:10612000000000000000000000000000000000006F
:10613000000000000000000000000000000000005F
:10614000002000000000004008000A8B1F9D0FFF88
:1061500007FF07BF17FF07FF07DF0FFF07DF07FF77
:1061600007FF07DF07FE15D611C800210000082031
:10617000000000000000000000010000000000001E
:106180000000000000000000000000000000080007
:106190000000084111A917FF1DB60B4B0249124A16
:1061A00002CA0ACA0A6912AA0063000100000000BC
:1061B00000000000000000000000000000000000DF
:1061C00000000000000000000000000000000000CF
:1061D00000000000000000000000000000000000BF
:1061E00000000000000000000000000000000000AF
:1061F000000000000000000000000000000000009F
:10620000000000000000000000000000000000008E
:10621000000000000000000000000000000000007E
:10622000000000000000000000000000000000006E
:10623000000000000000000000000000000000005E
:1062400000000001082000000105275C07FF07DFB0
:1062500007FF07FF07FE07FE07FF0F9F07FF07FF68
:1062600007FF0FDF07BF07FF077B1BD010000020D1
:1062700000200020000000010020080000000000B5
:1062800000000000000000000000000000000020EE
:10629000002008002D971D9700000000000000203E
:1062A00000000000002000000000002000000000AE
:1062B00000000000000000000000000000000000DE
:1062C00000000000000000000000000000000000CE
:1062D00000000000000000000000000000000000BE
:1062E00000000000000000000000000000000000AE
:1062F000000000000000000000000000000000009E
:10630000000000000000000000000000000000008D
:10631000000000000000000000000000000000007D
:10632000000000000000000000000000000000006D
:106330000000000000000000000000000020080035
:1063400008000000000010831E5807FF079F07FF8A
:1063500007FF0FFF0FFF07DF07DF07FF0FDE07FF56
:1063600007FF0FDF07FF07FF0FFF0FDF26180905E5
:10637000000000000001006100000020000000009B
:106380000000000000000000000000000800000104
:10639000080000000D3325F8000000000000002078
:1063A0000020002000200000080000000000000085
:1063B00000000000000000000000000000000000DD
:1063C00000000000000000000000000000000000CD
:1063D00000000000000000000000000000000000BD
:1063E00000000000000000000000000000000000AD
:1063F000000000000000000000000000000000009D
:10640000000000000000000000000000000000008C
:10641000000000000000000000000000000000007C
:10642000000000000000000000000000000000006C
:106430000000000000000000000000000000080054
:106440000000000000410B0C0FFE07FF07FE07FFD6
:1064500007FF07DF07FF07FF07DF07FF07FF07DF6C
:1064600007FF07BF07DF07FF07FF07FF07DF1F1B48
:10647000328B000000200801002000000000000016
:1064800000000000000000000000000000200000EC
:106490000063002011870F3C1CD40A6909460822BA
:1064A00000821063000100C30000004000000000F3
:1064B00000000000000000000000000000000000DC
:1064C00000000000000000000000000000000000CC
:1064D00000000000000000000000000000000000BC
:1064E00000000000000000000000000000000000AC
:1064F000000000000000000000000000000000009C
:10650000000000000000000000000000000000008B
:10651000000000000000000000000000000000007B
:10652000000000000000000000000000000000006B
:10653000000000000000000000000000000000005B
:106540000020100000200D5407DF07DF07FD07DEE5
:1065500007FF07FF07DF0FDF07FF07FF07DF07DF83
:106560000FFF07FF07DF07FF07FF0FDE0FFF07FF24
:106570000FFD1B4D00000021000100000000000085
:1065800000000000000000000000000000010060AA
:1065900000010800008015341FFF07DE1F3A16B9FE
:1065A0000E391E3A16FB1E160904000000000000FA
:1065B00000000000000000000000000000000000DB
:1065C00000000000000000000000000000000000CB
:1065D00000000000000000000000000000000000BB
:1065E00000000000000000000000000000000000AB
:1065F000000000000000000000000000000000009B
:10660000000000000000000000000000000000008A
:10661000000000000000000000000000000000007A
:10662000000000000000000000000000000000006A
:106630000000000000000000000000000000000159
:10664000000000200000157607DF0FFE07FF07FFA0
:1066500007FF07FF07FF07FF07FF07FF0FDF0FFF1A
:1066600007BF07FF07FF0FBF07FF07FF07FE07FF73
:106670000FDF1FFF14710000080008010000000078
:10668000000000000000000000000000000000000A
:106690000800080013AD0FFF15B7092501040124F8
:1066A00011450904016501040021000000000000FB
:1066B00000000000000000000000000000000000DA
:1066C00000000000000000000000000000000000CA
:1066D00000000000000000000000000000000000BA
:1066E00000000000000000000000000000000000AA
:1066F000000000000000000000000000000000009A
:106700000000000000000000000000000000000089
:106710000000000000000000000000000000000079
:106720000000000000000000000000000000000069
:106730000000000000000000000000000040080110
:106740000000004000001C7217FF07DF07FF07FF73
:1067500007DF07FF07FF07FF07FF07FF07FF07FF29
:1067600007FF07FF07FF07FF07FF07FF07FF07FFF9
:1067700007BF07FF17BE1390000100400002004052
:10678000000000010020002000010001004008017D
:10679000000010001FDD047208000000000100006E
:1067A0000020000000000001004100000000000087
:1067B00000000000000000000000000000000000D9
:1067C00000000000000000000000080000200000A1
:1067D0000000004000000800080000200000000049
:1067E00000000000000000000000000000000000A9
:1067F0000000000000000000000000000000000099
:106800000000000000000000000000000000000088
:106810000000000000000000000000000000000078
:106820000000000000000000000000000000000068
:106830000000000000000000000000000000000058
:106840001000000000000208177C07FF07FD07FE8C
:1068500007FF07FF07DF0FFF07FF07FE07FF07FF21
:1068600007FF07FF07FF07FF07FF07FF07DF0FDF30
:1068700007FF07FF0FFF1FBD0C0F00010000000006
:106880000020000000000041000008000020080077
:106890000021002113AE26FB016608000000002144
:1068A00000201000000000000000000000000000B8
:1068B00000000000000000000000000000000020B8
:1068C0000000000000000000002000200000004147
:1068D0000000000000000020000000000020002058
:1068E00000000000000000000000000000000000A8
:1068F0000000000000000000000000000000000098
:106900000000000000000000000000000000000087
:106910000000000000000000000000000000000077
:106920000000000000000000000000000000000067
:106930000000000000000000000000000000004017
:1069400000000000080000001CF407FF07FF07FF1D
:1069500007FF07FF07DF07FF0FFF07FF07FF07FF1F
:1069600007FF07FF07FF07FF07FF07FF07FF0FDF0F
:106970000FFF07FF079F0FFF0F7C1411000000009F
:1069800008000000000008010020000000000800CE
:106990000041000018E53EFD07FE2516134D1B6E55
:1069A0001BCF13AD138D1BEF01040000000000008E
:1069B00000000000000000000000000000000020B7
:1069C000000000000000002000200000080000007F
:1069D0000000080008000000000000220000000085
:1069E00000000000000000000000000000000000A7
:1069F0000000000000000000000000000000000097
:106A00000000000000000000000000000000000086
:106A10000000000000000000000000000000000076
:106A20000000000000000000000000000000000066
:106A30000000000000000000000000000800080046
:106A400000000000000000000A4A1F1C0FFF07DFC3
:106A500007DF07FF0FFF07FF07FF07DF07FF07FF3E
:106A600007FF07FF07FF07FF07FF07FF07FF07DF16
:106A700007FF0FFF07DF07DF0FFF07FF130C0020E3
:106A800008000801000008000000002000000000CD
:106A90000040002029C72C91148F1CB21CD41CB2BA
:106AA0003C11149225351D9501A80023000000001B
:106AB00000000000000000000000000000000000D6
:106AC000000008000000002000001000004000004E
:106AD0000000000000210000000000000000000095
:106AE00000000000000000000000000000000000A6
:106AF0000000000000000000000000000000000096
:106B00000000000000000000000000000000000085
:106B10000000000000000000000000000000000075
:106B20000000000000000000000000000000000065
:106B30000000000000000000000000000020002114
:106B4000002000200000000100010A071E9A1FDF3C
:106B500007FF07DF07DF07FF07FF07FF07FF07FF45
:106B600007FF07FF07FF07FF07FF07FF0FFF07DF0D
:106B700007DF0FFF07FF07FF07DF07FF179E01E88B
:106B8000002100010000002008000020000000009B
:106B9000002000200000002309450B8E0D5414F244
:106BA00013AE0B0C00620020086008020000000019
:106BB00000000000000000000000000000000000D5
:106BC0000000000000000000000000A20000002102
:106BD000000000000800000000000000002000206D
:106BE0000020002000000000000000000000000065
:106BF0000000000000000000000000000000000095
:106C00000000000000000000000000000000000084
:106C10000000000000000000000000000000000074
:106C20000000000000000000000000000000000064
:106C3000000000000000000000000000000008014B
:106C4000000000000020000100000000004114B21C
:106C50000FFE07FF07FF0FFF07FF07FE07FF07FFF6
:106C600007FF07FF07FF07FF07FF07FF07DF07FF14
:106C700007FF07FF07FF07FF07DF0FDF07DF1F7DA6
:106C8000132C0800000000000001000008010000B3
:106C90000001002000C30D571FDF16DB0D960C729C
:106CA0001596177D273B0227000000010000000019
:106CB000000000000000000000000000006008006C
:106CC00008000040002010000061248F2555018835
:106CD0000801002000400000102100010800000011
:106CE0000000000000000020000000000000000084
:106CF0000000000000000000000000000000000094
:106D00000000000000000000000000000000000083
:106D10000000000000000000000000000000000073
:106D20000000000000000000000000000000000063
:106D30000000000000000000000000000000000053
:106D400000000000000000000800000008A31CD2A2
:106D50000FFE07FF07FF07FF07FF0FFF07FF07FFF4
:106D600007FF07FF07FF07FF07FF07FF07FF0FFFEB
:106D700007FF07FF07FF0FBE07DF07FF1FFF177D96
:106D800001E70000002008000020000000000020B3
:106D900000010820130C27FE1AAA08200800004052
:106DA000000000642DD81F9D01A80800000000000D
:106DB00000000000000000000000000000200800AB
:106DC0000800002000201000002002261F9D17BC94
:106DD0000E570BAE11A70061000008000001000172
:106DE00000010000000000000000000000000000A2
:106DF0000000000000000000000000000000000093
:106E00000000000000000000000000000000000082
:106E10000000000000000000000000000000000072
:106E20000000000000000000000000000000000062
:106E30000000000000000000000000000020000032
:106E4000004008000800002000000A292F7D0FFFE5
:106E500007FF07DF0FFE07FE07DF07FF07FF07FF3C
:106E600007FF07FF07FF07FF07FF07FF07FF07FFF2
:106E700007DF07FF07FF07FF07FF17FF07FE120ADD
:106E80000801002100000020080000200020080266
:106E900000000020157624D408000000000108023C
:106EA0000000004000010F7B02EC00000000000029
:106EB00000000000000000000000000000000000D2
:106EC000000000000000000000000801006109252A
:106ED0001B4E2DB726FB16DA15951C50032B0B0BFA
:106EE0000A690145004100000000080000000000A0
:106EF0000000000000000000000000000000000092
:106F00000000000000000000000000000000000081
:106F10000000000000000000000000000000000071
:106F20000000000000000000000000000000000061
:106F30000000000000000000000000000800002029
:106F4000000000000020080009A7177E07FF07FFC8
:106F500007FF07FF07FF07FF07FF07FF07FF07FF01
:106F600007FF07FF07FF07FF07FF07FF07FF07DF11
:106F700007FE0FDF07BF07FF07FD0F5D1944004045
:106F80000000000000000000000000000000000001
:106F90000041000014D22636002000010800004005
:106FA0000000000001842F5F016500000000002048
:106FB00000200800080000000000000000000000A1
:106FC00000000000000000000000000000000800B9
:106FD0000000000000C302080BEF25751FBE1F1D37
:106FE0002FDF1FBE053402AB09A60103000000001D
:106FF00000400801002100610000000100000000C5
:107000000000000000000000000000000000000080
:107010000000000000000000000000000000000070
:107020000000000000000000000000000000000060
:107030000000000000000000000000000000000050
:1070400000200000002008421DF50FFF07FF07FF8A
:1070500007FF07FF07FF07FF07FF07FF07FF07FF00
:1070600007FF07FF07FF07FF07FF07FF0FDF07FE09
:1070700007FF07DF07FF07FF07FF1ACB00610000CC
:1070800000000000000000000000000000000060A0
:107090000000000010E62F9D0B6D08200001080085
:1070A000000020C7163905B71000000008010000D5
:1070B00000000020000000000000000000000000B0
:1070C0000000000000000000000000000020002080
:1070D000002000000000000000000062006200824A
:1070E000010512EC1D141E1826BC1FBF163B1C32D6
:1070F000138D014410000800000000000000000093
:10710000000000000000000000000000000000007F
:10711000000000000000000000000000000000006F
:10712000000000000000000000000000000000005F
:10713000000000000000000000000000002000002F
:1071400000000000002001C827FF07FF07FF07FF1E
:1071500007FF07FF07FF07FF07FF07FF07FF07FFFF
:1071600007FF07FF07FF07FF07FF07FF0FDE07FF08
:1071700007FF0FFF07FF0FDF1410000000000000E3
:1071800000000000000000000000000000010800F6
:10719000000008611986271D0FFF1EDA25791617D2
:1071A00016782F9D0FFF167A1DB625F83DF512496A
:1071B0000001080000200020000000000000000086
:1071C00000000000000000000000000000000000BF
:1071D000000000000020000000000000000000206F
:1071E000004000000800000000E309E70C101699B9
:1071F0000EDB2EDC15F61D520923000000000000F6
:10720000000000000000000000000000000000007E
:10721000000000000000000000000000000000006E
:10722000000000000000000000000000000000005E
:10723000000000000000000000000000002000002E
:10724000000000000000141117BF07DE07FF07FF52
:1072500007FF07FF07FF07FF07FF07FF07FF07FFFE
:1072600007FF07FF07FF07FF07FF07FF07FF07FFEE
:1072700007FF07DF07FF14100800000000000000F0
:1072800000000000000000000020000000000020BE
:107290000041080019230AA909C80AED036D0B4B28
:1072A0000CF30AAB0964232B04B413700B0B010419
:1072B0000000080000000000082008000000000096
:1072C00000000000000000000000000008000800AE
:1072D000000000000000000000000021002000006D
:1072E0000000000008000000002000000000002056
:1072F000002000200AEE17FF2639080200000000D7
:10730000000000000000000000000000000000007D
:10731000000000000000000000000000000000006D
:10732000000000000000000000000000000000005D
:107330000000000000000000000000000000080045
:107340000020000000002CF417FF07DF07FF07FFF5
:1073500007FF07FF07FF07FF07FF07FF07FF07FFFD
:1073600007FF07FF07FF07FF07FF07FF0FBF0FFF1D
:1073700007DF0FFF24F200000800080000000000F3
:10738000000000000000000000000000002000409D
:1073900000000020080000010AC916152597259451
:1073A0001E9C05F8020900000001002000010000F9
:1073B000000000200020002000000000000000006D
:1073C00000000000000000000000000000000000BD
:1073D000000000000000000000000000000000208D
:1073E00000000000006100000000004008000801EB
:1073F00000E41C7116BB1FFF1BD100200000000021
:10740000000000000000000000000000000000007C
:10741000000000000000000000000000000000006C
:10742000000000000000000000000000000000005C
:10743000000000000000000000000000000000004C
:107440000000082000000A8B07FF07FF07FF07FF67
:1074500007FF07FF07FF07FF07FF07FF07FF07FFFC
:1074600007FF07FF07FF07FF07FF07FF07FF07FFEC
:1074700017DF136F00000020000000200000000054
:1074800000000000000000000000000000000000FC
:1074900008000800006115B8277E24121A4919E671
:1074A0000AAA1DB637FF2BAF000000000020002005
:1074B0000020000000000020002008210000000043
:1074C00000000000000000000000000000000000BC
:1074D00000200020004000400020002000000000AC
:1074E0000000000000000001014612EB0596267B1B
:1074F000269B25F7036D01A5000010000000000089
:10750000000000000000000000000000000000007B
:10751000000000000000000000000000000000006B
:10752000000000000000000000000000000000005B
:10753000000000000000000000000000002000210A
:1075400000200000082122292FFD07FF07FF07FF69
:1075500007FF07FF07FF07FF07FF07FF07FF07FFFB
:1075600007FF07FF07FF07FF07FF07FF07FD0FFFE5
:107570000D530040080000400820000000000000FB
:1075800000000000000000000000000000000040BB
:1075900000010000134D1FFD1127004000210000D5
:1075A00000200020022A37DF098500001000082093
:1075B000002000000800100108000000000000008A
:1075C00000000000000000000000000000000000BB
:1075D000000000000000000000000000080008009B
:1075E00009241B0C24921E59175D16FD0D73128978
:1075F00000800000002000000000000000000000EB
:10760000000000000000000000000000000000007A
:10761000000000000000000000000000000000006A
:10762000000000000000000000000000000000005A
:107630000000000000000000000000000800000042
:1076400000200000080000201C910FDF07FF07FF4B
:1076500007FF07FF07FF07FF07FF07FF07FF07FFFA
:1076600007FF07FF07FF07FF07FF07FF267A19E855
:1076700000000020000000000000000000000000EA
:1076800000000000000000000000000000000001F9
:10769000000000201DF614F300000001000000208F
:1076A000100000001104277E01650020004000004A
:1076B0000000000000010000000000400000000089
:1076C00000000000000000000000000000000000BA
:1076D00000000000000100A409C8126A0CD316D9EA
:1076E0001F3B1DF714D30B6D01850020000108001E
:1076F0000020000000200800080000210000000019
:107700000000000000000000000000000000000079
:107710000000000000000000000000000000000069
:107720000000000000000000000000000000000059
:107730000000000000000000000000000000000049
:1077400000000020000008000A09277B07FE07FF51
:1077500007FF07FF07FF07FF07FF07FF07FF07DF19
:1077600007FF07FF07BF0FFF0FBE1CB4000000009C
:107770000000000000000000000000000000000009
:1077800000000000000000000000000000400000B9
:10779000000008000C2F1F3B1025004000000000D7
:1077A0000040082101E82FBA08E60021000000008F
:1077B00000000000000000000000000000010801BF
:1077C000002008000020000000000000000000E38E
:1077D00001E802ED0D150F9D1FFF1E9B1C4F0ACAED
:1077E0000104000000000000000000000000000094
:1077F0000000000000000000000000000000000089
:107800000000000000000000000000000000000078
:107810000000000000000000000000000000000068
:107820000000000000000000000000000000000058
:107830000000000000000000000000000000000048
:107840000000000000400800080109471EDC179EE8
:1078500007FF07FF07FF07DF0FFF07FF17BF07FF40
:1078600007FF0FDF17FF1E7912AB000000000000BA
:107870000000000000000000000000000000000008
:10788000000000000000000000000000000010C325
:1078900000E3088301EA1FFF0E99022808E320C4D1
:1078A00000E4030D1FDC23F10021100000000000A4
:1078B0000000000000000000000000000020006048
:1078C0000000000110000040002011871C122F7CD6
:1078D00017FD0ED92EDA14B1018600210022000115
:1078E0000800000000000000000000000000000090
:1078F0000000000000000000000000000000000088
:107900000000000000000000000000000000000077
:107910000000000000000000000000000000000067
:107920000000000000000000000000000000000057
:107930000000000000000000000000000000000047
:1079400000000000002000400800080001670B8EC6
:10795000163617DD0FFF07FF07FF07FF07FF0FFFB3
:1079600017DC0DD50AAB004300000040000000000A
:107970000000000000000000000000000000000007
:10798000000000000000000000000000088226B98E
:107990001FFF1F9D07FE0FFF07DF0FFF1FDE175D95
:1079A00017FF17FF0FFF063709A700200000000090
:1079B00000000000000000000000000000000020A7
:1079C0000000000010C52C102E183EBA1534030D0F
:1079D00000E51001080000400060000008000800F9
:1079E000080000200020002000001000000000001F
:1079F0000000000000000000000000000000000087
:107A00000000000000000000000000000000000076
:107A10000000000000000000000000000000000066
:107A20000000000000000000000000000000000056
:107A30000000000000000000000000000000000046
:107A4000002100000000002000200040082000006D
:107A5000000008E51AAC1C9315F70658141111E93B
:107A600008A4006100000000006100200000000088
:107A70000000000000000000000000000000000006
:107A8000000000000000000000000000000001A64F
:107A9000028A09E80AEA1AEC232D0A69018601C65E
:107AA00009E70166096702080801000000000000FC
:107AB00000000000000000000000000010000000B6
:107AC00000641D13371B2DB80A2B0082000008002C
:107AD00000200020082000000000080100400020D5
:107AE0000020002000000000000000000000000056
:107AF0000000000000000000000000000000000086
:107B00000000000000000000000000000000000075
:107B10000000000000000000000000000000000065
:107B20000000000000000000000000000000000055
:107B30000000000000000000000000000000000045
:107B400000000000080108000000000000200020E4
:107B500008000800000000000000000000400020B5
:107B600000000000004100000800000000000000CC
:107B70000000000000000000000000000000000005
:107B800000000000000000000000000000000001F4
:107B9000006108000020002100000000000000201B
:107BA0000800080000200001002100010000000082
:107BB00000000000000000000000000000010022A2
:107BC0000AEC27FC09C800000020080000000000A3
:107BD0000800080100010000000000400020000033
:107BE0000000080008000000000000000000000085
:107BF0000000000000000000000000000000000085
:107C00000000000000000000000000000000000074
:107C10000000000000000000000000000000000064
:107C20000000000000000000000000000000000054
:107C3000000000000000000000000000002008001C
:107C4000000000000000000000000800000000002C
:107C50000020002000000000002000200000002084
:107C600000000000002000000000082000000000CC
:107C70000000000000000000000000000000000004
:107C800000000000000000000000000000200800CC
:107C9000080000000800080000000040000000206C
:107CA000002000200000002000000820000000004C
:107CB000000000000000000000000000002008009C
:107CC00001672F1A2554020900000020000000005F
:107CD0000020000000200000000000000000000064
:107CE0000000000000000000000000200000000074
:107CF0000000000000000000000000000000000084
:107D00000000000000000000000000000000000073
:107D10000000000000000000000000000000000063
:107D20000000000000000000000000000000000053
:107D3000000000000000000000000000002008001B
:107D400000000000000000000020002000200020B3
:107D50000000000000000000000100000001080019
:107D600000000020000000000040000000000000B3
:107D70000000000000000000000000000000000003
:107D800000000000000000000000000008010000EA
:107D90000020002008000001082100000020000051
:107DA000000000000020080000410000000000006A
:107DB00000000000000000000000000008000800B3
:107DC000000008C3249036FB365A134E0943004086
:107DD0000020002008010000000008000000000052
:107DE0000020002000000000000000000000000053
:107DF0000000000000000000000000000000000083
:107E00000000000000000000000000000000000072
:107E10000000000000000000000000000000000062
:107E20000000000000000000000000000000000052
:107E30000000000000000000000000000000000042
:107E400000200020000000000020080000000000CA
:107E500008000000002000200000000000200000BA
:107E600008000001002000000800000000000000E1
:107E70000000000000000000000000000000000002
:107E800000000000000000000000000000200021B1
:107E9000080100010000008000000001000008004F
:107EA000000000200000002008000000000000008A
:107EB00000000000000000000000000000210000A1
:107EC000084100000800004122AB15B62EFD15F751
:107ED0001C300945000000000020002000000000C8
:107EE0000000000000000000000000000000000092
:107EF0000000000000000000000000000000000082
:107F00000000000000000000000000000000000071
:107F10000000000000000000000000000000000061
:107F20000000000000000000000000000000000051
:107F30000000000000000000000000000020000021
:107F400000000001004000010000000008000000E7
:107F500000000021002008000000000000000020B8
:107F600000000800000000200000000000200800C1
:107F700000200000100000200000080008000000A1
:107F80000020002000000021000000000000002070
:107F900000000800000000001000000000000020A9
:107FA0000020080000000040004000000000000029
:107FB00000000000000000000000000000000000C1
:107FC0000000000000000000000000000103034C5E
:107FD0001658273D1E9C16580C9009450882000033
:107FE0000000002000000000000000200000102021
:107FF00000000021080000000060000000000000F8
:108000000000000000000000000000000000000070
:108010000000000000000000000000000000000060
:108020000000000000000000000000000000000050
:108030000000000000000000000000000000000040
:108040000000002000200000000000000021084087
:1080500000000001002000000000000000000800F7
:108060000000000000200000082000200020004048
:1080700000010022004100000104016600E409A79C
:108080001AAA230C1B0B12EB12EB132B12ED132D60
:10809000096600820060000000200021000000202E
:1080A0000800000000000800002008200000000078
:1080B00000000000000000000000000000000000C0
:1080C000000000000000000000000000100100009F
:1080D000004008E21A6915950F9D073E17BE1D96D0
:1080E00012AB00E30041000100010001004100204B
:1080F0000000000000000800000008000000000070
:10810000000000000000000000000000000000006F
:10811000000000000000000000000000000000005F
:10812000000000000000000000000000000000004F
:10813000000000000000000000000000002000001F
:1081400008000800000011870186098700C30000AD
:1081500000000801002008400000000000000800A6
:1081600000000000000000200800002008010800B6
:1081700001850C2D04F226791F9D07FD0FFF07FFD7
:1081800007FF07FF07FF0FFF07FF07FF0FFE17DFC0
:108190000FFF0EFC15D714B109C60800000000003F
:1081A00000000000000008000000002000000000A7
:1081B00000000000000000000000000000000000BF
:1081C00000000000000000000000000000000000AF
:1081D000002000000000002108831023020924D39E
:1081E0001E7916DB273C15B60289008000010800C5
:1081F00000000800000000400000004100000000F6
:10820000000000000000000000000000000000006E
:10821000000000000000000000000000000000005E
:10822000000000000000000000000000000000004E
:108230000000000000000000000000000800000036
:108240000020080000E31EBA07FE0FFF23AE004027
:1082500000000801002000000000000000200000D5
:108260000000000000200020180000000041122A39
:108270001EDB07FF0FFF0FDF17FF07FF07FF07FFDB
:1082800007FF07FF07DF07FF07FF07FF0FFE07DEF8
:1082900007FF07FF079F07FF0FDE1DD80A8A00218F
:1082A0000800080000200020080000400000000036
:1082B00000000000000000000000000000000000BE
:1082C00000000000000000000000000000000000AE
:1082D00000010020000000000040004008000000F5
:1082E000002000A2028A15951F5C173D16BA13AF35
:1082F00001040081000000010041000000000000B6
:10830000000000000000000000000000000000006D
:10831000000000000000000000000000000000005D
