:020000040800F2
:10000000800700202D020008810C00080F0800085E
:100010007D0C0008A90300088B13000800000000F5
:10002000000000000000000000000000E90F0008D0
:10003000AD03000800000000110D000801110008C8
:10004000470200084702000847020008470200086C
:10005000470200084702000847020008470200085C
:10006000470200084702000847020008470200084C
:10007000470200084702000847020008470200083C
:10008000470200084702000847020008470200082C
:10009000470200084702000847020008470200081C
:1000A000470200084702000847020008470200080C
:1000B00047020008470200084702000847020008FC
:1000C00047020008470200084702000847020008EC
:1000D000470200086D1100084702000847020008A7
:1000E00047020008470200084702000847020008CC
:1000F00047020008470200084702000847020008BC
:1001000047020008470200084702000847020008AB
:10011000470200084702000847020008470200089B
:10012000470200084702000847020008470200088B
:10013000470200084702000847020008470200087B
:10014000470200084702000847020008470200086B
:10015000470200084702000847020008470200085B
:10016000470200084702000847020008470200084B
:10017000470200084702000847020008470200083B
:10018000470200084702000800F002F800F03EF8BD
:100190000AA090E8000C82448344AAF10107DA45E2
:1001A00001D100F033F8AFF2090EBAE80F0013F0F6
:1001B000010F18BFFB1A43F0010318476C700100D0
:1001C0008C700100103A24BF78C878C1FAD8520761
:1001D00024BF30C830C144BF04680C6070470000C1
:1001E0000023002400250026103A28BF78C1FBD840
:1001F000520728BF30C148BF0B60704700207047CE
:100200001FB501F07DFA1FBD10B510BD00F099F8C3
:100210001146FFF7F5FF01F01DF900F0B7F803B440
:10022000FFF7F2FF03BC01F0B2F800000948804775
:1002300009480047FEE7FEE7FEE7FEE7FEE7FEE7C8
:10024000FEE7FEE7FEE7FEE704480549054A064BE0
:100250007047000005110008890100088001002096
:1002600080070020800300208003002070470000EA
:100270000FB41CB5074B06AA7B446946009005984D
:1002800000F047F80020694600F056F81CBC5DF805
:1002900014FB0000BD0000002DE9F0410E460446AD
:1002A000002020622046E168884730B3252805D029
:1002B000D4E901219047206A401CF2E7E16820461A
:1002C00000278847050018D0A5F14100192802D859
:1002D00020354FF400673246294620462760FFF755
:1002E0008DFF40B1012804D0F61D26F00706083620
:1002F000D8E7361DD6E72846DAE7206ABDE8F08160
:10030000704770477047704701694A1C026108785E
:10031000704700B58FB0CDE9013100210591054945
:100320007944CDE9031011466846FFF7B5FF0FB0D9
:1003300000BD0000E5FFFFFF0A6802F8010B0A603C
:100340007047754600F02CF8AE46050069465346E6
:1003500020F00700854618B020B5FFF775FFBDE80F
:1003600020404FF000064FF000074FF000084FF01C
:10037000000B21F00701AC46ACE8C009ACE8C009AD
:10038000ACE8C009ACE8C0098D46704710B504461A
:10039000AFF300802046BDE81040FFF740BF0000EB
:1003A000004870472001002000BFFEE770470000B2
:1003B00030B10749096841F48061054A116005E0E0
:1003C0000349096821F48061014A11607047000007
:1003D000003C024070B504460A460026092502B9D1
:1003E00009E0012A01D1160205E0022A01D1160214
:1003F00001E04FF4407600F09FF80546092D28D122
:100400001548006820F440701349086008460068E9
:10041000304308600846006820F0F800086008468D
:10042000006844F0020108430B4908600846006870
:1004300040F48030086000F07FF805460648006808
:1004400020F00200044908600846006820F0F80027
:100450000860284670BD0000103C02400920134986
:10046000096801F48031B1F5803F01D101201CE021
:100470000E49096801F0100109B1062015E00B4989
:10048000096801F4807109B102200EE0074909688A
:1004900001F0EF0109B1072007E00449096801F004
:1004A000020109B1082000E0092070470C3C02401D
:1004B0000348006840F000400149086070470000B0
:1004C000103C024030B502460C46092500F034F8D5
:1004D0000546092D19D10E48006820F440700C49DA
:1004E00008600846006840F400700860084600682C
:1004F00040F001000860146000F01EF80546044852
:10050000006820F0010002490860284630BD000064
:10051000103C02400548006800F0004028B1044843
:1005200002490C390860034808607047103C0240DB
:1005300023016745AB89EFCD08B509200090FFF78F
:100540008DFF009002E0FFF789FF00909DF800000A
:100550000128F8D09DF8000008BDF0B50A4600213A
:100560000023002400BF3DE0012505FA01F31568D2
:1005700005EA03049C4234D105684F000326BE40BF
:10058000B543056015794E00B540066835430560F2
:100590001579012D02D01579022D16D185684F00ED
:1005A0000326BE40B543856055794E00B540866848
:1005B00035438560456801268E40B54345604568F2
:1005C00096798E40B6B235434560C5684F00032624
:1005D000BE40B543C560D5794E00B540C6683543C9
:1005E000C560491C1029BFD3F0BDF0B5002300241D
:1005F0004D07ED0E02FA05F3CE1000F1200555F877
:1006000026504E07F70E0F26BE40B543CF1000F11F
:10061000200646F82750CE1000F1200555F8265048
:1006200045EA0304CE1000F1200545F82640F0BD50
:100630000246002013690B400BB1012000E00020AE
:100640007047418370470183704700002DE9F84FE0
:100650000746884693469A46DDF828900097B3E00F
:1006600099F8000080283DDA99F800600D2E05D138
:10067000009F08F110001FFA80F830E0202E03DD03
:10068000A6F1200086B200E00026002422E000252A
:100690001CE004EB06105049085C80212941084009
:1006A00040B108EB040291B27A1990B25A4600F0B8
:1006B00097F809E0D34507D008EB040291B27A1904
:1006C00090B2524600F08CF8681CC5B2082DE0DBF1
:1006D000601CC4B2102CDADB07F1080087B209F104
:1006E000010971E0002668E006EB06103B4911F8AD
:1006F000100099F8001088425DD106EB06103749CA
:1007000001EB4000407899F80110884253D1002451
:100710004FE0002520E006EB0610304901EB4000D9
:10072000801C10F8141080202841014041B108EBD2
:10073000040291B27A1990B25A4600F051F809E0D9
:10074000D34507D008EB040291B27A1990B2524611
:1007500000F046F8681CC5B2082DDCDB002524E05B
:1007600006EB06101D4901EB4000801C012101EB46
:100770004401405C80212941084048B108EB040253
:1007800091B27A19083290B25A4600F029F80AE07C
:10079000D34508D008EB040291B27A19083290B21E
:1007A000524600F01DF8681CC5B2082DD8DB601C4D
:1007B000C4B2102CADDB701C86B23A2E94DB09F16A
:1007C000020907F1100087B299F8000000287FF4B1
:1007D00047AFBDE8F88F00001B1700088D24000804
:1007E0002DE9F04104460D461646AF1CBBB2E71C8E
:1007F000BAB26F1CB9B2A71CB8B200F0DBF9301264
:1008000000F002FAF0B200F0FFF9BDE8F08100BF9D
:10081000FEE700001CB50121084600F07BFA01202C
:10082000009000208DF8040003208DF805000220C0
:100830008DF8070069460248FFF78FFE1CBD0000D7
:100840000000024010B5044614B1012010490870A0
:100850000F48007890B101210E48FFF7E9FE01280A
:100860000CD10A2000F0B4FD0020094908700121D4
:100870000848FFF7DDFE012808D110BD0121054819
:10088000FFF7D6FE10B90120014908700020F4E7F7
:1008900000000020000002401CB50121062000F0ED
:1008A00039FA4FF20200009001208DF80400002078
:1008B0008DF8060003208DF8050001208DF8070053
:1008C00069461348FFF749FE2020009001208DF86B
:1008D000040000208DF8060003208DF8050001209B
:1008E0008DF8070069460B48FFF737FE4FF480414B
:1008F0000748FFF7A8FE02210548FFF7A4FE0221E2
:100900000348FFF79EFE02210148FFF79CFE1CBD35
:10091000000402400008024010B52C20084908815C
:100920000020887180200880A02048802A204881EB
:100930002B208881C021362000F096F910BD0000E0
:10094000480000201CB50121084600F0E3F9022010
:10095000009001208DF8040000208DF8060003208F
:100960008DF8050001208DF8070069460348FFF760
:10097000F4FD02210148FFF766FE1CBD00000240A5
:1009800070B50446A02381220121022000F012F953
:100990002C2000F051F900250BE0002606E0201283
:1009A00000F032F9E0B200F02FF9761C802EF6D379
:1009B0006D1CA02DF1D370BD10B5FFF76DFF00F0D9
:1009C000E5F8112000F038F9C82000F001FDB12051
:1009D00000F032F9052000F017F93C2000F014F97E
:1009E0003C2000F011F9B22000F026F9052000F0BB
:1009F0000BF93C2000F008F93C2000F005F9B32089
:100A000000F01AF9052000F0FFF83C2000F0FCF897
:100A10003C2000F0F9F8052000F0F6F83C2000F04A
:100A2000F3F83C2000F0F0F8B42000F005F90320C2
:100A300000F0EAF8C02000F0FFF8282000F0E4F809
:100A4000082000F0E1F8042000F0DEF8C12000F0FA
:100A5000F3F8C02000F0D8F8C22000F0EDF80D2027
:100A600000F0D2F8002000F0CFF8C32000F0E4F846
:100A70008D2000F0C9F82A2000F0C6F8C42000F04C
:100A8000DBF88D2000F0C0F8EE2000F0BDF8C520A6
:100A900000F0D2F81A2000F0B7F8362000F0CCF8B9
:100AA000C02000F0B1F8E02000F0C6F8042000F00B
:100AB000ABF8222000F0A8F8072000F0A5F80A20E3
:100AC00000F0A2F82E2000F09FF8302000F09CF8F3
:100AD000252000F099F82A2000F096F8282000F050
:100AE00093F8262000F090F82E2000F08DF83A20A0
:100AF00000F08AF8002000F087F8012000F084F868
:100B0000032000F081F8132000F07EF8E12000F0CF
:100B100093F8042000F078F8162000F075F806200D
:100B200000F072F80D2000F06FF82D2000F06CF846
:100B3000262000F069F8232000F066F8272000F056
:100B400063F8272000F060F8252000F05DF82D20E4
:100B500000F05AF83B2000F057F8002000F054F85D
:100B6000012000F051F8042000F04EF8132000F0AE
:100B70004BF83A2000F060F8052000F045F82920F5
:100B800000F05AF8FFF7C8FE10BD000010B54FF492
:100B900080410748FFF755FD642000F019FC4FF431
:100BA00080410348FFF74FFD642000F011FC10BDA9
:100BB000000402402DE9F04104460D4616461F464A
:100BC0002A2000F039F8002000F01EF8E0B200F012
:100BD0001BF8002000F018F8F0B200F015F82B20F8
:100BE00000F02AF8002000F00FF8E8B200F00CF84E
:100BF000002000F009F8F8B200F006F82C2000F010
:100C00001BF8BDE8F081000010B504464FF4805198
:100C10000748FFF716FD20210648FFF714FD204680
:100C200000F00CF94FF480510148FFF70CFD10BDA6
:100C3000000402400008024010B504464FF4805101
:100C40000748FFF7FEFC20210648FFF7FAFC204684
:100C500000F0F4F84FF480510148FFF7F4FC10BDA8
:100C6000000402400008024070B505460C462846C4
:100C7000FFF7E2FF2046FFF7C7FF70BD00BFFEE7AA
:100C80007047000070B5002100230F22C4781CB308
:100C9000174C246804F4E064C4F5E064C4F307214D
:100CA000C1F10404E3B20A4144789C40E1B2847883
:100CB000144021430C07210E0E4C05786155047831
:100CC00004F01F050124AC4005786D11AD0005F15D
:100CD000E025C5F8004109E0047804F01F0501246F
:100CE000AC40054D0678761145F8264070BD0000F1
:100CF0000CED00E000E400E080E100E00249014387
:100D0000024A1160704700000000FA050CED00E097
:100D10007047000029B1064A12680243044B1A606A
:100D200004E0034A12688243014B1A6070470000D6
:100D30003038024029B1064A12680243044B1A6057
:100D400004E0034A12688243014B1A6070470000B6
:100D500044380240F0B5002100220024022500267C
:100D60000223324F3F6807F00C0121B1042905D05E
:100D7000082937D105E02E4F076036E02D4F076078
:100D800033E02A4F3F1F3F68C7F38056274F3F1F6E
:100D90003F6807F03F036EB1264FB7FBF3F7DFF86C
:100DA0008CC0ACF1040CDCF800C0CCF3881C07FB51
:100DB0000CF40CE01E4FB7FBF3F7DFF870C0ACF19A
:100DC000040CDCF800C0CCF3881C07FB0CF4174FB4
:100DD0003F1F3F68C7F301477F1C7D00B4FBF5F759
:100DE000076002E0124F076000BF00BF0F4F3F686F
:100DF00007F0F0010909104F7A5C0768D740476097
:100E00000A4F3F6807F4E051890A0B4F7A5C476844
:100E1000D7408760054F3F6807F46041490B064F94
:100E20007A5C4768D740C760F0BD000008380240D0
:100E30000024F40000127A000E00002070B5044671
:100E4000002508251BE004F0800028B14FF4004184
:100E50000C48FFF7F8FB04E04FF400410948FFF7A6
:100E6000F0FB4FF400510748FFF7EBFB4FF4005144
:100E70000448FFF7E8FB6006040E681EC5B2002DAB
:100E8000E1DC70BD0004024001461C48814201D2F1
:100E9000002070471A48814201D20820F9E719481A
:100EA000814201D21020F4E71748814201D2182074
:100EB000EFE71648814201D22020EAE71448814238
:100EC00001D22820E5E71348814201D23020E0E733
:100ED0001148814201D23820DBE71048814201D21B
:100EE0004020D6E70E48814201D24820D1E70D4884
:100EF000814201D25020CCE75820CAE700400008C8
:100F00000080000800C0000800000108000002087E
:100F100000000408000006080000080800000A0895
:100F200000000C0800000E0830B503460C461546BC
:100F3000002206E0184600F007F844F822001B1DC6
:100F4000521CAA42F6D330BD014608687047000023
:100F50002DE9F04704460E4617464FF009080025D4
:100F6000A946B4F1006F02D304F0030008B1BDE854
:100F7000F087FFF7CFFA0020FFF71AFA254604EBB7
:100F800087091848854215D211E02846FFF7DCFF93
:100F9000401C58B12846FFF777FF82460221FFF731
:100FA00019FA8046B8F1090F01D002E02D1D4D4518
:100FB000EBD300BFB8F1090F0CD108E0204631682F
:100FC000FFF780FA092800D003E0241D361D4C45A8
:100FD000F4D300BF0120FFF7EBF9FFF769FA00BF78
:100FE000C5E700000000FF1F704700000CB500209F
:100FF000019000903448006840F480303249086025
:1010000000BF3148006800F4003000900198401C97
:101010000190009818B90198B0F5A04FF1D12A4875
:10102000006800F4003010B10120009001E00020C1
:1010300000900098012846D123484030006840F0D5
:1010400080502149403108602048006840F4404009
:101050001E4908601C48083000681B4908310860B8
:101060000846006840F4004008600846006840F404
:10107000A05008601648091F0860081F006840F06B
:101080008070091F086000BF0F48006800F0007002
:101090000028F9D040F205700E4908600A4808306F
:1010A000006820F00300084908310860084600681D
:1010B00040F00200086000BF03480830006800F0FC
:1010C0000C000828F8D10CBD003802400070004028
:1010D00008544007003C0240042808D14FF0E021AA
:1010E000096941F004014FF0E022116107E04FF07F
:1010F000E021096921F004014FF0E02211617047FD
:101100007047000010B51548006840F4700013499E
:1011100008601348006840F0010011490860002091
:101120000F49083108600E4800680E4908400C4914
:1011300008600D48091D0860081F006820F4802021
:10114000091F0860002006490C310860FFF74EFFB8
:101150004FF0006001498039086010BD88ED00E063
:1011600000380240FFFFF6FE1030002410B540F2B8
:1011700025511D4800F04AF810B31B4800F000F953
:10118000C4B21A48008800F40040C8B91748008863
:1011900000F4804060B10A2C03D00020134908807D
:1011A00020E01248008840F400401049088019E00F
:1011B0000D2C06D10D48008840F480400B49088072
:1011C00010E00A480088C0F30D0009490C54074894
:1011D0000088401C0549088008460088C72801DDB2
:1011E0000020088010BD0000001001400C0000200D
:1011F0005600002021B1828942F40052828104E02D
:1012000082894DF6FF731A408281704770B502469D
:10121000002400230025002040F66A16B14200D1C8
:1012200000BFC1F3421501F01F03012606FA03F3C4
:10123000012D02D19689334006E0022D02D1168A93
:10124000334001E0968A33400C12012606FA04F47A
:101250001688344013B10CB1012000E0002070BDAD
:10126000F0B50346002400260025002040F66A174A
:10127000B94200D100BF1846C1F3421401F01F0665
:10128000012707FA06F5012C01D10C3004E0022CED
:1012900001D1103000E014301AB107682F43076005
:1012A00002E00768AF430760F0BD00002DE9FF478B
:1012B00005460E460024A14600BFA046B08900B1F5
:1012C00000BF2C8A24F44054F08804432C82AC895B
:1012D00041F20C608443B088318908437189084326
:1012E0000443AC81AC8A24F44074B0890443AC82DA
:1012F0006846FFF72FFD2048854202D01F488542EF
:1013000002D1DDF80C9001E0DDF80890A88900F426
:10131000004040B109EBC90000EB091031684900F9
:10132000B0FBF1F707E009EBC90000EB09103168E9
:101330008900B0FBF1F76420B7FBF0F0040120094D
:10134000642101FB1078A88900F4004040B13220EC
:1013500000EBC800B0FBF1F000F00700044308E028
:10136000322000EB08106421B0FBF1F000F00F0018
:1013700004432C81BDE8FF870010014000140140A8
:1013800001468888C0F30800704700BFFEE700BF31
:101390007047000010B504466FF00400FFF79CFE94
:1013A000E11704EB5171C1F3C701074A11701046F0
:1013B000007800EB4001C1EBC0104FF6FF7101EA6D
:1013C000C0000249088010BD020000200400002077
:1013D00070B504464FF4077094FBF0F0C6B24FF4BA
:1013E000077094FBF0F100FB114085B205E04FF46B
:1013F000077000F009F8701EC6B2002EF7D115B1C3
:10140000284600F001F870BD0146114A12884A438F
:101410004FF0E0235A6100229A611A46126942F0A5
:1014200001021A6100BF4FF0E022106900F00102D2
:101430001AB100F48032002AF5D04FF0E022126990
:1014400022F001024FF0E0231A6100229A617047F6
:10145000040000200EB5002500244FF4A060FFF723
:101460004DFCA820FFF796FF4FF4E13000F0F2F8B2
:10147000FFF768FAFFF7CEF9FFF79EFA4EF67D7098
:10148000FFF77EFA42A04EF67D734FF478421021AA
:1014900000900020FFF7DAF841A04EF67D734FF47C
:1014A0007842202100900020FFF7D0F840A04EF6AF
:1014B0007D734FF47842302100900020FFF7C6F88A
:1014C0003EA04EF67D734FF47842402100900020FC
:1014D000FFF7BCF85AE00020FFF7B4F90546012DEC
:1014E00044D1002539A04EF67D731F225021009073
:1014F0000020FFF7ABF83BA04EF67D731F22602162
:1015000000900020FFF7A2F805223C493C48FFF775
:101510001FFD3CA04EF67D731F225021009000203D
:10152000FFF794F83DA04EF67D731F2250210090E6
:101530000020FFF78BF8052201A93148FFF7F4FCE2
:101540003CA04EF67D731F22502100900020FFF733
:101550007DF801A93D48FEF78BFE3C484EF67D73B1
:101560001F22602100900020FFF770F8601C84B2F9
:101570000A20FFF72DFF142C08D13548006808B960
:10158000012000E00020324908600024A3E70000A9
:101590002053544D33324634787820B2E2CAD40016
:1015A00020464C4153482D454550524F4D20000098
:1015B00020323031382F352F35000000204B313AA2
:1015C00057726974652652656164200053746172B4
:1015D0007420577269746520464C4153482E2E2E54
:1015E0002E0000002020202020202020202020204D
:1015F0002020202020202020200000000A170008A2
:1016000004C00008464C4153482057726974652055
:1016100046696E69736865642100000053746172E5
:1016200074205265616420464C4153482E2E2E2E64
:101630002000000054686520446174612052656197
:101640006465642049733A202000000020000020D7
:101650008402404210B588B0044601210846FFF7D5
:1016600059FB01211020FFF765FB072209212248C1
:10167000FEF7BBFF07220A211F48FEF7B6FF4FF413
:10168000C060069002208DF81C008DF81D0000201F
:101690008DF81E0001208DF81F0006A91648FEF7E0
:1016A0005CFF02940020ADF80C00ADF80E00ADF820
:1016B0001000ADF814000C20ADF8120002A90F487C
:1016C000FFF7F4FD01210D48FFF794FD012240F2E0
:1016D00025510A48FFF7C4FD25208DF8040003209A
:1016E0008DF805008DF8060001208DF8070001A88F
:1016F000FFF7C8FA08B010BD00000240001001401A
:101700004FF04070E1EE100A704753544D333220D1
:10171000464C4153482054455354000000000000FB
:101720000000000000000000000000001010101079
:10173000101010101000001010000000006C6C243D
:1017400024000000000100000000000024242424E4
:10175000FE48484848FC909090900000103C5492FD
:1017600090503814121292547810000000225C94A9
:10177000A8481010242A525488000000003048481D
:1017800050206E54948C888A740000000030301011
:10179000100000000000000000000000040810100D
:1017A000202020202020101008040000804020204D
:1017B00010101010101020204080000000000010B9
:1017C00054381038541000000000000000001010C1
:1017D0001010FE10101010000000000000000000AB
:1017E00000000000000000101020000000000000B9
:1017F0000000FE00000000000000000000000000EB
:1018000000000000000000101000000000040408A8
:1018100008101020204040808000000000384482E2
:10182000828282828282824438000000001070101E
:1018300010101010101010107C00000000384482AE
:101840008204081020408284FC000000003844829A
:1018500002043804020282443800000000040C1420
:101860001424244444FE04040E00000000FC808084
:1018700080B8C4820202828478000000003C428268
:1018800080B8C4828282824438000000007E428296
:1018900004040808081010101000000000384482EA
:1018A00082443844828282443800000000384482F6
:1018B000828282463A028244380000000000001012
:1018C00010000000001010000000000000000010D8
:1018D00010000000000010102000000000000006B2
:1018E0001860806018060000000000000000000082
:1018F00000FE0000FE00000000000000000000C02C
:10190000300C020C30C0000000000000384482821D
:10191000020408101010001010000000003844826B
:101920009AAAAAAAAAAA9680423C00000010101007
:1019300028282844447C4444EE00000000FC424235
:1019400042427C4242424242FC000000003C44824F
:1019500080808080808282443800000000F8444209
:101960004242424242424244F800000000FC4442EB
:1019700040447C4440404244FC00000000FC44429F
:1019800040447C4440404040F000000000344C8221
:101990008080808E8484844C3400000000EE4444B7
:1019A00044447C4444444444EE000000007C101055
:1019B00010101010101010107C000000003E0808DD
:1019C00008080808080888887000000000EE4448ED
:1019D0004850605048484444EE00000000E0404059
:1019E0004040404040404244FC00000000C6446C7F
:1019F0006C6C545454444444EE00000000CE4464E3
:101A0000646454544C4C4C44E4000000003844825C
:101A100082828282828282443800000000F844423E
:101A20004242447840404040E00000000038448298
:101A3000828282828282BA443C02000000F04844E2
:101A40004444487048444444E6000000003C44825A
:101A50008040300C0202824478000000007C5492E6
:101A600010101010101010103800000000EE444448
:101A700044444444444444443800000000EE444498
:101A800044442828282810101000000000EE445478
:101A900054545454542828282800000000EE44448C
:101AA0002828101028284444EE00000000EE44448A
:101AB000282828101010101038000000007E4484E0
:101AC0000808102020408284FC0000001C10101028
:101AD0001010101010101010101C000000EE4454D4
:101AE00054FE545454282828280000007010101068
:101AF00010101010101010101070000030488400EA
:101B000000000000000000000000000000000000D5
:101B1000000000000000000000FE00004020000067
:101B200000000000000000000000000000000000B5
:101B3000007884047C84848C7600000000C04040DF
:101B400040586442424242645800000000000000D5
:101B5000003844808080804438000000000C040479
:101B600004344C848484844C36000000000000005F
:101B700000788484FC808084780000000018242091
:101B800020F820202020202070000000000000000D
:101B9000003A444478807C82827C000000C040404F
:101BA0004058644444444444EE00000000101000D7
:101BB000003010101010101038000000001010003D
:101BC00000301010101010109060000000C0404055
:101BD000405C485060504844EE0000000030101057
:101BE000101011101010101039000000000000003B
:101BF00000ACD29292929292D600000000000000B7
:101C00000058E44444444444EE0000000000000056
:101C100000384482828282443800000000000000C4
:101C200000D864424242645840E0000000000000D6
:101C300000364C8484844C34040E00000000000004
:101C4000006C3020202020207000000000000000E8
:101C50000078888460188444780000000000202008
:101C600020F8202020202024180000000000000080
:101C700000C64242424242463A00000000000000D4
:101C800000EE444428282810100000000000000046
:101C900000EE4444545428282800000000000000AE
:101CA00000EE442810102844EE0000000000000060
:101CB00000EE444428281010A0C0000000000000DE
:101CC000007E448810204284FC0000000C1010109C
:101CD0001010601010101010100C000010101010D8
:101CE000101010101010101010100000C020202034
:101CF000202018202020202020C00000000000000C
:101D00000000728C000000000000000000000000D5
:101D1000001FE000003FF000003FF000001FE00067
:101D20000180060003C00F0003C00F0003C00F00B6
:101D300003C00F0003C00F0003C00F0003C00F005B
:101D400003C00F00030003000000000000000000BB
:101D5000000000000300030003C00F0003C00F00D9
:101D600003C00F0003C00F0003C00F0003C00F002B
:101D700003C00F0003C00F0001800600001FE00039
:101D8000003FF000003FF000001FE00000000000F6
:101D900000000000000080000001800000038000BF
:101DA0000007800000078000000780000007800017
:101DB0000007800000078000000780000007800007
:101DC000000780000001800000000000000000000B
:101DD0000000000000018000000780000007800074
:101DE00000078000000780000007800000078000D7
:101DF00000078000000780000007800000038000CB
:101E000000018000000080000000000000000000D1
:101E1000001FE000003FF00000FFF00001FFE000C5
:101E20000000060000000F0000000F0000000F007F
:101E300000000F0000000F0000000F0000000F0066
:101E400000000F00001FE300007FF800007FF80093
:101E5000001FE0000300000003C0000003C00000FA
:101E600003C0000003C0000003C0000003C0000066
:101E700003C0000003C0000001800000001FF0004C
:101E8000003FF800003FFC00001FFE0000000000C3
:101E900003FF800001FFC00000FFC000007F800042
:101EA0000000180000003C0000003C0000003C0066
:101EB00000003C0000003C0000003C0000003C0032
:101EC00000003C00007F8C0001FFE00001FFF000FB
:101ED000007F800000000C0000003C0000003C007F
:101EE00000003C0000003C0000003C0000003C0002
:101EF00000003C0000003C0000001800007F800053
:101F000000FFC00001FFC00003FF800000000000D0
:101F1000000000000200010003000300038007002E
:101F200003C00F0003C00F0003C00F0003C00F0069
:101F300003C00F0003C00F0003C00F0003C00F0059
:101F400003C00F00031FE300007FF800007FFC00C8
:101F5000001FE0000000030000000F0000000F0061
:101F600000000F0000000F0000000F0000000F0035
:101F700000000F0000000F0000000F00000007002D
:101F8000000003000000010000000000000000004D
:101F9000001FFC00003FF800003FF000001FE000C1
:101FA0000180000003C0000003C0000003C0000067
:101FB00003C0000003C0000003C0000003C0000015
:101FC00003C00000031FE000007FF800007FF8005E
:101FD000001FE0000000030000000F0000000F00E1
:101FE00000000F0000000F0000000F0000000F00B5
:101FF00000000F0000000F0000000600003FE0009E
:10200000007FF00000FFF00001FFE0000000000092
:10201000001FFC00003FF800003FF000001FE00040
:102020000180000003C0000003C0000003C00000E6
:1020300003C0000003C0000003C0000003C0000094
:1020400003C00000031FE000007FF800007FFC00D9
:10205000001FE0000300030003C00F0003C00F00D7
:1020600003C00F0003C00F0003C00F0003C00F0028
:1020700003C00F0003C00F0001800600001FE00036
:10208000003FF000003FF000001FE00000000000F3
:1020900007FFE00003FFC00001FF880000FF1800F9
:1020A0000000380000007800000078000000780090
:1020B0000000780000007800000078000000780040
:1020C0000000780000001800000000000000000080
:1020D00000000000000018000000780000007800F8
:1020E0000000780000007800000078000000780010
:1020F0000000780000007800000078000000380040
:1021000000001800000008000000000000000000AF
:10211000001FE000003FF000003FF000001FE00063
:102120000180060003C00F0003C00F0003C00F00B2
:1021300003C00F0003C00F0003C00F0003C00F0057
:1021400003C00F00031FE300007FF800007FFC00C6
:10215000001FE0000300030003C00F0003C00F00D6
:1021600003C00F0003C00F0003C00F0003C00F0027
:1021700003C00F0003C00F0001800600001FE00035
:10218000003FF000003FF000001FE00000000000F2
:10219000001FE000003FF000003FF000001FE000E3
:1021A0000180060003C00F0003C00F0003C00F0032
:1021B00003C00F0003C00F0003C00F0003C00F00D7
:1021C00003C00F00031FE300007FF800007FFC0046
:1021D000001FE0000000030000000F0000000F00DF
:1021E00000000F0000000F0000000F0000000F00B3
:1021F00000000F0000000F0000000600001FE000BC
:10220000003FF000007FF00000FFE0000000000051
:1022100000000000000000000000000000000000BE
:1022200000000000000000000000000000000000AE
:10223000000000000000000000000000000000009E
:10224000000000000000000000000000000000008E
:10225000000000000000000000000000000000007E
:10226000007800000078000000780000007800008E
:10227000007800000078000000000000000000006E
:10228000000000000000000000000000000000004E
:10229000000000000000000000000000000000003E
:1022A0000000000000000000000000000007000027
:1022B000000F8000000F8000000F8000000700006A
:1022C000000000000000000000000000000000000E
:1022D000000000000000000000070000000F800068
:1022E000000F8000000F80000007000000000000C9
:1022F00000000000000000000000000000000000DE
:1023000000000000000000000000000000000000CD
:1023100000000000000000000000000007C00600F0
:102320000FE0060000000C003018180030181800EC
:102330003018300030183000301860003008C0000D
:1023400007C0C0000FE080000000000000000FE0A8
:10235000000607C000063018000C3018000C3018BA
:1023600000183018003030180030301800600000BD
:1023700000C00FE000C007C0000000000000000027
:10238000000000000000000000000000000000004D
:10239000000000000000000000000000000000003D
:1023A000000000000700E0000887FC00088E030022
:1023B00008980180071800800030000000300000FD
:1023C000007000000060000000600000006000007D
:1023D000006000000060000000700000003000009D
:1023E000003000000038000000180100000C03005D
:1023F0000007FC000001F0000000000000000000E9
:1024000000000000000000000000000000000000CC
:1024100000000000000000000000000000000000BC
:1024200000000000000000000000000000000000AC
:10243000000000000000000000000000000000009C
:102440000000000000000000003FF000007FF000EE
:10245000007FE00000FFC00000000000000000005E
:10246000000000000000000000000000000000006C
:10247000000000000000000000000000000000005C
:1024800000000000000000000000000000B5E702AE
:1024900000020002007FF0421042107FF042104222
:1024A000107FF042000208020801F800000000D787
:1024B000D37FF000200040008001000200FFF802FE
:1024C00000020002000200020002000E00000000F4
:1024D00000C8AB0100010002800440082010102F4A
:1024E000E8C106010001001FF00100010001007FAA
:1024F000FC0000B6AF004000407C40004001FC0002
:1025000044FE4420442044208448844484FD0445FF
:102510000402280410BCBC10201020102013FEFC64
:10252000201020102015FC18843088D0481050103E
:1025300020105051882606CAF50100012001100123
:10254000107FFC038005400540092011102108413F
:10255000040102010001000100D2BA0080404027BE
:10256000F8114001408278424816A81AD023502220
:102570002042204250028800000000BEA73FE02019
:10258000203FE020203FE00000FDF885088508FDA1
:10259000F885088508FDF8850800000000B2E20013
:1025A000084F8828880AA88AA84AA80AA82AA82A18
:1025B000A84228450884888888103800000000CA8E
:1025C000D44050204820400FF80040E040274022EF
:1025D00040224022202A2833A82E1800080000009C
:1025E00000B3CC00001BF0E210221023F0F8002012
:1025F0000033F068806080A3F02080208027F800FE
:10260000000000D0F2020001003FF820002FF0206F
:1026100020224021803FF820882090408040808305
:102620008000000000D1D5200010F87E2044402812
:10263000F87E8848A850A864A848A872A8845018B2
:1026400088610800000000C9AB100010003FE040A6
:102650004080807FF04210421042107FF0400040E6
:102660000840083FF800000000CCEE20802FF82042
:102670008027F0F41027F0241027F0241027F034DE
:1026800010CFF80220041000000000B3E4040002A0
:1026900000FFF80800104020207FF0089008800814
:1026A00080088010882088C07800000000CEC40414
:1026B0000002000200FFF81040104008800880056A
:1026C000000200050008803060C01800000000D73C
:1026D000D604000200FFF8800880083FC000800197
:1026E000000200FFF80200020002000E00000000DD
:1026F00000CFD43FE0202020203FE0202020203FBA
:10270000E008804890289028A008800880FFF80002
:10271000000000CABE00003FE0000000000000FF13
:10272000F802001240122022104208820802000E15
:102730000000000000CDBC7FF84008440847C848AE
:1027400048548843084CC8733840884C08430840B4
:10275000887FF800000000C6AC0080208020802028
:10276000803FF02000200020003FC020402040207B
:10277000404040804000000000B4A5204038404860
:102780004091F07D50555055507D5055F054407C4F
:1027900040545057F88C0800000000C3FE2220224D
:1027A0002027F8FA2027F0241027F03410E7F02033
:1027B000802FF821402220EC1800000000CAE440DD
:1027C000804140F22044108BE8A000F78824A8271D
:1027D000A834A8E7A824A8248825B800000000C8C9
:1027E000EB080004000400020002000500050008D8
:1027F0008008801040104020204010800800000019
:1028000000C8AB020002000500088010402020DF55
:10281000D8020002001FC0020002000200FFF80000
:10282000000000B3CC00001BF0E210221023F0F8EF
:1028300000200033F068806080A3F0208020802793
:10284000F800000000BCBC208020802080F7F02031
:1028500080208027E03220E2202140208021402279
:1028600020EC1800000000CAF5020002400220021D
:1028700000FFF807000A800A8012402220421082DE
:10288000080200020000000000D6A702000200FFBC
:10289000F8020002007FE0102010400880050002CE
:1028A00000050018C0E03800000000B3D6208020EA
:1028B0008023F0F880208027F828203020E7F820B7
:1028C00020222021202020E0E000000000D7A802E4
:1028D0000002007FF004000400FFF8080010003F31
:1028E000E0002000401C800300008000000000D7B2
:1028F000A201004080200017F0008080804080000E
:102900008017F010802080208040804FF800000069
:1029100000C5FA204024402440F448245027602475
:10292000403440E4402440244025482648E4380010
:10293000000000B7A202002220221044007FF80409
:102940000008000FE0142024404280810006C038B7
:102950003800000000B3C900A0009000807FF8405C
:102960008040907C90449044A044A0444858A841A2
:1029700018820800000000B9A601000100F9002338
:10298000F0211021102110211021103910C2100245
:10299000100410086000000000D2C60000002000F3
:1029A000780CE47904516810307E6019981A3C2F35
:1029B000E448E40838003000600000D1A1000001C4
:1029C00020012003FC62203420042003FC24002189
:1029D000B021202220323E18000FE00000D4F10088
:1029E00000000010FC1304110C3DF8703E10D015CF
:1029F000907CF0503E18101BFE023000200000CFEB
:102A0000EE0000000003FE00607C4012FC11041187
:102A100006113611241F44794400C0009C01860031
:102A200000C4BF000000000FE03C18200820043E56
:102A300004600460047E046004200C20081FF00180
:102A4000800000B6CC0000080011FC103E3EF82DBE
:102A50008C2904490409043E8C50FC10881EC811BE
:102A6000FC100E0000B0B400000040006012FE1325
:102A7000023A427F4410C41BFE3C98719011301101
:102A8000A00078004C0000C8B70000004000F878B3
:102A9000C41F8C313821EC2126413A7DE2272225C2
:102AA000FA3D26012401040000B6A800000100013F
:102AB000705FFC700420042FF80100110011382110
:102AC000C431003F0063E040380000B3A4000000C0
:102AD000000818086008C00B001E00181C7FF010CA
:102AE00000118010E01838098E0F000000B0B4000B
:102AF000000040006012FE13023A427F4410C41BE3
:102B0000FE3C987190113011A00078004C0000B785
:102B1000B50000000007F80600240014F8078C0434
:102B2000042408261825F0647C64C220801FC0009D
:102B300000BBD8000000001FF030182008278C2CA4
:102B400044284428442CC427842004300C1FF80354
:102B5000800000C7B60100210821083FF8002022AC
:102B600020223EFF42229422103E10221022283EB4
:102B70002822440082CABD0048004400440040FFAF
:102B8000FE004000403E4008400840082008220F58
:102B900012780A20060002BFAA00007FFC08200865
:102BA00020082008200820FFFE0820082008200810
:102BB000201020102020204020B7A2010011101169
:102BC0000822003FFC0200040007F80A0809081167
:102BD0001010A0204040A003181C06CDF800007F74
:102BE000FC40044004421452944A54442444244A6D
:102BF000544A5452946104400440144008D6D00111
:102C0000000100010001003FF821082108210821EE
:102C10000821083FF821080100010001000100CE51
:102C2000C4020001000100FFFE101010100820086F
:102C3000200440028001000280044008203018C0B7
:102C400006B2E2000427C414441454855445544584
:102C500054155415542554E5542104228422442447
:102C6000140808CAD4002820241024102007FE00CD
:102C700020F02017E0112011101110151019CA179B
:102C80000A02060002000000000000000000000030
:102C90000000000000000000000000000000000034
:102CA00000000000000000B4BF00000000000002AF
:102CB0000100063FC00C3FE018030010020033364D
:102CC000603726203E66301C643018642031FEE0F8
:102CD0003F1FC01C0C00000C000704003E07F00062
:102CE00001C0000000000000000000000000000023
:102CF00000C9AB00000000000001FE0003E3000774
:102D000003000C03001C3F003BFFC03F30600C3051
:102D1000200C30200C10200C10600FFFC0083F006A
:102D20000800000800600E3FE007FC000000000003
:102D30000000000000000000000000CCEE000000D9
:102D400000000000030000FFE00C07F00C06000C80
:102D5000FF803FF0E01FC0600CFE300CCC3004F868
:102D60003004FF2004C0201FFE603EC06001FFF061
:102D700001FFF00060600040000000000000000063
:102D80000000000000B3E40000000000000020008C
:102D900000300007FFF03FFFE00300000601800C59
:102DA00001800801C01807E00FFE7007E00002066E
:102DB000000604000404000404000C06700C07E084
:102DC000000000000000000000000000000000B251
:102DD000E200000000000000003039FC301FCC3061
:102DE0000706B00F06F01907B03137B03136F01FC3
:102DF00027F00167F001E5F001E1F00041F00CF887
:102E0000B03CD830008C3000803000000000000062
:102E1000000000000000000000CAD4000000000014
:102E2000000803600C03700C0330003FE0003F809B
:102E30000801003C0180047F80047D800C00800C30
:102E400010C00C10C00C18400C1C600F7E60067087
:102E50003000003000000000000000000000000012
:102E6000000000CEC400000000C00000E0000070C0
:102E70000001FFE01FFFC018010000030000060072
:102E8000000E00001C000E180007300001E00000DA
:102E9000F00000FC00018F000303C00201E000000D
:102EA00000000000000000000000000000D7D60075
:102EB0000000000000002000003F0031FFE03FC0A4
:102EC0002038003030FE2033C660100200000C00B5
:102ED000001800001800000C0007FFE03FFFE000B2
:102EE0000400000C00000C000000000000000000C6
:102EF00000000000000000CFD40000000000000728
:102F0000FF000F03C00C00401FF8601800600800AD
:102F1000400E01C007FF0000000001840001840092
:102F20001987800F8CE0078C2000CC0003FFE01F86
:102F3000FFC00000000000000000000000000000D2
:102F400000CABE0000000000000E00001FFFC0000D
:102F50007FE0000000000000000000000000003FD3
:102F6000C03FFFE0003000003000003000061300DA
:102F70000C13C00C18F018180018180000000000FE
:102F80000000000000000000000000CDBC000000B8
:102F900000000007FF000F03801CC0C019FC601177
:102FA000C66033062033E63036FF30301FF0307015
:102FB0003030FC30339F3036002010E060187C4009
:102FC0000E01C003FF0000380000000000000000F8
:102FD0000000000000C6AC0000000000000818005F
:102FE000180800180800180800180C201FFFF01F10
:102FF000F80018000010000010F8001FFE001E036B
:10300000001003001003001003001003001802005A
:10301000000000000000000000000000000000CFE1
:10302000D400000000000007FF000F03C00C0040A8
:103030001FF8601800600800400E01C007FF000084
:1030400000000184000184001987800F8CE0078C48
:103050002000CC0003FFE01FFFC0000000000000C4
:10306000000000000000000000CABE0000000000D8
:10307000000E00001FFFC0007FE000000000000005
:10308000000000000000003FC03FFFE000300000F3
:1030900030000030000613000C13C00C18F0181894
:1030A00000181800000000000000000000000000F0
:1030B000000000B4A50000000000000601800FC160
:1030C000801E6180304FC020CFE0078D303FC93077
:1030D0003379303379303FFB3037FF203267E03FC0
:1030E000E3803FE3C03263603267F0304FB00000EE
:1030F00000000000000000000000000000C3FE000F
:1031000000000000000030C000FFF00C79C00C1F70
:10311000800C7FE03FE0600CC0300CFC3004C0301D
:1031200007C0301E60603C3FC0041C00047FE0000C
:10313000FFE00030C0006060000000000000000000
:1031400000000000000000CAE40000000000000CC5
:1031500003800C0FC0081C703F70001F9FC0101F21
:10316000C0100000367C3017E6301FE3B0067FB099
:103170000277F007E3F03F7FF01336F003263003C9
:1031800026300000000000000000000000000000E9
:1031900000C8EB00000000000006000003800001F2
:1031A000C00000E00000700000780000CC0000C605
:1031B000000183000301800700C00600E00C0070DE
:1031C000180030180000300000000000000000006F
:1031D00000000000000000000000000000000000EF
:1031E00000000000000000000000000000000000DF
:1031F00000000000000000000000000000000000CF
:1032000000000000000000000000000000000000BE
:105A500000000000000020080000000020000008F6
:105A600000002000200800002000820905126A0CB6
:105A7000300D350D1605760BEF08E4000000200010
:105A800000000000200000080100010020000000CC
:105A900000002000000000000000000000000000E6
:105AA00000000000000000080000010020000000CD
:105AB00001080000000081002000000800004000F4
:105AC0002000400000000000000000000000000076
:105AD00000000000000000000000000000000000C6
:105AE00000000000000000000000000000000000B6
:105AF00000000000000000000000000000000000A6
:105B00000000000000000000000000000000000095
:105B10000000000000000000000000000000000085
:105B20000000000000000000000000000000000075
:105B30000000000000000000000000000000000065
:105B40000000000000000000000000000000000055
:105B50000000000000000000000000002000000025
:105B6000000060000000C525551FFD079D17BE17EA
:105B7000FF07FF07FF07FE17FF1FFE1CB310C5003E
:105B800000000008000000002000200801000000C4
:105B900000080000210000000000000000000000DC
:105BA00000000000000002082008000001002002A0
:105BB00006253416191F1B26DB05D81DFA171B1ED8
:105BC0003709A600200000000000000000000000CF
:105BD00000000000000000000000000000000000C5
:105BE00000000000000000000000000000000000B5
:105BF00000000000000000000000000000000000A5
:105C00000000000000000000000000000000000094
:105C10000000000000000000000000000000000084
:105C20000000000000000000000000000000000074
:105C30000000000000000000000000000000000064
:105C40000000000000000000000000000000000054
:105C50000000000000000000000020000000000024
:105C60004008000A8B1F9D0FFF07FF07BF17FF07A4
:105C7000FF07DF0FFF07DF07FF07FF07DF07FE153F
:105C8000D611C8002100000820000000000000001C
:105C90000000010000000000000000000000000003
:105CA0000000000000000008000000084111A917D2
:105CB000FF1DB60B4B0249124A02CA0ACA0A6912F0
:105CC000AA006300010000000000000000000000C6
:105CD00000000000000000000000000000000000C4
:105CE00000000000000000000000000000000000B4
:105CF00000000000000000000000000000000000A4
:105D00000000000000000000000000000000000093
:105D10000000000000000000000000000000000083
:105D20000000000000000000000000000000000073
:105D30000000000000000000000000000000000063
:105D40000000000000000000000000000000000053
:105D5000000000000000000000000000010820001A
:105D6000000105275C07FF07DF07FF07FF07FE07A6
:105D7000FE07FF0F9F07FF07FF07FF0FDF07BF07A4
:105D8000FF077B1BD0100000200020002000000037
:105D900001002008000000000000000000000000DA
:105DA000000000000000000020002008002D971DCA
:105DB000970000000000000020000000000020000C
:105DC00000000000200000000000000000000000B3
:105DD00000000000000000000000000000000000C3
:105DE00000000000000000000000000000000000B3
:105DF00000000000000000000000000000000000A3
:105E00000000000000000000000000000000000092
:105E10000000000000000000000000000000000082
:105E20000000000000000000000000000000000072
:105E30000000000000000000000000000000000062
:105E40000000000000000000000000000000000052
:105E50000000000000002008000800000000001002
:105E6000831E5807FF079F07FF07FF0FFF0FFF075E
:105E7000DF07DF07FF0FDE07FF07FF0FDF07FF0763
:105E8000FF0FFF0FDF2618090500000000000100CA
:105E90006100000020000000000000000000000081
:105EA000000000000008000001080000000D33257C
:105EB000F80000000000000020002000200020006A
:105EC00000080000000000000000000000000000CA
:105ED00000000000000000000000000000000000C2
:105EE00000000000000000000000000000000000B2
:105EF00000000000000000000000000000000000A2
:105F00000000000000000000000000000000000091
:105F10000000000000000000000000000000000081
:105F20000000000000000000000000000000000071
:105F30000000000000000000000000000000000061
:105F40000000000000000000000000000000000051
:105F50000000000000000008000000000000410BED
:105F60000C0FFE07FF07FE07FF07FF07DF07FF070E
:105F7000FF07DF07FF07FF07DF07FF07BF07DF0791
:105F8000FF07FF07FF07DF1F1B328B000000200801
:105F900001002000000000000000000000000000E0
:105FA0000000000000002000000063002011870FA7
:105FB0003C1CD40A690946082200821063000100D3
:105FC000C3000000400000000000000000000000CE
:105FD00000000000000000000000000000000000C1
:105FE00000000000000000000000000000000000B1
:105FF00000000000000000000000000000000000A1
:106000000000000000000000000000000000000090
:106010000000000000000000000000000000000080
:106020000000000000000000000000000000000070
:106030000000000000000000000000000000000060
:106040000000000000000000000000000000000050
:106050000000000000000000000020100000200DE3
:106060005407DF07DF07FD07DE07FF07FF07DF0F26
:10607000DF07FF07FF07DF07DF0FFF07FF07DF0768
:10608000FF07FF0FDE0FFF07FF0FFD1B4D00000096
:1060900021000100000000000000000000000000DE
:1060A00000000000000001006000010800008015F1
:1060B000341FFF07DE1F3A16B90E391E3A16FB1EB3
:1060C00016090400000000000000000000000000AD
:1060D00000000000000000000000000000000000C0
:1060E00000000000000000000000000000000000B0
:1060F00000000000000000000000000000000000A0
:10610000000000000000000000000000000000008F
:10611000000000000000000000000000000000007F
:10612000000000000000000000000000000000006F
:10613000000000000000000000000000000000005F
:10614000000000000000000000000000000000004F
:106150000000000000000000010000002000001509
:106160007607DF0FFE07FF07FF07FF07FF07FF07A1
:10617000FF07FF07FF0FDF0FFF07BF07FF07FF0F37
:10618000BF07FF07FF07FE07FF0FDF1FFF147100A8
:1061900000080008010000000000000000000000EE
:1061A0000000000000000000000800080013AD0F10
:1061B000FF15B709250104012411450904016501F2
:1061C00004002100000000000000000000000000AA
:1061D00000000000000000000000000000000000BF
:1061E00000000000000000000000000000000000AF
:1061F000000000000000000000000000000000009F
:10620000000000000000000000000000000000008E
:10621000000000000000000000000000000000007E
:10622000000000000000000000000000000000006E
:10623000000000000000000000000000000000005E
:10624000000000000000000000000000000000004E
:106250000000000000004008010000004000001C99
:106260007217FF07DF07FF07FF07DF07FF07FF07BB
:10627000FF07FF07FF07FF07FF07FF07FF07FF07EE
:10628000FF07FF07FF07FF07FF07BF07FF17BE1343
:1062900090000100400002004000000001002000CA
:1062A000200001000100400801000010001FDD0473
:1062B0007208000000000100000020000000000043
:1062C000010041000000000000000000000000008C
:1062D00000000000000000000000000000000000BE
:1062E000000000080000200000000000400000083E
:1062F0000008000020000000000000000000000076
:10630000000000000000000000000000000000008D
:10631000000000000000000000000000000000007D
:10632000000000000000000000000000000000006D
:10633000000000000000000000000000000000005D
:10634000000000000000000000000000000000004D
:10635000000000000000000000100000000000022B
:1063600008177C07FF07FD07FE07FF07FF07DF0F82
:10637000FF07FF07FE07FF07FF07FF07FF07FF07EE
:10638000FF07FF07FF07DF0FDF07FF07FF0FFF1FF5
:10639000BD0C0F0001000000000020000000000004
:1063A0004100000800002008000021002113AE2653
:1063B000FB01660800000000210020100000000022
:1063C00000000000000000000000000000000000CD
:1063D000000000000000000020000000000000009D
:1063E000000020002000000041000000000000002C
:1063F000200000000000200020000000000000003D
:10640000000000000000000000000000000000008C
:10641000000000000000000000000000000000007C
:10642000000000000000000000000000000000006C
:10643000000000000000000000000000000000005C
:10644000000000000000000000000000000000004C
:1064500000000000000000004000000000080000F4
:10646000001CF407FF07FF07FF07FF07FF07DF0711
:10647000FF0FFF07FF07FF07FF07FF07FF07FF07E4
:10648000FF07FF07FF07FF0FDF0FFF07FF079F0F44
:10649000FF0F7C141100000000080000000000083D
:1064A0000100200000000008000041000018E53E47
:1064B000FD07FE2516134D1B6E1BCF13AD138D1B51
:1064C000EF010400000000000000000000000000D8
:1064D000000000000000000020000000000000009C
:1064E0002000200000080000000000080008000054
:1064F000000000002200000000000000000000007A
:10650000000000000000000000000000000000008B
:10651000000000000000000000000000000000007B
:10652000000000000000000000000000000000006B
:10653000000000000000000000000000000000005B
:10654000000000000000000000000000000000004B
:10655000000000000008000800000000000000002B
:10656000000A4A1F1C0FFF07DF07DF07FF0FFF07A7
:10657000FF07FF07DF07FF07FF07FF07FF07FF070B
:10658000FF07FF07FF07FF07DF07FF0FFF07DF0713
:10659000DF0FFF07FF130C002008000801000008B0
:1065A0000000000020000000000040002029C72C4F
:1065B00091148F1CB21CD41CB23C11149225351DB1
:1065C0009501A8002300000000000000000000006A
:1065D00000000000000000000000000800000000B3
:1065E000200000100000400000000000000021001A
:1065F000000000000000000000000000000000009B
:10660000000000000000000000000000000000008A
:10661000000000000000000000000000000000007A
:10662000000000000000000000000000000000006A
:10663000000000000000000000000000000000005A
:10664000000000000000000000000000000000004A
:1066500000000000000020002100200020000000B9
:106660000100010A071E9A1FDF07FF07DF07DF0788
:10667000FF07FF07FF07FF07FF07FF07FF07FF07EA
:10668000FF07FF07FF0FFF07DF07DF0FFF07FF070A
:10669000FF07DF07FF179E01E8002100010000004F
:1066A0002008000020000000000020002000000062
:1066B0002309450B8E0D5414F213AE0B0C0062002F
:1066C0002008600802000000000000000000000038
:1066D00000000000000000000000000000000000BA
:1066E00000000000A20000002100000000080000DF
:1066F000000000000000200020002000200000001A
:106700000000000000000000000000000000000089
:106710000000000000000000000000000000000079
:106720000000000000000000000000000000000069
:106730000000000000000000000000000000000059
:106740000000000000000000000000000000000049
:106750000000000000000008010000000000200010
:106760000100000000004114B20FFE07FF07FF0FF9
:10677000FF07FF07FE07FF07FF07FF07FF07FF07EA
:10678000FF07FF07FF07DF07FF07FF07FF07FF07F9
:10679000FF07DF0FDF07DF1F7D132C08000000005D
:1067A0000000010000080100000001002000C30DEE
:1067B000571FDF16DB0D960C721596177D273B02CF
:1067C00027000000010000000000000000000000A1
:1067D00000000000000060080008000040002010D9
:1067E000000061248F255501880801002000400029
:1067F000001021000108000000000000000000005F
:106800002000000000000000000000000000000068
:106810000000000000000000000000000000000078
:106820000000000000000000000000000000000068
:106830000000000000000000000000000000000058
:106840000000000000000000000000000000000048
:106850000000000000000000000000000000000038
:10686000000800000008A31CD20FFE07FF07FF0767
:10687000FF07FF0FFF07FF07FF07FF07FF07FF07E0
:10688000FF07FF07FF07FF0FFF07FF07FF07FF0FC8
:10689000BE07DF07FF1FFF177D01E700000020088C
:1068A00000002000000000002000010820130C2739
:1068B000FE1AAA082008000040000000642DD81F1E
:1068C0009D01A8080000000000000000000000007A
:1068D0000000000000002008000800002000201038
:1068E00000002002261F9D17BC0E570BAE11A700FB
:1068F000610000080000010001000100000000002C
:106900000000000000000000000000000000000087
:106910000000000000000000000000000000000077
:106920000000000000000000000000000000000067
:106930000000000000000000000000000000000057
:106940000000000000000000000000000000000047
:1069500000000000000020000000400800080000C7
:106960002000000A292F7D0FFF07FF07DF0FFE071A
:10697000FE07DF07FF07FF07FF07FF07FF07FF0708
:10698000FF07FF07FF07FF07FF07DF07FF07FF07F7
:10699000FF07FF17FF07FE120A0801002100000091
:1069A00020080000200020080200000020157624A6
:1069B000D408000000000108020000004000010FA0
:1069C0007B02EC000000000000000000000000005E
:1069D00000000000000000000000000000000000B7
:1069E0000000000801006109251B4E2DB726FB168B
:1069F000DA15951C50032B0B0B0A69014500410069
:106A0000000000080000000000000000000000007E
:106A10000000000000000000000000000000000076
:106A20000000000000000000000000000000000066
:106A30000000000000000000000000000000000056
:106A40000000000000000000000000000000000046
:106A500000000000000800002000000000002008E6
:106A60000009A7177E07FF07FF07FF07FF07FF07BC
:106A7000FF07FF07FF07FF07FF07FF07FF07FF07E6
:106A8000FF07FF07FF07FF07DF07FE0FDF07BF074F
:106A9000FF07FD0F5D1944004000000000000000EA
:106AA0000000000000000000000041000014D22699
:106AB0003600200001080000400000000001842F83
:106AC0005F016500000000002000200800080000B1
:106AD00000000000000000000000000000000000B6
:106AE0000000000000000008000000000000C302D9
:106AF000080BEF25751FBE1F1D2FDF1FBE053402BB
:106B0000AB09A601030000000000400801002100BD
:106B10006100000001000000000000000000000013
:106B20000000000000000000000000000000000065
:106B30000000000000000000000000000000000055
:106B40000000000000000000000000000000000045
:106B500000000000000000000000200000002008ED
:106B6000421DF50FFF07FF07FF07FF07FF07FF079E
:106B7000FF07FF07FF07FF07FF07FF07FF07FF07E5
:106B8000FF07FF07FF0FDF07FE07FF07DF07FF070E
:106B9000FF07FF1ACB0061000000000000000000AA
:106BA0000000000000000000600000000010E62F60
:106BB0009D0B6D082000010800000020C716390554
:106BC000B7100000000801000000000020000000D5
:106BD00000000000000000000000000000000000B5
:106BE0000000000000002000200020000000000045
:106BF000000000006200620082010512EC1D141EFC
:106C00001826BC1FBF163B1C32138D014410000810
:106C10000000000000000000000000000000000074
:106C20000000000000000000000000000000000064
:106C30000000000000000000000000000000000054
:106C40000000000000000000000000000000000044
:106C500000000000000020000000000000002001F3
:106C6000C827FF07FF07FF07FF07FF07FF07FF070B
:106C7000FF07FF07FF07FF07FF07FF07FF07FF07E4
:106C8000FF07FF07FF0FDE07FF07FF0FFF07FF0FDD
:106C9000DF141000000000000000000000000000F1
:106CA00000000000000001080000000861198627AC
:106CB0001D0FFF1EDA2579161716782F9D0FFF1668
:106CC0007A1DB625F83DF5124900010800002000A4
:106CD0002000000000000000000000000000000094
:106CE0000000000000000000000000000000200084
:106CF000000000000000000020004000000800002C
:106D00000000E309E70C1016990EDB2EDC15F61DCA
:106D100052092300000000000000000000000000F5
:106D20000000000000000000000000000000000063
:106D30000000000000000000000000000000000053
:106D40000000000000000000000000000000000043
:106D500000000000000020000000000000000014FF
:106D60001117BF07DE07FF07FF07FF07FF07FF0732
:106D7000FF07FF07FF07FF07FF07FF07FF07FF07E3
:106D8000FF07FF07FF07FF07FF07FF07DF07FF14E6
:106D900010080000000000000000000000000000DB
:106DA0000000200000000000200041080019230A14
:106DB000A909C80AED036D0B4B0CF30AAB09642358
:106DC0002B04B413700B0B0104000008000000003A
:106DD0000008200800000000000000000000000083
:106DE0000000000000080008000000000000000093
:106DF000000000002100200000000000000800004A
:106E0000000020000000000020002000200AEE17F3
:106E1000FF2639080200000000000000000000000A
:106E20000000000000000000000000000000000062
:106E30000000000000000000000000000000000052
:106E40000000000000000000000000000000000042
:106E50000000000000000008000020000000002CDE
:106E6000F417FF07DF07FF07FF07FF07FF07FF070D
:106E7000FF07FF07FF07FF07FF07FF07FF07FF07E2
:106E8000FF07FF07FF0FBF0FFF07DF0FFF24F20011
:106E900000080008000000000000000000000000E2
:106EA000000000000000200040000000200800005A
:106EB000010AC91615259725941E9C05F80209009C
:106EC0000000010020000100000000002000200060
:106ED0002000000000000000000000000000000092
:106EE00000000000000000000000000000000000A2
:106EF0000000000000000000200000000000610011
:106F000000000000400800080100E41C7116BB1FCF
:106F1000FF1BD10020000000000000000000000066
:106F20000000000000000000000000000000000061
:106F30000000000000000000000000000000000051
:106F40000000000000000000000000000000000041
:106F50000000000000000000000000082000000AFF
:106F60008B07FF07FF07FF07FF07FF07FF07FF0765
:106F7000FF07FF07FF07FF07FF07FF07FF07FF07E1
:106F8000FF07FF07FF07FF07FF17DF136F00000072
:106F900020000000200000000000000000000000B1
:106FA000000000000000000000080008000061155B
:106FB000B8277E24121A4919E60AAA1DB637FF2BF4
:106FC000AF000000000020002000200000000000B2
:106FD0002000200821000000000000000000000048
:106FE0000000000000000000000020002000400021
:106FF0004000200020000000000000000000000011
:1070000001014612EB0596267B269B25F7036D01B1
:10701000A5000010000000000000000000000000BB
:107020000000000000000000000000000000000060
:107030000000000000000000000000000000000050
:107040000000000000000000000000000000000040
:107050000000000000002000210020000008212284
:10706000292FFD07FF07FF07FF07FF07FF07FF07A0
:10707000FF07FF07FF07FF07FF07FF07FF07FF07E0
:10708000FF07FF07FF07FD0FFF0D5300400800003B
:107090004008200000000000000000000000000088
:1070A00000000000000000004000010000134D1F20
:1070B000FD112700400021000000200020022A3797
:1070C000DF098500001000082000200000080010E3
:1070D00001080000000000000000000000000000A7
:1070E00000000000000000000000000000000000A0
:1070F00000000000000800080009241B0C24921E58
:1071000059175D16FD0D73128900800000002000E4
:10711000000000000000000000000000000000006F
:10712000000000000000000000000000000000005F
:10713000000000000000000000000000000000004F
:10714000000000000000000000000000000000003F
:1071500000000000000800000000200000080000FF
:10716000201C910FDF07FF07FF07FF07FF07FF073F
:10717000FF07FF07FF07FF07FF07FF07FF07FF07DF
:10718000FF07FF07FF267A19E80000002000000033
:1071900000000000000000000000000000000000EF
:1071A000000000000000000001000000201DF61497
:1071B000F30000000100000020100000001104276F
:1071C0007E0165002000400000000000000001007A
:1071D000000000004000000000000000000000006F
:1071E000000000000000000000000000000001009E
:1071F000A409C8126A0CD316D91F3B1DF714D30B70
:107200006D0185002000010800002000000020081A
:107210000008000021000000000000000000000045
:10722000000000000000000000000000000000005E
:10723000000000000000000000000000000000004E
:10724000000000000000000000000000000000003E
:107250000000000000000000000000002000000806
:10726000000A09277B07FE07FF07FF07FF07FF0745
:10727000FF07FF07FF07FF07DF07FF07FF07BF0F36
:10728000FF0FBE1CB4000000000000000000000062
:1072900000000000000000000000000000000000EE
:1072A000000000000000400000000008000C2F1F3C
:1072B0003B10250040000000000040082101E82F9D
:1072C000BA08E600210000000000000000000000F5
:1072D000000000000000010801002008000020005C
:1072E0000000000000000000E301E802ED0D150FB2
:1072F0009D1FFF1E9B1C4F0ACA01040000000000D6
:10730000000000000000000000000000000000007D
:10731000000000000000000000000000000000006D
:10732000000000000000000000000000000000005D
:10733000000000000000000000000000000000004D
:10734000000000000000000000000000000000003D
:1073500000000000000000000000000000004008E5
:1073600000080109471EDC179E07FF07FF07FF07FC
:10737000DF0FFF07FF17BF07FF07FF0FDF17FF1E16
:107380007912AB00000000000000000000000000C7
:1073900000000000000000000000000000000000ED
:1073A0000000000000000010C300E3088301EA1F92
:1073B000FF0E99022808E320C400E4030D1FDC231C
:1073C000F10021100000000000000000000000009B
:1073D000000000000000200060000000011000001C
:1073E00040002011871C122F7C17FD0ED92EDA14B5
:1073F000B101860021002200010800000000000009
:10740000000000000000000000000000000000007C
:10741000000000000000000000000000000000006C
:10742000000000000000000000000000000000005C
:10743000000000000000000000000000000000004C
:10744000000000000000000000000000000000003C
:10745000000000000000000000000000000020000C
:10746000400800080001670B8E163617DD0FFF0776
:10747000FF07FF07FF07FF0FFF17DC0DD50AAB0063
:107480004300000040000000000000000000000079
:1074900000000000000000000000000000000000EC
:1074A0000000000000088226B91FFF1F9D07FE0F85
:1074B000FF07DF0FFF1FDE175D17FF17FF0FFF0628
:1074C0003709A700200000000000000000000000B5
:1074D0000000000000000000200000000010C52C8B
:1074E000102E183EBA1534030D00E51001080000F7
:1074F0004000600000080008000800002000200094
:10750000200000100000000000000000000000004B
:10751000000000000000000000000000000000006B
:10752000000000000000000000000000000000005B
:10753000000000000000000000000000000000004B
:10754000000000000000000000000000000000003B
:10755000000000000000000000002100000000000A
:10756000200020004008200000000008E51AAC1CA4
:107570009315F70658141111E908A40061000000E2
:10758000000061002000000000000000000000007A
:1075900000000000000000000000000000000000EB
:1075A0000000000000000001A6028A09E80AEA1AA9
:1075B000EC232D0A69018601C609E7016609670205
:1075C00008080100000000000000000000000000AA
:1075D00000000000001000000000641D13371B2D88
:1075E000B80A2B00820000080000200020082000BC
:1075F00000000008010040002000200020000000E2
:10760000000000000000000000000000000000007A
:10761000000000000000000000000000000000006A
:10762000000000000000000000000000000000005A
:10763000000000000000000000000000000000004A
:10764000000000000000000000000000000000003A
:107650000000000000000000000000000008010819
:1076600000000000000020002008000800000000CA
:107670000000000000004000200000000000410069
:1076800000080000000000000000000000000000F2
:1076900000000000000000000000000000000000EA
:1076A0000000000000000000010061080000200050
:1076B0002100000000000000200800080000200059
:1076C0000100210001000000000000000000000097
:1076D0000000000000000100220AEC27FC09C8009D
:1076E0000000200800000000000800080100010060
:1076F000000000004000200000000008000800001A
:107700000000000000000000000000000000000079
:107710000000000000000000000000000000000069
:107720000000000000000000000000000000000059
:107730000000000000000000000000000000000049
:107740000000000000000000000000000000000039
:107750000000000000002008000000000000000001
:1077600000000008000000000000200020000000D1
:107770000000200020000000200000000000200089
:1077800000000008200000000000000000000000D1
:1077900000000000000000000000000000000000E9
:1077A0000000000000002008000800000008000899
:1077B0000000000040000000200020002000000029
:1077C0002000000820000000000000000000000071
:1077D00000000000000020080001672F1A25540255
:1077E0000900000020000000000020000000200030
:1077F0000000000000000000000000000000000089
:107800000000000020000000000000000000000058
:107810000000000000000000000000000000000068
:107820000000000000000000000000000000000058
:107830000000000000000000000000000000000048
:107840000000000000000000000000000000000038
:107850000000000000002008000000000000000000
:107860000000200020002000200000000000000098
:1078700000000100000001080000000020000000DE
:1078800000004000000000000000000000000000B8
:1078900000000000000000000000000000000000E8
:1078A0000000000000080100000020002008000087
:1078B0000108210000002000000000000000200856
:1078C0000000410000000000000000000000000077
:1078D000000000000008000800000008C3249036E3
:1078E000FB365A134E0943004000200020080100D7
:1078F0000000000800000000000020002000000040
:107900000000000000000000000000000000000077
:107910000000000000000000000000000000000067
:107920000000000000000000000000000000000057
:107930000000000000000000000000000000000047
:107940000000000000000000000000000000000037
:1079500000000000000000000000200020000000E7
:1079600000002008000000000008000000002000C7
:10797000200000000000200000080000010020009E
:1079800000080000000000000000000000000000EF
:1079900000000000000000000000000000000000E7
:1079A000000000000000200021080100010000008C
:1079B000800000000100000800000000200000001E
:1079C000200800000000000000000000000000008F
:1079D0000000000000002100000841000008000035
:1079E0004122AB15B62EFD15F71C300945000000ED
:1079F0000000200020000000000000000000000047
:107A00000000000000000000000000000000000076
:107A10000000000000000000000000000000000066
:107A20000000000000000000000000000000000056
:107A30000000000000000000000000000000000046
:107A40000000000000000000000000000000000036
:107A500000000000000020000000000001004000C5
:107A600001000000000800000000000021002008C4
:107A700000000000000000002000000800000000DE
:107A8000200000000000200800002000001000007E
:107A90002000000800080000000020002000000076
:107AA000210000000000000020000008000000008D
:107AB000001000000000000020002008000000006E
:107AC0004000400000000000000000000000000036
:107AD00000000000000000000000000000000000A6
:107AE00000000000000103034C1658273D1E9C16A1
:107AF000580C90094508820000000000200000009A
:107B000000000000200000102000000021080000FC
:107B10000000600000000000000000000000000005
:107B20000000000000000000000000000000000055
:107B30000000000000000000000000000000000045
:107B40000000000000000000000000000000000035
:107B500000000000000000000000000020002000E5
:107B6000000000000000210840000000010020008B
:107B700000000000000000080000000000002000DD
:107B800000082000200020004000010022004100E9
:107B9000000104016600E409A71AAA230C1B0B12BA
:107BA000EB12EB132B12ED132D096600820060001F
:107BB0000000200021000000200800000000000854
:107BC000000020082000000000000000000000006D
:107BD00000000000000000000000000000000000A5
:107BE000000000000010010000004008E21A6915C2
:107BF000950F9D073E17BE1D9612AB00E300410096
:107C00000100010001004100200000000000000808
:107C1000000000080000000000000000000000005C
:107C20000000000000000000000000000000000054
:107C30000000000000000000000000000000000044
:107C40000000000000000000000000000000000034
:107C500000000000000020000008000800000011E3
:107C6000870186098700C300000000080100200882
:107C700040000000000000080000000000000000BC
:107C800020080000200801080001850C2D04F226C0
:107C9000791F9D07FD0FFF07FF07FF07FF07FF0F76
:107CA000FF07FF07FF0FFE17DF0FFF0EFC15D714AE
:107CB000B109C60800000000000000000000000834
:107CC0000000000020000000000000000000000094
:107CD00000000000000000000000000000000000A4
:107CE0000000000000000000000020000000000074
:107CF0002108831023020924D31E7916DB273C15A3
:107D0000B6028900800001080000000800000000A1
:107D100040000000410000000000000000000000E2
:107D20000000000000000000000000000000000053
:107D30000000000000000000000000000000000043
:107D40000000000000000000000000000000000033
:107D50000000000000080000000020080000E31EF2
:107D6000BA07FE0FFF23AE0040000008010020000C
:107D700000000000000020000000000000002000C3
:107D800020180000000041122A1EDB07FF0FFF0F22
:107D9000DF17FF07FF07FF07FF07FF07FF07DF07E3
:107DA000FF07FF07FF0FFE07DE07FF07FF079F071D
:107DB000FF0FDE1DD80A8A002108000800002000FD
:107DC000200800004000000000000000000000004B
:107DD00000000000000000000000000000000000A3
:107DE0000000000000000000000001002000000072
:107DF000000040004008000000002000A2028A1598
:107E0000951F5C173D16BA13AF01040081000000F6
:107E10000100410000000000000000000000000020
:107E20000000000000000000000000000000000052
:107E30000000000000000000000000000000000042
:107E40000000000000000000000000000000000032
:107E50000000000000000000000000080000832770
:107E60005D07FF07FF2CB2000000000801000000C2
:107E700020000000000000002000000000000008BA
:107E800021000102081E180FFF07FF07DF07FF1779
:107E9000DF0F7D173D0DD715D715B614F40C310B38
:107EA000F013F01411155616180F7D07FF07FF0782
:107EB000FF07FF07DF1FFF2411000008400000003C
:107EC000000040080000000000000000000000006A
:107ED00000000000000000000000000000000000A2
:107EE0000000000000000000000000000000000092
:107EF000000000000000000000000000400000083A
:107F00000008A30A081C101E591F7F17BE14B211C7
:107F1000040020000100000000000000000000003C
:107F20000000000000000000000000000000000051
:107F30000000000000000000000000000000000041
:107F40000000000000000000000000000000000031
:107F50000000000000000000010000000000811F80
:107F60001B07DE0FFF14910000000000000000005E
:107F700000000000000020000008000821000000B0
:107F800000028A27FE07FF07BE07FF07FF0FBE0399
:107F9000B009450080002000000020000000000023
:107FA00000000000000000002009A611870B6E0FE2
:107FB0005B07FF07DF07FF0FFE35540021000000BD
:107FC0000108000020000000000000000000000088
:107FD00000000000000000000000000000000000A1
:107FE0000000000000000000200000000000000071
:107FF0000000000000002008001000002100200008
:1080000000000000000800000001E70D7607FF0FE8
:10801000DE1B2D000000000000000000000000003A
:108020000000000000000000000000000000000050
:108030000000000000000000000000000000000040
:108040000000000000000000000000000000000030
:108050000000000000000008010000004000C217FE
:108060003B07FE07FE149200000020000000000005
:1080700000000000200000000008000000080000D0
:10808000C42F5C07BE0FFF0FFF17BE0BAF08E40045
:108090002000000800000000000020000000000098
:1080A00000000000000002000008000000000009BD
:1080B000250CD30FBC07DF07FF07FE1D550002008C
:1080C0000000200000000000000000000000000090
:1080D00000000000000000000000000000000000A0
:1080E0000000000000000000200000000000200050
:1080F00020000100010000006100210001002100BA
:1081000040002000000040002001032B8F2F3C275F
:108110009C1AAB00000000000000000000000000FE
:10812000000000000000000000000000000000004F
:10813000000000000000000000000000000000003F
:10814000000000000000000000000000000000002F
:10815000000000000000200001000008001063176C
:108160003D07FF0FFF1CB2000000200000000000D0
:108170000008010020000000200000004000002C4A
:108180002F07FD0FFF0FDF0FFE147100010000002D
:10819000000021000000000000002000000000009E
:1081A0000000000000080000200060000000010046
:1081B00001000019E72F5D07DF07FF17BE0C4F0016
:1081C000001000002000000000000000000000007F
:1081D000000000000000000000000000000000009F
:1081E000000000000008000020000008000000005F
:1081F000000000000000000000000008000800006F
:10820000810209136F0D781F5C2E9A2513128A00C4
:1082100082002008000000000000000000000000B4
:10822000000000000000000000000000000000004E
:10823000000000000000000000000000000000003E
:10824000000000000000000000000000000000002E
:108250000000000000000000000000000000A11766
:108260001D07FF07FF1C7300000020000000000036
:108270000000000020000000000000000000C327F4
:108280003B07FF07FF071B0A08080000000001006A
:1082900001000000000000000000000000000000DD
:1082A00000000000000000000000000000000000CE
:1082B0000000000000122717DE07FF07FF0F7E01F6
:1082C0004300000801000000000000000000000062
:1082D0000000000000080000000000000000600036
:1082E0000008000021000000010021000100010041
:1082F000000000000000200104128B14B316BA170E
:10830000FE1FBE16DB0CEF028800411000080000C3
:10831000000000000000000000000000000000005D
