:020000040800F2
:10000000D0600020910600086D0400086F0400080D
:1000100073040008770400087B0400080000000057
:100020000000000000000000000000008502000841
:100030007F04000800000000D902000859310008C0
:10004000AB060008AB060008AB060008AB060008CC
:10005000AB060008AB060008AB060008AB060008BC
:10006000AB060008AB060008AB060008AB060008AC
:10007000AB060008AB060008AB060008AB0600089C
:10008000AB060008AB060008AB060008AB0600088C
:100090003F5E0008AB060008AB060008AB06000890
:1000A000AB060008B7590008AB0600080F56000859
:1000B000CB370008E3370008FB370008AB06000821
:1000C000AB060008AB060008AB060008AB0600084C
:1000D000AB060008994E0008734F0008B3520008A1
:1000E000AB060008AB060008AB060008AB0600082C
:1000F000AB060008AB060008AB060008AB0600081C
:10010000AB060008AB06000813380008AB06000871
:10011000AB060008AB060008AB060008AB060008FB
:10012000AB060008AB060008AB060008AB060008EB
:10013000AB060008AB060008AB060008AB060008DB
:10014000AB060008AB060008AB060008AB060008CB
:10015000AB060008AB060008AB060008AB060008BB
:10016000AB060008AB060008AB060008AB060008AB
:10017000AB060008AB060008AB060008AB0600089B
:10018000AB060008AB06000800F002F800F06AF8C1
:100190000AA090E8000C82448344AAF10107DA45E2
:1001A00001D100F05FF8AFF2090EBAE80F0013F0CA
:1001B000010F18BFFB1A43F0010318471CFA000097
:1001C0003CFA00000A444FF0000C10F8013B13F019
:1001D000070408BF10F8014B1D1108BF10F8015BA0
:1001E000641E05D010F8016B641E01F8016BF9D193
:1001F00013F0080F1EBF10F8014BAD1C0C1B09D1EA
:100200006D1E58BF01F801CBFAD505E014F8016B5B
:1002100001F8016B6D1EF9D59142D6D370470000ED
:100220000023002400250026103A28BF78C1FBD8FF
:10023000520728BF30C148BF0B60704764290BF0DC
:10024000818375290BF07E8363290BF0FE8473296B
:100250000BF00385002070471FB50EF0C0F81FBDDE
:1002600010B510BD0BF070FD1146FFF7F5FF00F063
:10027000AFF80BF08EFD03B4FFF7F2FF03BC02F002
:10028000EDFF00002A4B19680868B0E8F04F80F3D2
:100290000988BFF36F8F4FF0000080F3118870471B
:1002A0000000000006480068006880F3088862B615
:1002B00061B6BFF34F8FBFF36F8F00DF00BF00BF8A
:1002C00008ED00E0DFF80C00016841F47001016006
:1002D000704700BF88ED00E0EFF30980BFF36F8F38
:1002E000134B1A681EF0100F08BF20ED108A20E98A
:1002F000F04F106008B44FF0500080F31188BFF346
:100300004F8FBFF36F8F09F010FD4FF0000080F3A7
:10031000118808BC19680868B0E8F04F1EF0100F8B
:1003200008BFB0EC108A80F30988BFF36F8F704765
:10033000A8010020EFF30580704700001CB50446BB
:100340000BF081F8002004210346CA01CDE900101A
:1003500028A12C4809F042F90020032103464FF45C
:100360008072CDE9001028A12B4809F037F9002050
:10037000032103464FF40072CDE9001027A12A485B
:1003800009F02CF90020032103468022CDE900105A
:1003900026A1294809F022F90020032103464FF441
:1003A0008072CDE9001025A1274809F017F9002037
:1003B00004210346CA01CDE9001024A1264809F012
:1003C0000DF92648006809F057F90BF05FF81CBDDD
:1003D0001CB505F02FFE2148042100238A01CDE938
:1003E00000101FA1AFF2AB0009F0F8F809F01FFEF2
:1003F00000201CBD42616C616E63655F7461736B4C
:1004000000000000EB8000084D5055363035305F5D
:100410007461736B000000005F6A000873686F7797
:100420005F7461736B000000276700086C65645F90
:100430007461736B00000000D93A000850535457A0
:100440004F5F7461736B000099440008444154414C
:100450005F7461736B000000A74A00080000002071
:1004600073746172745F7461736B0000704700BFD6
:10047000FEE700BFFEE700BFFEE700BFFEE77047F4
:100480000CB50020019000907648006840F4803060
:100490007449086000BF7348006800F400300090A1
:1004A0000198401C0190009818B90198B0F5A04F30
:1004B000F1D16C48006800F4003010B101200090C8
:1004C00001E0002000900098012846D165484030A6
:1004D000006840F08050634940310860624800681D
:1004E00040F44040604908605E48083000685D495B
:1004F000083108600846006840F40040086008467B
:10050000006840F4A05008605848091F0860081FA0
:10051000006840F08070091F086000BF5148006803
:1005200000F000700028F9D040F2057050490860D2
:100530004C480830006820F003004A490831086040
:100540000846006840F00200086000BF45480830D7
:10055000006800F00C000828F8D10CBD10B5454823
:10056000006840F47000434908603E48006840F06D
:1005700001003C49086000203A49083108603948C8
:1005800000683D490840374908603C48091D08603B
:10059000081F006820F48020091F086000203149EE
:1005A0000C310860FFF76CFF4FF000603149803973
:1005B000086010BD70B50020002202230024022133
:1005C000284D08352D6805F00C0020B1042806D010
:1005D000082834D107E02A4D2A4E356033E02A4DF1
:1005E000284E35602FE01F4D2D1D2D68C5F380541A
:1005F0001C4D2D1D2D6805F03F0154B1224DB5FB5A
:10060000F1F5184E361D3668C6F3881605FB06F25E
:1006100009E01B4DB5FBF1F5124E361D3668C6F3E9
:10062000881605FB06F20F4D2D1D2D68C5F30145FB
:100630006D1C6B00B2FBF3F5124E356003E0104DFC
:10064000104E356000BF00BF064D08352D68C5F35C
:1006500003150E4E705D0B4D2D68C540094E35607B
:1006600070BD000000380240007000400854400790
:10067000003C024088ED00E0FFFFF6FE1030002451
:100680000024F4000400002000127A00080000207A
:100690000948804709480047FEE7FEE7FEE7FEE716
:1006A000FEE7FEE7FEE7FEE7FEE7FEE70448054952
:1006B000054A064B704700005D05000889010008E7
:1006C000D05A0020D0600020D05C0020D05C0020F8
:1006D00032490143324A1160704770B5002100234E
:1006E0000F22C4781CB32E4C246804F4E064C4F5D3
:1006F000E064C4F30721C1F10404E3B20A41447881
:100700009C40E1B28478144021430C07210E254C13
:1007100005786155047804F01F050124AC40057884
:100720006D11AD0005F1E025C5F8004109E0047840
:1007300004F01F050124AC401B4D0678761145F8E6
:10074000264070BD194A0A400243154B1B1F1A6010
:10075000704739B1124A121D12680243104B1B1D1B
:100760001A6006E00E4A121D126882430C4B1B1DD4
:100770001A607047042808D14FF0E021096941F060
:1007800004014FF0E022116107E04FF0E021096918
:1007900021F004014FF0E022116170470000FA05DA
:1007A0000CED00E000E400E080E100E080FFFF1FCE
:1007B00010B50121080201F0AEFB00214FF480705A
:1007C00001F0A9FB10BD30B502460020002350689F
:1007D000F84C20400D790C6844EA05242043506011
:1007E0009068F54C2040D1E903542C438D682C438C
:1007F0004D7944EA450420439060D06A20F47000AB
:100800000C7D641EE4B2234340EA0350D06230BD45
:1008100000210160017141718160C16001610121AC
:10082000017570470021E54A1168E54A1140D0E999
:1008300000231A4383681A43C3681A431143E14AE9
:10084000C2F8041370470021016041608160C160FB
:10085000704721B1826842F00102826003E0826841
:1008600022F00102826070470A4600214168D64B9F
:1008700019401143416070474162826270470A46E5
:100880000021416821F01F0111434160704738B1D8
:10089000CA49096841F40001CA4AC2F8041306E0D3
:1008A000C649096821F40001C64AC2F8041370471A
:1008B00038B1C249096841F48001C24AC2F8041340
:1008C00006E0BE49096821F48001BE4AC2F804135B
:1008D0007047F0B504460D4600200021092D11DDBA
:1008E000E068A5F10A0606EB4607072606FA07F1B7
:1008F0008843A5F10A0606EB460603FA06F108430B
:10090000E0600CE0206905EB4507072606FA07F1D1
:10091000884305EB450603FA06F108432061072AE0
:100920000FDA606B561E06EB86071F2606FA07F1E4
:100930008843561E06EB860605FA06F108436063F7
:1009400022E00D2A0FDA206BD61F06EB86071F2642
:1009500006FA07F18843D61F06EB860605FA06F16C
:100960000843206310E0E06AA2F10D0606EB86075B
:100970001F2606FA07F18843A2F10D0606EB86064C
:1009800005FA06F10843E062F0BD816841F080415C
:1009900081607047014600208A6802F080420AB1F7
:1009A000012000E00020704721B1826842F480629B
:1009B000826003E0826822F480628260704721B125
:1009C000826842F00202826003E0826822F0020242
:1009D0008260704710B50A4600210023416821F467
:1009E0006041531E41EA4331416010BD21B142686C
:1009F00042F40062426003E0426822F40062426016
:100A000070470146C86C80B270476C48001D006892
:100A1000704721B1826842F48072826003E082688C
:100A200022F480728260704721B1826842F40072C1
:100A3000826003E0826822F400728260704738B1FD
:100A40005E49096841F400515E4AC2F8041306E0A9
:100A50005A49096821F400515A4AC2F804137047F0
:100A6000F0B504461546002000220026092911DDB4
:100A7000E068A1F10A0707EB470C072707FA0CF219
:100A80009043A1F10A0707EB470703FA07F2104367
:100A9000E0600CE0206901EB410C072707FA0CF23B
:100AA000904301EB410703FA07F210432061A06B6A
:100AB000C0F30156EF1C06F1010CA7EB0C0707EB86
:100AC000870C1F2707FA0CF29043EF1C06F1010C6C
:100AD000A7EB0C0707EB870701FA07F21043A063A7
:100AE000F0BD10B50A4600210023816B21F44011AE
:100AF000531E41EA0351816310BD08B500230093E2
:100B00000090009B0B440093009B1A6008BD0A46AE
:100B10000021816821F470211143816070470A46E9
:100B20000021816821F44011114381607047816880
:100B300041F4800181607047014600208A6802F418
:100B400080020AB1012000E00020704721B1426814
:100B500042F48062426003E0426822F480624260B4
:100B6000704721B1426842F48052426003E042681B
:100B700022F480524260704708B50246002000907F
:100B8000009201F12800009B184400900098006832
:100B900080B208BD10B50B460021D9B2012404FA79
:100BA00001F11AB144680C43446002E044688C438C
:100BB000446010BDFFFEFFFCFDF7FFC004230140B1
:100BC000E030FCFF00200140FFFD3FFF0246002017
:100BD00013680B400BB1012000E000207047CA43AE
:100BE0000260704770B502460020002300240B12FB
:100BF000556801268E4005EA060415681D4015B1AA
:100C00000CB1012000E0002070BD00220A12D34385
:100C10000360704710B50446FE48844209D10121A3
:100C2000480601F067F900214FF0007001F062F909
:100C300008E00121880601F05DF900214FF0806095
:100C400001F058F910BD30B50246002000231468A9
:100C500024F002041460146844F00104146000E0FD
:100C60005B1C546804F001041CB94FF6FF74A342E6
:100C7000F6D1546804F001040CB900206CE08C79C2
:100C8000012C04D1146844F08004146003E014685B
:100C900024F080041460CC79012C04D1146844F051
:100CA0004004146003E0146824F0400414600C7ADB
:100CB000012C04D1146844F02004146003E014688B
:100CC00024F0200414604C7A012C04D1146844F000
:100CD0001004146003E0146824F0100414608C7A8B
:100CE000012C04D1146844F00804146003E0146873
:100CF00024F008041460CC7A012C04D1146844F068
:100D00000404146003E0146824F0040414608C7874
:100D1000A407CD7844EA05640D7944EA05444D7989
:100D200044EA05540D886D1E2C43D461146824F0E8
:100D300001041460002300E05B1C546804F001040B
:100D40001CB14FF6FF74A342F6D1546804F00104BD
:100D50000CB1002000E0012030BD10B50021837AE5
:100D6000012202FA03F1AC4A126842F00102AA4BD6
:100D70001A60A94A1C3212688A43A74B1C331A60B6
:100D8000027BCAB9A44A0C3212688A43A24B0C33C4
:100D90001A604288C38842EA03439F4A4032847AF9
:100DA00042F834300288838842EA03439A4A403248
:100DB000847A02EBC4025360027B012A19D1964A5D
:100DC0000C3212680A43944B0C331A604288038831
:100DD00042EA0343904A4032847A42F83430C2886F
:100DE000838842EA03438C4A4032847A02EBC4028D
:100DF0005360C27A3AB9884A121D12688A43864BF8
:100E00001B1D1A6006E0844A121D12680A43824BB9
:100E10001B1D1A60028932B97F4A143212688A4354
:100E20007D4B14331A600289012A06D17A4A1432A2
:100E300012680A43784B14331A60427B012A06D1A8
:100E4000754A1C3212680A43734B1C331A60724A8B
:100E5000126822F00102704B1A6010BD00218171EE
:100E6000C171017241728172C1728170C1700321BE
:100E700001710221417101210180704766490968B1
:100E800041F00101644A11601146096843F60E728F
:100E90009143614A11601146096841EA00211160DD
:100EA0001146096821F001011160704721B1026803
:100EB00042F48032026003E0026822F48032026071
:100EC0007047E1B1026842F0800202604FF4C272E2
:100ED000125842F480734FF4C27213504FF4CA7226
:100EE000125842F480734FF4CA7213504FF4D27206
:100EF000125842F480734FF4D27213501BE0026810
:100F000022F0800202604FF4C272125822F4807301
:100F10004FF4C27213504FF4CA72125822F4807305
:100F20004FF4CA7213504FF4D272125822F48073E5
:100F30004FF4D2721350704710B5024600209368E8
:100F400003F08063B3F1806F00D110E0936803F089
:100F50000063B3F1006F01D1012008E0936803F052
:100F60008053B3F1805F01D1022000E00420042807
:100F700079D002F5C07303EB00131B6803F0010482
:100F800002F5C07303EB00131C600B7A7BB94B7A3C
:100F90000C8843EA445302F5C07404EB001424683F
:100FA000234302F5C07404EB0014236010E00B7AB5
:100FB0004C6843EAC4034C7A234302F5C07404EB43
:100FC00000142468234302F5C07404EB001423606A
:100FD0008B7A03F00F038B7202F5C07303EB0013DF
:100FE0005B6823F00F0402F5C07303EB00135C6031
:100FF00002F5C07303EB00135B688C7A234302F5A0
:10100000C07404EB001463608B7B1C064B7B44EACA
:10101000034403E000640040006600400B7B44EAA8
:101020000323CC7A234302F5C07404EB0014A360BD
:101030008B7C1C064B7C44EA03440B7C44EA032370
:10104000CC7B234302F5C07404EB0014E36002F58B
:10105000C07303EB00131B6843F0010402F5C07377
:1010600003EB00131C6010BD10B50246002321B134
:10107000012907D002290FD109E09068F94C00EA54
:1010800004030BE09068F84C00EA040306E0906863
:10109000F64C00EA040301E0002300BF00BFF44C5B
:1010A000181BA34216D007DC83B16FF08060184490
:1010B00070B1022818D111E0B0F5007F10D0ED4CCE
:1010C000204448B1B0F5003F0ED10BE002230DE003
:1010D00000230BE0002309E0002307E0012305E0E3
:1010E000012303E0012301E0002300BF00BFD8B2C9
:1010F00010BD21B1012907D002290FD109E0826872
:1011000042F0800282600AE0826842F4004282601B
:1011100005E0826842F40002826000E000BF00BF88
:10112000704710B500F5D87303EB01131B6803F08B
:1011300004031372137A53B900F5D87303EB011348
:101140001B6840F2FF7404EA5353136009E000F592
:10115000D87303EB01131B686FF0604404EAD303F8
:10116000536000F5D87303EB01131B6803F002030F
:10117000537200F5D87303EB01135B6803F00F03A0
:10118000937200F5D87303EB01135B681B0AD374E9
:1011900000F5D87303EB01139B68D37200F5D87385
:1011A00003EB01139B681C0A147300F5D87303EB5F
:1011B00001139B681C0C547300F5D87303EB0113E7
:1011C0009B681B0E937300F5D87303EB0113DB6868
:1011D000D37300F5D87303EB0113DB681C0A147496
:1011E00000F5D87303EB0113DB681C0C547400F595
:1011F000D87303EB0113DB681B0E937421B9C3682A
:1012000043F02003C36003E0036943F0200303615C
:1012100010BD21B9C26842F02002C26003E0026939
:1012200042F02002026170470246002019B9D368DB
:1012300003F0030006E0012903D1136903F0030062
:1012400000E00020704710B502460B4600204FF624
:10125000FF71BBB9146824F0020444F00104146067
:1012600000E0491E546804F00304012C01D0002959
:10127000F7D1546804F00304012C01D0002032E0BF
:10128000012030E0012B13D1146824F00304146012
:1012900000E0491E546804F003040CB10029F8D1A1
:1012A000546804F003040CB100201CE001201AE093
:1012B000022B17D1146824F0010444F002041460D6
:1012C00000E0491E546804F00304022C01D00029F8
:1012D000F7D1546804F00304022C01D0002002E08E
:1012E000012000E0002010BD014600200A6822F025
:1012F000010242F002020A604A6802F00302022A76
:1013000000D10120704701464FF6FF7200200B68A4
:1013100023F002030B6000E0521E4B6803F002034F
:10132000022B01D1002AF7D14B6803F00203022BF4
:1013300000D001207047014600208A6902F0700049
:101340007047014600208A69100E70470146002050
:101350008A69C2F3074070471AB143690B4343617E
:1013600002E043698B434361704710B50246002099
:1013700001F4700343B19369C1F3130423400BB12B
:1013800001202DE000202BE001F0807343B1536871
:10139000C1F3130423400BB1012021E000201FE022
:1013A00001F0006343B19368C1F3130423400BB110
:1013B000012015E0002013E001F0007343B1D36871
:1013C000C1F3130423400BB1012009E0002007E022
:1013D0001369C1F3130423400BB1012000E0002086
:1013E00010BD0022244B994202D10023836111E0F9
:1013F000C1F3130201F000730BB1C2600AE001F007
:1014000080630BB1026105E001F000630BB1826003
:1014100000E0426070470246002002EA01030BB17F
:10142000012000E00020704770B504460D460026FC
:1014300060692840002872D0B5F5807F69D01DDC36
:10144000082D42D006DC012D2DD0022D31D0042DE7
:101450007FD134E0102D3ED0202D42D0402D78D1C8
:1014600045E0000003000004000300080000031032
:10147000000100080001FFF77000F030B5F5004FE3
:1014800061D009DCB5F5007F4AD0B5F5806F4DD04D
:10149000B5F5006F5DD150E0B5F5803F2DD0B5F5C5
:1014A000003F56D12FE0A0685549FFF7B4FF06462C
:1014B00051E0E0680321FFF7AEFF06464BE0E0682D
:1014C0000821FFF7A8FF064645E0E0681021FFF776
:1014D000A2FF06463FE020690321FFF79CFF064676
:1014E00039E020690821FFF796FF064633E02069BE
:1014F0001021FFF790FF06462DE060680821FFF7F6
:101500008AFF064627E060681021FFF784FF064641
:1015100021E0A0690121FFF77EFF06461BE01BE0EA
:10152000A0690221FFF777FF064614E0A0690421B5
:10153000FFF771FF06460EE00BE0A0697021FFF790
:101540006AFF064607E060680421FFF764FF06466D
:1015500001E0002600BF00E00026304670BDB1F576
:10156000007F3AD00FDC202928D006DC01291CD0CE
:1015700004291DD0082940D11DE0402921D0B1F512
:10158000807F3AD126E0B1F5004F31D006DCB1F5CD
:10159000806F25D0B1F5006F2FD124E0B1F5803FE9
:1015A00012D0B1F5003F28D111E0154A826025E044
:1015B0000822C26022E01022C2601FE008220261FD
:1015C0001CE01022026119E00822426016E010229D
:1015D000426013E00422426010E0042242600DE009
:1015E000042242600AE0002282610422426005E097
:1015F000002282610422426000E000BF00BF704709
:101600000101010010B504469848844208D1012127
:10161000084600F03CFC0021012000F038FC76E098
:101620009348844208D10121022000F030FC0021BF
:10163000022000F02CFC6AE08E48844208D101218F
:10164000042000F024FC0021042000F020FC5EE0D7
:101650008948844208D10121082000F018FC0021AB
:10166000082000F014FC52E08448844208D1012193
:10167000102000F00CFC0021102000F008FC46E0D7
:101680007F48844208D10121202000F000FC002185
:10169000202000F0FCFB3AE07A48844208D1012186
:1016A000402000F0F4FB0021402000F0F0FB2EE091
:1016B0007548844208D10121802000F0E8FB002118
:1016C000802000F0E4FB22E07048844208D1012130
:1016D000801500F0DCFB0021A01500F0D8FB16E01F
:1016E0006B48844208D10121401500F0D0FB002155
:1016F000601500F0CCFB0AE06648844207D1012166
:10170000001500F0C4FB0021201500F0C0FB10BD47
:10171000F0B50A4600210023002400BF3DE001256A
:1017200005FA01F3156805EA03049C4234D1056803
:101730004F000326BE40B543056015794E00B54005
:101740000668354305601579012D02D01579022D03
:1017500016D185684F000326BE40B5438560557994
:101760004E00B540866835438560456801268E4049
:10177000B5434560456896798E40B6B235434560BD
:10178000C5684F000326BE40B543C560D5794E00FD
:10179000B540C6683543C560491C1029BFD3F0BDAC
:1017A0004FF6FF7101600021017141718171C171BA
:1017B000704708B54FF480320092009A0A430092B5
:1017C000009AC261C161009AC261C2690092C26995
:1017D000009208BD0246002013690B400BB10120A6
:1017E00000E0002070470146086980B27047024659
:1017F000002053690B400BB1012000E0002070472E
:101800000146486980B27047018370474183704741
:101810000AB1018300E0418370474161704742692A
:101820004A4042617047F0B5002300244D07ED0E99
:1018300002FA05F3CE1000F1200555F826504E07A8
:10184000F70E0F26BE40B543CF1000F1200646F834
:101850002750CE1000F1200555F8265045EA030424
:10186000CE1000F1200545F82640F0BD00000240F2
:101870000004024000080240000C02400010024038
:101880000014024000180240001C024000200240E8
:10189000002402400028024010B50121080700F092
:1018A00029FB00214FF0805000F024FB10BD52496D
:1018B0000862704701460020504A106820F0E0009E
:1018C0000843106070474C49086170474A49A0318D
:1018D000086070474849A4310860704701460020FD
:1018E000464A106820F4404008431060704742495F
:1018F0000864704740494864704730B13F490968FF
:1019000041F440213D4A116005E03C49096821F459
:1019100040213A4A1160704718B10121364AD1621C
:1019200002E00021344AD162704718B10121324AE5
:10193000916202E00021304A916270472E4948626C
:10194000704710B5024600202C4B186840F6034340
:1019500098431043294B1860294B1B6843F004033C
:10196000274C2360012901D130BF00E020BF244B68
:101970001B6823F00403224C236010BD10B50246FF
:1019800000201E4B186840F60343984310431B4B3E
:1019900018601B4B1B6843F00403194C236001299A
:1019A00001D130BF00E020BF154B1B6823F00403BA
:1019B000134C236010BD1148006840F002000F492D
:1019C00008600F48006840F004000D49086000BF3F
:1019D00000BF30BF704701460020084A52680A40E5
:1019E0000AB1012000E0002070470449096841EA7B
:1019F0008001024A1160704700000E4200700040F2
:101A000010ED00E0F948006840F00100F749086077
:101A10000020F64908310860F4480068F44908409D
:101A2000F2490860F348091D0860F348EF49843122
:101A30000860F0481038091D0860EC48006820F480
:101A40008020EA4908600020E8490C310860E74935
:101A50008C31086070470021E44A921C11701146D5
:101A60000870704710B501460022002300204A117B
:101A7000012A02D1DD4C236808E0022A03D1DB4CA5
:101A80007034236802E0D94C7434236801F01F02DB
:101A9000012494401C400CB1012000E0002010BD46
:101AA00038B5002000900024002500BF3120FFF74A
:101AB000D9FF05460098401C00900098B0F5A04F53
:101AC00001D0002DF2D03120FFF7CCFF08B1012466
:101AD00000E00024204638BD01460020C34A1068BB
:101AE00020F0F80040EAC10010607047C349086068
:101AF00070470021BD4A703211701170012802D068
:101B000004280AD104E00121B84A7032117005E0BE
:101B10000521B64A7032117000E000BF00BF704767
:101B2000B7490860704770B5049C41EA82150126E8
:101B3000C6EB530645EA0645054345EA0465AB4E48
:101B4000361D356070BDAD4908667047820142EAB6
:101B50000172A64B84331A607047A84988667047A3
:101B600010B5830143EA016343EA02739F4C883452
:101B7000236010BDA14908677047A049C864704739
:101B800002460020994B0833186820F0EC6042EAC6
:101B900001031843954B0833186070470246002034
:101BA000924B0833186820F0784042EA010318434A
:101BB0008E4B083318607047014600208B4A08326C
:101BC000106820F003000843106070478748083011
:101BD000006800F00C00704701460020834A08327C
:101BE000106820F0F00008431060704701460020A4
:101BF0007E4A0832106820F4E050084310607047B5
:101C000001460020794A0832106820F4604040EA1A
:101C1000C10010607047F0B50021002200240225A9
:101C200000260223714F08373F6807F00C0121B1ED
:101C3000042905D0082937D105E0724F076036E046
:101C4000714F076033E0694F3F1D3F68C7F380560F
:101C5000664F3F1D3F6807F03F036EB16A4FB7FB09
:101C6000F3F7DFF888C10CF1040CDCF800C0CCF30A
:101C7000881C07FB0CF40CE0624FB7FBF3F7DFF8AE
:101C80006CC10CF1040CDCF800C0CCF3881C07FB21
:101C90000CF4564F3F1D3F68C7F301477F1C7D0082
:101CA000B4FBF5F7076002E0564F076000BF00BFC6
:101CB0004E4F08373F6807F0F0010909534F7A5C2F
:101CC0000768D7404760494F08373F6807F4E0513D
:101CD000890A4E4F7A5C4768D7408760434F083780
:101CE0003F6807F46041490B484F7A5C4768D7402A
:101CF000C760F0BD002100F44072B2F5407F0AD108
:101D00003A4A0832116821F4F811414A024011435D
:101D1000364A08321160354A70321268C0F30B033C
:101D20001A43324B70331A607047354944390860A2
:101D3000704733494039086070473649086070473A
:101D400001460020294A8C32106820F01F004A1EEC
:101D50001043264A8C321060704701460020234A07
:101D60008C32106820F4F8504A1E40EA02201F4AC4
:101D70008C3210607047014600201C4A8C3210687B
:101D800020F4401008431060704701460020174AB5
:101D90008C32106820F44000084310607047014600
:101DA0000020124A8C32106820F440300843106042
:101DB000704719490860704739B10C4A30321268CF
:101DC00002430A4B30331A6006E0084A3032126888
:101DD0008243064B30331A607047F9B1034A3432FC
:101DE00012680243014B34331A601CE00038024091
:101DF000FFFFF6EA103000240030002000004742C8
:101E0000800E47420024F40000127A0018000020DF
:101E1000FFFCFF0F5C014742E01147428F4A126806
:101E200082438E4B1A60704739B18C4A121D12687A
:101E300002438A4B1B1D1A6006E0884A121D126875
:101E40008243864B1B1D1A60704739B1834A0C329E
:101E500012680243814B0C331A6006E07F4A0C3251
:101E6000126882437D4B0C331A60704739B17B4A4C
:101E7000103212680243794B10331A6006E0774A39
:101E8000103212688243754B10331A60704739B1B3
:101E9000724A243A12680243704B243B1A6006E0EF
:101EA0006E4A243A126882436C4B243B1A60704796
:101EB00039B16A4A203A12680243684B203B1A60E3
:101EC00006E0664A203A12688243644B203B1A605F
:101ED000704739B1614A1C3A126802435F4B1C3BA0
:101EE0001A6006E05D4A1C3A126882435B4B1C3B59
:101EF0001A60704739B1594A143A12680243574B75
:101F0000143B1A6006E0554A143A12688243534B58
:101F1000143B1A60704739B1504A103A12680243B4
:101F20004E4B103B1A6006E04C4A103A126882434E
:101F30004A4B103B1A60704739B1484A1C3212684C
:101F40000243464B1C331A6006E0444A1C321268B6
:101F50008243424B1C331A60704739B13F4A2032EA
:101F6000126802433D4B20331A6006E03B4A2032A0
:101F700012688243394B20331A60704739B1374AAF
:101F8000243212680243354B24331A6006E0334A88
:101F9000243212688243314B24331A60704739B1BE
:101FA0002E4A2C32126802432C4B2C331A6006E066
:101FB0002A4A2C3212688243284B2C331A6070470D
:101FC00039B1264A303212680243244B30331A604A
:101FD00006E0224A303212688243204B30331A60C6
:101FE0007047012808D11D493C31096841F00801BA
:101FF0001A4A3C32116007E018493C31096821F067
:102000000801164A3C321160704739B1134A273A29
:1020100012780243114B273B1A7006E00F4A273A09
:10202000127882430D4B273B1A7070470B484030A3
:10203000006840F0807009494031086070470146EF
:102040000020064A283A12680A400AB1012000E03E
:102050000020704701492639087070473438024023
:1020600010B50446FE48844208D101210846FFF716
:1020700052FF00210120FFF74EFF9DE0B4F1804F99
:1020800008D101210846FFF735FF00210120FFF7A5
:1020900031FF91E0F348844208D101210220FFF78B
:1020A00029FF00210220FFF725FF85E0EE4884424A
:1020B00008D101210420FFF71DFF00210420FFF7B4
:1020C00019FF79E0E948844208D101210820FFF78F
:1020D00011FF00210820FFF70DFF6DE0E448844266
:1020E00008D101211020FFF705FF00211020FFF784
:1020F00001FF61E0DF48844208D101212020FFF781
:10210000F9FE00212020FFF7F5FE55E0DA48844271
:1021100008D101210220FFF7FEFE00210220FFF777
:10212000FAFE49E0D548844209D101210804FFF7AD
:10213000F2FE00214FF48030FFF7EDFE3CE0D04886
:10214000844209D101214804FFF7E5FE00214FF444
:102150000030FFF7E0FE2FE0CA48844209D1012198
:102160008804FFF7D8FE00214FF48020FFF7D3FE4C
:1021700022E0C548844208D101214020FFF7BAFE81
:1021800000214020FFF7B6FE16E0C048844208D187
:1021900001218020FFF7AEFE00218020FFF7AAFE7C
:1021A0000AE0BB48844207D101218015FFF7A2FE57
:1021B0000021A015FFF79EFE10BD00220288A84B4B
:1021C00098420ED0AC4B98420BD0B0F1804F08D063
:1021D000A44B984205D0A44B984202D0A34B9842FE
:1021E00004D14FF68F731A404B881A43A04B984284
:1021F00007D0A04B984204D04FF6FF431A400B89FA
:102200001A4302804B68C3620B880385944B984243
:1022100002D0994B984201D18B7A038601238382A5
:1022200070474FF0FF314160002101800181418002
:10223000817270470185828270470A4600210188B9
:102240004FF68F7319401143018070474162704708
:10225000C16270470146486A70470146088D704761
:1022600021B1028842F00202028004E002884FF6A7
:10227000FD731A400280704721B1028842F00402C7
:10228000028004E002884FF6FB731A400280704718
:1022900021B1028842F08002028004E002884FF6F9
:1022A0007F731A400280704702884FF6F7731A4016
:1022B000028002880A430280704702884FF6FF437B
:1022C0001A40028002880A430280704721B10288C6
:1022D00042F00102028004E002884FF6FE731A40C9
:1022E0000280704770B5002400220023058C4FF651
:1022F000FE7635400584028C8388048B4FF68F75FB
:102300002C40B51E2C400D882C43751E2A408D890B
:102310002A434D882A43524DA84202D0564DA84226
:1023200013D14FF6F7752A40CD892A434FF6FB7536
:102330002A408D882A434FF6FF652B404FF6FF5504
:102340002B400D8A2B434D8A2B43838004838D6859
:102350004563028470BD70B5002400220023058C03
:102360004FF6EF7635400584028C8388048B48F65F
:10237000FF752C404FF6FF452C400D884FF6FF7639
:1023800006EA05252C434FF6DF752A408D8906EABB
:1023900005152A434D8806EA05152A43304DA84203
:1023A00002D0354DA8421DD14FF67F752A40CD8908
:1023B0004FF6FF7606EA05152A434FF6BF752A4009
:1023C0008D8806EA05152A434FF6FF352B404FF25C
:1023D000FF752B400D8A06EA85052B434D8A06EAD8
:1023E00085052B43838004838D688563028470BDDB
:1023F00070B5002400220023058C4FF6FF6635409F
:102400000584028C8388848B4FF68F752C404FF6A1
:10241000FC752C400D882C434FF6FF552A408D89C2
:102420004FF6FF7606EA05252A434D8806EA05257C
:102430002A430B4DA84202D00F4DA84238D14FF28B
:10244000FF752A40CD894FF6FF7606EA05252A4317
:102450004FF6FF352A408D8806EA05252A4319E004
:10246000000001400004004000080040000C004053
:1024700000100040001400400004014000400140F2
:10248000004401400048014000180040001C00408A
:10249000002000404EF6FF752B404DF6FF752B4097
:1024A0000D8A06EA05152B434D8A06EA05152B43CE
:1024B000838084838D68C563028470BD70B50022FB
:1024C00000230024058C4EF6FF7635400584038CEE
:1024D0008488828B48F6FF752A404FF6FF452A40D4
:1024E0000D884FF6FF7606EA05252A434DF6FF755F
:1024F0002B408D8906EA05352B434D8806EA0535C4
:102500002B43FE4DA84202D0FD4DA84208D14BF608
:10251000FF752C400D8A4FF6FF7606EA85152C4391
:10252000848082838D680564038470BD00210180EE
:102530004180818081608181C181018241827047B7
:1025400070B50346002000241846183001258D4040
:10255000ACB21D8CA5431D8409B108290AD100EB3A
:10256000610005684FF68F763540056005681543B4
:1025700005600FE00D1FC5F34E052844056848F6B9
:10258000FF763540056005684FF6FF7606EA0226BD
:102590003543056070BD4163704781637047C16317
:1025A0007047016470470A460021018B4FF68F7314
:1025B00019401143018370470A460021018B48F6F8
:1025C000FF7319404FF6FF7303EA02231943018397
:1025D00070470A460021818B4FF68F7319401143D3
:1025E000818370470A460021818B48F6FF731940AA
:1025F0004FF6FF7303EA02231943818370470A46AB
:102600000021018B4FF6F773194011430183704786
:102610000A460021018B4FF2FF7319404FF6FF73FA
:1026200003EA02231943018370470A460021818B84
:102630004FF6F77319401143818370470A46002112
:10264000818B4FF2FF7319404FF6FF7303EA0223A9
:102650001943818370470A460021018B4FF6FB73B3
:1026600019401143018370470A460021018B4FF640
:10267000FF3319404FF6FF7303EA02231943018326
:1026800070470A460021818B4FF6FB7319401143B6
:10269000818370470A460021818B4FF6FF33194032
:1026A0004FF6FF7303EA02231943818370470A46FA
:1026B0000021018B4FF67F7319401143018370474E
:1026C0000A460021018BC1F30E014FF6FF7303EAA6
:1026D00002231943018370470A460021818B4FF67C
:1026E0007F7319401143818370470A460021818B13
:1026F000C1F30E014FF6FF7303EA022319438183EE
:1027000070470A460021018C4FF6FD7319401143B2
:10271000018470470A460021018C4FF6F773194077
:102720001143018470470A460021018C4FF6DF7384
:1027300019404FF6FF7303EA0213194301847047EF
:102740000A460021018C4FF67F7319404FF6FF7344
:1027500003EA02131943018470470A460021018CE1
:102760004FF6FF5319404FF6FF7303EA0223194354
:10277000018470470A460021018C4FF2FF73194013
:102780004FF6FF7303EA02231943018470470A4698
:102790000021018C4DF6FF7319404FF6FF7303EAD9
:1027A000023319430184704730B5002301248C4063
:1027B000A3B2048C9C430484048C02FA01F5ADB2EC
:1027C0002C43048430BD30B5002304248C40A3B2D4
:1027D000048C9C430484048C02FA01F5ADB22C43B2
:1027E000048430BD828B4FF2FF331A408283828B88
:1027F0004FF6FF7303EA01231A4382837047F0B553
:102800000C461546002100220026078C4EF6FF7C60
:1028100007EA0C070784818B028C4FF6FF7707EAE3
:10282000043640F6FF4739404FF6FF7707EA0527A1
:1028300039434FF6FF7707EA0337394345F6FF7709
:102840003A4046F480573A4381830284F0BD828B3C
:102850004FF6F3731A408283828B0A438283704758
:10286000F0B50C461546002100220026078C4FF6D5
:10287000FF6C07EA0C070784818B028C4FF6FF7709
:1028800007EA04264FF60C7739404FF6FF7707EA40
:1028900003172F4339434FF2FF573A4046F48077EE
:1028A0003A4381830284F0BD028B4FF2FF331A401A
:1028B0000283028B4FF6FF7303EA01231A4302835C
:1028C0007047F0B50C461546002100220026078C03
:1028D0004FF6EF7C07EA0C070784018B028C4FF65A
:1028E000FF7707EA041640F6FF4739404FF6FF77B7
:1028F00007EA033739434FF6FF7703E00000014052
:102900000004014007EA052739434FF65F773A4054
:1029100046F010073A4301830284F0BD028B4FF664
:10292000F3731A400283028B0A4302837047F0B5A7
:102930000C46154600210022068C4FF6FE773E40DD
:102940000684018B028C4FF60C7631407E1C06EA21
:1029500003162E4331434FF6F576324044F001061C
:10296000324301830284F0BD70B505460C462088D1
:1029700050B92389A28861882846FFF7D8FFE188EB
:102980002846FFF7CBFF25E0208804280AD12389B9
:10299000A28861882846FFF794FFE1882846FFF760
:1029A00083FF17E0208808280AD12389A28861883C
:1029B0002846FFF755FFE1882846FFF748FF09E062
:1029C0002389A28861882846FFF719FFE1882846F5
:1029D000FFF708FF70BD0021018041800121818047
:1029E0000021C180018170472DE9F04105460C4668
:1029F00000260127608808B9022600E00026A0888A
:102A0000012801D1022700E001272088A0B92389ED
:102A1000A28861882846FFF78AFFE1882846FFF7E9
:102A20007DFF23893A4631462846FFF74AFFE18871
:102A30002846FFF739FF13E02389A28861882846DA
:102A4000FFF73FFFE1882846FFF72EFF23893A462C
:102A500031462846FFF76BFFE1882846FFF75EFF07
:102A6000BDE8F0810146486B70470146886B7047AE
:102A70000146C86B70470146086C70470A884B884E
:102A80001A438B881A43CB881A430B891A434B8904
:102A90001A438B891A43A0F8442070470021018013
:102AA00041808180C180018141818181704731B144
:102AB000B0F8442042F40042A0F8442005E0B0F809
:102AC0004420C2F30E02A0F84420704721B182884E
:102AD00042F00402828004E082884FF6FB731A40C1
:102AE0008280704721B1828842F00102828004E036
:102AF00082884FF6FE731A40828070471AB183892C
:102B00000B43838102E083898B43838170478182F9
:102B1000704702460020138A0B400BB1012000E0F1
:102B200000207047CA430282704730B50246002039
:102B300000230024158A05EA0103958905EA0104AA
:102B400013B10CB1012000E0002030BDCA43028265
:102B5000704741EA0203A0F8483070471AB18389F0
:102B60000B43838102E083898B438381704721B1CA
:102B7000828842F00802828004E082884FF6F77370
:102B80001A408280704701894FF6F8721140018126
:102B900070470A46002101894FF68F73194011438F
:102BA0000181704730B504460D4629462046FFF79F
:102BB000F0FF208940F00700208130BD2DE9F04171
:102BC00004460D4616461F46602D06D13B4601229F
:102BD00031462046FFF775FE05E03B4601223146AF
:102BE0002046FFF7A4FE29462046FFF7D2FF2089A2
:102BF00040F007002081BDE8F08130B50C4600218F
:102C00000189C9B24FF6FF7505EA0325154325432F
:102C10002943018130BD2DE9F04105460E46174696
:102C20009846002443463A4631462846FFF7E5FFDA
:102C30002C894FF6F870044044F007044FF68F706B
:102C4000044044F070042C81BDE8F081F0B50446E6
:102C50000D4616461F463B46324629462046FFF79C
:102C6000CCFF208940F480402081F0BD82884FF65F
:102C70008F731A40828082880A438280704702895B
:102C80004FF6F8731A40028102890A4302817047A5
:102C900002894FF67F731A40028102890A4302813A
:102CA0007047F0B50C4615461E4600210022002351
:102CB0000189028B038C4FF6F877394021434FF698
:102CC000FC473A4040F201173A434FF6DD773B406C
:102CD0004FF6FF7707EA06172F433B430181028334
:102CE0000384F0BD21B1828842F08002828004E03A
:102CF00082884FF67F731A4082807047A0F8501088
:102D00007047000010B50446FA48844208D10121FA
:102D10001020FFF700F900211020FFF7FCF857E022
:102D2000F548844209D101214804FFF7E3F8002166
:102D30004FF40030FFF7DEF84AE0F048844209D152
:102D400001218804FFF7D6F800214FF48020FFF717
:102D5000D1F83DE0EA48844209D10121C804FFF7D7
:102D6000C9F800214FF40020FFF7C4F830E0E5482F
:102D7000844209D101210805FFF7BCF800214FF476
:102D80008010FFF7B7F823E0DF48844208D1012123
:102D90002020FFF7C0F800212020FFF7BCF817E043
:102DA000DA48844209D101218807FFF7A3F80021FE
:102DB0004FF08040FFF79EF80AE0D548844207D1E3
:102DC00001214005FFF796F800216005FFF792F812
:102DD00010BD2DE9FF4705460E460024A14600BF61
:102DE000A046B08900B100BF2C8A24F44054F0887A
:102DF00004432C82AC8941F20C608443B088318951
:102E00000843718908430443AC81AC8A24F44074BC
:102E1000B0890443AC826846FEF7FDFEB5488542A2
:102E200002D0B948854202D1DDF80C9001E0DDF80E
:102E30000890A88900F4004040B109EBC90000EBFC
:102E4000091031684900B0FBF1F707E009EBC90050
:102E500000EB091031688900B0FBF1F76420B7FB83
:102E6000F0F004012009642101FB1078A88900F426
:102E7000004040B1322000EBC800B0FBF1F000F0A0
:102E80000700044308E0322000EB08106421B0FB87
:102E9000F1F000F00F0004432C81BDE8FF874FF4F0
:102EA0001651016000218180C18001810C21418186
:102EB00000218181704710B502460020108A20F45D
:102EC00070600B884C8823438C882343CC88234331
:102ED0001843108210BD0021018041808180C18093
:102EE000704721B1828942F40052828104E08289D4
:102EF0004DF6FF731A4082817047028B02F47F42C5
:102F00000283028B0A430283704721B1828942F413
:102F10000042828103E08289C2F30E0282817047FF
:102F200021B1828A42F40062828204E0828A4FF2F6
:102F3000FF731A4082827047C1F308028280704793
:102F400001468888C0F308007047028A4FF6F07384
:102F50001A400282028A0A430282704721B18289A2
:102F600042F00202828104E082894FF6FD731A402A
:102F70008281704782894FF2FF731A408281828971
:102F80000A4382817047028A4FF6DF731A40028239
:102F9000028A0A430282704721B1028A42F48042C7
:102FA000028204E0028A4BF6FF731A4002827047E5
:102FB000818941F001018181704721B1828A42F00B
:102FC0000802828204E0828A4FF6F7731A408282F6
:102FD0007047028BD2B20283028B42EA0122028343
:102FE000704721B1828A42F02002828204E0828A04
:102FF0004FF6DF731A408282704721B1828A42F015
:103000001002828204E0828A4FF6EF731A408282B5
:103010007047828A4FF6FB731A408282828A0A4383
:103020008282704721B1828A42F00202828204E0E9
:10303000828A4FF6FD731A40828270471AB1838AE2
:103040000B43838202E0838A8B4383827047F0B50F
:103050000346002400260025002040F66A17B942E6
:1030600000D100BF1846C1F3421401F01F0601272A
:1030700007FA06F5012C01D10C3004E0022C01D135
:10308000103000E014301AB107682F43076002E0E7
:103090000768AF430760F0BD02460020B1F5007F2E
:1030A00000D100BF13880B400BB1012000E00020CD
:1030B000704701F40072B2F5007F00D100BFCA432F
:1030C0000280704770B502460024002300250020CE
:1030D00040F66A16B14200D100BFC1F3421501F0BB
:1030E0001F03012606FA03F3012D13D196893340FD
:1030F00017E000000010014000440040004800407C
:10310000004C004000500040001401400078004096
:10311000007C0040022D02D1168A334001E0968ADD
:1031200033400C12012606FA04F41688344013B119
:103130000CB1012000E0002070BD10B5002200237A
:1031400040F66A14A14200D100BF0A120124944043
:10315000A3B2DC43048010BD10B507F01AFA0128B1
:1031600001D008F0ABF910BD70B504460420FDF79E
:1031700001FB3748047025464FF47A70454301201F
:10318000344908804FF0E020006940F002004FF021
:10319000E021086108464561006940F001000861CE
:1031A00070BD70B5034600224FF0E0267569284EC9
:1031B000367803FB06F44FF0E026B16910E04FF0DB
:1031C000E026B06988420BD0884202D20E1A3244FF
:1031D00002E02E1A0E4432440146A24200D300E01F
:1031E000EDE700BF70BD70B5044607F0D2F90128C5
:1031F00010D018480088844206D316480088B4FBD3
:10320000F0F5284606F068FC12480088B4FBF0F19F
:1032100000FB11444FF47A7104FB01F0FFF7C1FF8A
:1032200070BD30B50446002504E04FF47A70FFF716
:10323000B8FF6D1CA542F8D330BD10B507F0A9F951
:10324000012802D006F03BFF10BD03480068FBE7F1
:10325000280000202A0000202C00002000BF70471A
:1032600000BF244A128802F04002002AF9D0C2B2FC
:10327000204B1B1D1A80704710B586B004460121F3
:103280000846FEF799FD01211020FEF7EFFD072209
:1032900009211948FEF7C7FA07220A211648FEF746
:1032A000C2FA4FF4C060049002208DF814008DF82B
:1032B000150000208DF8160001208DF8170004A9D4
:1032C0000D48FEF725FA00940020ADF80400ADF893
:1032D0000600ADF80800ADF80C000C20ADF80A00AF
:1032E00069460648FFF775FD01210448FFF7F9FD1F
:1032F00006B010BD00440040000002400010014034
:1033000000B58DB001210520FEF756FD0121080210
:10331000FEF7ACFD0120059003208DF8180005A9EB
:103320005248FEF7F5F90220059003208DF81800A9
:1033300005A94E48FEF7ECF90820059003208DF80A
:10334000180005A94A48FEF7E3F92020059003205C
:103350008DF8180005A94548FEF7DAF901210802A1
:10336000FEF7D9FD00214FF48070FEF7D4FD4FF435
:103370008030029000200190049003908DF820008E
:103380008DF821000A900B9001208DF8300007A9DC
:103390003848FDF718FA01A8FDF744FA012135482D
:1033A000FDF757FA0DB000BD10B504460723012202
:1033B00021463048FDF78DFA2E48FDF7E6FA00BFAA
:1033C00002212C48FDF702FC0028F9D02948FDF71E
:1033D00018FB10BD2DE9F04107460C4600250026DC
:1033E00008E03846FFF7E0FF05440520FFF7FBFE45
:1033F000701CC6B2A642F4DBB5FBF4F080B2BDE8A7
:10340000F08110B52DED0C8B0520FFF7CDFF0446A4
:103410000AF02EFC41EC1D0B9FED170B53EC102B0B
:103420000AF076FC41EC1C0B9FED150B53EC102BB6
:103430000AF06EFC41EC1B0B9FED130B53EC102BB1
:103440000AF078FA41EC1A0B9FED110B53EC102B9C
:103450000AF070FA41EC190B0AF07EF908EE100A36
:10346000B0EE480ABDEC0C8B10BD0000000002401D
:1034700000080240002001406666666666660A40F3
:103480000000000000002640000000000000F03FA7
:10349000000000000000B04000B589B001210846DE
:1034A000FEF7D3FC01210320FEF786FC01220F2149
:1034B000DE48FEF7B8F901220321DD48FEF7B3F933
:1034C00048F20800019002208DF8080001208DF8D4
:1034D0000A008DF80B0001A9D448FEF719F901A9DB
:1034E000D348FEF715F906A8FEF79BFE0020ADF8BD
:1034F00018004FF6FF7007900020ADF82000ADF8DF
:103500001A0006A94FF08040FEF757FE00231A4626
:1035100003214FF08040FFF7C4FB03A8FFF75BFADD
:103520000A20ADF8140003A94007FFF71DFA012196
:103530008807FFF7F7FA012211469007FFF7DEFA36
:1035400000214FF08040FEF781FE01218807FEF741
:10355000BDFE09B000BD00B589B001210220FEF713
:1035600074FC01210846FEF727FC02220621AF4821
:10357000FEF759F902220721AC48FEF754F9C020A2
:10358000019002208DF8080001208DF80B008DF8C5
:103590000A0001A9A548FEF7BBF806A8FEF741FE00
:1035A0000020ADF818004FF6FF7007900020ADF82E
:1035B0002000ADF81A0006A99E48FEF7FEFD002384
:1035C0001A4603219B48FFF76CFB03A8FFF703FA99
:1035D0000A20ADF8140003A99648FFF7C5F90121A8
:1035E0009448FFF79FFA012211469248FFF786FAA6
:1035F00000219048FEF72AFE01218E48FEF766FE64
:1036000009B000BD00B589B001210420FEF71DFC02
:1036100001210220FEF7D0FBC020019003208DF88D
:10362000090002208DF8080001208DF80A008DF8AD
:103630000B0001A97E48FEF76BF8022206217C48A8
:10364000FEF7F1F8022207217948FEF7ECF806A808
:10365000FEF7E7FD0020ADF818004FF6FF70079069
:103660000020ADF82000ADF81A0006A97248FEF758
:10367000A4FD00231A4603216F48FFF712FB03A89D
:10368000FFF7A9F90A20ADF8140003A96A48FFF76B
:103690006BF901216848FFF745FA01221146664897
:1036A000FFF72CFA00216448FEF7D0FD01216248A3
:1036B000FEF70CFE09B000BD00B589B0012108205D
:1036C000FEF7C3FB01210846FEF776FB022201212B
:1036D0005648FEF7A8F8022200215448FEF7A3F846
:1036E0000320019002208DF8080001208DF80B00C6
:1036F0008DF80A0001A94D48FEF70AF806A8FEF762
:1037000090FD0020ADF818004FF6FF7007900020E4
:10371000ADF82000ADF81A0006A94848FEF74DFDA7
:1037200000231A4603214548FFF7BBFA03A8FFF719
:1037300052F90A20ADF8140003A94048FFF714F924
:1037400001213E48FFF7EEF9012211463B48FFF701
:10375000D5F900213948FEF779FD01213748FEF7F8
:10376000B5FD09B000BD0146022906D003290DD0E0
:10377000042914D0052924D11AE04FF08042526A5E
:1037800010B200224FF080435A621CE0294A2432D2
:10379000126810B20022274B24331A6013E0264A25
:1037A0002432126810B20022234B24331A600AE03C
:1037B000224A2432126810B20022204B24331A60AD
:1037C00001E0002000BF00BF70474FF08040008A3A
:1037D0004FF08040008A20F001004FF080410882C5
:1037E000704714481030008812481030008820F0CC
:1037F000010010491031088070470F4810300088D0
:103800000D481030008820F001000B49103108806D
:1038100070470A481030008808481030008820F0AF
:103820000100064910310880704700000000024086
:10383000000402400004004000080040000C00406A
:103840001CB501210220FEF7B7FA4FF4406000904A
:1038500001208DF8040000208DF8060001208DF86D
:10386000070000208DF8050069468948FDF750FFE4
:103870001CBD10B58648006820F4400084490860EB
:103880000846006840F48000086001208149086013
:103890008149C1F8A8020420FFF783FC00207D497C
:1038A00008600420FFF77DFC00207B49C1F8A802D6
:1038B00010BD10B57648006820F4400074490860D7
:1038C0000846006840F48000086000207149091F24
:1038D00008607149C1F8AC020420FFF762FC0120C6
:1038E0006C49091F08606C49C1F8AC020420FFF75D
:1038F00058FC10BD10B500246548006820F4400055
:103900006349086008460068086001206149086052
:10391000FFF747FC01206049C1F8A802FFF741FC0E
:1039200007E0601CC4B2FA2C03DDFFF7C2FF0120E0
:1039300010BD5848803800680028F2D15549091F49
:10394000086000BFF4E710B500205249091F086065
:103950004F48006820F440004D4908600846006860
:1039600040F48000086000204B49C1F8AC020220FE
:10397000FFF717FC01204749091F08600220FFF7E5
:1039800010FC00204449C1F8A80210BD10B5002069
:103990004049091F08603E48006820F440003C4947
:1039A00008600846006840F48000086001203A4939
:1039B000C1F8AC020220FFF7F4FB01203549091FD2
:1039C00008600220FFF7EDFB00203349C1F8A80290
:1039D00010BD70B504462E48006820F440002C4904
:1039E00008600846006840F480000860002029490B
:1039F000091F0860002517E0E009264908606006F5
:103A0000040E0220FFF7CDFB01202349C1F8A802D4
:103A10000220FFF7C6FB00201E49091F0860022094
:103A2000FFF7BFFB681CC5B2082DE5DB70BD70B5A4
:103A3000054600241648006820F440001449086038
:103A4000084600680860002617E000201149091F99
:103A500008600220FFF7A5FB01200F49C1F8A8026A
:103A60006006040E0B488038006808B1601CC4B2C0
:103A70000120FFF796FB701CC6B2082EE5DB15B9D6
:103A8000FFF784FF01E0FFF75EFF204670BD0000F6
:103A900000040240AC824042008040421CB501213B
:103AA0000220FEF789F94FF40050009001208DF8B4
:103AB000040000208DF8060002208DF8050001208A
:103AC0008DF8070069460A48FDF722FE4FF40051C1
:103AD0000748FDF799FE1CBD09E006480068C04391
:103AE0000549C1F8B4020548006805F0F5FFF4E7A0
:103AF00000040240B4824042008040424400002062
:103B00001CB501210E20FEF757F93320009001204B
:103B10008DF8040000208DF8060001208DF80700C4
:103B200002208DF8050069469048FDF7F1FD41F24D
:103B30003000009001208DF8040000208DF8060070
:103B400001208DF8070002208DF80500694688489D
:103B5000FDF7DEFD0420009001208DF80400002018
:103B60008DF8060001208DF8070002208DF8050071
:103B700069468048FDF7CCFD10217C48FDF746FEE4
:103B800020217A48FDF742FE01217848FDF73EFEEC
:103B900002217648FDF73AFE10217548FDF736FE02
:103BA00020217348FDF732FE4FF480517048FDF735
:103BB0002DFE04216F48FDF729FE1CBD30B58BB0EA
:103BC00005460C4601210220FEF750F90121042090
:103BD000FEF7F2F8032206216548FDF724FE0322D2
:103BE00007216348FDF71FFEC020099002208DF8D1
:103BF000280000208DF82A0001208DF82B000220DB
:103C00008DF8290009A95A48FDF782FD0795ADF8FE
:103C100018400120ADF820000020ADF81A0006A9D8
:103C20005548FEF7CAFA6020ADF804000120ADF84F
:103C3000060000200390ADF810004FF40070ADF8BE
:103C4000160001A94C48FEF74DFB08214A48FEF733
:103C5000D6FC6020ADF804000120ADF8060000207D
:103C60000390ADF810004FF40070ADF8160001A9F4
:103C70004148FEF770FB08213F48FEF7C9FC0121CF
:103C80003D48FEF705FB01213B48FEF71FFB0121E4
:103C90003948FEF70CFF0BB030BD1CB501210846BA
:103CA000FEF78AF84FF48050009000208DF8040051
:103CB00001208DF8070069463048FDF729FD1CBD3D
:103CC00030B58BB005460C4601210420FEF7BDF847
:103CD00001210220FEF770F8022207212348FDF798
:103CE000A2FD8020099002208DF8280000208DF888
:103CF0002A0001208DF82B0002208DF8290009A947
:103D00001A48FDF705FD0795ADF818400120ADF8FC
:103D100020000020ADF81A0006A91948FEF74DFA58
:103D20006020ADF804000120ADF8060000200390EB
:103D3000ADF810004FF40070ADF8160001A910485E
:103D4000FEF709FB08210E48FEF762FC01210C4832
:103D5000FEF79EFA01210A48FEF7B8FA40F2DC505D
:103D60000749383108600BB030BD00000004024044
:103D700000080240000C0240000401400000024024
:103D80000008004010B50A461AB10123FE4C23601A
:103D900002E00023FC4C2360002116E00023FA4CD3
:103DA0003434236000F080031BB10123241D236001
:103DB00003E00023F44C383423600123F24C343404
:103DC00023604306180E4B1CD9B20829E6DB0123F9
:103DD000ED4C236010BD30B500241CE004F1B001AF
:103DE000C8B20021FFF7CEFF00210846FFF7CAFF47
:103DF00000211020FFF7C6FF002508E0E34901EB92
:103E0000C501085D0121FFF7BDFF681CC5B2802D0B
:103E1000F4DB601CC4B2082CE0DB30BD00B500212F
:103E20008D20FFF7AFFF00211420FFF7ABFF00212B
:103E3000AF20FFF7A7FF00BD00B500218D20FFF7E1
:103E4000A1FF00211020FFF79DFF0021AE20FFF70A
:103E500099FF00BD30B500240CE0002506E00020ED
:103E6000CA4901EBC5010855681CC5B2802DF6DBB7
:103E7000601CC4B2082CF0DBFFF7ADFF30BDF0B51D
:103E8000144600267F2801DC3F2900DDF0BD0B46EB
:103E9000CF1701EB5777FF10C7F10707FAB2CF171B
:103EA00001EB5777FF10A1EBC707FDB2C5F107077C
:103EB0000123BB40DEB24CB1B44B03EBC0039B5CAF
:103EC0003343B24F07EBC007BB5408E0AF4B03EBE3
:103ED000C0039B5CB343AD4F07EBC007BB5400BFAF
:103EE000D4E72DE9F04F80460C4615461E46A34602
:103EF000A5F12000C5B200273EE00C2E07D105EB4E
:103F00004500A34901EB800010F8079004E0A148A8
:103F100000EB051010F807904FF0000A26E009F0BA
:103F2000800028B121464046099AFFF7A8FF09E022
:103F3000099808B9012000E00020024621464046C9
:103F4000FFF79DFF4FEA49604FEA1069601CC4B259
:103F5000A4EB0B00B04205D15C4608F1010000F073
:103F6000FF0806E00AF1010000F0FF0ABAF1080FAD
:103F7000D5DB00BF781CC7B2B742BEDBBDE8F08F0F
:103F800010B50246012000E050430B1EA1F10104D0
:103F9000E1B2F9D110BD2DE9FF4F81B0074691463E
:103FA0001E460E9D4FF0000A002439E0301B401ED3
:103FB000C1B20A20FFF7E4FFB9FBF0F00A21B0FB21
:103FC000F1F201FB1208BAF1000F16D1701EA042E7
:103FD00013DDB8F1000F0ED10120AB4605EBDB710C
:103FE000491001FB04710090C8B22B4620220299AF
:103FF000FFF777FF12E04FF0010A0120AB4605EB17
:10400000DB71491001FB04710090C8B208F1300166
:10401000CAB22B460299FFF764FF00BF601CC4B20E
:10402000B442C3DB05B0BDE8F08F78B505460E4657
:10403000144618E07A2D03DD002506F11000C6B203
:104040003A2E04DD002005460646FFF703FF012057
:10405000009022780C2331462846FFF742FF05F1F5
:104060000800C5B2641C20780028E3D178BD1CB5D7
:1040700001210420FDF7A0FE01210807FDF7E5FE60
:104080000120FDF714FC0020FDF733FD4EF2010086
:10409000009001208DF8040000208DF806008DF8B6
:1040A00005008DF8070069463B48FDF731FB01200C
:1040B00039491A31088040030880400008804000D8
:1040C00008800020FDF7F3FB00202F493C310860F9
:1040D0006420FFF788F801203049C1F8BC020021B4
:1040E000AE20FFF74FFE0021D520FFF74BFE002149
:1040F0005020FFF747FE0021A820FFF743FE0021D4
:104100003F20FFF73FFE0021D320FFF73BFE0021B9
:104110000846FFF737FE00214020FFF733FE00215D
:104120008D20FFF72FFE00211420FFF72BFE00212A
:104130002020FFF727FE00210220FFF723FE0021A9
:10414000A120FFF71FFE0021C020FFF71BFE00216A
:10415000DA20FFF717FE00211220FFF713FE0021DF
:104160008120FFF70FFE0021EF20FFF70BFE00215B
:10417000D920FFF707FE0021F120FFF703FE002101
:10418000DB20FFF7FFFD0BE0800241421C02002014
:10419000E2E4000856E9000800080240000041423D
:1041A00000213020FFF7EEFD0021A420FFF7EAFDFB
:1041B0000021A620FFF7E6FD0021AF20FFF7E2FD7A
:1041C000FFF748FE1CBD30B504460D4605F1B001B1
:1041D000C8B20021FFF7D6FD102141EA14100021DA
:1041E000FFF7D0FD04F00F000021FFF7CBFD30BD3D
:1041F0002DE9F04F83460F4690469946099C0025CD
:104200001AE07819C1B25846FFF7DDFF00260FE02B
:10421000A246E11704EB5171C91001FB08510A4A8B
:1042200002EB0111885D0121FFF7ACFD701CC6B2E5
:104230004E45EDDB681CC5B2E11704EB5171B5EBDF
:10424000E10FDEDBBDE8F08F46EF00080146FE48D7
:10425000405C704738B50446012000900020FA49C0
:104260004870012000902DE0BDF80000204018B1FA
:104270000120F649086002E00020F44908600120AE
:10428000F34908600520FEF78CFF0020F149C1F8D2
:1042900090020520FEF785FF0120EE49C1F890024B
:1042A000ED48D0F8080230B1E7484078BDF800107A
:1042B0000843E5494870BDF800004FF6FF7101EA78
:1042C00040000090BDF80000FF28CDDD1020FEF773
:1042D00068FF38BD1CB5002001900120009000202F
:1042E000DE490860DE490878FFF7B4FFDC4948780A
:1042F000FFF7B0FF0220019035E00120009026E09A
:104300000120D34908600520FEF74BFF0020D1496A
:10431000C1F890020520FEF744FF0120CD49C1F805
:104320009002CD48D0F8080250B1C7489DF804105B
:10433000405CBDF800100843C3499DF80420885430
:10434000BDF800004FF6FF7101EA40000090BDF893
:104350000000FF28D4DD1020FEF723FF9DF80400A5
:10436000401CC0B201909DF804000928C5DB012063
:10437000BA4908601CBD002004E00021B24A115473
:10438000411CC8B20928F8DB704710B5FFF7F3FFEE
:10439000FFF7A0FFAC48C078AB49097940EA01209B
:1043A000B049088000240FE0AF4810F81400401E08
:1043B000012101FA00F0AB490988084010B9601CDE
:1043C000C0B210BD601CC4B2102CEDDB0020F8E7B9
:1043D00010B5FFF7DAFF00EE100AB8EE400AA34866
:1043E00080ED000A0720FFF731FF00EE100AB8EE5B
:1043F000400A9F4880ED000A0820FFF727FF00EEE3
:10440000100AB8EE400A9B4880ED000A0520FFF72D
:104410001DFF00EE100AB8EE400A974880ED000A32
:104420000620FFF713FF00EE100AB8EE400A93488B
:1044300080ED000A8D4890ED000AF1EE000AB4EE1E
:10444000600AF1EE10FA05D18D48007810B901200C
:104450008C4908608B480068E8B1864890ED000AF6
:10446000DFED890AB4EEE00AF1EE10FA13D28448C7
:10447000007880B985480068B0F57A7F0BDB0120B1
:104480007F4908700020824908708249087082497B
:1044900008708249087010BD08B5FEF7CEFE009086
:1044A00005E00A21684605F0BCFAFFF791FFF8E73E
:1044B0001CB501210720FDF77FFC0420009000209F
:1044C0008DF8040002208DF8070069467448FDF756
:1044D0001FF90220009001208DF8040000208DF8C3
:1044E000060001208DF8070002208DF805006946BE
:1044F0006B48FDF70DF94FF48050009001208DF8C6
:10450000040000208DF8060001208DF8070002202D
:104510008DF8050069466348FDF7FAF81020009011
:1045200001208DF8040000208DF8060001208DF890
:10453000070002208DF8050069465B48FDF7E8F8A2
:104540001CBD10B500204549086045490878FFF7B3
:1045500081FE43494878FFF77DFE01205349C1F8A9
:10456000B00239484078732801D1002010BD0120E5
:10457000FCE770B505460C4600203849086010205D
:10458000FEF70FFE0120FFF765FE4220FFF762FEF7
:104590000020FFF75FFE2846FFF75CFE2046FFF78E
:1045A00059FE0020FFF756FE0020FFF753FE0020C3
:1045B000FFF750FE0020FFF74DFE01203B49C1F8F8
:1045C000B0021020FEF7EDFD70BD10B500202349AC
:1045D00008601020FEF7E5FD0120FFF73BFE4220BA
:1045E000FFF738FE0020FFF735FE0020FFF732FE10
:1045F0000020FFF72FFE01202C49C1F8B002102047
:10460000FEF7CFFD10BD10B5002014490860102042
:10461000FEF7C7FD0120FFF71DFE4320FFF71AFE3E
:104620000020FFF717FE0120FFF714FE0020FFF720
:1046300011FE0020FFF70EFE0020FFF70BFE00200A
:10464000FFF708FE002033E01C06002084024142F0
:10465000900240420000404200004142B08240428D
:104660004A000020480000204C00002024010020C7
:1046700014010020180100201C010020200100204E
:10468000080100206C0000200000EC4234010020F2
:104690000A010020090100200B0100200C0100206C
:1046A0000008024000040240000002400080404236
:1046B000FFF7D0FD01205D49C1F8B0021020FEF7E0
:1046C00070FD10BD10B50020594908600120FFF7AA
:1046D000C1FD4420FFF7BEFD0020FFF7BBFD012018
:1046E000FFF7B8FD0320FFF7B5FD0020FFF7B2FD8F
:1046F0000020FFF7AFFD0020FFF7ACFD0020FFF723
:10470000A9FD01204949C1F8B0021020FEF749FD7A
:1047100010BD10B50020464908601020FEF741FD8D
:104720000120FFF797FD4D20FFF794FD0020FFF7D4
:1047300091FD0020FFF78EFD0120FFF78BFD01208A
:104740003A49C1F8B0021020FEF72BFD10BD10B59C
:104750000020374908601020FEF723FD0120FFF7F5
:1047600079FD4320FFF776FD0020FFF773FD002061
:10477000FFF770FD5A20FFF76DFD5A20FFF76AFD25
:104780005A20FFF767FD5A20FFF764FD5A20FFF714
:1047900061FD01202549C1F8B0021020FEF701FD9E
:1047A00010BD10B5FFF711FFFFF70FFFFFF70DFF6B
:1047B000FFF729FFFFF786FFFFF7C9FF10BD10B510
:1047C0001C48007838B30720FFF740FD00EE100AC0
:1047D000B8EE400A184880ED000A0820FFF736FDC1
:1047E00000EE100AB8EE400A144880ED000A0520D9
:1047F000FFF72CFD00EE100AB8EE400A104880EDDD
:10480000000A0620FFF722FD00EE100AB8EE400A6B
:104810000C4880ED000AFFF7B8FD00EE100AB8EE74
:10482000400A094880ED000A10BD000000804042A7
:10483000B08240420801002014010020180100202D
:104840001C01002020010020240100201CB50024B0
:1048500005E0FB48005D0DF80400601CC4B2082CA4
:10486000F7DB694640F2011001F0AFFB002407E0DE
:10487000F34904F10800085C0DF80400601CC4B2A0
:10488000082CF5DB69464FF4817001F09EFB002493
:1048900007E0EB4904F11000085C0DF80400601C0F
:1048A000C4B2082CF5DB694640F2031001F08DFB21
:1048B0001CBDE449088000BFE249091F098801F0D6
:1048C00040010029F8D0704700B5002200BF05E084
:1048D000DB49885CFFF7EDFF501CC2B2182AF7DBFA
:1048E00000BD10B502460B460020012B08D1002167
:1048F00004E0D34C645C60404C1CE1B29142F8DBB4
:1049000043B9002104E0D04C645C60404C1CE1B22F
:104910009142F8DB10BD00B57B20C94908767D21A6
:10492000C74880F82E10C94890ED000AC848D0ED5D
:10493000000A70EE200AB0EE001A80EE810ADFED68
:10494000C50A20EE200ABDEEC00A10EE100A01B220
:10495000BB48418300218183BD4890ED000ABB48DC
:10496000D0ED000A70EE600ABB4890ED001A80EEB0
:10497000810ADFEDB80A20EE200ABDEEC00A10EE73
:10498000100A01B2AE48C183B4484188AC484184A2
:10499000B2480088404201B2A9488184AF4881886A
:1049A000A748C184AE484188A5480185AC48008825
:1049B000404201B2A2484185AA48007820B9A848DF
:1049C00081889F48818502E000219D488185A64815
:1049D00090ED000ADFED9F0A20EE200ABDEEC00A2E
:1049E00010EE100A01B296480184007E94490870C6
:1049F0009C48007848700846408B000A887008463A
:104A0000807EC8700846808B000A08710846007FC7
:104A100048710846C08B000A88710846807FC871BB
:104A20000846408C000A0872084690F82200487236
:104A30000846808C000A8872084690F82400C872E4
:104A40000846C08C000A0873084690F82600487390
:104A50000846008D000A8873084690F82800C8733D
:104A60000846408D000A0874084690F82A004874E9
:104A70000846808D000A8874084690F82C00C87497
:104A80000846008C000A0875084690F82000487512
:104A900001211620FFF725FF69498875084690F81F
:104AA0002E00C87500BD08B5FEF7C7FB009009E0F1
:104AB0003221684604F0B5FFFFF72DFFFFF704FF32
:104AC000FFF7C4FEF4E76949888000BF6749098899
:104AD00001F040010029F9D0704700B5002200BF65
:104AE00005E05749885CFFF7EEFF501CC2B2182A58
:104AF000F7DB00BD10B588B0044601210846FDF77C
:104B00005BF901211020FDF7B1F90722092158486E
:104B1000FCF789FE07220A215548FCF784FE4FF472
:104B2000C060069002208DF81D008DF81C0000204A
:104B30008DF81E0001208DF81F0006A94C48FCF7D7
:104B4000E7FD25208DF8040001208DF805000020E8
:104B50008DF8060001208DF8070001A8FBF7BDFDC8
:104B600002940020ADF80C00ADF80E00ADF8100076
:104B7000ADF814000C20ADF8120002A93B48FEF776
:104B800028F9012240F225513848FEF760FA012148
:104B90003648FEF7A6F908B010BD10B588B0044637
:104BA00001210846FDF708F901214804FDF74DF9F8
:104BB000072202212E48FCF736FE072203212C484B
:104BC000FCF731FE0C20069002208DF81D008DF8B8
:104BD0001C0000208DF81E0001208DF81F0006A982
:104BE0002348FCF795FD26208DF8040001208DF860
:104BF000050000208DF8060001208DF8070001A8AF
:104C0000FBF76BFD02940020ADF80C00ADF80E0030
:104C1000ADF81000ADF814000C20ADF8120002A998
:104C20001448FEF7D6F8012240F225511148FEF74C
:104C30000EFA01210F48FEF754F908B010BD00002C
:104C4000280600200448004058060020B80600202E
:104C5000CC06002000007A44000100203E01002024
:104C600038010020D0000020380000200010014052
:104C7000000002400044004010B588B00446012105
:104C80000420FDF799F801218804FDF7DEF80722DA
:104C90000A21FC48FCF7C7FD07220B21F948FCF765
:104CA000C2FD4FF44060069002208DF81D008DF883
:104CB0001C0000208DF81E0001208DF81F0006A9A1
:104CC000F048FCF725FD27208DF8040002208DF820
:104CD000050000208DF8060001208DF8070001A8CE
:104CE000FBF7FBFC02940020ADF80C00ADF80E00C1
:104CF000ADF81000ADF814000C20ADF8120002A9B8
:104D0000E148FEF766F8012240F22551DE48FEF741
:104D10009EF90121DC48FEF7E4F808B010BD10B59B
:104D20002DED0A8BB0EE409AF0EE608AD7480078FD
:104D300058B1D6480078012807D0D4480078072811
:104D400003D0D2480078082802D1B6EE088A14E0D1
:104D5000CE480078022803D0CC480078032802D13E
:104D60009FEDCB8A09E0C9480078042803D0C748E2
:104D70000078052801D19FEDC78AF5EEC08AF1EED3
:104D800010FA4FD0B5EEC09AF1EE10FA4AD089EE83
:104D9000280AF0EE40AA03F083FBB4EEC80AF1EE55
:104DA00010FA17D8F5EEC08AF1EE10FA08DDB0EE71
:104DB000490A03F075FBC0EE080AF0EE608A09E0CC
:104DC000B0EE490A03F06CFBB1EE400AC0EE080AEF
:104DD000F0EE608A89EE28AAAF48D0ED000AB6EE60
:104DE000001AB0EE4A0A01EE200AAC48D0ED000AE3
:104DF00080EE801A11EE104A204609F07FFA41EC4D
:104E00001C0BB0EE4C0AF0EE6C0A06F0E5FFB0EEBB
:104E100040BAF0EE60BA51EC1B0B08F09DFC09EEB5
:104E2000900A01E0DFED9E9AB0EE690ABDEC0A8BB4
:104E300010BD2DE9F0412DED088B04460D4605EB24
:104E4000042006B24FF47A7096FBF0F100FB116774
:104E5000384608F0F6FE41EC1B0B9FED920B53EC2D
:104E6000102B08F055FF41EC190B4FF47A7096FBAC
:104E7000F0F7384608F0E5FE41EC1A0B53EC192B1D
:104E800008F09CFC41EC180B08F066FC00EE100AE0
:104E9000BDEC088BBDE8F08110B52DED028B40F222
:104EA00025518248FEF70EF9002860D07F48FEF7B2
:104EB00047F8C4B27E480068B0F57A7F03DA002074
:104EC000BDEC028B10BD7B487B49097844547B2C98
:104ED00003D079480078002805DD77480078401C29
:104EE0007549087002E00020734908707248007824
:104EF0000B283CD10020704908706E48807A7D28CC
:104F000035D100210920FFF7ECFC6A49497A884233
:104F10002DD10020694908706949087069490870F5
:104F200069490870012069490870624A1179D0788E
:104F3000FFF77FFF664880ED000A5E4A917950795D
:104F4000FFF777FF634880ED000A5A4A117AD0795B
:104F5000FFF76FFFB0EE408AF0EE480A5C4890ED34
:104F6000000AFFF7DCFE5C4880ED000A00BF00206D
:104F7000A6E710B52DED0C8B40F225515748FEF7F2
:104F8000A1F800287DD05548001D048854480068C9
:104F9000B0F57A7F03DA0020BDEC0C8B10BD412CFC
:104FA00013D15048007841280FD14648007860B9A5
:104FB00000204249087042490870012041490870A8
:104FC0000020414908704149087046490C704B2C3B
:104FD00003D101204449087006E0492C01D04A2C35
:104FE00002D10020404908703F48007888B9412C20
:104FF00006DB482C04DCA4F140003C4908702FE09B
:10500000082C02DC39490C702AE00020374908706E
:1050100026E035480078012822D1432C06D1002013
:10502000334908700120334908700DE0472C06D140
:1050300001202F49087000202E49087004E000204C
:105040002B4908702B490870412C01D0452C04D104
:10505000A4F140002549087002E0002023490870AF
:10506000582C08D1244890ED000ADFED240A30EED8
:10507000200A80ED000A592C48D11F4890ED000A03
:105080003EE014E10008024000480040D800002043
:105090003333B33F9A99993F000100200401002067
:1050A00000000000FCA9F1D24D62503F0010014009
:1050B0007C0100205806002070000020080100201C
:1050C0000A010020090100200B0100200C01002032
:1050D000E0000020E4000020E80000200044004040
:1050E0003401002074000020100100200F01002076
:1050F0000D0100200E010020DC0000200000C8424D
:105100005FED020A30EE600A80ED000A7B2C02D1CE
:105110000120A34908707D2C02D10220A04908700B
:105120009F480078012808D19E499F4A12788C54E4
:105130009D480078401C9C490870994800780228D6
:1051400070D19848C078502803D101209749087041
:1051500091E094484078232870D09348007894498F
:1051600008703AE090490978914A1278881A08F054
:1051700068FD41EC1D0BB0EE4D1AF0EE6D1A9FED7F
:105180008D0B06F095FFB0EE40BAF0EE60BA88499C
:105190000978491E834A515CA1F1300008F051FDA5
:1051A00041EC1C0B53EC1B2B08F0B2FD41EC190B2E
:1051B0008248006809F0A2F841EC1A0B53EC192B55
:1051C00008F0FCFA41EC180B08F0C6FA7B490860BD
:1051D00077480078401E76490870754800780428A2
:1051E000C0DA704840783038092843D2DFE800F050
:1051F000050C131B272E37404100704890ED000A24
:105200006F4880ED000A35E06C4890ED000A6D486B
:1052100080ED000A2EE0694890ED000A6A4880EDB2
:10522000000A27E037E0654890ED000ADFED670AE5
:1052300080EE201A664880ED001A1BE01BE05F48F4
:1052400090ED000A634880ED000A13E05B4890EDA2
:10525000000ABDEEC00A604880ED000A0AE0574827
:1052600090ED000ABDEEC00A5C4880ED000A01E046
:1052700000E000BF00BF0020494908704A4908709B
:105280004B4908701FED7A0A4C4880ED000A322124
:10529000444806F023FC4A4890ED000AB5EEC00AE7
:1052A000F1EE10FA03D21FED820A80ED000A002011
:1052B00072E610B52DED028B40F225514848FDF7FE
:1052C00001FF00285FD04648FDF73AFEC4B24548CA
:1052D0000068B0F57A7F03DA0020BDEC028B10BDC8
:1052E00041484249097844547B2C03D03F48007818
:1052F000002805DD3D480078401C3C49087002E06C
:1053000000203A490870394800780B283BD100202A
:10531000364908703448807A7D2834D1002109202C
:10532000FFF7DFFA3049497A88422CD10020304912
:1053300008703049087030490870304908703049A9
:105340000870294A1179D078FFF773FD2D4880ED58
:10535000000A254A91795079FFF76BFD2A4880EDC4
:10536000000A214A117AD079FFF763FDB0EE408A36
:10537000F0EE480A234890ED000AFFF7D0FC2348DE
:1053800080ED000A00BF0020A7E72149088000BF88
:105390001F49091F098801F040010029F8D0704712
:1053A000710000207806002072000020110100200A
:1053B000730000200000000000002440780000205E
:1053C000DC000020F0000020F400002000007A44FF
:1053D00078010020740100206C0100207001002081
:1053E000004800407C010020580600207C0000207E
:1053F000080100200A010020090100200B01002003
:105400000C010020E0000020E4000020E800002063
:10541000044400401CB501210220FCF7CDFC4FF4F0
:105420008040009000208DF8040001208DF80700D6
:1054300069462648FCF76CF91CBD2548007838B150
:105440002448006820B900202149087001207047D5
:1054500020480068012801D11D4908700020F6E7A6
:10546000002006E0002100E0491CB1F5FA7FFBDBDB
:10547000401C3228F6DB704710B50A241548006836
:1054800048B915480168601C814204DA1248006876
:10549000401C114908600F480068012809D1FFF736
:1054A000DFFF0C480068012803D100200A4908608A
:1054B000002309480068844200D10123012B02D156
:1054C0000023012010BD0020FCE700000004024082
:1054D00080000020388240428400002030B589B02E
:1054E00005460C4601210846FCF7C0FC0121084690
:1054F000FCF762FC01220821FC48FCF794F9012228
:105500000921FA48FCF78FF901220B21F748FCF733
:105510008AF94FF43060079002208DF820008DF852
:10552000230007A9F148FCF7F3F84FF43061EF4886
:10553000FCF76CF90595ADF810400020ADF81800A7
:10554000ADF8120004A9EA48FCF737FE0020ADF8D8
:105550000000ADF802000120ADF804000020ADF815
:1055600006000F20ADF808006946E148FDF7FCF998
:105570000420ADF800000020ADF802000120ADF8D5
:1055800004000020ADF80600ADF808006946D848D0
:10559000FDF7EAF90C20ADF800000020ADF802009C
:1055A0000120ADF804000020ADF80600ADF80800B9
:1055B0006946CF48FDF7D8F919208DF80C00002076
:1055C0008DF80D008DF80E0001208DF80F0003A856
:1055D000FBF783F81B208DF80C0000208DF80D00E0
:1055E0008DF80E0001208DF80F0003A8FBF775F869
:1055F00001221E21BE48FDF781FA0121BC48FDF7BA
:1056000056FA0121BA48FCF761FE09B030BD10B569
:10561000B8480068B0F5C86F19DDB648006840F2B8
:105620007261884213DAB448007880B9B3480068E0
:10563000B0F57A7F0BDB0120AF4908700020B0493C
:105640000870B0490870B0490870B0490870B04897
:10565000007800F08000002857D10221A448FDF70F
:1056600064FA002851D00221A148FDF76FFAA8483A
:10567000007800F04000C0B39D48FDF7F3F9A5495C
:10568000088008460088A4490988884204DA4FF651
:10569000FF70A249086002E00020A04908609D4810
:1056A00000889D490988401A9C49096808449C491A
:1056B000086009689B4A1268881A002801DB0146C5
:1056C00000E04142B1F5FA7F03DD96480068944955
:1056D0000860934800689349086000208C4908706E
:1056E00000218348FDF70DF80FE0FFE78048FDF744
:1056F000B9F9894908808648007840F0400084491B
:10570000087002217A48FCF7FCFF8748007800F017
:105710008000002857D104217548FDF706FA0028BB
:1057200051D004217248FDF711FA7F48007800F04B
:105730004000C0B36E48FDF798F97C4908800846E0
:1057400000887B490988884204DA4FF6FF7079495E
:10575000086002E0002077490860744800887449B6
:105760000988401A73490968084462490860096851
:10577000714A1268881A002801DB014600E04142A4
:10578000B1F5FA7F03DD6C4800685A490860594852
:105790000068694908600020634908700021544886
:1057A000FCF7C1FF0FE0FFE75148FDF75EF96049E4
:1057B00008805D48007840F040005B490870022195
:1057C0004B48FCF7B0FF5D48007800F080000028EF
:1057D00057D108214648FDF7A8F9002851D00821E3
:1057E0004348FDF7B3F95548007800F04000C0B3D6
:1057F0003F48FDF73DF95249088008460088514965
:105800000988884204DA4FF6FF704F49086002E0C9
:1058100000204D4908604A4800884A490988401AD2
:10582000494909680844494908600968484A1268B2
:10583000881A002801DB014600E04142B1F5FA7FF9
:1058400003DD43480068414908604048006840491A
:10585000086000203949087000212548FCF77DFFC9
:105860000FE0FFE72248FDF703F936490880334887
:10587000007840F040003149087002211C48FCF7D4
:105880006CFF10211A48FDF750F900286ED0102146
:105890001748FDF75BF92F48007800F0400020B36F
:1058A0001348FDF7E8F82C490880084600882B4982
:1058B0000988884204DA4FF6FF702949086002E03F
:1058C0000020274908602448008824490988401A94
:1058D000234909680844234908600968224A126874
:1058E000881A002843DB014642E054E000000240F1
:1058F00000000140B40000200A0100203401002013
:1059000009010020080100200B0100200C010020EB
:10591000880000208C0000208A000020A0000020C9
:10592000B0000020C00000208E0000209200002067
:1059300090000020A4000020C4000020940000205B
:105940009800002096000020A8000020B800002049
:10595000C80000209A0000209E0000209C0000202B
:10596000AC000020BC000020CC00002022E041421E
:10597000B1F5FA7F03DD1348006813490860124847
:105980000068104908600020104908700021104884
:10599000FCF7FDFE0EE00E48FDF76DF80D4908809E
:1059A0000A48007840F04000084908700221084881
:1059B000FCF7EDFE10BD0648008A20F00100044906
:1059C00008827047CC000020BC0000209A00002014
:1059D000000001409C0000202DE9F04387B0044600
:1059E0000D4617461E46DDF838904FF0000814B1FA
:1059F0000DB107B11EB9012007B0BDE8F083601EEC
:105A0000C4B2681EC5B2781EC7B2701E86B201212C
:105A10000220FCF7D1F901214806FCF716FA4FF4F1
:105A20004070059002208DF819008DF818000020B4
:105A30008DF81A0001208DF81B0005A9F848FBF726
:105A400067FE09220821F648FBF7EDFE0922114600
:105A5000F348FBF7E8FE0020F249086008460068BA
:105A600040F00100086008E008F101001FFA80F82A
:105A7000B8F1640F01DD0220BEE7EA48001D0068AE
:105A800000F001000028EFD0E6480068E549086012
:105A90000846006808600846006808600846006814
:105AA00040F010000860084600680860084600687A
:105AB00008600020DB491C3108600846006840EAA5
:105AC000897008600846006840EA0460086008467B
:105AD000006840EA055008600846006840EA074050
