:020000040800F2
:10000000C05E002059020008D92A0008B11F00086C
:10001000F5280008050F0008554B000800000000F7
:10002000000000000000000000000000A101000826
:100030009515000800000000F5010008453C000887
:1000400073020008730200087302000873020008BC
:1000500073020008730200087302000873020008AC
:10006000730200087302000873020008730200089C
:10007000730200087302000873020008730200088C
:10008000730200087302000873020008730200087C
:10009000C110000873020008730200087302000810
:1000A00073020008AD40000873020008193D000803
:1000B000BD400008CD40000873020008730200082C
:1000C000730200087302000873020008730200083C
:1000D000730200082D480008730200082549000833
:1000E000730200087302000873020008730200081C
:1000F000730200087302000873020008730200080C
:1001000073020008730200087302000873020008FB
:10011000B545000873020008730200087302000866
:1001200073020008730200087302000873020008DB
:1001300073020008730200087302000873020008CB
:1001400073020008730200087302000873020008BB
:1001500073020008730200087302000873020008AB
:10016000730200087302000873020008730200089B
:10017000730200087302000873020008730200088B
:100180007302000873020008DFF810D000F06AFB69
:1001900000480047656A0008AFF30080C05E002099
:1001A0002A4B19680868B0E8F04F80F30988BFF35C
:1001B0006F8F4FF0000080F311887047000000003F
:1001C00006480068006880F3088862B661B6BFF32D
:1001D0004F8FBFF36F8F00DF00BF00BF08ED00E05F
:1001E000DFF80C00016841F470010160704700BF46
:1001F00088ED00E0EFF30980BFF36F8F134B1A68AF
:100200001EF0100F08BF20ED108A20E9F04F10609B
:1002100008B44FF0500080F31188BFF34F8FBFF345
:100220006F8F08F0EBF94FF0000080F3118808BCE5
:1002300019680868B0E8F04F1EF0100F08BFB0EC66
:10024000108A80F30988BFF36F8F7047D0000020B9
:10025000EFF30580704700000648804706480047D6
:10026000FEE7FEE7FEE7FEE7FEE7FEE7FEE7FEE766
:10027000FEE7FEE7593C00088901000840EA010357
:100280009B0703D009E008C9121F08C0042AFAD24C
:1002900003E011F8013B00F8013B521EF9D2704710
:1002A000D2B201E000F8012B491EFBD270470022B8
:1002B000F6E710B513460A4604461946FFF7F0FF65
:1002C000204610BD2DE9FE4F804681EA0300C00F95
:1002D0000C46009021F0004123F00045B8EB0200ED
:1002E000A94105D24046214690461C460B4602468F
:1002F00023F00040104347D0270DC7F30A00C3F393
:100300000A510290401A019040286BDAC3F313009F
:1003100040F4801B0098924620B10023D2EB030AE0
:1003200063EB0B0B01985946C0F14002504600F0B8
:10033000B4F906460D4650465946019A00F0BCF9FC
:1003400010EB08006141002487EA115284EAE77348
:100350001A4340D0009A62B3019A012A4FEA075229
:1003600015DC001B61EB02014FF0004202EA07526C
:10037000CDE90042001C41F5801132462B4600F0C9
:10038000F3F903B0BDE8F08F40462146F9E7001BC2
:1003900061EB0201001C41F5801300185B4120183D
:1003A000A2F5001747EB030140EAD570B6196D417D
:1003B00011E06D084FEA360645EAC0754FEA07526C
:1003C000001B61EB0201001C41F5801149084FEA56
:1003D00030000019514132462B4603B0BDE8F04FC2
:1003E00000F0B3B90098012240000023D0EB0202D4
:1003F00063EBE073009821464FEAE074B8EB00002D
:1004000061EB0401E9E783F000435BE781F0004121
:1004100058E72DE9FE4F81EA030404F0004421F07F
:10042000004100944FF0000B23F0004350EA010418
:100430005ED052EA03045BD0C3F30A54C1F30A55F9
:100440002C44A4F2F3340194A0FB0254C1F3130131
:1004500041F48011C3F3130343F4801301FB0244FE
:1004600000FB034E840A970A44EA815447EA835703
:10047000A4FB076802958D0A05FB07854FEA932CBC
:1004800004FB0C542705029D4FEA065847EA16372D
:10049000B5EB08056EEB070C870E920E47EA811745
:1004A00042EA8312A7FB0201B6EB0B0164EB0004E6
:1004B0002B0D43EA0C335E1844EB1C50DA465146D0
:1004C000E7FB0201C5F313044FEA0B3343EA14536D
:1004D0004FEA0432019C43EA0603A4F10C0402949F
:1004E000009CCDE900B400F03FF903B0BDE8F08F07
:1004F00000200146F9E72DE9F04D81EA030404F0FC
:10050000004B21F0004514464FF0000A23F0004153
:1005100050EA050220D054EA01021DD0C5F30A5763
:100520000246C5F31303C1F31300C1F30A5640F4A6
:10053000801543F48013A7EB0608101BD64608F27B
:10054000FD3873EB050002D308F1010801E09218B1
:100550005B41B8F1000F03DA00200146BDE8F08DE1
:1005600000204FF48011064684460EE0171B73EB03
:10057000050705D3121B63EB050306434CEA010C88
:1005800049084FEA300092185B4150EA0107EDD16B
:1005900052EA030012D082EA040083EA050108430C
:1005A00005D0101BAB4106D20122002306E0002239
:1005B0004FF0004302E06FF0010253101AEB060007
:1005C0004CEB085110EB0A0041EB0B01BDE8F04D7C
:1005D00000F0BBB80EB5C10F80EAE0700844CA074E
:1005E000002140F233438DE80E000A460B4600F02E
:1005F000BBF803B000BD0EB540F2334102910021BB
:10060000CDE900110A460B4600F0AEF803B000BD7C
:1006100000F0004230F000400AD0C10D01F56071D9
:10062000C0F3160042EA0151C20840071143704767
:1006300000200146704701F0004330B421F0004132
:1006400050EA010206D00A0DA2F56072C1F313014F
:10065000002A02DC30BC00207047440F44EAC10489
:10066000C100E01830BC00EBC25000F037B830B524
:100670000B46014600202022012409E021FA02F560
:100680009D4205D303FA02F5491B04FA02F52844FA
:10069000151EA2F10102F1DC30BD202A04DB203A54
:1006A00000FA02F1002070479140C2F1200320FAC5
:1006B00003F3194390407047202A06DBCB17203AFA
:1006C00041FA02F043EAE07306E041FA02F3D04057
:1006D000C2F1200291400843194670470029A8BF83
:1006E0007047401C490008BF20F00100704710B45B
:1006F000B0FA80FC00FA0CF050EA010404BF10BC10
:10070000704749B1CCF1200421FA04F411FA0CF13C
:1007100018BF012121430843A3EB0C01CB1D4FEA75
:1007200000614FEA102042BF002010BC704700EB70
:10073000C35010440029A4BF10BC7047401C49009E
:1007400008BF20F0010010BC704710B5141E73F1F3
:10075000000408DA401C41F1000192185B411A4381
:1007600001D120F0010010BD2DE9F04D92469B46CD
:1007700011B1B1FA81F202E0B0FA80F22032904673
:10078000FFF78BFF04460F4640EA0A0041EA0B01DF
:1007900053465A46084313D0114653EA010019D074
:1007A000C8F14002504600F06FF805460E4650462C
:1007B00059464246FFF771FF084305D0012004E087
:1007C00020463946BDE8F08D0020054346EAE07634
:1007D0002C4337430A986305E40AA0EB0800002283
:1007E000FD0A44EA47540A3002D500200146E9E7F1
:1007F000010510196941DDE9084500196941BDE8A5
:10080000F04DA2E770B521F0004303430CD0C1F3D3
:100810000A550024D5EB040564EB0403D617AD1A82
:10082000B34102DB0020014670BD201841EB0251AC
:1008300070BD000030B5041E71F1000404DB4FF000
:100840000044404264EB0101141E73F1000405DB17
:100850001C464FF00043524263EB0403994208BF29
:10086000904230BD064C074D06E0E06840F00103C1
:1008700094E8070098471034AC42F6D3FFF788FCA1
:1008800050A9000870A90008202A04DB203A21FAA8
:1008900002F00021704721FA02F3D040C2F1200299
:1008A00091400843194670472DE9F04D00231A4640
:1008B0001B1A8A4103DB00200146BDE8F08DC1F31D
:1008C0000A52C1F3130141F480154FF0000BD10718
:1008D00002D100186D41521E0027044640F2FF115C
:1008E000384601EB620A3E468046024600204FF43D
:1008F0008011FFF7C9FFC2197141BB1846EB010017
:10090000B4EB030C75EB000C04D3E41A65EB0005A3
:1009100017460E46241908F101006D41804634281F
:10092000E3DDF91946EB0600091BA84103D24FF09D
:10093000FF32134601E0002213461BEB070046EB93
:100940000A51BDE8F04DFFF700BF70B5C1F30A5280
:1009500001F000450024C1F3130140F2FF3341F4DC
:1009600080119A4201DA002070BD40F233439A426E
:10097000A2F2334203DC5242FFF786FF00E09040D0
:100980002C43F1D0404270BD70B58C1810F8015B5B
:1009900015F0070301D110F8013B2A1106D110F818
:1009A000012B03E010F8016B01F8016B5B1EF9D11C
:1009B0002B0705D40023521E0DD401F8013BFAE7A2
:1009C00010F8013BCB1A921C03E013F8015B01F80D
:1009D000015B521EF9D5A142D8D3002070BD002979
:1009E000816802D041F0010101E021F00101816044
:1009F00070470000084B10B5D3F8042307490A409C
:100A0000D0E900142143D0E90240044321431143BB
:100A1000C3F8041310BD000000200140E030FCFFCB
:100A2000C06C80B270470246002012680A4200D0B3
:100A30000120704730B542680F4B0C791A400B68A3
:100A400042EA04221343436082680C4B4D791A40FA
:100A5000D1E9034323438C6844EA45042343134309
:100A60008360C26A097D22F47002491EC9B242EA5B
:100A70000151C16230BD0000FFFEFFFCFDF7FFC069
:100A800070B5072609290AD9C568A1F10A0404EB43
:100A90004404A640B543A3401D43C56007E0056973
:100AA00001EB4104A640B543A3401D4305611F234C
:100AB000072A09D2446B521E02EB820293409C43E8
:100AC00091400C43446370BD0D2A09D2046BD21FC0
:100AD00002EB820293409C4391400C43046370BD3F
:100AE000C46A0D3A02EB820293409C4391400C434E
:100AF000C46270BD816841F0804181607047000030
:100B00007FB5434890ED001A9FED420ADFED420A9F
:100B100051EE000AB1EE041A60EE810AB3EE0A1A31
:100B2000C0EE811AFDEEE10A10EE903A642B00DD72
:100B300064233A48D0ED000A60EE800AFDEEE00A38
:100B400010EE900A002800DA40423549D1ED000A43
:100B500020EE800ABDEEC00A10EE101A002900DA5D
:100B60004942304C2278A2B1002222702E4C2578C6
:100B7000012D10D02D4DB5F90440D2B3B5F90220A6
:100B8000B5F9001004B02346BDE8704028A004F079
:100B90007FB80122E9E72C4A9FED2D1A284992EDF2
:100BA000000A2A4A2748BDEEC00AD2ED000A0968A9
:100BB000006860EE810AFDEEE00ACDED000A8DEDE1
:100BC000010ACDE90201234890ED000A2248BDEE5A
:100BD000C00A10EE103A90ED000A2048BDEEC00A9F
:100BE00010EE102A90ED000ABDEEC00A10EE101AA9
:100BF00000E005E01AA004F04BF8002020707FBD53
:100C0000CAB2C1B21DA0009404F042F87FBD00003A
:100C1000180000200000C8420000FA44105A0020CA
:100C20002C5A0020E4010020830100200002002053
:100C30007B4225643A25643A25647D240000000047
:100C4000AC010020A8010020B0010020B401002068
:100C500000007A4454010020500100204C01002083
:100C60007B4325643A25643A25643A25643A256431
:100C70003A25643A25647D24000000007B41256408
:100C80003A25643A25643A25647D2400F0B58DB098
:100C90000121042002F0D0FB0121022002F0CCFB54
:100CA0000121084602F0C8FB01210F02384602F07C
:100CB000DBFB0E20032606908DF81C6000248DF8C7
:100CC0001F4006A9184801F011F801258DF81C6095
:100CD00006958DF81F4006A9144801F007F8012178
:100CE000384602F0CDFB0021384602F0C9FB0894DB
:100CF00028040B94CDE9090408A8FFF77BFE8DF8C2
:100D0000044000948DF8054002940494084C8DF83A
:100D1000145069462046FFF78DFE01212046FFF75B
:100D20005EFE0DB0F0BD000000080240000402406D
:100D3000002001402DED028B82B005F075FE40F6DB
:100D4000B83940F27E4A9FED558ADFF854B1554ECE
:100D5000DFF85481554D564F564C00900A21684695
:100D600007F07AFA306A484501DA401C306201F037
:100D7000A3F80B2001F008F8A0F50060B06001F0C6
:100D80009BFDB060316A514519DD4B48007810B1C8
:100D900001F012F813E04948007810B102F0E6FBC8
:100DA0000DE04748007810B102F09CFA07E0454892
:100DB000D0ED000A444890ED000A00F0EDFB306AE7
:100DC000A0F2E931632908D2F0EE480A9FED3F0A0C
:100DD00000F0E2FB06F082FD09E0A0F24D40312870
:100DE00005D2B0EE480AF0EE400A00F0D5FB9BEDCC
:100DF000000ABDEEC00A10EE100A03F0C1FB08B9EC
:100E0000706818B100221146104641E0D5ED040A81
:100E100095ED000A01F06AFA00EE100AB8EEC00A79
:100E200085ED030AD7ED040A97ED000A01F09CFA5C
:100E300000EE100AB8EEC00A87ED030A98F8000029
:100E400080B101280ED0022813D0032811D0042825
:100E50000FD005280DD0062804D0072809D008286F
:100E600007D017E0BDEEC00A10EE101A95ED030A88
:100E700009E0B1EE400ABDEEC00A10EE101A95ED81
:100E8000030AB1EE400A2268BDEEC00A10EE100A55
:100E900002F02AFE01F096FB60E70000000000006F
:100EA000180000209801002045010020105A002061
:100EB0002C5A002048010020590100205A0100202E
:100EC000580100206C010020640100200AD7A33CD7
:100ED0001CB50121084602F0AFFA4FF48070009073
:100EE00001208DF8040000218DF8061003218DF8F3
:100EF00005108DF807006946014800F0F7FE1CBD9B
:100F000000000240FEE700001CB50121082002F0AD
:100F100093FA4FF40060009001208DF80400002146
:100F20008DF8061003218DF805108DF8070069462D
:100F3000014800F0DBFE1CBD000C02402DE9F04F23
:100F400087B00024E8B3E1B3DAB3D3B3491E401E3F
:100F500001F0FF09C7B2521E5B1E0121D6B29DB23D
:100F6000084602F069FA0121480602F071FA4FF4CE
:100F7000C050049002208DF814004FF000088DF846
:100F8000168003208DF81500DFF82CA14FF0010B1F
:100F90008DF817B004A9504600F0A8FE09220B21D5
:100FA000504600F0DFFE09220C21504600F0DAFE28
:100FB0004248C0F80080016841F001010160021D53
:100FC0000AE0FFE7012007B0BDE8F08F641CA4B27F
:100FD000642C01D90220F6E71168C907F6D0016830
:100FE000824601600168016001680160016841F0AA
:100FF0001001016001680160016801602F494346EA
:101000001C31C1F80080D1F80080DDF840C048EA0A
:101010008C7CC1F800C0D1F800C04CEA07670F60B3
:10102000D1F800C04CEA09570F600F6847EA06463E
:101030000E600E682E430E60016821F00101016010
:101040004FF6F07005E0641CA4B2844201D903207D
:10105000B9E71168C907F6D18DF80AB08DF80B30E1
:101060008DF80CB0ADF80030ADF804305C46ADF84A
:101070000230ADF80630ADF808308DF80DB0684696
:1010800000F0D2F90D481430016841F0020101600E
:1010900014208DF818008DF8194003208DF81A00DF
:1010A0008DF81B4006A801F019FD012202215046CF
:1010B00000F020FA002086E70000024000640040B3
:1010C0002DE9F0438BB04EA002ACD0E90010CDE981
:1010D000041009A8CDE9000408AB07AA06A900205E
:1010E00000F0AAF806994848484DA1F58072813A67
:1010F00002D10168012904D029780068014320D079
:1011000045E09DF808009DF8091000EB012000B2B1
:1011100000EE100A3E48B8EEC00A80ED010A9DF8C4
:101120000C009DF80D1000EB012000B2404200EED3
:10113000100A3848B8EEC00A80ED010A00F0BCFE83
:1011400025E000200146344BDFF8D0C0DFF8D08026
:10115000DFF8D09004AA12E011D19DF80F602E7034
:10116000012E0CD119708CF8001088F8001089F845
:10117000001000202154401CC0B20728FAD3265C7E
:10118000175CBE4203D1401CC0B20728E4D92878BE
:10119000012831D19DF809009DF808109DF80A201A
:1011A00000EB012000B29DF80B1000EE100A01EBDD
:1011B000022109B2F8EEC01A00EE101A9DF80D20B7
:1011C0009DF80C30B8EEC01A02EB032212B200EE0A
:1011D000102A15481549F8EEC00A9FED160A144A60
:1011E00081EE802AC1EE001A80ED002A80EE801A7E
:1011F000C1ED001A82ED001A0BB0BDE8F0830000CB
:101200000A0C0F13181E2500F80100205B010020B6
:10121000105A00202C5A00205801002059010020AB
:101220005A0100205C0100206401002068010020B8
:101230006C01002000007A44F0B5224CDDE9057510
:1012400004EB0014D4F8B06516F004061670D4F858
:10125000B02532D0D2080A60D4F8B01501F00201EE
:101260001970D4F8B41501F00F013970D4F8B8151D
:101270002970D4F8B815090A6970D4F8B815090CA2
:10128000A970D4F8B815090EE970D4F8BC15297105
:10129000D4F8BC15090A6971D4F8BC15090CA971F8
:1012A000D4F8BC15090EE97148B1012804D10648EB
:1012B000016841F020010160F0BD520DCBE702480A
:1012C000001FF5E7006000401064004038B50024BE
:1012D000009108232246214600F014F8054640F606
:1012E000FF7301E0641CA4B2284600F06BF80728E5
:1012F00001D09C42F6D39C4201D3012038BD00208E
:1013000038BD0000F0B506462C48059D0468640110
:1013100001D5002008E00468240101D5012003E084
:101320000068C00046D50220254C002704EB0014BD
:10133000C4F88075E9B3F600D4F880753743C4F873
:101340008075D4F8806546EA8101C4F88015D4F828
:10135000801541EA4201C4F88015D4F8842503F0D1
:101360000F0122F00F02C4F88425D4F884250A4323
:10137000C4F884252979EA796B7941EA0261AA796E
:10138000120442EA03221143C4F88C152978EA7842
:101390006B7841EA0261AA78120442EA03221143FF
:1013A000C4F88815D4F8801541F00101C4F88015FF
:1013B000F0BD01E0FF20FBE77605BDE708640040D3
:1013C00000600040174928B1012810D002281BD026
:1013D0000520704708680A6800F0010002F0020268
:1013E0000243086800F0806042EA106070470868B5
:1013F0000A6800F0010002F002020243086800F0EF
:10140000006042EA5060704708680A6800F0010016
:1014100002F002020243086800F0805042EA906045
:101420007047000008640040F0B5827A2F4D01211A
:1014300091402A6842F001022A602C4E1C36326824
:101440008A433260294A047B294B0C32A4B91468C0
:101450008C4314604488C78844EA0744877A03EBC6
:10146000C707C7F840460488878844EA0744877A54
:1014700003EBC707C7F84446047B012C12D114685C
:101480000C431460847A026803EBC4044FEA3242CE
:10149000C4F84026847A426803EBC4034FEA324220
:1014A000C3F84426114AC37A121D002B136806D0D4
:1014B0000B4313600D4A0389143213B104E08B43CC
:1014C000F7E713688B4313600389012B02D113687C
:1014D0000B431360407B012802D130680843306021
:1014E000286820F001002860F0BD00000066004080
:1014F00000600040002A426901D00A4300E08A43AC
:10150000426170477CB5144C00206D46215C295423
:10151000401CC0B20828F9D3294640F20110FFF759
:10152000D5FE00202118097A2954401CC0B2082891
:10153000F8D369464FF48170FFF7C8FE00202118E8
:10154000097C2954401CC0B20828F8D3694640F2EF
:101550000310FFF7BBFE7CBD6606002030B50346D6
:101560000020012908D10022094C03E0A55C684055
:10157000521CD2B29A42F9D3002908D1044A32321D
:1015800003E0545C6040491CC9B29942F9D330BDB4
:1015900066060020704700002DE9F05F2DED0E8BF0
:1015A000F0EE60DAB0EE408AB0EE0CDAFD4ADFF819
:1015B000F8831078DFEDFD8A9FEDFDABFE4FB8EEAE
:1015C0000CCAF6EE00CAFD49FD4EFE4C91ED000A34
:1015D000FD4D20EE2C0AD0B3012856D0072854D058
:1015E000082852D0DFF8E493DFF8E4A3DFF8E4B38F
:1015F0009FEDF9BB02287DD00328FCD0042801D040
:10160000052878D110EE100AFFF702F841EC1E0B06
:101610001DEE900AFEF7FCFF41EC100B04F0F4FA0B
:10162000B0EE409AF0EE609AD8F80000FEF7F0FFB6
:1016300053EC192BFEF75FFF53EC1E2BFEF7E3FE76
:10164000FEF7F9FF02EE100A9FEDE51A00E01CE03C
:10165000DFEDE40AB0EE6D0A06F00FFB99F800002A
:10166000F0EE408A01287DD09AF800000128FAD0D7
:101670009BF800000128F6D0DB4800780128F2D062
:10168000DA4800780128EED07DE19FEDD9EA89465D
:1016900010EE100AFEF7BCFF41EC1B0B1DEE900A8A
:1016A000FEF7B6FF41EC100B04F0AEFAB0EE409A34
:1016B000F0EE609AD8F80000FEF7AAFF53EC192B61
:1016C000FEF719FF53EC1B2BFEF79DFEFEF7B3FF51
:1016D00002EE100AB0EE681AFEEE000AB0EE6D0AD5
:1016E00006F0CBFAB5EEC00AF0EE408AF1EE10FA41
:1016F00019D001E057E035E199ED000AF0EE420A19
:1017000040EE6C0A60EE880A80EE821AF0EE420A21
:1017100040EE2C0A20EE880AC0EE020A84ED041A7C
:10172000C5ED040A03E084ED048A85ED048A9FED8B
:10173000B10A28EE800A10EE100AFEF769FF41ECAC
:10174000190B18EE900AFEF763FF41EC100BB0EE98
:101750004A1AF0EE6A1A03F02FFC9FEDA71B53EC18
:10176000112B00E002E151EC100BFEF752FE53EC9E
:10177000192BFEF7A7FD9FEDA21B53EC112BFEF7D3
:10178000A1FDFEF758FF00EE100AB06C00F2DC502D
:1017900000EE900AF8EEE00A40EE0E0ABDEEE00A16
:1017A00087ED000AC4E010EE100AFEF731FF41ECAD
:1017B0001E0B1DEE900AFEF72BFF41EC100B04F000
:1017C00023FAB0EE409AF0EE609AD8F80000FEF7E7
:1017D0001FFF53EC192BFEF78EFE53EC1E2BFEF76A
:1017E00012FEFEF728FF02EE100AB0EE681ADFEDD7
:1017F000860AB0EE6D0A06F040FA99F80000F0EEA5
:10180000408A01280FD09AF8000001280BD09BF8DD
:101810000000012807D074480078012803D07348DD
:101820000078012808D1DFED790AB0EE480A02F00D
:10183000ADF9774890ED008AF5EEC08AF1EE10FA26
:1018400017D05E48F0EE420A90ED000A40EE6C0AB6
:1018500060EE880A80EE821AF0EE420A40EE2C0A10
:1018600020EE880AC0EE020A84ED041AC5ED040ACF
:1018700003E084ED048A85ED048A9FED660A28EE74
:10188000800A10EE100AFEF7C3FE41EC190B18EEA9
:10189000900AFEF7BDFE41EC100BB0EE4A1AF0EED6
:1018A0006A1A03F089FB9FED5C1B51EC100B53ECA3
:1018B000112BFEF7AEFD41EC1A0B18EE900AFEF765
:1018C000A7FE41EC100BB0EE4B1AF0EE6B1A03F0D2
:1018D00073FB9FED531B51EC100B53EC112BFEF7D8
:1018E00098FD53EC1A2BFEF7EDFC53EC192BFEF789
:1018F000E9FC9FED4D1B53EC112BFEF784FDFEF729
:101900009AFED6ED120A00EE100AF8EEE00A70EE2A
:10191000200AC6ED030A96ED020AB8EEC00A00F0EE
:1019200061FD014696ED060A386802F065F9E8E0C7
:1019300094ED040AB0EE4D1AF0EE4C0A06F09DF953
:1019400084ED040A95ED040AB0EE4D1AF0EE4C0A4F
:1019500006F093F985ED040AD6E90421386806F00B
:101960009CF93860BDEC0E8BBDE8F09F0D48007807
:10197000052808D1D6ED070AB0EE480A02F006F9AC
:10198000234890ED008AF5EEC08AF1EE10FA5ED0A1
:101990000A48F0EE420A90ED000A40EE6C0A60EE52
:1019A000880A45E0450100207C0100207B14AE3E02
:1019B00000000000000000404801002078010020E5
:1019C00098010020105A00202C5A002059010020B4
:1019D000580100205A0100200000000000000840CB
:1019E0000AD7A33E8FC2F5BE5B0100205C01002038
:1019F000D7231F442731B83F00000080855ACBBF52
:101A000000000000A4A8833FD7A3F0BE0AD7233D5F
:101A1000045A002000A04A4500000000002894401D
:101A2000000000000024A3C00000004033936C407D
:101A300080EE821AF0EE420A40EE2C0A20EE880A6E
:101A4000C0EE020A84ED041AC5ED040A03E084ED39
:101A5000048A85ED048A9FED2C0A28EE800A10EE98
:101A6000100AFEF7D5FD41EC190B18EE900AFEF7AF
:101A7000CFFD41EC100BB0EE4A1AF0EE6A1A03F0FB
:101A80009BFA9FED221B51EC100B53EC112BFEF730
:101A9000C0FC41EC1A0B18EE900AFEF7B9FD41ECC0
:101AA000100BB0EE4B1AF0EE6B1A03F085FA9FEDB7
:101AB000191B51EC100B53EC112BFEF7AAFC53EC45
:101AC0001A2BFEF7A0FC53EC192BFEF79CFC9FEDA4
:101AD000131B53EC112BFEF7F5FBFEF7ACFDD6ED17
:101AE000120A00EE100AF8EEE00A70EE200AC6EDC7
:101AF000030AB068404200EE100AB8EEC00A00F0D7
:101B000071FC386014E70000001887450000006091
:101B100066C665400000000000A3B140000000A0C0
:101B2000470145401CB50121102001F085FC102023
:101B3000009000208DF8040003208DF8050001209E
:101B40008DF807006946024800F0D0F81CBD00007F
:101B500000100240F0B5012189B0084601F078FC80
:101B60000121032001F068FC03258DF805500226B1
:101B70004FF400408DF8046001242B4F00908DF845
:101B800006408DF807406946384600F0AFF88DF8FA
:101B900005508DF804608DF806408DF80740082048
:101BA000224C00906946204600F0A0F801220F2147
:101BB000384600F0D7F801220321204600F0D2F881
:101BC00002A802F0D3FC00244FF6FF70ADF80840E5
:101BD00003907507ADF81040ADF80A4002A92846F9
:101BE00002F086FC00231A460321284602F09DFAE3
:101BF00005A802F01DFBADF81C4005A9284602F01F
:101C0000C1FA0121284602F075FA01221146284640
:101C100002F016FB0021284602F040FC0121284674
:101C200002F06EFA09B0F0BD00000240000402406C
:101C300030B589B00121022001F00AFC01210846DB
:101C400001F0FAFBC020039003208DF81100022060
:101C50008DF8100001208DF81200224C8DF8130031
:101C600003A9204600F042F802220621204600F097
:101C700079F802220721204600F074F8684602F045
:101C800075FC00244FF6FF70174DADF80040019031
:101C9000ADF80840ADF802406946284602F028FC3D
:101CA00000231A460321284602F03FFA05A802F055
:101CB000BFFAADF81C4005A9284602F063FA0121DD
:101CC000284602F017FA01221146284602F0B8FA17
:101CD0000021284602F0E2FB0121284602F010FA1A
:101CE00009B030BD0000024000040040F0B5002201
:101CF00001274FF0030C0B6807FA02F52B40AB42AB
:101D00002CD1066853000CFA03F4A64306600E7942
:101D1000D0F800E09E4046EA0E0606600E79012EDD
:101D200001D0022E12D18668A64386604E79D0F883
:101D300008E09E4046EA0E0686604668AE4346606E
:101D400045688E799640B6B235434560C568A5436F
:101D5000C560CC799C40C3681C43C460521C102AE7
:101D6000C9D3F0BD4B07DB0E9A40C90810B500EB94
:101D70008100016A0F249C40A1430162016A114362
:101D8000016210BD0183704710B50A4C014607235C
:101D900001222046FEF774FE2046FEF7ABFE02212C
:101DA0002046FEF740FE0028F9D02046BDE810404E
:101DB000FEF736BE0020014035489FED371ADFEDB3
:101DC000371A027833489FED362A364990ED000ADB
:101DD0003548092AF1EE400A36D2DFE802F035052F
:101DE000080B1013181B320081ED000A0CE081ED86
:101DF000000A01E081ED001AC0ED001A0EE0C1ED0D
:101E0000000AF9E7C1ED000A80ED001A06E0C1ED15
:101E1000000A01E081ED001A80ED002A234A1278C1
:101E2000022A14D0032A12D0B6EE000A042A03D0E4
:101E3000052A01D0062A17D0D0ED000A20EE800A2C
:101E400018E081ED000AE7E781ED001ADCE790ED8C
:101E5000000AF0EE000A20EE200AF0EE080A80EEFA
:101E6000201A80ED001A07E090ED000ADFED100A5D
:101E700020EE200A80ED000AD1ED000A9FED0D1A38
:101E800080EE810A81ED000AD0ED000AFFF784BBE5
:101E90005D0100204C01002000000000DB0F49BF65
:101EA000DB0F493F640100206C0100204501002048
:101EB000CDCCCC3E00007A4410B502202DED028B33
:101EC00001F040FB00EE100A0320B8EEC08A01F0DA
:101ED00039FBDFED111A404200EE100A0F4868EEA0
:101EE000210AB8EEC01A90ED000A0D4880EE802A53
:101EF00021EE211AD0ED000A0A48C1EE001A22EEA6
:101F0000202A80ED002A084821EEA00A80ED000A70
:101F1000BDEC028B10BD00000000C8427001002023
:101F200074010020105A00202C5A00202DE9F041A5
:101F300000250E4607462C4608E03846FFF724FFEA
:101F40000544052004F01AFD641CE4B2B442F4D345
:101F5000B5FBF6F080B2BDE8F081000010B50820B6
:101F6000FFF712FFFEF747FB9FED0B1B53EC112B06
:101F7000FEF74FFA9FED0A1B53EC112BFEF749FABF
:101F80009FED091B53EC112BFEF743FAFEF753FBB1
:101F900000EE100A10BD0000EC51B81E85EB0940A0
:101FA0000000000000002640000000000000303F5C
:101FB000FEE7000070B50D4C0025C4F8A4520C4893
:101FC000016821F440310160016841F48031016011
:101FD000C4F8A052012004F5287404F0EBFC0120A1
:101FE000606004F0E7FC656070BD00000080404266
:101FF000000402401CB50121022001F01DFA4FF43B
:102000004070012400908DF8044000208DF80600F7
:1020100003208DF805008DF8074069460448FFF756
:1020200065FE0448C0F8A442C0F8A0421CBD0000F0
:10203000000402400080404270B50D4C0026C4F8F8
:10204000A4620C48016821F440310160016841F448
:10205000803101600125C4F8A052284604F5287497
:1020600004F0A8FC6560012004F0A4FC666070BD6B
:1020700000804042000402402DE9F04781461848A4
:102080000025016821F44031016001680160154EAE
:102090002C462F464FF00108C6F8A472012004F028
:1020A00089FCC6F8A4826806D6F82012000E11B189
:1020B00040F0010501E020F00105012004F07AFC68
:1020C000641CE4B2082CE7D3B9F1000F04D0FFF789
:1020D000B3FF2846BDE8F087FFF76CFFF9E7000083
:1020E000000402400080404270B50D46044600F0F6
:1020F0001BF8204600F0B0F800F05EF8284600F02B
:10210000ABF800F059F800F00FF844F0010000F0CF
:10211000A3F800F051F80120FFF7AEFF044600F0ED
:102120002BF8204670BD000070B51148016821F4FD
:1021300040310160016841F4803101600D4C0120A3
:10214000C4F8A002D4F8201200290FD0C4F8A402C9
:1021500004F030FC0025C4F8A052D4F82002002876
:1021600004D1012004F026FCC4F8A45270BD000084
:1021700000040240008040420D4810B5016821F47F
:1021800040310160016841F480310160094C002058
:10219000C4F8A402C4F8A002012004F5287404F0D5
:1021A00009FC012060602060BDE8104004F002BC22
:1021B000000402400080404270B5124800240168CB
:1021C00021F440310160016801600F4D0126C5F81E
:1021D000A062304604F0EEFBC5F8A46207E0641C80
:1021E000E4B2322C03D9FFF7C7FF002070BD0120F5
:1021F00004F0E0FBD5F820020028F0D1C5F8A402D5
:10220000012070BD00040240008040422DE9F041F1
:102210001D4614460F468046069EFFF765FF621C6A
:10222000FF21C4F1080301FA02F22B445B1ED940DE
:102230000A43C5F108018E40D2B2F1B2C4F10703DE
:10224000D940104040EA01023946404600F034F8D7
:102250000120BDE8F08100002DE9F0410546144859
:10226000016821F440310160016841F4803101606E
:10227000104E0027C6F8A4723C464FF00108E8094A
:10228000C6F8A0026806050E012004F093FBC6F80C
:10229000A482012004F08EFBC6F8A472012004F091
:1022A00089FB641CE4B2082CE9D3BDE8F08100008E
:1022B000000402400080404270B515460E460446B8
:1022C000FFF732FF2046FFF7C7FFFFF775FF3046E5
:1022D000FFF7C2FFFFF770FF2846FFF7BDFFFFF7CC
:1022E0006BFFFFF749FF012070BD0000174830EE7B
:1022F000C00A1749D0ED0B0A174A91ED001A70EE8B
:10230000600A144960EE810A91ED001A41EE000A5C
:1023100090ED0A1A70EE810A10EE901AC0ED0A0ACA
:10232000914203DDDFED0D0AC0ED0A0A10EE901AAE
:102330000B4A914203D9DFED0B0AC0ED0A0A80ED8A
:102340000B0ABDEEE00A10EE100A7047980100205B
:102350005001002054010020004083460040834685
:10236000004083C6004083C6174830EEC00A1749B4
:10237000D0ED0E0A174A91ED001A70EE600A14496A
:1023800060EE810A91ED001A41EE000A90ED0D1AFF
:1023900070EE810A10EE901AC0ED0D0A914203DD35
:1023A000DFED0D0AC0ED0D0A10EE901A0B4A9142B6
:1023B00003D9DFED0B0AC0ED0D0A80ED0E0ABDEE6C
:1023C000E00A10EE100A704798010020500100202A
:1023D000540100200040834600408346004083C6ED
:1023E000004083C670B55D482DED088BF0EE609A15
:1023F000F0EE408A39EEE89A0478DFED591A9FED45
:10240000591A594D39EEE80A022CD5ED110A30EE71
:10241000608A28EE21BA00EE01BA01D0032C38D12F
:102420005148F5EEC09AD0ED10BAF1EE10FA04D38F
:1024300018EE900A4D49884227D919EE100AFEF786
:10244000E7F89FED4B1B53EC112BFDF7E2FF41EC3E
:102450001A0B18EE100AFEF7DBF89FED471B53EC42
:10246000112BFDF7D6FF53EC1A2BFDF72BFF41EC98
:102470001A0B1BEE900AFEF7CBF853EC1A2BFDF764
:1024800021FFFEF7D8F8286403E03BEE2B0A85ED28
:10249000100A042C01D0052C36D1F5EEC09AF1EECD
:1024A00010FA04DC18EE900A3549884226DA19EE53
:1024B000100AFEF7ADF89FED331B53EC112BFDF71F
:1024C000A8FF41EC1A0B18EE100AFEF7A1F89FEDD9
:1024D0002F1B53EC112BFDF79CFF53EC1A2BFDF730
:1024E000F1FE41EC180B286CFEF792F853EC182B18
:1024F000FDF7E8FEFEF79FF8286405E095ED100A69
:102500003BEE000A85ED100A95ED040AD5ED100AA0
:10251000B8EEC01AF4EEC10AF1EE10FA03DDB8EE1F
:10252000C00A85ED100A95ED050AD5ED100AB8EE42
:10253000C01AF4EEC10AF1EE10FA03D2B8EEC00AE6
:1025400085ED100A85ED119A95ED100ABDEC088B0A
:10255000BDEEC00A10EE100A70BD0000450100205B
:102560006F12833BBC74133C98010020000048C3E9
:1025700092CB7F48BF7D8D3F2D431CEBE2367A3FE7
:102580000000484367D5E76A2BF6873F95F6065F5C
:10259000984C753F1CB50121042000F04DFF202010
:1025A000009000208DF8040003208DF80500012024
:1025B0008DF8070069460248FFF798FB1CBD000034
:1025C0000008024010B504F0EDF8012805D10449D7
:1025D00002480A6802608988818010BD0C020020D0
:1025E000120200201CB50121082000F025FF4FF445
:1025F0006040009001208DF8040000218DF8061045
:1026000003218DF805100B4C8DF807006946204614
:10261000FFF76CFB4FF480412046FFF7B3FB4FF40C
:1026200000512046FFF7AEFB4FF400412046FFF774
:10263000A9FB1CBD000C0240BC2801D3012210E004
:10264000622801D302220CE02A2801D3032208E0E9
:10265000142801D3042204E00A2801D3052200E053
:1026600006221A21D020FFF727BE10B504464FF4EA
:102670007A70844201D9044602E0042C00D204247A
:10268000B0FBF4F0401EC2B21921D020FFF714FEB7
:102690006008BDE81040FFF7CFBF10B580226B2166
:1026A000D020FFF709FEC82004F068F900226B2152
:1026B000D020FFF701FE012000F03AF8002000F0E2
:1026C0002EF83220FFF7D1FF00223821D020FFF76B
:1026D000F3FD00226A21D020FFF7EEFD0022232126
:1026E000D020FFF7E9FD80223721D020FFF7E4FD5D
:1026F0007521D020FFF7F8FC682801D0012010BD1B
:1027000001226B21D020FFF7D7FD00226C21D020C1
:10271000FFF7D2FD3220FFF7A8FF002010BD08B55B
:102720000223009004221C21D020FFF76FFD08BD7A
:1027300008B50223009004221B21D020FFF766FD7C
:1027400008BD000008B504F06FF90D4C4FF47A7520
:1027500000900A21684605F07FFD2068A8420ADA49
:10276000401C2060606820612089A082D4F80A00A3
:10277000E061E089208400F005F800F047F8E8E720
:10278000FC01002070B53C21D020FFF7ADFC0446D1
:102790003B21D020FFF7A8FC04EB00201A4C3E217F
:1027A0002080D020FFF7A0FC05463D21D020FFF778
:1027B0009BFC05EB002060804021D020FFF794FCBB
:1027C00005463F21D020FFF78FFC05EB002000B22B
:1027D000A4F10A01A0800968B1F57A7F12DB04F147
:1027E00018032188198062885A8098809B1F1D8851
:1027F000491B21805988511A61809988401A00F537
:102800008040A08070BD000006020020D0B54421A9
:10281000D020FFF769FC04464321D020FFF764FC79
:1028200004EB0020214C46212080D020FFF75CFCE7
:1028300006464521D020FFF757FC06EB00206080BC
:102840004821D020FFF750FC06464721D020FFF753
:102850004BFC06EB002001B2221FA18010684FF450
:102860007A77134B134EB84203DA012018603070A8
:102870001AE0B84207D1002030704FF4967018600B
:1028800040F2E9301060094B2088123318806288CA
:102890005A8099809B1F1E88801B20805888101AA0
:1028A00060809888081AA0802846D0BD00020020C9
:1028B000340000204401002030B500220C4B0121DF
:1028C00003EB410533F81140491CC9B225F8024C0D
:1028D0001429F5D3D884002033F91010401CC0B25D
:1028E0000A441428F8D3142092FBF0F000B230BD53
:1028F000805A0020FEE7000070B58AB00121402018
:1029000000F0A6FD01210B2000F096FD01253020EE
:102910008DF80450002400908DF806408DF8054095
:1029200069462B48FFF7E2F94FF4E0408DF8064086
:10293000284E00908DF804508DF8054069463046C9
:10294000FFF7D4F94FF4A0508DF8045000908DF8A3
:1029500006408DF8054069461F48FFF7C7F9092270
:102960000F213046FFF7FEF9E803009002208DF8B2
:1029700004008DF806408DF8054069463046FFF7A3
:10298000B5F944F29F10154E0390ADF80840ADF82C
:102990001050ADF80A4002A9304601F0A9FD6020B0
:1029A000ADF81400ADF81650ADF8204005A930463A
:1029B00001F08AFC0821304601F0D0FC01213046AC
:1029C00001F08EFB0121304601F09AFB0AB070BD88
:1029D0000000024000040240000C024000180040C9
:1029E0002DE9F041884607468AB00121022000F017
:1029F0003BFD0121042000F01FFD354E032206217E
:102A00003046FFF7AFF9032207213046FFF7AAF956
:102A1000032208213046FFF7A5F903220921304699
:102A2000FFF7A0F94FF47070059002208DF81800A0
:102A300003208DF8190000248DF81A4001258DF827
:102A40001B5005A93046FFF751F9224EADF81C8006
:102A50000897ADF82450ADF81E4007A9304601F0A4
:102A600047FD6020ADF80000ADF80250ADF80C4015
:102A70006946304601F0ECFB6946304601F024FC23
:102A80006946304601F074FC6946304601F0BEFCF0
:102A90000121304601F03EFB0821304601F00EFCDA
:102AA0000821304601F05AFC0821304601F0A8FC0C
:102AB0000821304601F0E4FC0121304601F010FB12
:102AC0000121304601F01CFB0AB0BDE8F081000096
:102AD00000080240000401407047000030B50F2399
:102AE000C27801780125FAB1144A126801F1E02197
:102AF00002F4E062C2F5E062C2F30722C2F104040C
:102B0000D3404278A24084781C401443220181F8CB
:102B10000024007800F01F018D404009800000F182
:102B2000E020C0F8005130BD01F01F008540480989
:102B3000800000F1E020C0F8805130BD0CED00E0D5
:102B40000249084302490860704700000000FA0586
:102B50000CED00E010B40021084B0A46002003EB06
:102B6000C004401CC0B262548028F8D3491CC9B2CA
:102B70000829F3D310BC00F0B7B8000028020020E9
:102B800010B57F2816D83F2914D80723A3EBD1030B
:102B900001F00701C1F107040121A140064CDBB29D
:102BA00004EBC000002AC25CC9B201D00A4300E0B5
:102BB0008A43C25410BD0000280200207CB50121C8
:102BC000082000F039FC01268DF804600024F02074
:102BD0008DF8064000908DF805408DF80740694655
:102BE0003F48FFF783F80121080700F031FC01207E
:102BF00000F01CFC002000F097FC002000F016FC08
:102C0000384DC5F89442642005F5257503F0B6FEED
:102C10002E600021AE2000F029F90021D52000F01F
:102C200025F90021502000F021F90021A82000F012
:102C30001DF900213F2000F019F90021D32000F0F8
:102C400015F90021084600F011F90021402000F09C
:102C50000DF900218D2000F009F90021142000F069
:102C600005F90021202000F001F90021022000F0E8
:102C7000FDF80021A12000F0F9F80021C02000F0AB
:102C8000F5F80021DA2000F0F1F80021122000F020
:102C9000EDF80021812000F0E9F80021EF2000F09C
:102CA000E5F80021D92000F0E1F80021F12000F042
:102CB000DDF80021DB2000F0D9F80021302000F001
:102CC000D5F80021A42000F0D1F80021A62000F0C2
:102CD000CDF80021AF2000F0C9F8FFF73BFF7CBD25
:102CE000000C02400080414270B5104E002505F1F5
:102CF000B000C0B2002100F0B9F80021084600F091
:102D0000B5F80021102000F0B1F8002406EBC40053
:102D10000121405D00F0AAF8641CE4B2802CF5D3D8
:102D20006D1CEDB2082DE2D370BD0000280200201A
:102D30002DE9F04F203A98460D468346894602F029
:102D4000FF0A00262EE0B8F10C0F08D0174901EB5E
:102D50000A100027845D200607D5099A08E0144967
:102D60000AEB4A0001EB8000F3E7099890B10022DA
:102D700029465846FFF704FF6D1C6006EDB2040EAD
:102D8000A5EB0901414507D10BF101004D4600F0CB
:102D9000FF0B05E00122EBE77F1CFFB2082FDAD31F
:102DA000761CF6B24645CED3BDE8F08FD09600082B
:102DB0005C9200082DE9FF4F81B00027DDF838B0A4
:102DC0001D46924680463C464FF001094FEA5B069D
:102DD00027E0281B401EC1B20A2003F063FEBAFBA5
:102DE000F0F00A21B0FBF1F201FB120027B9691ED5
:102DF0008C4201DA48B101273030C2B206FB0480B0
:102E0000C0B25B46CDF8009006E006FB0480C0B27D
:102E10005B462022CDF800900299FFF789FF641CE1
:102E2000E4B2AC42D5D305B0BDE8F08FF8B5164694
:102E30000D460446012714E07A2C02D900241035EF
:102E4000EDB23A2D03D900242546FFF783FE009703
:102E500032780C2329462046FFF76AFF0834E4B293
:102E6000761C30780028E7D1F8BD000030B500238B
:102E70000E4A012411B1C2F8904201E0C2F890322A
:102E80000021C2F89C32050602D5C2F8984201E042
:102E9000C2F89832C2F89C424006491C000EC9B2E2
:102EA0000829EED3C2F8904230BD000000804142B4
:102EB0000020044A01461154401CC0B20928FAD32C
:102EC00070470000280600202DE9F8430125074639
:102ED000ADF80050204800264670ADF800501F4C59
:102EE00080464FF6FF792DE0BDF80000384202D051
:102EF000C4F8845201E0C4F88462102003F05AFD43
:102F0000C4F88C52052003F055FDC4F88C620520EE
:102F100003F050FDC4F88C52102003F04BFDD4F8A0
:102F2000000230B198F80110BDF80020114388F874
:102F30000110102003F03EFDBDF8001009EA410029
:102F4000ADF80000BDF80000FF28CDD9BDE8F8437A
:102F5000102003F02FBD0000280600200000424290
:102F600070B5FFF7A5FF00F00BF90B480B4AB0F85E
:102F700003400A48083244800020012512F810302E
:102F800000F101005B1E05FA03F12142C0B202D03C
:102F90001028F3D3002070BD280600203C0000203C
:102FA00010B5154C0020C4F88802102004F52274D6
:102FB00003F000FD0120FFF787FF4320FFF784FFA8
:102FC0000020FFF781FF0120FFF77EFF0020FFF7C1
:102FD0007BFF0020FFF778FF0020FFF775FF002040
:102FE000FFF772FF0020FFF76FFF01202060BDE8B0
:102FF0001040102003F0DEBC0000424210B5154C1A
:103000000020C4F88802102004F5227403F0D2FCDA
:103010000120FFF759FF4320FFF756FF0020FFF77D
:1030200053FF0020FFF750FF5A20FFF74DFF5A20B3
:10303000FFF74AFF5A20FFF747FF5A20FFF744FFE8
:103040005A20FFF741FF01202060BDE8104010200A
:1030500003F0B0BC000042427CB50121102000F01A
:10306000EBF900248DF8044003208DF805000220C0
:103070000B4E01258DF80700009569463046FEF796
:1030800035FE8DF804500E208DF8064000908DF826
:1030900005408DF8075069463046FEF727FE7CBD97
:1030A0000010024010B5FFF75BFF00EE100A264843
:1030B0002B4BB8EE400A012280ED000A2348C1796B
:1030C00000EE901A2249F8EE600AC1ED000A017A7A
:1030D00000EE901A1F49F8EE600AC1ED000A41792E
:1030E00001EE101A1C49B8EE411A81ED001A8079E0
:1030F00010EE101A01EE100A1848B1F1814FB8EE27
:10310000411A80ED001A174801D10178D1B15968F0
:10311000002916D010EE901A134B994211DA01785B
:1031200000290ED111490968B1F57A7F09DB1049F0
:103130000270002008700F4908700F4908700F498D
:10314000087010BD5A60E5E79401002028060020B1
:1031500084010020880100208C01002090010020C3
:103160003C000020580100200000EC42FC0100203F
:103170005A010020590100205B0100205C01002061
:103180002DE9FC4100268DF800600125ADF80450C2
:10319000224CC4F88862224F3878FFF795FE787881
:1031A000FFF792FE02208DF800001E4F4FF6FF78C9
:1031B0002CE0ADF804501DE0C4F88C52052003F05B
:1031C000F9FBC4F88C62052003F0F4FBC4F88C52C0
:1031D000D4F8000240B19DF80000BDF80410385C3E
:1031E00008439DF800107854BDF8041008EA410027
:1031F000ADF80400BDF80400FF28DDD9102003F06D
:10320000D9FB9DF80000401C8DF800009DF80000DF
:103210000928CED3C4F88852BDE8FC8100004242A0
:103220003C0000202806002010B500F00DF800F04A
:103230000BF800F009F8FFF7B3FE00F027F8BDE83F
:103240001040FFF7DBBE000010B50F4C0020C4F8A3
:103250008802102004F5227403F0ACFB0120FFF774
:1032600033FE4220FFF730FE0020FFF72DFE002046
:10327000FFF72AFE0020FFF727FE01202060BDE8AF
:103280001040102003F096BB0000424210B5144CD1
:103290000020C4F88802012004F52274FFF714FE10
:1032A0004420FFF711FE0020FFF70EFE0120FFF77C
:1032B0000BFE0320FFF708FE0020FFF705FE0020AD
:1032C000FFF702FE0020FFF7FFFD0020FFF7FCFDE7
:1032D00001202060BDE81040102003F06BBB00000F
:1032E0000000424230B49FED420A42486FF013039F
:1032F000D0ED000A404870EE600AFDEEE00A10EEE4
:10330000901AD0ED000A994230EE600ABDEEC00A74
:1033100010EE100A02DD142900DA0021984202DDC5
:10332000142800DA0020354A364B354C126893EDEC
:10333000000AF1EE040AA24202D130EE200A04E0B3
:10334000314CA24203D130EE600A83ED000AB5EEA3
:10335000C00AF1EE10FA03D29FED2C0A83ED000AA9
:1033600000EE101A93ED001ADFED2C1AF8EEC00AE9
:1033700000EE100A264A2749B8EEC00A60EE810A1C
:103380009FED251A264820EE210A60EE810A20EEE4
:10339000010AC2ED000A81ED000A007802280AD075
:1033A000032808D0B6EE001A042811D005280FD043
:1033B00006280BD00CE0B0EE001A20EE010AB0EEA9
:1033C000081AC0EE011AC1ED001A05E09FED151AAA
:1033D00020EE010A81ED000A9FED131A80EE810AAA
:1033E00082ED000AD1ED000A30BCFEF7D5B800002E
:1033F00000000043880100208C010020940100207F
:10340000000030414C01002000001041000000008D
:10341000640100206C0100200000003CDB0F493FEC
:1034200045010020CDCCCC3E00007A440149086221
:103430007047000000000E42044A0029116801D0C4
:10344000014300E0814311607047000030380240C2
:10345000044A0029116801D0014300E08143116052
:103460007047000040380240044A0029116801D02A
:10347000014300E08143116070470000443802407E
:10348000044A0029116801D0014300E08143116022
:10349000704700002438024070B5204B1968204C5A
:1034A00011F00C0104D06610042903D0082903D0C0
:1034B00004601BE0066019E0184A121F1168C1F38E
:1034C0008055116801F03F0115B1B6FBF1F101E043
:1034D000B4FBF1F114681268C4F388146143C2F3B9
:1034E0000142521C5200B1FBF2F1016019680F2237
:1034F00002EA11110B4A545C0168E14041601C680A
:10350000072505EA9424145D21FA04F484601B68FD
:1035100005EA5333D25CD140C16070BD0838024027
:103520000024F400C0000020054900220A700A703F
:10353000012802D0042801D105200870704700003E
:10354000703802400021022803D0032807D0002051
:1035500070474FF08042506A516200B27047024A91
:103560001068116000B27047240400402DE9F0415A
:103570004FF4FA66574B771032463946186804F014
:103580008CFB554D186032463946286804F085FB9F
:10359000524C286032463946206804F07EFB3246A1
:1035A0004F4E20603946306804F077FB30601B686E
:1035B00029682268A3F2DC535B426FF06304A1F236
:1035C000DC51A0F2DC50A2F2DC52A14202DD6429FF
:1035D00000DA0021A04202DD642800DA0020A242C5
:1035E00002DD642A00DA0022A34202DD642B00DA45
:1035F000002300EE102A3B4CB8EEC00AD4ED000ABE
:1036000030EE800ABDEEC00A10EE102A002A00DA61
:1036100000224FF4FA75514391FBF5F140425043BB
:1036200090FBF5F000EE101A2F4C9FED311AF8EEDA
:10363000C00A00EE100A2D48C4ED000AB8EEC00A18
:10364000DFED2C1A2C4980ED000A584200EE100ADA
:103650002A48B8EEC00A20EE011A81EE210A81ED57
:10366000000A007802280AD0032808D0B6EE001A13
:10367000042811D005280FD006280BD00CE0B0EE9E
:10368000001A20EE010AB0EE081AC0EE011AC1EDD0
:10369000001A05E09FED1A1A20EE010A81ED000ADA
:1036A0009FED180A184A80EE801A84ED001A1078EF
:1036B00038B19FED160A401E84ED000A81ED000A24
:1036C0001070D1ED000A94ED000ABDE8F041FDF75D
:1036D00063BF0000780000207C00002080000020F4
:1036E000840000204C0100206401002068010020BB
:1036F000DB0FC93F0000FA436C01002045010020A8
:10370000CDCCCC3E00007A4498010020000000009F
:103710000E4A82EC020AC2E902018900414301EE2D
:10372000901A0B4882ED041AF8EEE11AC0ED001A67
:10373000DFED081A084821EE211A80ED001A07482B
:1037400080ED000A0648C0ED000A7047A85A002024
:1037500070010020DB0F4940740100207801002037
:103760007C01002070B54E4C4FF4E6700A212060B9
:103770000C20FEF7DBFB21684A4B90FBF1F0C0B256
:1037800018700A2802D90A20187070BD9FED462AC9
:103790004FF4FA7548B9B0EE420AB4EE001A294661
:1037A0001B20F0EE400AFFF7B3FF1878012809D17B
:1037B000B0EE420AB4EE001A29463320F0EE400A79
:1037C000FFF7A6FF18789FED392ADFED392A9FED24
:1037D000393A022809D1B0EE421A29461220F0EEF9
:1037E000620AB0EE430AFFF793FF1878032809D165
:1037F000B0EE421A29462F20F0EE620AB0EE430ADC
:10380000FFF786FF18782C4C2C4E9FED2D2ADFED0C
:103810002D2A9FED2D3A042811D1B0EE421A2946E7
:103820001220F0EE620AB0EE430AFFF771FFDFEDFF
:10383000271AC4ED001ADFED261AC6ED001A187813
:10384000052811D1B0EE421A29462F20F0EE620A67
:10385000B0EE430AFFF75CFFDFED1E1AC4ED001A5D
:10386000DFED1D1AC6ED001A1878072809D1B0EE51
:10387000421A29461220F0EE620AB0EE430AFFF720
:1038800047FF1878082880D12946BDE87040B0EE7F
:10389000421A1220F0EE620AB0EE430AFFF738BF78
:1038A00060010020450100202FDDA43EEC51383E90
:1038B0003D0A173F4A0C023F5001002054010020EE
:1038C0004A0C823E14AE073F8FC2153F0000C8432A
:1038D0000000C8420000484200004843F0B50D46D1
:1038E000064601218BB00804FFF7BEFD0121084602
:1038F000FFF7A2FD0420022205908DF81820032076
:103900008DF8190000241F4F8DF81A408DF81B20E8
:1039100005A93846FEF7EAF9032202213846FEF7E8
:1039200021FA0896ADF81C50174E0125ADF8245029
:10393000ADF81E4007A9304600F0DAFD6020ADF872
:103940000000ADF802500294ADF80C40ADF8104004
:103950006946304600F07CFC0821304600F0AEFCA1
:103960000121304600F0BCFB0121304600F0C8FBCD
:1039700040F2DC5070630121304600F0CBFB0BB00D
:10398000F0BD00000000024000400140F0B50D46CF
:1039900006468BB001210420FFF75AFD01210220C9
:1039A000FFF74AFD02228DF8182080208DF819209B
:1039B00000241E4F05908DF81A408DF81B2005A994
:1039C0003846FEF793F9022207213846FEF7CAF976
:1039D0000896ADF81C50164E0125ADF82450ADF8F0
:1039E0001E4007A9304600F083FD6020ADF80000BE
:1039F000ADF802500294ADF80C40ADF810406946A5
:103A0000304600F061FC0821304600F0A7FC01219F
:103A1000304600F065FB0121304600F071FB04499F
:103A200040F2DC50383108600BB0F0BD00040240B9
:103A3000000800400CB50022274900920192086856
:103A400040F4803008604FF4A043086800F4003070
:103A500001900098401C0090019810B9009898427D
:103A6000F3D10868800334D5012001901A48403012
:103A7000026842F0805202601848026842F44042F4
:103A800002601548083002680260026842F4004291
:103A90000260026842F4A0520260031F104A1A60DA
:103AA0000A6842F080720A600A689201FCD50D49EA
:103AB00040F205720A60016821F0030101600168AB
:103AC00041F0020101600168C1F381010229FAD1CC
:103AD0000CBD01920CBD0000003802400070004097
:103AE00008544007003C02402DE9F047012700251B
:103AF000204C16468846002804DAC4F8B052C4F8B0
:103B0000B47203E0C4F8B072C4F8B45202F0C6FF55
:103B1000DFF864900146484600F0BEFCB8F10000B2
:103B200004DDC4F8B852C4F8BC7203E0C4F8B8723B
:103B3000C4F8BC5202F0B2FF0146484600F0AAFCAD
:103B40000E48007840B1012806D00D480660D4F830
:103B5000BC120C4819B103E00B484663F7E7056057
:103B6000D4F8BC12012902D144F29F110160BDE8D2
:103B7000F087000000804042000401404501002021
:103B8000380800403818004000400140184890EDC7
:103B9000001AB4EEC01AF1EE10FA02D231EE201A79
:103BA00002E004DD31EE601A80ED001A01E080EDE4
:103BB000000AB5EEC00AF1EE10FA17D1B0EE041A01
:103BC00090ED000A20EE811AB4EEC10AF1EE10FA6F
:103BD0000CD2B8EE041A60EE810AB4EEE00AF1EEFF
:103BE00010FA03DD9FED030A80ED000A7047000024
:103BF000045A002000000000C21D8A4206DA00EECE
:103C0000900AF8EEE00A30EE800A08E0C21F8A420D
:103C10000ADD00EE900AF8EEE00A30EEC00ABDEED2
:103C2000C00A10EE100A7047084670474FF0E021B6
:103C30000428086903D020F004000861704740F0B0
:103C40000400FAE710B505F0ADF8012803D0BDE88F
:103C5000104004F09BBD10BD124810B5016841F43E
:103C6000700101601048016841F0010101600E4AD5
:103C700000210832116002680C4B1A400260031DDB
:103C80000B4A1A60026822F48022026006480C3057
:103C90000160FFF7CFFE03494FF0006080390860F4
:103CA00010BD000088ED00E000380240FFFFF6FE86
:103CB0001030002470B5048C24F001040484058BBA
:103CC000048C4FF6FF7606EA0313134325F0F30541
:103CD0002B4324F00A020A4342F0010103830184CA
:103CE00070BDF0B5048C24F010040484078B068C9E
:103CF0004FF6FF7404EA011527F4734704EA033111
:103D0000394304EA02220A4326F0A001294341F084
:103D1000100102830184F0BD2DE9F0478D48002495
:103D20008169B1F5C86F11DD8B490A7872B98B4A88
:103D30001268B2F57A7F09DB01220A7088490C709B
:103D400088490C7088490C7088490C70804600784E
:103D5000874D000642F20F764FF4FA772DD40221F8
:103D6000284600F003FA40B30221284600F0C5F9C6
:103D700098F80000400628463DD500F0EFF980B2E3
:103D8000A8F80600B8F804104246884201D25663EB
:103D900000E05463401A516B08445061516A401A64
:103DA00000D54042B84200DD51615069506288F848
:103DB00000400021284600F07BFA98F80100000638
:103DC0003AD40421284600F0D1F9A8B304212846AA
:103DD00000F093F998F80100400628464AD500F013
:103DE000BFF980B2A8F80A00B8F808104246884225
:103DF0000ED296630DE000F0B1F90146A8F8041068
:103E000098F8001041F0400188F800100221D1E735
:103E10009463401A916B08449061916A401A00D5EE
:103E20004042B84200DD91619069906288F801409B
:103E30000021284600F088FA98F8020000063AD4DB
:103E40000821284600F092F9A8B30821284600F07E
:103E500054F998F80200400628464BD500F082F944
:103E600080B2A8F80E00B8F80C10424688420ED274
:103E7000D6630DE000F074F90146A8F8081098F830
:103E8000011041F0400188F801100221D1E7D4630C
:103E9000401AD16B0844D061D16A401A00D5404223
:103EA000B84200DDD161D069D06288F802400021BB
:103EB000284600F09BFA98F80300C146000647D454
:103EC0001021284600F052F9002841D01021A846C0
:103ED000284600F012F999F803004D4640062BD50C
:103EE000404600F041F980B26882298A88420ED2A9
:103EF0002E640DE000F036F90146A8F80C1098F891
:103F0000021041F0400188F802100221D0E72C6431
:103F1000401A296C08442862296B401A00D5404297
:103F2000B84200DD2962286A2863EC70002140460F
:103F3000BDE8F04700F09ABA4446404600F014F954
:103F40002882E878022140F04000E8702046EFE740
:103F5000BDE8F087640000205A010020FC01002029
:103F600059010020580100205B0100205C01002065
:103F700000000140F0B50D460646012189B0084613
:103F8000FFF772FA01211020FFF756FA4FF4D440E0
:103F9000022203908DF8102003208DF811000024D8
:103FA000404F8DF812408DF8132003A93846FDF7D5
:103FB0009DFE012209213846FDF7D4FE01220B2186
:103FC0003846FDF7CFFE01220D213846FDF7CAFE27
:103FD00001220E213846FDF7C5FE0696324EADF899
:103FE0001450ADF81C40ADF8164005A9304600F05D
:103FF0007FFA01250F20ADF80040ADF80450ADF870
:104000000800ADF80240ADF806406946304600F0C1
:10401000B9F80420ADF80000ADF80450ADF8024046
:10402000ADF80640ADF808406946304600F0AAF801
:104030000820ADF80000ADF80450ADF80240ADF82E
:104040000640ADF808406946304600F09BF80C2069
:10405000ADF80000ADF80450ADF80240ADF80640F0
:10406000ADF808406946304600F08CF81B208DF80A
:1040700020008DF821408DF822408DF8235008A8AB
:10408000FEF72CFD01221E21304600F0D9F8012157
:10409000304600F03FF80121304600F031F809B019
:1040A000F0BD000000100240000001400248018AFB
:1040B00021F0010101827047000001404FF0804073
:1040C000018A018A21F001010182704703480188B9
:1040D000018821F0010101807047000010040040B8
:1040E0000029018802D041F0800101E021F0800127
:1040F00001807047C94301827047C94301827047FC
:104100000029018802D041F0010101E021F0010104
:1041100001807047002930F8441F02D041F400416B
:1041200001E0C1F30E010180704770B50589048B71
:10413000068C25F007050D434FF6FC410C4040F27C
:1041400001110C434FF6FF7101EA031126F022061C
:104150001143314305810483018470BD406B704776
:10416000806B7047C06B7047006C70470246002040
:10417000138A92890B4202EA010202D0002A00D07F
:10418000012070472DE9F0410C460E884988A2882D
:104190002389054616B3042E28D0082E2E8C4FF600
:1041A000FF702BD026F480562E84AF8B2E8C00EA25
:1041B000022200EA013127F473473A4300EA033050
:1041C000104326F420420A4342F48051A8832984F4
:1041D000E1882846BDE8F04100F07EB9FFF76AFDAE
:1041E000E1882846BDE8F04100F05AB9FFF779FDB3
:1041F000E1882846BDE8F04100F05AB926F48076FF
:104200002E84AF8B2E8C00EA012100EA03101043AC
:1042100027F0F307384326F420620A4342F4807102
:10422000A8832984E1882846BDE8F04100F04CB914
:1042300000210180418001228280C180018170477C
:10424000002A828901D00A4300E08A4382817047B4
:1042500030B5028C22F001020284028C8388048B28
:1042600022F0020224F073050C882C438D8915433B
:104270004A882A430C4DA84202D00C4DA8420DD1C9
:1042800022F00805CA8923F440732A4322F004056A
:104290008A882A430D8A1D434B8A2B4383800483DB
:1042A00089684163028430BD000001400004014080
:1042B000028C22F002020A4302847047028B22F031
:1042C00008020A430283704770B5028C22F0100284
:1042D0000284028C8388048B0D8824F4E6464FF612
:1042E000FF7404EA052535438E8922F0200204EA92
:1042F000061616434A8804EA02123243104EB042B0
:1043000002D0104EB04215D122F08006CA8923F4A3
:10431000406304EA0212324322F040068A8804EA2B
:10432000021232430E8A04EA86061E434B8A04EACE
:10433000830333438380058389688163028470BD6E
:104340000000014000040140028C4FF6FF7322F090
:10435000200203EA0111114301847047028B4FF6DA
:10436000FF7322F4006203EA0121114301837047C5
:1043700070B5028C22F480720284028C8388848B54
:104380000D8824F0730425438E894FF6FF7422F4C0
:10439000007204EA062616434A8804EA02223243DF
:1043A000104EB04202D0104EB04215D122F4006639
:1043B000CA8923F4405304EA0222324322F480667D
:1043C0008A8804EA022232430E8A04EA06161E4351
:1043D0004B8A04EA03133343838085838968C1636E
:1043E000028470BD0000014000040140028C4FF6C1
:1043F000FF7322F4007203EA012111430184704724
:10440000828B22F008020A438283704770B5028CC7
:1044100022F480520284058C8288838B0C8823F4DA
:10442000E6464FF6FF7303EA0424344325F40056AE
:104430008D8903EA053535434E8803EA06362E4357
:10444000084DA84202D0084DA84205D122F480456B
:104450000A8A03EA82122A4382808483896801647B
:10446000068470BD0000014000040140028C4FF63C
:10447000FF7322F4005203EA0131114301847047B3
:10448000828B4FF6FF7322F4006203EA012111438D
:1044900081837047C1637047016470474162704710
:1044A000028B22F00C020283028B0A4302837047C4
:1044B000028B22F440620283028B4FF6FF7303EA01
:1044C00001210A4302837047828B22F00C0282830F
:1044D000828B0A4382837047828B22F440628283FC
:1044E000828B4FF6FF7303EA01210A4382837047F0
:1044F00030B50288164C174DA0420DD0A8420BD003
:10450000B0F1804F08D0144B984205D0134B98421D
:1045100002D0134B984203D122F070034A881A4309
:10452000104B984206D0104B984203D022F44073AF
:104530000A891A4302804A68C2620A880285A04238
:1045400001D0A84201D1897A01860121818230BD42
:104550000000014000040140000400400008004049
:10456000000C004000100040001400404FF0FF31EC
:10457000416000210180018141808172704700000B
:10458000142809DB0848D0F8100228B10748007841
:10459000012801D000207047054A01200021116048
:1045A000121F1160704700000000424244010020C9
:1045B000400401402DE9F04140F225512DED048BDE
:1045C000804800F035FA002870D07E48001D008831
:1045D0007D490968B1F57A7F68DB012100247B4DB4
:1045E00041280ED12A79412A0BD1794A137843B94F
:1045F000784B1C70784B1C701170784A1470784A94
:104600001470C3B2774A784FDFF8E0C1784E2B714F
:104610004B2808D0492808D04A2806D036782EB131
:10462000012E0BD01EE031700CE03470A0F1410679
:10463000072E26D9082814DC137013E0432809D06C
:1046400047280BD03C708CF80040412819D04528F1
:1046500017D006E03C708CF8001002E039708CF83E
:10466000004014709FED630A634A9FED649A644EA4
:1046700058280AD059280DD07B2818D07D281CD066
:104680000EE0A0F140061670ECE7D6ED000A30EE21
:10469000800A03E0D6ED000A30EEC00A86ED000A7B
:1046A0006878012804D0022809D07CE084E0697091
:1046B000A8781354401CA87075E002206870D07868
:1046C000502806D05078232864D0A878E870904607
:1046D0002AE04C4801705DE0A978081AFBF77AFFE0
:1046E00041EC110B9FED480B00F066FCEF78B0EE4B
:1046F000408A08EB0700F0EE608A10F8010C3038B1
:10470000FBF768FF53EC182BFBF783FE41EC180B0B
:10471000A868FBF77DFF53EC182BFBF7D3FDFBF7E5
:104720008AFF7F1EA860EF70E8780428D4D298F83A
:104730000100303807282DD2DFE800F004090D1100
:104740001B1F250095ED020A86ED000A22E095ED7B
:10475000020A2F481CE095ED020A2E4818E095ED5C
:10476000020ADFED2D0A2D4880EE201A80ED001A96
:1047700010E095ED020A2A480AE095ED020A294860
:10478000BDEEC00A04E095ED020A2748BDEEC00A5E
:1047900080ED000A6C70AC70EC7085ED029A3221ED
:1047A0001548FBF784FD96ED000AB5EEC00AF1EE60
:1047B00010FA01D286ED009A0020BDEC048BBDE812
:1047C000F0810000004C0040FC010020A800002007
:1047D00059010020580100205A0100205B010020EF
:1047E0005C0100205D01002080010020810100208B
:1047F000820100200000C8423406002000000000B2
:104800004C01002083010020000000000000244033
:10481000500100205401002000007A44B40100201F
:10482000B0010020A8010020AC01002070B52A4C86
:1048300040F22551204600F0FBF8E8B3204600F096
:1048400085F9C1B225480068B0F57A7F42DB254A78
:10485000234C002510787B29215400D028B1401C1E
:10486000C0B210700B2802D034E0157032E0157021
:10487000A07A7D282ED100210920FCF76FFE617AF5
:10488000884227D118481C490570184805701848F7
:10489000057018480570012008702179E07800F053
:1048A000CDF9164D85ED000AA179607900F0C6F9C1
:1048B000134880ED000A00E00CE0217AE07900F076
:1048C000BDF9F0EE400A95ED000A00F045F90D48FB
:1048D00080ED000A002070BD00100140B8010020EA
:1048E00098060020A8000020580100205A0100204E
:1048F000590100205B0100205C01002064010020C0
:10490000680100206C01002000B5054B0022985C76
:1049100003F0D0FA521CD2B2182AF8D300BD00001E
:104920006606002070B52A4C40F22551204600F062
:104930007FF8E8B3204600F009F9C1B225480068C5
:10494000B0F57A7F41DB254A234C002550797B293D
:10495000215400D028B1401CC0B250710B2802D0A5
:1049600033E0557131E05571A07A7D282DD10021B9
:104970000920FCF7F3FD617A884226D118480570BA
:1049800018480570184805701848057018480570D3
:104990002179E07800F052F9164D85ED000AA179F1
:1049A000607900F04BF9144880ED000A217A00E0AC
:1049B0000BE0E07900F042F9F0EE400A95ED000AD4
:1049C00000F0CAF80D4880ED000A002070BD00001C
:1049D00000480040B801002098060020A8000020F0
:1049E000580100205A010020590100205B010020DD
:1049F0005C01002064010020680100206C0100209F
:104A000000B5054B0022985C03F05CFA521CD2B250
:104A1000182AF8D300BD000066060020002981890D
:104A200002D041F4005101E021F40051818170472E
:104A300070B501F01F0501260024C1F3421306FAE8
:104A400005F2012B0FD0022B0FD0838A4FEA1121E0
:104A50000088134206FA01F600EA060001D000B110
:104A60000124204670BD8389F0E7038AEEE710B584
:104A7000C1F3421301F01F040121A140012B07D013
:104A8000022B07D01430002A026805D00A4304E044
:104A90000C30F8E71030F6E78A43026010BD0000E2
:104AA0007FB50446008A0D46C98820F44050014372
:104AB0002182A08941F20C618843A9882A89114387
:104AC0006A8902431143A181A08A20F44071A88918
:104AD0000843A0826846FEF7DFFC1A48844202D0F1
:104AE0001948844201D1039800E00298A189090481
:104AF00000EBC00101EB0010296801D5490000E07E
:104B00008900B0FBF1F06422B0FBF2F109010B095E
:104B10006FF018056B4300EB8300A3891D044FF071
:104B2000320306D503EBC000B0FBF2F000F0070043
:104B300005E003EB0010B0FBF2F000F00F000843BB
:104B400020817FBD00100140001401408088C0F327
:104B500008007047FEE7000010B532482DED048BC9
:104B6000B0EE608AB0EE409A007870B101280CD0A7
:104B700007280AD0082808D0022809D0032807D01F
:104B8000042808D0052806D007E0F6EE088A04E0DD
:104B9000DFED258A01E0DFED258AB5EEC08AF1EE72
:104BA00010FA3CD0B5EEC09AF1EE10FA37D089EE8B
:104BB000080A01F025FFB4EEE80AF1EE10FA0FD86A
:104BC000B5EEC08AF1EE10FAB0EE490A02DD01F04E
:104BD00017FF03E001F014FFB1EE400A80EE288ACF
:104BE0001348B6EE001AD0ED000A124889EE080A02
:104BF00000EE810A90ED001AC1EE000A10EE900A54
:104C0000FBF706FD41EC100B00F06AF851EC100BBD
:104C1000FBF711FD00EE100ABDEC048B10BD9FEDFB
:104C2000060AF9E7450100203333B33F9A99993FCB
:104C3000780100207C0100200000000070B501EB2D
:104C4000002004B24FF47A7594FBF5F005FB104098
:104C50002DED028BFBF7BEFC9FED0B1B53EC112BD4
:104C6000FBF7D7FB41EC180B94FBF5F0FBF7B2FC1C
:104C700053EC182BFBF726FBFBF7DDFCBDEC028B9E
:104C800000EE100A70BD0000FCA9F1D24D62503F49
:104C90000FB4054B10B503A9044A029801F0A6FC15
:104CA00010BC5DF814FB0000116A0008BC00002075
:104CB00003B401984100009850EAC12018BF0420B5
:104CC0004A0D18BF40F0010040F2FF72B2EB515F95
:104CD00008BF40F00200012808BF052002B070475D
:104CE00070B59B482DED020B2DED068B079D25F031
:104CF0000044A04218DC9748844202DC0AD106989E
:104D000040B19DED060BBDEC068B02B0BDE87040D6
:104D100001F012BC002DCCBF9FED8F0B9FED900BCF
:104D2000BDEC068B02B070BD8F48A04215DD8F48E8
:104D3000A042D8BF4FF0FF3458DD9DED060B51EC7B
:104D4000100BFFF7B5FF042808BF01F029FC9DED0B
:104D5000060BBDEC068B02B070BD9DED060B51EC51
:104D6000100B01F041FECDE9060181489FED828BD9
:104D7000A0423CDD8248A0421FDD00249FED82ABB3
:104D80009DED060B53EC1A2B51EC100BFBF79AFA26
:104D90009DED060B41EC190B53EC1A2B51EC100B4B
:104DA000FBF737FB53EC182BFBF72DFB53EC192BC0
:104DB000FBF7A1FBCDE9060149E09DED060B0124BF
:104DC00053EC182B51EC100BFBF77CFA9DED060B06
:104DD00041EC190B53EC182B51EC100BFBF713FBA8
:104DE00053EC192BFBF787FBCDE906012FE0684850
:104DF000A0421FDD02249FED689B9DED060B53EC46
:104E0000192B51EC100BFBF704FB53EC182BFBF7A1
:104E100059FA9DED060B41EC180B53EC192B51EC94
:104E2000100BFBF7F0FA53EC182BFBF764FBCDE902
:104E300006010CE09DED060B032453EC102B9FEDB7
:104E4000580B51EC100BFBF756FBCDE906019DED1D
:104E5000060B53EC102B51EC100BFBF7DAFA41EC7C
:104E6000180B53EC182BFBF7D4FA41EC190B4E48F6
:104E70000621B0EE490AF0EE690A784401F020F903
:104E800053EC182B51EC100BFBF7C3FA41EC180B49
:104E90004648B0EE490AF0EE690A0521784401F06F
:104EA0000FF953EC192B51EC100BFBF7B2FA41EC54
:104EB000100B51EC180B53EC102B002C0EDAFBF7F7
:104EC00001FA9DED061B53EC112BFBF7A2FA9DEDA9
:104ED000061B53EC112BFBF799FA35E0FBF7F2F9BF
:104EE0009DED061B53EC112BFBF793FA41EC100BD5
:104EF0002F48784400EBC40090ED001B51EC100BE0
:104F000053EC112BFBF77FFA9DED061B53EC112B95
:104F1000FBF779FA41EC100B2648784400EBC4000B
:104F200090ED001B51EC100B53EC112BFBF76EFABC
:104F300041EC100B002DA2BFBDEC068B02B070BD82
:104F400051EC100B81F0004141EC100B01E7000027
:104F5000000010440000F07F182D4454FB21F93F5D
:104F6000182D4454FB21F9BF0000DC3F0000203E17
:104F70000000F33F00000000000000000000F03FD0
:104F80000000E63F000000000000000000000040BC
:104F90000080034000000000000000000000F83F17
:104FA000000000000000F0BFEA580000A058000018
:104FB0002A580000E25700002DE9F04D2DED040BBA
:104FC0002DED0E8B96B0DDE92550279CDDF890A0E5
:104FD00025F0004624F00048BAF1000F14BF01216B
:104FE000002101EB4502FC4953184A1093422AD391
:104FF000002814BF0123002303EB44030B44F749AB
:105000008B4220D358EA00019FEDF59B76D0DFF864
:10501000D8B35D4503D1BAF1000F05D188E0BAF1EC
:10502000000F08BF002100D0012101EB450111F55F
:10503000001F08D8002814BF0121002101EB440102
:1050400011F5001F0BD99DED261B9DED240B16B00D
:10505000BDEC0E8B04B0BDE8F04D01F077BA00272F
:10506000002DBCBFE149884521DAE1498845A8BF48
:1050700002271CDAC3451ADCDE4901EB285114294A
:1050800008DDC1F1340220FA02F101FA02F2824293
:105090000DD108E058B9C1F1140228FA02F101FA61
:1050A00002F2424503D101F00101C1F1020756EAC3
:1050B0000A0124D1002C22DA002D18BF022F01D0C2
:1050C000012F0AD0022001F08BFA16B0BDEC0E8B36
:1050D00004B0BDE8F04D01F017BA022001F080FAEB
:1050E00001F012FA51EC100B81F0004141EC100B71
:1050F00016B0BDEC0E8B04B0BDE8F08D18E09FED4E
:10510000BEAB9FEDBF8B002871D1B848804522D13E
:1051100005F1804010F5801008BFBAF1000F07D0EC
:10512000B3450ADC002CA8BF9DED260BE0DA0DE0AC
:10513000B0EE490AF0EE690ADAE7002C06DA9DEDD6
:10514000260B51EC100B81F000416FE0AE48784423
:1051500090ED000BCCE7D8454DD1002C48DA2EB1AC
:1051600086423AD1BAF1000F42D126E0BAF1000FDF
:1051700013D0022001F034FA01F002FA8DED020B97
:105180009DED240B8DED000B10EE900A039961F359
:105190001E0003909DED020BAAE78DED02AB9DED85
:1051A000240B1AEE901A10EE900A8DED000B61F3AD
:1051B0001E0003909DED020B9AE78DED028B9DED95
:1051C000240B18EE901A10EE900A8DED000B61F38F
:1051D0001E0003909DED020B8AE709DA9DED240B7A
:1051E00051EC190B53EC102BFBF785F91EE020E076
:1051F0009DED240B7CE786421BDAB4F1804F0DD085
:10520000A4F10050B0F1FF5013D1002D11DB9DED42
:10521000240B51EC100B02F02FFC07E09DED240B4A
:1052200053EC102B51EC100B00F0C2BC41EC100BF6
:105230005EE79DED240B51EC100B01F0D5FBBAF1AC
:10524000000FCDE90E0142D19FED710B46B3A6F1DF
:10525000E040B0F17F600CD05E4538D1002D00DA1F
:10526000A7B3022F0CBF01204FF0FF30FBF7B2F9BC
:10527000DCE7002D01DD002C0DDA002D01DD002C16
:105280001FDB002D16DA002C14DB012F08BF9FED69
:10529000620B3FF42DAFB0EE4A0AF0EE6A0A27E740
:1052A000022F18BF002D0CD0012F0AD1002DFFF6C0
:1052B0001FAF06E0002DB8BF002C08DA012F3FF425
:1052C00017AFB0EE480AF0EE680A11E71BE00120C4
:1052D00000EBE57050EA070115D0791EB0EE498A5F
:1052E000F0EE698A084308BF9FED4D8B4E480025BC
:1052F000804570DD4D494E48884514DDB0420DDBD8
:10530000002C19DB2FE0012001F06AF916B0BDEC8A
:105310000E8B04B0BDE8F04D01F022B9B34502DCBC
:10532000002C09DC1FE0864202DA002C1BDA03E0C5
:105330005E452BDD002C16DD022001F051F901F055
:105340001FF98DED020B53EC1A2B51EC180BFBF7E8
:1053500060F8CDE900010399019861F31E00039004
:105360009DED020BC4E6022001F03AF901F018F9B4
:1053700010EE901A18EE900A8DED020B8DED008B59
:1053800061F31E0003909DED020BB1E69DED0E0B47
:1053900053EC192B51EC100BFBF735F89FED260B56
:1053A000CDE9080153EC102B9DED080B51EC100BCF
:1053B000FBF72FF89FED221B53EC112BFBF726F880
:1053C0009DED081B53EC112BFBF723F89FED1E1BE3
:1053D00053EC112B3CE08CE0FFFF1F00FFFF0F00A0
:1053E000000000000000F03F0000F03F0000F07FF0
:1053F0000000404301FCFFFF000000000000F07FC0
:105400000000000000000000CE5600000000000078
:105410000000000000000080000000000000F0FF1D
:10542000000000000000F0BF0000E0410000F04379
:10543000FFFFEF3F00000000000000000000D03F31
:10544000555555555555D53F000000000000E03F2B
:10545000FAF7DCFF9DED080B41EC1A0B53EC102B17
:1054600051EC100BFAF7D5FF53EC1A2BFAF7D1FFDA
:1054700041EC1A0B9FEDFE0B53EC102B9DED080B2E
:1054800051EC100BFAF7C5FF41EC1B0B9FEDFA0B2B
:1054900051EC1A0B53EC102BFAF7BBFF41EC1A0B33
:1054A0009FEDF70B53EC102B9DED080B51EC100BFF
:1054B000FAF7AFFF53EC1A2BFAF7A5FF41EC1A0BE2
:1054C00051EC1B0B53EC1A2BFAF7FCFE0690CDE9BE
:1054D00006519DED060B53EC1B2B51EC100BFAF70C
:1054E00092FF53EC1A2BFAF791FF41EC100B00F0EE
:1054F000A1B90020B6F5801F0EDA9FEDE30B53EC47
:10550000102B9DED0E0B51EC100BFAF782FFCDE93D
:105510000E016FF034000E4600EB2650A0F2FF376C
:10552000C6F31300DA4940F07F6646F040568842E1
:10553000D8BF002408DDD7498142C8BF012403DC5D
:105540000024A6F580167F1CD348784400EBC400E5
:105550000F9690ED00CB9DED0E0B53EC1C2B51ECF8
:10556000100BFAF750FF9DED0E0B41EC1B0B53ECAB
:105570001C2B51EC100BFAF7A5FE41EC100B51EC73
:10558000190B53EC102BFAF7B6FF41EC1D0B51EC45
:105590001B0B53EC1D2BFAF73CFF41EC1A0BBF48D9
:1055A0008DED10AB7844109590ED000B4FF000504E
:1055B00040EA660000EB84408DED080B00F500200A
:1055C00009909DED080B53EC1C2B51EC100BFAF7D6
:1055D0001AFF9DED0E1B53EC112BFAF717FF41EC50
:1055E000100B53EC102B9DED100B51EC100BFAF738
:1055F00010FF9DED080B41EC1C0B53EC102B9DEDA7
:10560000100B51EC100BFAF704FF53EC1B2BFAF7BD
:10561000FDFE53EC1C2BFAF7F6FE53EC1D2BFAF7AC
:10562000F8FE41EC1C0B53EC1A2B51EC1A0BFAF759
:10563000F0FE41EC1B0B9A480621B0EE4B0AF0EE4F
:105640006B0A784400F03CFDB0EE401AF0EE601AB0
:10565000B0EE41DAF0EE61DA53EC1B2B51EC1B0B90
:10566000FAF7D7FE53EC1D2BFAF7D3FE9DED100B86
:1056700041EC1B0B53EC1A2B51EC100BFAF722FEEA
:1056800053EC1C2BFAF7C5FE53EC1B2BFAF71AFE52
:105690009DED100B41EC1B0B53EC102B51EC100B40
:1056A000FAF7B7FE41EC1D0B9FED7FEB53EC1E2B81
:1056B000FAF708FE53EC1B2BFAF704FE0890CDE92D
:1056C00008519DED080B53EC1E2B51EC100BFAF713
:1056D0009AFE53EC1D2BFAF796FE53EC1B2BFAF7B0
:1056E00095FE9DED080B41EC1D0B53EC102B9DED31
:1056F000100B51EC100BFAF78CFE41EC1B0B53EC2A
:105700001A2B51EC1D0BFAF784FE9DED080B41ECB2
:105710001A0B53EC102B51EC1C0BFAF77AFE53ECDE
:105720001A2BFAF7CFFD41EC1A0B51EC1B0B53EC83
:105730001A2BFAF7C7FD0C90CDE90C519DED0C0B1F
:1057400053EC1B2B51EC100BFAF75DFE53EC1A2BAC
:10575000FAF75CFE41EC1B0B9FED550B53EC102B45
:105760009DED0C0B51EC100BFAF753FE41EC1A0BAC
:105770009FED510B51EC1B0B53EC102BFAF749FE2C
:1057800041EC1B0B9FED4E0B53EC102B9DED0C0BC6
:1057900051EC100BFAF73DFE53EC1B2BFAF792FD80
:1057A00041EC100B4848784400EBC40090ED001B1E
:1057B00051EC100B53EC112BFAF784FD41EC1B0B51
:1057C0003846FAF707FFCDE9080153EC1B2B51ECE3
:1057D0001A0BFAF777FD41EC100B3C48784400EBCC
:1057E000C40090ED00CB51EC100B53EC1C2BFAF7DE
:1057F00069FD9DED081B53EC112BFAF763FD069034
:10580000CDE906519DED080B53EC102B9DED060BD9
:1058100051EC100BFAF7F7FD53EC1C2BFAF7F3FDE4
:1058200053EC1A2BFAF7EFFD53EC1B2BFAF7EEFDB6
:1058300041EC100B9DED261B53EC102B8DED001B46
:1058400000959DED260B51EC100BFAF7E2FD9DED56
:10585000000B41EC1A0B53EC102B9DED260B51EC79
:10586000100BFAF7D0FD9DED061B53EC112B2FE02A
:10587000000000604715F73FFE822B654715F73F94
:1058800044DF5DF80BAE543E0000000000004043D2
:105890008E9803007AB60B004A520000785200003E
:1058A00082510000000000000000000000000840DD
:1058B000000000E009C7EE3FFD033ADC09C7EE3FF8
:1058C000F5015B14E02F3EBE0E500000C84F0000F3
:1058D000FAF79FFD53EC1A2BFAF7F4FC9DED060B3B
:1058E00041EC1A0B53EC102B9DED000B51EC100BFF
:1058F000FAF78FFDCDE90C019DED0C0B51EC1A0B65
:1059000053EC102BFAF7DEFCCDE902010C46AA4954
:105910008C422FDB611A084318D19DED0C0B53EC20
:10592000102B9DED020B51EC100BFAF76CFD41ECC6
:105930001B0B9FEDA30B51EC1A0B53EC102BFAF73A
:10594000C1FC53EC1B2BFAF775FF2DD2022000F09F
:1059500047FE00F015FE10EE901A18EE900A8DED3D
:10596000020B8DED008B61F31E0003909DED020B89
:10597000FFF7BEBB944A24F00041914214D39349EF
:10598000214408437FF4EFAC9DED0C0B53EC102B3E
:105990009DED020B51EC100BFAF735FD53EC1A2B71
:1059A000FAF748FF7FF6DFAC24F000408849894AC7
:1059B000002601EB205182422BDA481C4FF4801163
:1059C00021FA00F02044844AC0F30A517A44A1F23B
:1059D000FF3192ED000B814A8DED080BCA4020EAA1
:1059E0000202C0F3130040F48010C1F1140120FA48
:1059F00001F60992002CB8BF76429DED080B53ECDE
:105A0000102B9DED0C0B51EC100BFAF7FCFCCDE9C3
:105A10000C019DED0C0B51EC1A0B53EC102BFAF70B
:105A200051FC9FED6F0B0890CDE9085153EC102B02
:105A30009DED080B51EC100BFAF7EBFC41EC1B0B46
:105A40009FED690B53EC102B9DED080B51EC100BE7
:105A5000FAF7DFFC9DED0C0B41EC1C0B53EC102B0B
:105A60009DED080B51EC100BFAF7CDFC53EC1A2B03
:105A7000FAF7CCFC9FED5E1B53EC112BFAF7C9FC37
:105A800053EC1C2BFAF71EFC41EC1A0B51EC1B0BD0
:105A900053EC1A2BFAF716FCCDE902019DED020B2F
:105AA00053EC1B2B51EC100BFAF7ADFC53EC1A2BFB
:105AB000FAF7ACFC9DED020B41EC1A0B53EC102BEA
:105AC00051EC100BFAF7A5FCCDE908014A489DED11
:105AD000080B0521784400F0F3FA9DED081B51EC0A
