:020000040800F2
:1000000080B30120490200082D130008BB0E000830
:100010002913000879060008CB2A00080000000018
:100020000000000000000000000000002927000878
:10003000710A000800000000BD13000841280008F4
:1000400063020008630200086302000863020008FC
:1000500063020008630200086302000863020008EC
:1000600063020008630200086302000863020008DC
:1000700063020008630200086302000863020008CC
:1000800063020008630200086302000863020008BC
:1000900063020008630200086302000863020008AC
:1000A000630200086302000863020008630200089C
:1000B000630200086302000863020008630200088C
:1000C000630200086302000863020008630200087C
:1000D00063020008AD2800086302000863020008FC
:1000E000630200086302000863020008630200085C
:1000F000630200086302000863020008630200084C
:100100006302000831160008630200086302000859
:10011000630200086302000863020008630200082B
:10012000630200086302000863020008630200081B
:10013000630200086302000863020008630200080B
:1001400063020008630200086302000863020008FB
:1001500063020008630200086302000863020008EB
:1001600063020008630200086302000863020008DB
:1001700063020008630200086302000863020008CB
:10018000630200086302000800F002F800F044F87F
:100190000AA090E8000C82448344AAF10107DA45E2
:1001A00001D100F039F8AFF2090EBAE80F0013F0F0
:1001B000010F18BFFB1A43F001031847CC8B010055
:1001C000EC8B0100103A24BF78C878C1FAD85207E6
:1001D00024BF30C830C144BF04680C6070470000C1
:1001E0000023002400250026103A28BF78C1FBD840
:1001F000520728BF30C148BF0B607047642900F028
:100200009980782900F0D280002070471FB503F054
:100210000BF81FBD10B510BD00F0FCF91146FFF73B
:10022000F5FF02F0CDFC00F01AFA03B4FFF7F2FF7D
:1002300003BC02F04CFC000030BF72B6704762B6DF
:10024000704780F30888704709488047094800478D
:10025000FEE7FEE7FEE7FEE7FEE7FEE7FEE7FEE776
:10026000FEE7FEE704480549054A064B70470000D3
:10027000452800088901000880AD012080B30120D5
:1002800080AF012080AF0120704700000FB4044907
:1002900010B503AA029800F075F910BC5DF814FBC4
:1002A000180000200FB41CB5074B06AA7B44694612
:1002B0000090059800F04DF90020694600F05CF9C7
:1002C0001CBC5DF814FB0000C90200002DE9F041E0
:1002D0000E460446002020622046E168884730B37D
:1002E000252805D0D4E901219047206A401CF2E777
:1002F000E168204600278847050018D0A5F1410095
:10030000192802D820354FF4006732462946204686
:100310002760FFF773FF40B1012804D0F61D26F0D7
:1003200007060836D8E7361DD6E72846DAE7206AFA
:10033000BDE8F0812DE9F0410646002410687529DA
:10034000314616A510D0AFF30080002802DA4042F3
:1003500013A507E031688A0701D512A502E0490715
:1003600004D511A5012401E0AFF3008000210A2289
:1003700006F1240709E0B0FBF2FCB0FBF2F302FB4C
:100380001C00303078541846491C0028F3D123460D
:100390002A463046BDE8F04100F07DB8000000007C
:1003A0002D0000002B0000002000000070B5044666
:1003B0000D4621461068AFF300802188090502D55B
:1003C0000F4A7A4402E00E4A7A440E32002104F1C8
:1003D000240305E000F00F060009965D5E54491CF9
:1003E0000028F7D120780023000704D5702D02D013
:1003F00009B1022311322046BDE8704000F04BB82D
:100400009A890100032A40F2308010F0030C00F0BA
:10041000158011F8013BBCF1020F624498BF11F83E
:1004200001CB00F8013B38BF11F8013BA2F10402F7
:1004300098BF00F801CB38BF00F8013B11F003036F
:1004400000F0B280083AC0F0088051F8043B083A46
:1004500051F804CBA0E80810F5E7121D5CBF51F875
:10046000043B40F8043BAFF30080D20724BF11F8EF
:10047000013B11F801CB48BF11F8012B24BF00F854
:10048000013B00F801CB48BF00F8012B70477047D3
:100490007047704770472DE9F0470D4699469246E0
:1004A000044600F124080168880604D5E06921F0BB
:1004B0001001216000E00120A84201DD471B00E09F
:1004C0000027A1697A1902EB0900081AA0612078B7
:1004D000C00602D42046AFF30080002608E0D4E92D
:1004E00001211AF806009047206A401C761C206201
:1004F0004E45F4DB2078C0060AD52046AFF30080D5
:1005000006E0D4E9012130209047206A401C206297
:10051000381EA7F10107F4DC07E0D4E9012118F83F
:1005200005009047206A401C2062281EA5F10105A5
:10053000F3DC2046AFF300802078000602D50220CD
:10054000BDE8F0870120FBE701694A1C02610878D9
:10055000704700B58FB0CDE9013100210591054903
:100560007944CDE9031011466846FFF7AFFE0FB09E
:1005700000BD0000E5FFFFFF0A6802F8010B0A60FA
:1005800070470000074B70B50D467B44FFF7E1FF55
:100590000446284600F03AF810B14FF0FF3070BD25
:1005A000204670BD1726000010B5203AC0F00B8021
:1005B000B1E81850203AA0E81850B1E81850A0E867
:1005C0001850BFF4F5AF5FEA027C24BFB1E81850C1
:1005D000A0E8185044BF18C918C0BDE810405FEA31
:1005E000827C24BF51F8043B40F8043B08BF7047AD
:1005F000D20728BF31F8023B48BF11F8012B28BFB2
:1006000020F8023B48BF00F8012B7047007B00F048
:1006100080007047754600F02BF8AE46050069462D
:10062000534620F00700854618B020B5FFF71AFEA4
:10063000BDE820404FF000064FF000074FF00008E3
:100640004FF0000B21F00701AC46ACE8C009ACE864
:10065000C009ACE8C009ACE8C0098D46704710B5C8
:100660000446AFF300802046BDE81040FFF7DDBD33
:100670000048704720AD012000BFFEE770B500259F
:100680004FF4803404E0802000F0BEFF00B103E0AE
:10069000201EA4F10104F6D100BF0CB9032070BDE7
:1006A00040F2FF5000F086FF2846F8E770B5044698
:1006B00005E01648056805F0450000B100E0F8E7E0
:1006C00000BF042000F0A0FF20B1042000F072FF62
:1006D000032070BD012000F097FF20B1012000F041
:1006E00069FF0120F5E7094824380068A04201D0DD
:1006F0001020EEE740F2FF5000F05CFF0348203886
:10070000006808210840C0B2E3E70000342C014033
:1007100070B500264FF4803505E01148046804F0F8
:10072000450000B103E0281EA5F10105F5D100BF89
:1007300015B104F0040028B10326042000F03AFFAC
:10074000304670BD012000F05FFF18B10126012086
:1007500000F030FF40F2FF5000F02CFF3046F0E791
:10076000342C014010B505E00B48046804F0450046
:1007700000B100E0F8E700BF042000F045FF20B121
:10078000042000F017FF032010BD40F2FF5000F0DE
:1007900011FF0020F8E70000342C01402DE9F04162
:1007A00005460E464FF0000805E02048076807F0B0
:1007B000450000B100E0F8E700BF042000F024FF8E
:1007C00028B1042000F0F6FE0320BDE8F0810120EE
:1007D00000F01AFF20B1012000F0ECFE0120F4E748
:1007E000124824380068A84201D01020EDE740F2FA
:1007F000FF5000F0DFFE0D482038046804F460402C
:1008000018B9200C30804046DFE704F4005008B1EE
:100810001320DAE704F4804008B11020D5E704F48F
:10082000004008B10F20D0E74046CEE7342C01400D
:1008300070B500264FF4803505E00F48046804F0D9
:10084000450000B103E0281EA5F10105F5D100BF68
:1008500015B104F0040028B10326042000F0AAFE1C
:10086000304670BD04F0400018B10026402000F072
:10087000A1FE3046F5E70000342C014021B10268AA
:1008800042F00102026003E0026822F0010202600D
:1008900070470000016821F0010101600021016042
:1008A00041608160C1600161212141614A49884202
:1008B00004D13D21484A103A91608CE046491831F4
:1008C000884205D14FF47461434A103A916082E046
:1008D00041493031884205D14FF474113E4A103AF3
:1008E000916078E03C494831884205D14FF074610D
:1008F000394A103A91606EE037496031884204D13C
:100900003649354A103AD16065E03349783188423A
:1009100004D13349304A103AD1605CE02E4990311D
:10092000884204D12F492C4A103AD16053E02A4919
:10093000A831884205D14FF03D51274A103AD16085
:1009400049E02949884204D13D21274A083A1160EB
:1009500041E025491831884205D14FF47461224A9B
:10096000083A116037E020493031884205D14FF410
:1009700074111D4A083A11602DE01B494831884224
:1009800005D14FF07461184A083A116023E0164906
:100990006031884204D11149134A121F11601AE0D4
:1009A00011497831884204D10D490F4A121F116054
:1009B00011E00D499031884204D10A490A4A121FB8
:1009C000116008E00849A831884204D14FF03D5138
:1009D000054A121F11607047106002403D00002060
:1009E000400F002000003D201064024021B1026849
:1009F00042F02002026003E0026822F0200202605E
:100A00007047014600200A6802F001020AB1012085
:100A100000E000207047000010B500220268134B70
:100A20001A40CC680B6823434C6923438C692343E9
:100A3000CC6923430C6A23434C6A23438C6A2343C7
:100A40004C6B23438C6B23431A430260426922F0B0
:100A50000702D1E90B3423431A4342610B69436017
:100A60004B6883608B68C36010BD00003F801CF042
:100A7000704700002DE9FC4107460D460026002482
:100A800000200090019008205B4908601020486019
:100A9000402088600020C8604FF4806008610846EC
:100AA00000F0FEFD1020FFF701FE044614B12046C1
:100AB000BDE8FC815148008800044F490860372098
:100AC0004860402088600020C8604FF48060086162
:100AD000084600F0E5FD3720FFF7E8FD04460CB1BD
:100AE0002046E5E74FF0FF304549086008204860A0
:100AF000302088600220C860002008610120486121
:100B0000084600F067FD00203B490860332048603C
:100B1000402088600020C8604FF48060086108466B
:100B200000F0BEFD3320FFF7C1FD04460CB12046A6
:100B3000BEE70CE04FF4001000F066FD38B131481C
:100B400000684DF82600761C022E00D307E02D48E1
:100B50004C38006840F22A6108400028EAD000BF03
:100B6000082000F051FD20B1082000F023FD0420F2
:100B70009EE7022000F048FD20B1022000F01AFD9F
:100B8000022095E7202000F03FFD20B1202000F05A
:100B900011FD06208CE74FF4007000F035FD28B100
:100BA0004FF4007000F006FD072081E740F2FF508F
:100BB00000F000FD00980006009901F47F4140EA32
:100BC0000120009901F47F0140EA1120009940EAD8
:100BD0001160686001980006019901F47F4140EAC4
:100BE0000120019901F47F0140EA1120019940EAB6
:100BF0001160286020465BE7980000200800002074
:100C0000AC000020802C0140F0B50A4600210023F2
:100C1000002400BF3DE0012505FA01F3156805EA4F
:100C200003049C4234D105684F000326BE40B543FF
:100C3000056015794E00B5400668354305601579A5
:100C4000012D02D01579022D16D185684F0003269B
:100C5000BE40B543856055794E00B5408668354342
:100C60008560456801268E40B543456045689679A4
:100C70008E40B6B235434560C5684F000326BE407E
:100C8000B543C560D5794E00B540C6683543C560EB
:100C9000491C1029BFD3F0BDF0B5002300244D0737
:100CA000ED0E02FA05F3CE1000F1200555F826509E
:100CB0004E07F70E0F26BE40B543CF1000F12006B9
:100CC00046F82750CE1000F1200555F8265045EA89
:100CD0000304CE1000F1200545F82640F0BD024681
:100CE000002013690B400BB1012000E00020704789
:100CF00041837047018370472DE9F84F07468846C6
:100D000093469A46DDF828900097B3E099F80000E2
:100D100080283DDA99F800600D2E05D1009F08F17A
:100D200010001FFA80F830E0202E03DDA6F120002D
:100D300086B200E00026002422E000251CE004EB3F
:100D400006105049085C80212941084040B108EB59
:100D5000040291B27A1990B25A4600F097F809E06D
:100D6000D34507D008EB040291B27A1990B25246EB
:100D700000F08CF8681CC5B2082DE0DB601CC4B222
:100D8000102CDADB07F1080087B209F1010971E0E4
:100D9000002668E006EB06103B4911F8100099F8B0
:100DA000001088425DD106EB0610374901EB400088
:100DB000407899F80110884253D100244FE0002573
:100DC00020E006EB0610304901EB4000801C10F8D3
:100DD000141080202841014041B108EB040291B277
:100DE0007A1990B25A4600F051F809E0D34507D07D
:100DF00008EB040291B27A1990B2524600F046F81C
:100E0000681CC5B2082DDCDB002524E006EB0610CB
:100E10001D4901EB4000801C012101EB4401405CB5
:100E200080212941084048B108EB040291B27A19A7
:100E3000083290B25A4600F029F80AE0D34508D0AB
:100E400008EB040291B27A19083290B2524600F0CF
:100E50001DF8681CC5B2082DD8DB601CC4B2102C6C
:100E6000ADDB701C86B23A2E94DB09F1020907F162
:100E7000100087B299F8000000287FF447AFBDE862
:100E8000F88F000032320008A43F00082DE9F0413D
:100E900004460D461646AF1CBBB2E71CBAB26F1C27
:100EA000B9B2A71CB8B200F0DBF9301200F002FAB8
:100EB000F0B200F0FFF9BDE8F08100BFFEE70000EE
:100EC0001CB50121084600F07BFA012000900020AB
:100ED0008DF8040003208DF8050002208DF807002E
:100EE00069460248FFF790FE1CBD0000000002406A
:100EF00010B5044614B10120104908700F4800785D
:100F000090B101210E48FFF7EAFE01280CD10A201A
:100F100001F006FE00200949087001210848FFF78A
:100F2000DEFE012808D110BD01210548FFF7D7FEDC
:100F300010B90120014908700020F4E700000020EA
:100F4000000002401CB50121062000F039FA4FF2E2
:100F50000200009001208DF8040000208DF80600AA
:100F600003208DF8050001208DF80700694613481D
:100F7000FFF74AFE2020009001208DF80400002099
:100F80008DF8060003208DF8050001208DF807007C
:100F900069460B48FFF738FE4FF480410748FFF7DA
:100FA000A9FE02210548FFF7A5FE02210348FFF72D
:100FB0009FFE02210148FFF79DFE1CBD0004024078
:100FC0000008024010B52C200849088100208871D3
:100FD00080200880A02048802A2048812B208881FA
:100FE000C021362000F096F910BD0000400300201B
:100FF0001CB50121084600F0E3F902200090012011
:101000008DF8040000208DF8060003208DF80500FF
:1010100001208DF8070069460348FFF7F5FD02211E
:101020000148FFF767FE1CBD0000024070B5044692
:10103000A02381220121022000F012F92C2000F0CF
:1010400051F900250BE0002606E0201200F032F9ED
:10105000E0B200F02FF9761C802EF6D36D1CA02D87
:10106000F1D370BD10B5FFF76DFF00F0E5F811206A
:1010700000F038F9C82001F053FDB12000F032F93A
:10108000052000F017F93C2000F014F93C2000F096
:1010900011F9B22000F026F9052000F00BF93C20F0
:1010A00000F008F93C2000F005F9B32000F01AF92F
:1010B000052000F0FFF83C2000F0FCF83C2000F098
:1010C000F9F8052000F0F6F83C2000F0F3F83C2099
:1010D00000F0F0F8B42000F005F9032000F0EAF881
:1010E000C02000F0FFF8282000F0E4F8082000F00D
:1010F000E1F8042000F0DEF8C12000F0F3F8C02091
:1011000000F0D8F8C22000F0EDF80D2000F0D2F881
:10111000002000F0CFF8C32000F0E4F88D2000F0AC
:10112000C9F82A2000F0C6F8C42000F0DBF88D20B2
:1011300000F0C0F8EE2000F0BDF8C52000F0D2F8B5
:101140001A2000F0B7F8362000F0CCF8C02000F0EC
:10115000B1F8E02000F0C6F8042000F0ABF822203F
:1011600000F0A8F8072000F0A5F80A2000F0A2F887
:101170002E2000F09FF8302000F09CF8252000F091
:1011800099F82A2000F096F8282000F093F82620FD
:1011900000F090F82E2000F08DF83A2000F08AF848
:1011A000002000F087F8012000F084F8032000F010
:1011B00081F8132000F07EF8E12000F093F804207D
:1011C00000F078F8162000F075F8062000F072F8AC
:1011D0000D2000F06FF82D2000F06CF8262000F0B4
:1011E00069F8232000F066F8272000F063F8272034
:1011F00000F060F8252000F05DF82D2000F05AF88E
:101200003B2000F057F8002000F054F8012000F0D7
:1012100051F8042000F04EF8132000F04BF83A206B
:1012200000F060F8052000F045F8292000F05AF899
:10123000FFF7C8FE10BD000010B54FF4804107480D
:10124000FFF756FD642001F06BFC4FF4804103482A
:10125000FFF750FD642001F063FC10BD0004024064
:101260002DE9F04104460D4616461F462A2000F09F
:1012700039F8002000F01EF8E0B200F01BF8002062
:1012800000F018F8F0B200F015F82B2000F02AF862
:10129000002000F00FF8E8B200F00CF8002000F099
:1012A00009F8F8B200F006F82C2000F01BF8BDE8B1
:1012B000F081000010B504464FF480510748FFF755
:1012C00017FD20210648FFF715FD204601F006FA1C
:1012D0004FF480510148FFF70DFD10BD000402409E
:1012E0000008024010B504464FF480510748FFF74C
:1012F000FFFC20210648FFF7FBFC204601F0EEF939
:101300004FF480510148FFF7F5FC10BD0004024086
:101310000008024070B505460C462846FFF7E2FF7C
:101320002046FFF7C7FF70BD00BFFEE77047000013
:1013300070B5002100230F22C4781CB3174C246819
:1013400004F4E064C4F5E064C4F30721C1F10404CB
:10135000E3B20A4144789C40E1B2847814402143CE
:101360000C07210E0E4C05786155047804F01F051A
:101370000124AC4005786D11AD0005F1E025C5F8FC
:10138000004109E0047804F01F050124AC40054D3C
:101390000678761145F8264070BD00000CED00E09F
:1013A00000E400E080E100E002490143024A1160EC
:1013B000704700000000FA050CED00E070470000E7
:1013C00029B1064A12680243044B1A6004E0034A3A
:1013D00012688243014B1A607047000030380240A7
:1013E00029B1064A12680243044B1A6004E0034A1A
:1013F00012688243014B1A60704700004438024073
:1014000029B1064A12680243044B1A6004E0034AF9
:1014100012688243014B1A60704700002438024072
:10142000F0B5002100220024022500260223324FBD
:101430003F6807F00C0121B1042905D0082937D1F4
:1014400005E02E4F076036E02D4F076033E02A4F4E
:101450003F1F3F68C7F38056274F3F1F3F6807F085
:101460003F036EB1264FB7FBF3F7DFF88CC0ACF14A
:10147000040CDCF800C0CCF3881C07FB0CF40CE077
:101480001E4FB7FBF3F7DFF870C0ACF1040CDCF8CB
:1014900000C0CCF3881C07FB0CF4174F3F1F3F68BC
:1014A000C7F301477F1C7D00B4FBF5F7076002E03E
:1014B000124F076000BF00BF0F4F3F6807F0F001F9
:1014C0000909104F7A5C0768D74047600A4F3F68A8
:1014D00007F4E051890A0B4F7A5C4768D740876070
:1014E000054F3F6807F46041490B064F7A5C476837
:1014F000D740C760F0BD0000083802400024F40067
:1015000000127A001E0000207CB505460024002051
:101510000090019000260DB1022600E0002622482E
:10152000006800F0007008B10E207CBD1F490988DA
:1015300088B26946FFF79EFA04460CB12046F4E7EC
:10154000019800F4802060B318480088000418490E
:10155000086037204860402088600020C8604FF451
:1015600080600861084600F09BF83720FFF79EF87E
:1015700004460CB12046D8E70D48066006200C4909
:101580004860402088600020C8604FF48060086197
:10159000084600F085F80620FFF788F80446204644
:1015A000C3E72520C1E70000142C014008000020FB
:1015B000980000200149086070470000382C014065
:1015C0000146034A106820F0FF000843106070478E
:1015D000042C014000210B4B02681A601B1D42685D
:1015E0001A601A1D116821F0F701D0E902231A438D
:1015F00003691A4343691A431143024A08321160CE
:1016000070470000242C014001460020034A126864
:101610000A400AB1012000E000207047342C01404C
:101620000248006800F0030070470000002C0140F1
:1016300010B500F08BFC10BD00210A4A116847F676
:10164000FF629143027D83681A4343681A43C3686B
:101650001A4303681A4303691A431143014A11608C
:1016600070470000042C014000200B490860091D50
:101670000860091D0860091D0860074924310860D9
:10168000091D0860091D08600448034938310860D5
:101690000020091D08607047002C0140FF07C000B2
:1016A0000021094B02681A601A1D11686FF30A01C4
:1016B000D0E901231A43C3681A4303691A4311434B
:1016C000014A121D11607047082C01400149086051
:1016D00070470000002C014070B590B004460E46E3
:1016E000154600BF1A48FFF78CF90028FAD11848B0
:1016F000FFF7D0F84FF00060019016480290039475
:1017000004950020059006904FF4806007908000BB
:1017100008908000099000200A904FF440300B9010
:1017200004200C9003200D904FF400000E908010C8
:101730000F9001A90648FFF76FF920210448FFF731
:1017400055F901210248FFF799F810B070BD00006B
:1017500058640240802C014070B5044600251648AC
:101760000078032802D12725284670BD124800784A
:1017700038B111480078012803D00F4800780228BA
:1017800017D1B4F5805F02D127252846EDE7E0B2F6
:10179000FFF7BAFE054665B90848006820F4C05056
:1017A000064908600846006820430860084600684B
:1017B00008602846D9E7000004000020042C0140FE
:1017C000F0B5014600200022BE4B1B7881F8563050
:1017D000BD4B1B88A1F85430BC4B1B681A0E9309F3
:1017E0000B70C2F383034B7002F003038B70B74B93
:1017F0001B68C3F30742CA70B44B1B88C3F30722AC
:101800000A71B24B1A784A715B681A0E1301CB80C9
:10181000AE4B5B68C3F30742CB8843EA1213CB801D
:1018200002F00F030B72A94B9B88C3F30722D30965
:101830004B72C2F380138B72C2F34013CB72C2F3AC
:1018400000130B7300234B739E4B1B783BB19D4BD6
:101850001B78012B03D09B4B1B78032B4FD1930795
:101860001B0D0B61994B1A790B6943EA82030B61DB
:10187000964B9B681A0E0B6943EA92130B61C2F3F5
:10188000C2030B7502F007034B75904B9B68C3F3C3
:10189000074253098B75C2F38203CB7593075B0F25
:1018A0000B768A4B1B89C3F307220B7E43EAD213C4
:1018B0000B760B695B1C0024C1E912340B7E9B1C68
:1018C000012404FA03F3DC17D1E91256A5FB037CCB
:1018D00006FB03C305FB0433C1E912730C7A012331
:1018E000A3400B650024D1E912650B6DA6FB037CB8
:1018F00005FB03C306FB0433C1E912732EE0714BF1
:101900001B78022B2AD1714B1A7993069B0A0B6123
:101910006E4B9B681A0E0B6943EA02230B616B4BFB
:101920009B68C3F307420B6913430B61674B1B8929
:10193000C3F307220B695B1C4FF40074A3FB04463E
:101940004FF480630025A4FB037C06FB03C304FB68
:101950000533C1E912734FF400730B65C2F38013B2
:1019600001F8193F93065B0E4B70584B1A7A4B786F
:1019700043EAD2134B7002F07F038B70534BDB684A
:101980001A0ED309CB70C2F341130B71C2F3820359
:101990004B7193071B0F8B714C4BDB68C3F30742F2
:1019A0008B7943EA92138B71C2F34013CB710023FE
:1019B0000B7202F001034B72444B9B89C3F3072265
:1019C000D3098B72C2F38013CB72C2F340130B7333
:1019D000C2F300134B73C2F381038B7302F0030352
:1019E000CB733A4B1A7B53080B7401234B74384B5F
:1019F0001B681A0ECA741939354B1B68C3F30742AA
:101A00001402CC85324B1B88C3F30722CB8D1343C2
:101A1000CB852F4B1A7814060C635B681A0E0B6B80
:101A200043EA02440C632A4B5B68C3F307420B6B27
:101A300043EA02240C63264B9B88C3F307220B6BFB
:101A400013430B63224B1A7934235A54204B9B685F
:101A50001A0E35235A541E4B9B68C3F307421406D3
:101A60008C631B4B1B89C3F307228B6B43EA024435
:101A70008C63174B1A7A8B6B43EA02248C63144BEA
:101A8000DB681A0E8B6B13438B63114BDB68C3F35C
:101A900007423C235B5C43EA12143C235C5413076B
:101AA0001C0DCC870A4B9B89C3F30722CB8F1343B2
:101AB000CB87074B1A7B540840235C5401244123F5
:101AC0005C54F0BD0400002008000020C400002089
:101AD000D40000203EB50024002501214448FFF732
:101AE0006FFC0121C802FFF77BFC0121C802FFF750
:101AF00087FC4FF4F850019002208DF808008DF813
:101B0000090000208DF80A0001208DF80B0001A9C2
:101B10003848FFF779F80420019001A93648FFF70B
:101B200073F80C2208213348FFF7B6F80C2209217C
:101B30003048FFF7B1F80C220A212E48FFF7ACF825
:101B40000C220B212B48FFF7A7F80C22114629483D
:101B5000FFF7A2F80C2202212748FFF79DF8002189
:101B60004FF40060FFF74CFCFFF77EFD31208DF84D
:101B7000000000208DF801008DF8020001208DF892
:101B800003006846FFF7D4FB00F0EEF8044614B9F2
:101B900000F038F804461CB91848FFF711FE044657
:101BA00034B91649B1F85410080400F073FD044626
:101BB00024B94FF40060FFF7CFFD04461CB1104874
:101BC0000078032812D10D4890F8560020B10B4838
:101BD00090F85600012801D1022500E00025284692
:101BE000FFF7EEFC002000F06DFD044620463EBDF0
:101BF0000C00400000080240000C0240E8000020F9
:101C00000400002038B5002401200090FFF708FDF3
:101C100010B92524204638BD4D480078042824D02A
:101C200000204C49086002204860C02088600020E5
:101C3000C8604FF4806008610846FFF731FDFEF789
:101C400067FD04460CB12046E5E743480068434978
:101C500008604148001D006848603F48083000683F
:101C600088603D480C300068C8603948007858B139
:101C700037480078012807D035480078062803D077
:101C800033480078022816D100203249086003202A
:101C90004860402088600020C8604FF48060086180
:101CA0000846FFF7FDFC69460320FEF777FD044672
:101CB0000CB12046AFE726480078032816D1BDF8BE
:101CC0000000000423490860032048604020886029
:101CD0000020C8604FF4806008610846FFF7E0FC10
:101CE000FEF716FD04460CB1204694E7184800782C
:101CF00004282AD0BDF8000019490860BDF800008A
:101D000000041449086009204860C0208860002051
:101D1000C8604FF4806008610846FFF7C1FCFEF719
:101D2000F7FC04460CB1204675E70B4800680D49E6
:101D300008600948001D00684860074808300068CE
:101D4000886005480C300068C860002063E7000028
:101D50000400002098000020142C0140D400002032
:101D600008000020C40000202DE9F04700270024CF
:101D700000260025A046A14676206E490875002061
:101D8000086048608860C86008610846FFF754FC36
:101D90000320FFF79BFC6848006840F480706649A8
:101DA000086000BF12E00020644908604860886055
:101DB000C8604FF4806008610846FFF771FCFEF7C9
:101DC0005DFC044604B903E0781CC7B24A2FEADB85
:101DD00000BF14B12046BDE8F0874FF4D5705749D5
:101DE000086008204860402088600020C8604FF4E8
:101DF000806008610846FFF753FCFEF719FD0446B2
:101E000024B901204E4908704FF0804900204B4909
:101E1000086037204860402088600020C8604FF488
:101E2000806008610846FFF73BFC3720FEF73EFC68
:101E30000446002C4CD135E0002040490860372092
:101E40004860402088600020C8604FF480600861CE
:101E50000846FFF725FC3720FEF728FC04460CB1A6
:101E60002046B8E7374849EA00003449086029208D
:101E70004860402088600020C8604FF4806008619E
:101E80000846FFF70DFCFEF76DFC04460CB120463A
:101E9000A1E7294810300668012080EAD67080F05A
:101EA00001086D1CB8F1000F03D14FF6FF70854299
:101EB000C2D34FF6FF70854202D31B2420468AE727
:101EC00006F08040061E33D002201D4908702FE026
:101ED0001DE01D48194908600120486040208860C5
:101EE0000020C8604FF4806008610846FFF7D8FB07
:101EF000FEF738FC04460CB120466CE70E48103063
:101F00000668012080EAD67080F001086D1CB8F1E7
:101F1000000F03D14FF6FF708542DAD34FF6FF7002
:101F2000854202D31B24204655E70320044908704C
:101F3000204650E780000020042C0140980000203B
:101F400004000020000010800080FF8010B54FF4D6
:101F50008070FFF759FB78B34C480078012814D102
:101F600000204B4908600C20486040208860002019
:101F7000C8604FF4806008610846FFF791FB0C20B1
:101F8000FEF794FB4349087002E0002041490870C5
:101F90004148006840F480703F490860081D0068AF
:101FA0004CF23A3188433C49091D086001203B4905
:101FB00008703848007810BDFFE70220FFF724FBC7
:101FC00078B10220FFF7F6FA3348001D00684CF2A2
:101FD0003A3188433049091D086002202D490870B4
:101FE000E9E70820FFF710FB78B10820FFF7E2FAD5
:101FF0002948001D00684CF23A3188432649091DE2
:102000000860042023490870D5E72020FFF7FCFA78
:1020100078B12020FFF7CEFA1F48001D00684CF26F
:102020003A3188431C49091D086006201949087087
:10203000C1E71020FFF7E8FA78B11020FFF7BAFAED
:102040001548001D00684CF23A3188431249091DB9
:10205000086005200F490870ADE74FF40070FFF7E6
:10206000D3FA80B14FF40070FFF7A4FA0A48001DBC
:1020700000684CF23A3188430749091D086007207F
:102080000449087097E7002095E700000D00002044
:10209000980000200E000020382C01400F00002086
:1020A0002DE9F84F8146174698460A9C4FF0000AE2
:1020B000D3464D464FF0FF36B9F1000F02D126202E
:1020C000BDE8F88F0020864908608648007802281D
:1020D00005D10402780A40EAC8574FEA6828002070
:1020E000814988604860401E0860012048610020E6
:1020F000C86008610846FFF76DFA7948183800682B
:1021000000F0007008B10E20DAE7002C21DDB4F5F4
:10211000006F1EDC601E2040D8B9204600F0D9FCBC
:102120000090724804601020704948604020886028
:102130000020C8604FF4806008610846FFF7B0FADD
:102140001020FEF7B3FA8246BAF1000F03D05046D2
:10215000B6E72620B4E70098000163498860084686
:1021600044604FF0FF300860012048610220C860E1
:10217000002008610846FFF72DFA5C48076011202F
:102180005A494860402088600020C8604FF4806051
:1021900008610846FFF784FA1120FEF787FA8246A5
:1021A000BAF1000F01D050468AE751480078002864
:1021B0005CD1FEF742F818E04FF40040FFF724FA34
:1021C00078B14FF0000B06E045485430006845F800
:1021D0002B000BF1010BBBF1080FF5D32035454E59
:1021E00003E00EB904206BE7761E3D480830006816
:1021F00040F22A6108400028DED00820FFF704FAE8
:1022000020B10820FFF7D6F9042059E70220FFF794
:10221000FBF920B10220FFF7CDF9022050E7202082
:10222000FFF7F2F920B12020FFF7C4F9062047E7B5
:102230004FF40070FFF7E8F928B14FF40070FFF792
:10224000B9F907203CE704E02548543000682860CD
:102250002D1D4FF40010FFF7D7F90028F4D1FDF73A
:10226000EEFF40F2FF50FFF7A5F936E02048007876
:10227000012832D1002020490870204908702049E7
:10228000087017481030006840F22A31084314499A
:10229000103108601248006840F0080010490860DA
:1022A000002221464846FFF717FA00E0761E15483F
:1022B000006800F0006038B91148007820B90E4875
:1022C000007808B9002EF1D10EB90420F8E60A48CA
:1022D000007810B1084890F800A05046F0E60000E1
:1022E0002C2C014004000020AC00002098000020AD
:1022F0000C000020FFFF7F000E0000200D000020DA
:102300000F000020006402402DE9FE4F83460C467A
:10231000914600200290002625462C46700240EA95
:10232000D5566D020BF00300F0B14FF0000A18E033
:102330004FF4007000904FEA4A20471946EBE073D3
:102340003A461648FFF7ACFE02904FF4007213496C
:102350005846FEF757F80BF5007B0AF1010000F034
:10236000FF0ACA45E4DB16E0B9F1010F09D14FF4C9
:1023700000702A46334600905846FFF791FE0290BF
:1023800009E04FF400702A463346CDE9000958466B
:1023900000F006F802900298BDE8FE8F4001002090
:1023A0002DE9FF5F17469846DDE90E464FF000091C
:1023B000CA464FF0FF35AC49009808600020AB4991
:1023C0000860AB480078022805D10402780A40EA88
:1023D000C8574FEA68280020A64988604860401E18
:1023E0000860012048610020C86008610846FFF7C6
:1023F000F1F89E481838006800F0007018B10E20FF
:1024000004B0BDE8F09F002C21DDB4F5006F1EDCA8
:10241000601E2040D8B9204600F05BFB83469648FA
:102420000460102094494860402088600020C86003
:102430004FF4806008610846FFF732F91020FEF77C
:1024400035F98146B9F1000F03D04846D8E7262078
:10245000D6E7012E71D906FB04F0B0F1007F01D35D
:102460002620CDE74FEA0B108249886006FB04F076
:1024700048604FF0FF300860012048610220C860CA
:10248000002008610846FFF7A5F87B480760122086
:1024900079494860402088600020C8604FF480601F
:1024A00008610846FFF7FCF81220FEF7FFF88146A6
:1024B000B9F1000F01D04846A2E770480078002823
:1024C0007ED1FDF7BAFE1EE04FF40040FFF79CF806
:1024D000A8B14FF0000A08E064485430006862492F
:1024E000096841F82A000AF1010ABAF1080FF3D38A
:1024F0005D48006820305C490860614D03E00DB91B
:1025000004207DE76D1E59480830006840F22A31EA
:1025100008400028D8D00820FFF776F820B108201E
:10252000FFF748F804206BE70220FFF76DF828B1A9
:102530000220FFF73FF8022062E792E02020FFF739
:1025400063F820B12020FFF735F8062058E74FF454
:102550000070FFF759F828B14FF40070FFF72AF820
:1025600007204DE70AE04148543000683E490968B9
:1025700008603D480068001D3B4908604FF40010AA
:10258000FFF742F80028EED14FF48070FFF73CF8D7
:1025900020B33748007838B135480078012803D097
:1025A00033480078022819D10020334908600C20F4
:1025B0004860402088600020C8604FF4806000E0E0
:1025C00013E008610846FFF76BF80C20FEF76EF881
:1025D0008146B9F1000F01D0484611E7FDF72FFE03
:1025E00040F2FF50FEF7E6FF3BE024480078012868
:1025F00037D10020234908700120234908700020AA
:102600002249087019481030006840F22A31084306
:102610001649103108601548006840F00800134959
:10262000086006FB04F100220098FFF755F800E06F
:102630006D1E1748006800F0006008B9002DF7D142
:102640000DB90420DCE600BF1048007818B90D4829
:1026500000780028F8D00B48007810B1094890F8AD
:1026600000904846CCE60000100000202C2C0140D1
:1026700004000020AC000020980000200C00002086
:10268000FFFF7F000E0000200D0000200F00002043
:102690000064024010B50446094804600720084958
:1026A0004860402088600020C8604FF48060086166
:1026B0000846FEF7F5FF0720FDF7F8FF10BD000004
:1026C0009800002001460020012900D011B9024BDA
:1026D000197000E0262070470C00002070B50446F9
:1026E000002508251BE004F0800028B14FF40041CC
:1026F0000C48FEF7FFFA04E04FF400410948FEF7EA
:10270000F7FA4FF400510748FEF7F2FA4FF4005180
:102710000448FEF7EFFA6006040E681EC5B2002DED
:10272000E1DC70BD00040240704700000CB50020E1
:10273000019000903448006840F4803032490860CD
:1027400000BF3148006800F4003000900198401C40
:102750000190009818B90198B0F5A04FF1D12A481E
:10276000006800F4003010B10120009001E000206A
:1027700000900098012846D123484030006840F07E
:1027800080502149403108602048006840F44040B2
:102790001E4908601C48083000681B490831086061
:1027A0000846006840F4004008600846006840F4AD
:1027B000A05008601648091F0860081F006840F014
:1027C0008070091F086000BF0F48006800F00070AB
:1027D0000028F9D040F205700E4908600A48083018
:1027E000006820F0030008490831086008460068C6
:1027F00040F00200086000BF03480830006800F0A5
:102800000C000828F8D10CBD0038024000700040D0
:1028100008544007003C0240042808D14FF0E02152
:10282000096941F004014FF0E022116107E04FF027
:10283000E021096921F004014FF0E02211617047A5
:102840007047000010B51548006840F47000134947
:1028500008601348006840F001001149086000203A
:102860000F49083108600E4800680E4908400C49BD
:1028700008600D48091D0860081F006820F48020CA
:10288000091F0860002006490C310860FFF74EFF61
:102890004FF0006001498039086010BD88ED00E00C
:1028A00000380240FFFFF6FE1030002410B540F261
:1028B00025511D4800F04AF810B31B4800F000F9FC
:1028C000C4B21A48008800F40040C8B9174800880C
:1028D00000F4804060B10A2C03D000201349088026
:1028E00020E01248008840F400401049088019E0B8
:1028F0000D2C06D10D48008840F480400B4908801B
:1029000010E00A480088C0F30D0009490C5407483C
:102910000088401C0549088008460088C72801DD5A
:102920000020088010BD0000001001401C000020A5
:102930004E03002021B1828942F40052828104E0DA
:1029400082894DF6FF731A408281704770B5024646
:10295000002400230025002040F66A16B14200D171
:1029600000BFC1F3421501F01F03012606FA03F36D
:10297000012D02D19689334006E0022D02D1168A3C
:10298000334001E0968A33400C12012606FA04F423
:102990001688344013B10CB1012000E0002070BD56
:1029A000F0B50346002400260025002040F66A17F3
:1029B000B94200D100BF1846C1F3421401F01F060E
:1029C000012707FA06F5012C01D10C3004E0022C96
:1029D00001D1103000E014301AB107682F430760AE
:1029E00002E00768AF430760F0BD00002DE9FF4734
:1029F00005460E460024A14600BFA046B08900B19E
:102A000000BF2C8A24F44054F08804432C82AC8903
:102A100041F20C608443B0883189084371890843CE
:102A20000443AC81AC8A24F44074B0890443AC8282
:102A30006846FEF7F5FC2048854202D01F488542D3
:102A400002D1DDF80C9001E0DDF80890A88900F4CF
:102A5000004040B109EBC90000EB091031684900A2
:102A6000B0FBF1F707E009EBC90000EB0910316892
:102A70008900B0FBF1F76420B7FBF0F004012009F6
:102A8000642101FB1078A88900F4004040B1322095
:102A900000EBC800B0FBF1F000F00700044308E0D1
:102AA000322000EB08106421B0FBF1F000F00F00C1
:102AB00004432C81BDE8FF87001001400014014051
:102AC00001468888C0F30800704700BFFEE700BFDA
:102AD00070470146002002E04910421CD0B2012993
:102AE000FAD1704710B504466FF00400FFF794FE6A
:102AF000E11704EB5171C1F3C701074A1170104689
:102B0000007800EB4001C1EBC0104FF6FF7101EA05
:102B1000C0000249088010BD1400002016000020EB
:102B200070B504464FF4077094FBF0F0C6B24FF452
:102B3000077094FBF0F100FB114085B205E04FF403
:102B4000077000F009F8701EC6B2002EF7D115B15B
:102B5000284600F001F870BD0146114A12884A4328
:102B60004FF0E0235A6100229A611A46126942F03E
:102B700001021A6100BF4FF0E022106900F001026B
:102B80001AB100F48032002AF5D04FF0E022126929
:102B900022F001024FF0E0231A6100229A6170478F
:102BA0001600002000BF054A128802F04002002AE9
:102BB000F9D0C2B2014B9A8070470000001001406A
:102BC00008B500264FF4A060FEF7EEFBA820FFF743
:102BD00089FF4FF4E13000F0D1FAFEF709FAFEF771
:102BE0006FF9002000F06CF9022000F069F9FEF79F
:102BF00039FA4EF67D70FEF719FA5EA04EF67D7337
:102C00004FF47842102100900020FEF775F85DA087
:102C10004EF67D734FF47842202100900020FEF79D
:102C20006BF85CA04EF67D734FF478423021009033
:102C30000020FEF761F85AA04EF67D734FF47842FB
:102C4000402100900020FEF757F821E058A04EF6F2
:102C50007D731F22502100900020FEF74DF84FF4A5
:102C6000FA70FFF75DFF56A04EF67D731F226021BC
:102C700000900020FEF740F84FF4FA70FFF750FF85
:102C80005348006808B9012000E00020504908605E
:102C9000FEF720FF0028D9D100F0D8F94DA04EF65C
:102CA0007D731F22502100900020FEF725F84D492A
:102CB000D1E91201000D40EA01370B153A464AA14D
:102CC0004D48FDF7EFFA4C484EF67D731F22602108
:102CD00000900020FEF710F84BE00020FEF708F906
:102CE0008146B9F1010F34D14FF000094FF4007162
:102CF000002000F08DF90446012200212046FFF754
:102D000003FB002821D13DA04EF67D731F227021C8
:102D100000900020FDF7F0FF3EA0FDF7B7FA002578
:102D200004E0615D40A0FDF7B1FA6D1CB5F5007FD0
:102D3000F7D33EA0FDF7AAFA40A04EF67D731F22FE
:102D4000702100900020FDF7D7FF2146002000F001
:102D50004DF9701CC6B20A20FFF7E2FE142E08D10E
:102D60001B48006808B9012000E0002018490860ED
:102D70000026B2E72053544D33324634787820B2DF
:102D8000E2CAD40020534420436172642054455366
:102D90005400000020323031382F352F350000002C
:102DA000204B313A57726974652652656164200080
:102DB00053442043617264204572726F7221000097
:102DC000506C6561736520436865636B212000006A
:102DD0008402404253442043617264204F4B2020C0
:102DE00020200000E800002053442053697A653A0F
:102DF0002564204D420000005400002055534152EC
:102E000054312053656E64696E6720446174612E8D
:102E10002E2E0000534543544F522030204441543D
:102E2000413A0D0A00000000257820000D0A4441B7
:102E3000544120454E4445440D0A0000555341522B
:102E400054312053656E642044617461204F76656F
:102E5000722100002DE9F04104460E461548005D40
:102E600038B9144820380168204688470120BDE859
:102E7000F081114850F82400B04219D90F4850F899
:102E80002400B6FBF0F10B480C3850F8240030F861
:102E90001120002508E0002306480C3850F82400D3
:102EA0004F1920F817306D1C9542F4DB0020DEE747
:102EB0000220DCE750000020548D0108488D0108F5
:102EC00010B504460C4951F824104A000B4951F83A
:102ED0002400002100F0B0F8094951F824200749E6
:102EE0000C3951F82400002100F0A6F80121034814
:102EF0000C30015510BD00003C8D0108440000203D
:102F0000548D01082DE9F04704460F460025A946D7
:102F10002348005D20B922482038016820468847B0
:102F20001FB94FF0FF30BDE8F0871E4850F824006D
:102F3000B7FBF0F61B4850F82400B7FBF0F100FB9C
:102F4000117000B1761C184850F82400451E22E08C
:102F500013480C3850F8240030F8150010B909F166
:102F6000010901E04FF00009B14513D14FF000080D
:102F700009E00B480C3850F8240005EB080220F853
:102F8000126008F10108B045F3D3064850F8240058
:102F90006843C8E76D1E002DDADA4FF0FF30C2E754
:102FA00050000020488D01083C8D010810B50146F5
:102FB0000023002207E00B4850F8210030F81200EF
:102FC00000B15B1C521C084850F821009042F2D816
:102FD00064205843044C54F82140B0FBF4F0C0B2D4
:102FE00010BD0000440000203C8D010870B505466E
:102FF0000C4604B970BD054850F82500261A314624
:103000002846FFF727FF00BFF4E700003800002044
:1030100070B504460E4631462046FFF773FF05465D
:10302000681C08B9002070BD024850F824002844EC
:10303000F9E700003800002030B5034601E003F84E
:10304000011B141EA2F10102F9D130BD10B51B48BD
:1030500090F8560030B1012808D002280AD0032881
:1030600010D10BE016A0FDF711F90BE01AA0FDF747
:103070000DF907E01EA0FDF709F903E022A0FDF716
:1030800005F900BF00BF0D4890F82C1024A0FDF7F3
:10309000FDF80A48B0F8541028A0FDF7F7F80748E3
:1030A000D0E91220030343EA125128A0FDF7EEF8FD
:1030B0000248016D2BA0FDF7E9F810BDE8000020E3
:1030C0004361726420547970653A534453432056E7
:1030D000312E310D0A000000436172642054797072
:1030E000653A534453432056322E300D0A000000F7
:1030F0004361726420547970653A534448432056C2
:10310000322E300D0A000000436172642054797041
:10311000653A4D4D4320436172640D0A0000000082
:1031200043617264204D616E75666163747572658A
:103130007249443A25640D0A00000000436172643C
:10314000205243413A25640D0A0000004361726435
:103150002043617061636974793A2564204D420DA2
:103160000A0000004361726420426C6F636B536914
:103170007A653A25640D0A0D0A00000010B588B082
:10318000044601210846FEF71BF901211020FEF735
:1031900027F9072209212248FDF77EFD07220A218F
:1031A0001F48FDF779FD4FF4C060069002208DF8AE
:1031B0001C008DF81D0000208DF81E0001208DF8E8
:1031C0001F0006A91648FDF71FFD02940020ADF868
:1031D0000C00ADF80E00ADF81000ADF814000C2096
:1031E000ADF8120002A90F48FFF700FC01210D48BD
:1031F000FFF7A0FB012240F225510A48FFF7D0FB60
:1032000025208DF8040003208DF805008DF80600B8
:1032100001208DF8070001A8FEF78AF808B010BD5C
:1032200000000240001001404FF04070E1EE100A33
:1032300070470000000000000000000000000000D7
:1032400000000010101010101010101000001010CE
:10325000000000006C6C242400000000010000004D
:1032600000000024242424FE48484848FC90909004
:10327000900000103C5492905038141212925478DE
:1032800010000000225C94A8481010242A52548890
:103290000000000030484850206E54948C888A7496
:1032A000000000003030101000000000000000009E
:1032B00000000004081010202020202020101008FA
:1032C000040000804020201010101010102020401A
:1032D0008000000000001054381038541000000026
:1032E000000000000010101010FE10101010000060
:1032F00000000000000000000000000000001010AE
:10330000200000000000000000FE0000000000009F
:10331000000000000000000000000000000010108D
:1033200000000000040408081010202040408080A5
:103330000000000038448282828282828282443885
:103340000000000010701010101010101010107CF1
:10335000000000003844828204081020408284FC6F
:10336000000000003844820204380402028244381B
:1033700000000000040C141424244444FE04040E31
:1033800000000000FC808080B8C482020282847841
:10339000000000003C428280B8C4828282824438AD
:1033A000000000007E42820404080808101010107B
:1033B00000000000384482824438448282824438CB
:1033C00000000000384482828282463A02824438F9
:1033D00000000000000010100000000010100000AD
:1033E000000000000000101000000000001010207D
:1033F0000000000000000618608060180600000051
:103400000000000000000000FE0000FE00000000C0
:10341000000000000000C0300C020C30C0000000B2
:1034200000000038448282020408101010001010BE
:10343000000000003844829AAAAAAAAAAA9680424A
:103440003C00000010101028282844447C4444EE1E
:1034500000000000FC424242427C4242424242FCA6
:10346000000000003C44828080808080828244385A
:1034700000000000F844424242424242424244F8C4
:1034800000000000FC444240447C4440404244FC74
:1034900000000000FC444240447C4440404040F076
:1034A00000000000344C828080808E8484844C3400
:1034B00000000000EE444444447C4444444444EE50
:1034C000000000007C101010101010101010107C64
:1034D000000000003E0808080808080808888870EE
:1034E00000000000EE44484850605048484444EE14
:1034F00000000000E040404040404040404244FC6A
:1035000000000000C6446C6C6C545454444444EEB7
:1035100000000000CE4464646454544C4C4C44E4B9
:103520000000000038448282828282828282443893
:1035300000000000F844424242447840404040E0ED
:1035400000000000384482828282828282BA443C37
:1035500002000000F048444444487048444444E6B3
:10356000000000003C44828040300C02028244781B
:10357000000000007C549210101010101010103831
:1035800000000000EE44444444444444444444386D
:1035900000000000EE44444444282828281010105D
:1035A00000000000EE445454545454542828282851
:1035B00000000000EE44442828101028284444EE5F
:1035C00000000000EE444428282810101010103885
:1035D000000000007E44840808102020408284FC03
:1035E0000000001C101010101010101010101010FF
:1035F0001C000000EE445454FE545454282828283B
:10360000000000701010101010101010101010108A
:10361000700000304884000000000000000000003E
:10362000000000000000000000000000000000009A
:10363000FE0000402000000000000000000000002C
:1036400000000000000000007884047C84848C76F4
:1036500000000000C040404058644242424264586A
:103660000000000000000000384480808080443862
:10367000000000000C040404344C848484844C3620
:103680000000000000000000788484FC80808478C2
:103690000000000018242020F82020202020207086
:1036A00000000000000000003A444478807C8282E0
:1036B0007C000000C040404058644444444444EE10
:1036C0000000000010100000301010101010103812
:1036D00000000000101000003010101010101090AA
:1036E00060000000C04040405C485060504844EEDC
:1036F00000000000301010101011101010101039C0
:103700000000000000000000ACD29292929292D68B
:10371000000000000000000058E44444444444EE2B
:103720000000000000000000384482828282443899
:103730000000000000000000D8644242426458408B
:10374000E000000000000000364C8484844C340407
:103750000E000000000000006C30202020202070AF
:10376000000000000000000078888460188444781D
:103770000000000000202020F82020202020241815
:103780000000000000000000C64242424242463AA9
:103790000000000000000000EE444428282810101B
:1037A0000000000000000000EE4444545428282883
:1037B0000000000000000000EE442810102844EE35
:1037C0000000000000000000EE444428281010A073
:1037D000C0000000000000007E448810204284FCED
:1037E0000000000C101010101060101010101010BD
:1037F0000C000010101010101010101010101010ED
:10380000100000C020202020201820202020202070
:10381000C00000000000000000728C0000000000EA
:1038200000000000000000001FE000003FF000006A
:103830003FF000001FE0000180060003C00F0003FE
:10384000C00F0003C00F0003C00F0003C00F000330
:10385000C00F0003C00F0003C00F000300030000EF
:10386000000000000000000000000003000300034F
:10387000C00F0003C00F0003C00F0003C00F000300
:10388000C00F0003C00F0003C00F0003C00F0001F2
:10389000800600001FE000003FF000003FF0000045
:1038A0001FE0000000000000000000000080000099
:1038B00001800000038000000780000007800000F6
:1038C00007800000078000000780000007800000DC
:1038D00007800000078000000780000001800000D2
:1038E0000000000000000000000000000180000057
:1038F00007800000078000000780000007800000AC
:10390000078000000780000007800000078000009B
:10391000078000000380000001800000008000009C
:1039200000000000000000001FE000003FF0000069
:10393000FFF00001FFE0000000060000000F0000A3
:10394000000F0000000F0000000F0000000F00003B
:10395000000F0000000F0000000F00001FE3000038
:103960007FF800007FF800001FE000030000000364
:10397000C0000003C0000003C0000003C00000033B
:10398000C0000003C0000003C0000003C00000012D
:10399000800000001FF000003FF800003FFC000026
:1039A0001FFE000000000003FF800001FFC00000B8
:1039B000FFC000007F80000000180000003C0000F5
:1039C000003C0000003C0000003C0000003C000007
:1039D000003C0000003C0000003C00007F8C000127
:1039E000FFE00001FFF000007F800000000C0000FD
:1039F000003C0000003C0000003C0000003C0000D7
:103A0000003C0000003C0000003C0000003C0000C6
:103A1000001800007F800000FFC00001FFC000030D
:103A2000FF80000000000000000000020001000311
:103A30000003000380070003C00F0003C00F000352
:103A4000C00F0003C00F0003C00F0003C00F00032E
:103A5000C00F0003C00F0003C00F00031FE30000EE
:103A60007FF800007FFC00001FE000000003000062
:103A7000000F0000000F0000000F0000000F00000A
:103A8000000F0000000F0000000F0000000F0000FA
:103A9000000F00000007000000030000000100000C
:103AA00000000000000000001FFC00003FF80000C4
:103AB0003FF000001FE0000180000003C000000391
:103AC000C0000003C0000003C0000003C0000003EA
:103AD000C0000003C0000003C00000031FE000009E
:103AE0007FF800007FF800001FE0000000030000E6
:103AF000000F0000000F0000000F0000000F00008A
:103B0000000F0000000F0000000F0000000F000079
:103B1000000600003FE000007FF00000FFF0000121
:103B2000FFE00000000000001FFC00003FF8000064
:103B30003FF000001FE0000180000003C000000310
:103B4000C0000003C0000003C0000003C000000369
:103B5000C0000003C0000003C00000031FE000001D
:103B60007FF800007FFC00001FE00003000300035B
:103B7000C00F0003C00F0003C00F0003C00F0003FD
:103B8000C00F0003C00F0003C00F0003C00F0001EF
:103B9000800600001FE000003FF000003FF0000042
:103BA0001FE0000000000007FFE00003FFC000016D
:103BB000FF880000FF1800000038000000780000B7
:103BC0000078000000780000007800000078000015
:103BD0000078000000780000007800000018000065
:103BE00000000000000000000000000000180000BD
:103BF00000780000007800000078000000780000E5
:103C000000780000007800000078000000780000D4
:103C100000780000003800000018000000080000D4
:103C200000000000000000001FE000003FF0000066
:103C30003FF000001FE0000180060003C00F0003FA
:103C4000C00F0003C00F0003C00F0003C00F00032C
:103C5000C00F0003C00F0003C00F00031FE30000EC
:103C60007FF800007FFC00001FE00003000300035A
:103C7000C00F0003C00F0003C00F0003C00F0003FC
:103C8000C00F0003C00F0003C00F0003C00F0001EE
:103C9000800600001FE000003FF000003FF0000041
:103CA0001FE00000000000001FE000003FF00000E7
:103CB0003FF000001FE0000180060003C00F00037A
:103CC000C00F0003C00F0003C00F0003C00F0003AC
:103CD000C00F0003C00F0003C00F00031FE300006C
:103CE0007FF800007FFC00001FE0000000030000E0
:103CF000000F0000000F0000000F0000000F000088
:103D0000000F0000000F0000000F0000000F000077
:103D1000000600001FE000003FF000007FF0000000
:103D2000FFE00000000000000000000000000000B4
:103D30000000000000000000000000000000000083
:103D40000000000000000000000000000000000073
:103D50000000000000000000000000000000000063
:103D60000000000000000000000000000000000053
:103D70000000000000000000780000007800000053
:103D80007800000078000000780000007800000053
:103D90000000000000000000000000000000000023
:103DA0000000000000000000000000000000000013
:103DB0000000000000000000000000000000000003
:103DC00000000000070000000F8000000F800000CE
:103DD0000F8000000700000000000000000000004D
:103DE00000000000000000000000000000000000D3
:103DF000070000000F8000000F8000000F8000000F
:103E000007000000000000000000000000000000AB
:103E100000000000000000000000000000000000A2
:103E20000000000000000000000000000000000092
:103E300000000007C006000FE0060000000C003084
:103E400018180030181800301830003018300030C2
:103E50001860003008C00007C0C0000FE0800000FC
:103E600000000000000FE0000607C0000630180048
:103E70000C3018000C3018001830180030301800C2
:103E80003030180060000000C00FE000C007C00024
:103E90000000000000000000000000000000000022
:103EA0000000000000000000000000000000000012
:103EB00000000000000000000000000700E0000813
:103EC00087FC00088E030008980180071800800016
:103ED00030000000300000007000000060000000B2
:103EE0006000000060000000600000006000000052
:103EF00070000000300000003000000038000000BA
:103F0000180100000C03000007FC000001F0000095
:103F100000000000000000000000000000000000A1
:103F20000000000000000000000000000000000091
:103F30000000000000000000000000000000000081
:103F40000000000000000000000000000000000071
:103F50000000000000000000000000000000000061
:103F60003FF000007FF000007FE00000FFC0000095
:103F70000000000000000000000000000000000041
:103F80000000000000000000000000000000000031
:103F90000000000000000000000000000000000021
:103FA00000000000B5E70200020002007FF04210AE
:103FB00042107FF0421042107FF0420002080208D7
:103FC00001F800000000D7D37FF0002000400080FF
:103FD00001000200FFF802000200020002000200DD
:103FE00002000E0000000000C8AB010001000280CA
:103FF0000440082010102FE8C106010001001FF046
:104000000100010001007FFC0000B6AF004000404D
:104010007C40004001FC0044FE44204420442084B5
:1040200048844484FD04450402280410BCBC1020CC
:104030001020102013FEFC201020102015FC1884E6
:104040003088D04810501020105051882606CAF5EC
:1040500001000120011001107FFC03800540054094
:104060000920111021084104010201000100010092
:10407000D2BA0080404027F811400140827842487F
:1040800016A81AD023502220422042500288000055
:104090000000BEA73FE020203FE020203FE00000DE
:1040A000FDF885088508FDF885088508FDF8850870
:1040B00000000000B2E200084F8828880AA88AA8F9
:1040C0004AA80AA82AA82AA84228450884888888D5
:1040D000103800000000CAD44050204820400FF89B
:1040E0000040E04027402240224022202A2833A8D6
:1040F0002E18000800000000B3CC00001BF0E210F6
:10410000221023F0F800200033F068806080A3F0D4
:104110002080208027F800000000D0F2020001007B
:104120003FF820002FF02020224021803FF82088F7
:10413000209040804080838000000000D1D5200086
:1041400010F87E20444028F87E8848A850A864A82B
:1041500048A872A884501888610800000000C9AB04
:10416000100010003FE0404080807FF0421042107D
:1041700042107FF04000400840083FF80000000077
:10418000CCEE20802FF8208027F0F41027F02410A8
:1041900027F0241027F03410CFF80220041000007C
:1041A0000000B3E404000200FFF8080010402020E3
:1041B0007FF0089008800880088010882088C078E8
:1041C00000000000CEC4040002000200FFF810400E
:1041D000104008800880050002000500088030605B
:1041E000C01800000000D7D604000200FFF88008C5
:1041F00080083FC0008001000200FFF802000200BA
:1042000002000E0000000000CFD43FE0202020205C
:104210003FE0202020203FE008804890289028A000
:1042200008800880FFF800000000CABE00003FE0E0
:10423000000000000000FFF80200124012202210CF
:104240004208820802000E0000000000CDBC7FF88A
:104250004008440847C84848548843084CC8733845
:1042600040884C08430840887FF800000000C6AC36
:1042700000802080208020803FF02000200020004F
:104280003FC02040204020404040804000000000CF
:10429000B4A520403840484091F07D5055505550CD
:1042A0007D5055F054407C40545057F88C08000025
:1042B0000000C3FE2220222027F8FA2027F0241035
:1042C00027F03410E7F020802FF821402220EC184E
:1042D00000000000CAE440804140F22044108BE816
:1042E000A000F78824A827A834A8E7A824A8248831
:1042F00025B800000000C8EB08000400040002001C
:1043000002000500050008800880104010402020B1
:104310004010800800000000C8AB02000200050049
:10432000088010402020DFD8020002001FC00200D9
:1043300002000200FFF800000000B3CC00001BF0F8
:10434000E210221023F0F800200033F06880608033
:10435000A3F02080208027F800000000BCBC208053
:1043600020802080F7F02080208027E03220E2208B
:104370002140208021402220EC1800000000CAF5D6
:104380000200024002200200FFF807000A800A80B3
:1043900012402220421082080200020000000000A9
:1043A000D6A702000200FFF8020002007FE0102002
:1043B0001040088005000200050018C0E038000029
:1043C0000000B3D62080208023F0F880208027F8DA
:1043D00028203020E7F82020222021202020E0E0A3
:1043E00000000000D7A8020002007FF004000400D3
:1043F000FFF8080010003FE0002000401C80030090
:10440000008000000000D7A201004080200017F0CB
:10441000008080804080008017F010802080208005
:1044200040804FF800000000C5FA2040244024409E
:10443000F4482450276024403440E4402440244081
:1044400025482648E43800000000B7A202002220D8
:10445000221044007FF8040008000FE014202440DC
:104460004280810006C0383800000000B3C900A0B7
:10447000009000807FF8408040907C90449044A061
:1044800044A0444858A84118820800000000B9A67A
:1044900001000100F90023F021102110211021104A
:1044A00021103910C2100210041008600000000032
:1044B000D2C60000002000780CE479045168103066
:1044C0007E6019981A3C2FE448E4083800300060F8
:1044D0000000D1A100000120012003FC6220342053
:1044E000042003FC240021B021202220323E1800A9
:1044F0000FE00000D4F10000000010FC1304110CC8
:104500003DF8703E10D015907CF0503E18101BFE08
:10451000023000200000CFEE0000000003FE00602B
:104520007C4012FC11041106113611241F447944F9
:1045300000C0009C01860000C4BF000000000FE026
:104540003C18200820043E04600460047E046004DB
:10455000200C20081FF001800000B6CC00000800ED
:1045600011FC103E3EF82D8C2904490409043E8CB0
:1045700050FC10881EC811FC100E0000B0B40000E2
:104580000040006012FE13023A427F4410C41BFE3A
:104590003C987190113011A00078004C0000C8B711
:1045A0000000004000F878C41F8C313821EC21262F
:1045B000413A7DE2272225FA3D260124010400002C
:1045C000B6A80000010001705FFC700420042FF801
:1045D00001001100113821C431003F0063E0403870
:1045E0000000B3A4000000000818086008C00B0019
:1045F0001E00181C7FF01000118010E01838098E82
:104600000F000000B0B400000040006012FE130272
:104610003A427F4410C41BFE3C987190113011A0A7
:104620000078004C0000B7B50000000007F8060055
:10463000240014F8078C04042408261825F0647C50
:1046400064C220801FC00000BBD8000000001FF023
:1046500030182008278C2C44284428442CC4278454
:104660002004300C1FF803800000C7B601002108A9
:1046700021083FF800202220223EFF4222942210EF
:104680003E10221022283E2822440082CABD004843
:10469000004400440040FFFE004000403E4008400F
:1046A0000840082008220F12780A20060002BFAA3C
:1046B00000007FFC08200820082008200820FFFEBA
:1046C000082008200820082010201020202040204A
:1046D000B7A201001110110822003FFC02000400E3
:1046E00007F80A080908111010A0204040A003187C
:1046F0001C06CDF800007FFC400440044214529494
:104700004A54442444244A544A5452946104400470
:1047100040144008D6D001000100010001003FF81C
:10472000210821082108210821083FF8210801005B
:10473000010001000100CEC4020001000100FFFEE3
:104740001010101008200820044002800100028090
:10475000044008203018C006B2E2000427C4144404
:104760001454855445544554155415542554E55452
:1047700021042284224424140808CAD400282024B6
:104780001024102007FE0020F02017E01120111047
:104790001110151019CA170A0206000200000000C5
:1047A0000000000000000000000000000000000009
:1047B0000000000000000000000000000000B4BF86
:1047C000000000000000020100063FC00C3FE0189E
:1047D00003001002003336603726203E66301C642A
:1047E0003018642031FEE03F1FC01C0C00000C009C
:1047F0000704003E07F00001C000000000000000B8
:104800000000000000000000C9AB00000000000034
:1048100001FE0003E3000703000C03001C3F003B04
:10482000FFC03F30600C30200C30200C10200C10EA
:10483000600FFFC0083F000800000800600E3FE066
:1048400007FC000000000000000000000000000065
:104850000000CCEE00000000000000030000FFE0BC
:104860000C07F00C06000CFF803FF0E01FC0600C4E
:10487000FE300CCC3004F83004FF2004C0201FFEB2
:10488000603EC06001FFF001FFF00060600040008A
:10489000000000000000000000000000B3E4000081
:1048A0000000000000200000300007FFF03FFFE0A4
:1048B0000300000601800C01800801C01807E00F0A
:1048C000FE7007E000020600060400040400040471
:1048D000000C06700C07E000000000000000000063
:1048E000000000000000B2E2000000000000000034
:1048F0003039FC301FCC300706B00F06F01907B076
:104900003137B03136F01F27F00167F001E5F001D3
:10491000E1F00041F00CF8B03CD830008C30008061
:104920003000000000000000000000000000000057
:10493000CAD40000000000000803600C03700C03E0
:1049400030003FE0003F800801003C0180047F8090
:10495000047D800C00800C10C00C10C00C18400CA2
:104960001C600F7E60067030000030000000000008
:1049700000000000000000000000CEC400000000A5
:10498000C00000E00000700001FFE01FFFC0180140
:1049900000000300000600000E00001C000E1800BE
:1049A00007300001E00000F00000FC00018F000370
:1049B00003C00201E0000000000000000000000051
:1049C00000000000D7D6000000000000002000001A
:1049D0003F0031FFE03FC02038003030FE2033C6BA
:1049E00060100200000C00001800001800000C000D
:1049F00007FFE03FFFE0000400000C00000C000097
:104A00000000000000000000000000000000CFD403
:104A100000000000000007FF000F03C00C00401F53
:104A2000F8601800600800400E01C007FF00000099
:104A3000000184000184001987800F8CE0078C201E
:104A400000CC0003FFE01FFFC000000000000000DA
:104A50000000000000000000CABE000000000000CE
:104A60000E00001FFFC0007FE000000000000000FB
:104A70000000000000003FC03FFFE00030000030B9
:104A8000000030000613000C13C00C18F0181800BA
:104A900018180000000000000000000000000000E6
:104AA0000000CDBC00000000000007FF000F0380E5
:104AB0001CC0C019FC6011C66033062033E63036D6
:104AC000FF30301FF030703030FC30339F30360014
:104AD0002010E060187C400E01C003FF0000380089
:104AE000000000000000000000000000C6AC000054
:104AF0000000000008180018080018080018080036
:104B0000180C201FFFF01FF8001800001000001004
:104B1000F8001FFE001E0300100300100300100326
:104B20000010030018020000000000000000000058
:104B3000000000000000CFD400000000000007FFCC
:104B4000000F03C00C00401FF86018006008004010
:104B50000E01C007FF00000000018400018400195D
:104B600087800F8CE0078C2000CC0003FFE01FFF44
:104B7000C000000000000000000000000000000075
:104B8000CABE0000000000000E00001FFFC0007F32
:104B9000E0000000000000000000000000003FC036
:104BA0003FFFE00030000030000030000613000C32
:104BB00013C00C18F01818001818000000000000AE
:104BC00000000000000000000000B4A5000000008C
:104BD00000000601800FC1801E6180304FC020CFD1
:104BE000E0078D303FC9303379303379303FFB30C7
:104BF00037FF203267E03FE3803FE3C0326360323B
:104C000067F0304FB000000000000000000000001E
:104C100000000000C3FE0000000000000030C000E3
:104C2000FFF00C79C00C1F800C7FE03FE0600CC0EF
:104C3000300CFC3004C03007C0301E60603C3FC008
:104C4000041C00047FE000FFE00030C00060600052
:104C50000000000000000000000000000000CAE4A6
:104C60000000000000000C03800C0FC0081C703F07
:104C700070001F9FC0101FC0100000367C3017E668
:104C8000301FE3B0067FB00277F007E3F03F7FF01C
:104C90001336F00326300326300000000000000029
:104CA0000000000000000000C8EB00000000000051
:104CB00006000003800001C00000E000007000005A
:104CC000780000CC0000C6000183000301800700CB
:104CD000C00600E00C007018003018000030000022
:104CE00000000000000000000000000000000000C4
:104CF00000000000000000000000000000000000B4
:104D000000000000000000000000000000000000A3
:104D10000000000000000000000000000000000093
:1075600000000000000000000000000000200800F3
:10757000000000200000080000200020080000207B
:1075800000820905126A0C300D350D1605760BEFD9
:1075900008E40000002000000000002000000801B6
:1075A000000100200000000000200000000000009A
:1075B00000000000000000000000000000000800C3
:1075C00000010020000000010800000000810020F0
:1075D0000000080000400020004000000000000003
:1075E000000000000000000000000000000000009B
:1075F000000000000000000000000000000000008B
:10760000000000000000000000000000000000007A
:10761000000000000000000000000000000000006A
:10762000000000000000000000000000000000005A
:10763000000000000000000000000000000000004A
:10764000000000000000000000000000000000003A
:10765000000000000000000000000000000000002A
:10766000000000000000000000000000000000001A
:1076700000000020000000000060000000C525554B
:107680001FFD079D17BE17FF07FF07FF07FE17FF28
:107690001FFE1CB310C50000000008000000002001
:1076A0000020080100000000080000210000000088
:1076B00000000000000000000000000000020820A0
:1076C0000800000100200206253416191F1B26DBC6
:1076D00005D81DFA171B1E3709A600200000000060
:1076E000000000000000000000000000000000009A
:1076F000000000000000000000000000000000008A
:107700000000000000000000000000000000000079
:107710000000000000000000000000000000000069
:107720000000000000000000000000000000000059
:107730000000000000000000000000000000000049
:107740000000000000000000000000000000000039
:107750000000000000000000000000000000000029
:107760000000000000000000000000000000000019
:10777000002000000000004008000A8B1F9D0FFF42
:1077800007FF07BF17FF07FF07DF0FFF07DF07FF31
:1077900007FF07DF07FE15D611C8002100000820EB
:1077A00000000000000000000001000000000000D8
:1077B00000000000000000000000000000000800C1
:1077C0000000084111A917FF1DB60B4B0249124AD0
:1077D00002CA0ACA0A6912AA006300010000000076
:1077E0000000000000000000000000000000000099
:1077F0000000000000000000000000000000000089
:107800000000000000000000000000000000000078
:107810000000000000000000000000000000000068
:107820000000000000000000000000000000000058
:107830000000000000000000000000000000000048
:107840000000000000000000000000000000000038
:107850000000000000000000000000000000000028
:107860000000000000000000000000000000000018
:1078700000000001082000000105275C07FF07DF6A
:1078800007FF07FF07FE07FE07FF0F9F07FF07FF22
:1078900007FF0FDF07BF07FF077B1BD0100000208B
:1078A000002000200000000100200800000000006F
:1078B00000000000000000000000000000000020A8
:1078C000002008002D971D970000000000000020F8
:1078D0000000000000200000000000200000000068
:1078E0000000000000000000000000000000000098
:1078F0000000000000000000000000000000000088
:107900000000000000000000000000000000000077
:107910000000000000000000000000000000000067
:107920000000000000000000000000000000000057
:107930000000000000000000000000000000000047
:107940000000000000000000000000000000000037
:107950000000000000000000000000000000000027
:1079600000000000000000000000000000200800EF
:1079700008000000000010831E5807FF079F07FF44
:1079800007FF0FFF0FFF07DF07DF07FF0FDE07FF10
:1079900007FF0FDF07FF07FF0FFF0FDF261809059F
:1079A0000000000000010061000000200000000055
:1079B00000000000000000000000000008000001BE
:1079C000080000000D3325F8000000000000002032
:1079D000002000200020000008000000000000003F
:1079E0000000000000000000000000000000000097
:1079F0000000000000000000000000000000000087
:107A00000000000000000000000000000000000076
:107A10000000000000000000000000000000000066
:107A20000000000000000000000000000000000056
:107A30000000000000000000000000000000000046
:107A40000000000000000000000000000000000036
:107A50000000000000000000000000000000000026
:107A6000000000000000000000000000000008000E
:107A70000000000000410B0C0FFE07FF07FE07FF90
:107A800007FF07DF07FF07FF07DF07FF07FF07DF26
:107A900007FF07BF07DF07FF07FF07FF07DF1F1B02
:107AA000328B0000002008010020000000000000D0
:107AB00000000000000000000000000000200000A6
:107AC0000063002011870F3C1CD40A690946082274
:107AD00000821063000100C30000004000000000AD
:107AE0000000000000000000000000000000000096
:107AF0000000000000000000000000000000000086
:107B00000000000000000000000000000000000075
:107B10000000000000000000000000000000000065
:107B20000000000000000000000000000000000055
:107B30000000000000000000000000000000000045
:107B40000000000000000000000000000000000035
:107B50000000000000000000000000000000000025
:107B60000000000000000000000000000000000015
:107B70000020100000200D5407DF07DF07FD07DE9F
:107B800007FF07FF07DF0FDF07FF07FF07DF07DF3D
:107B90000FFF07FF07DF07FF07FF0FDE0FFF07FFDE
:107BA0000FFD1B4D0000002100010000000000003F
:107BB0000000000000000000000000000001006064
:107BC00000010800008015341FFF07DE1F3A16B9B8
:107BD0000E391E3A16FB1E160904000000000000B4
:107BE0000000000000000000000000000000000095
:107BF0000000000000000000000000000000000085
:107C00000000000000000000000000000000000074
:107C10000000000000000000000000000000000064
:107C20000000000000000000000000000000000054
:107C30000000000000000000000000000000000044
:107C40000000000000000000000000000000000034
:107C50000000000000000000000000000000000024
:107C60000000000000000000000000000000000113
:107C7000000000200000157607DF0FFE07FF07FF5A
:107C800007FF07FF07FF07FF07FF07FF0FDF0FFFD4
:107C900007BF07FF07FF0FBF07FF07FF07FE07FF2D
:107CA0000FDF1FFF14710000080008010000000032
:107CB00000000000000000000000000000000000C4
:107CC0000800080013AD0FFF15B7092501040124B2
:107CD00011450904016501040021000000000000B5
:107CE0000000000000000000000000000000000094
:107CF0000000000000000000000000000000000084
:107D00000000000000000000000000000000000073
:107D10000000000000000000000000000000000063
:107D20000000000000000000000000000000000053
:107D30000000000000000000000000000000000043
:107D40000000000000000000000000000000000033
:107D50000000000000000000000000000000000023
:107D600000000000000000000000000000400801CA
:107D70000000004000001C7217FF07DF07FF07FF2D
:107D800007DF07FF07FF07FF07FF07FF07FF07FFE3
:107D900007FF07FF07FF07FF07FF07FF07FF07FFB3
:107DA00007BF07FF17BE139000010040000200400C
:107DB0000000000100200020000100010040080137
:107DC000000010001FDD0472080000000001000028
:107DD0000020000000000001004100000000000041
:107DE0000000000000000000000000000000000093
:107DF000000000000000000000000800002000005B
:107E00000000004000000800080000200000000002
:107E10000000000000000000000000000000000062
:107E20000000000000000000000000000000000052
:107E30000000000000000000000000000000000042
:107E40000000000000000000000000000000000032
:107E50000000000000000000000000000000000022
:107E60000000000000000000000000000000000012
:107E70001000000000000208177C07FF07FD07FE46
:107E800007FF07FF07DF0FFF07FF07FE07FF07FFDB
:107E900007FF07FF07FF07FF07FF07FF07DF0FDFEA
:107EA00007FF07FF0FFF1FBD0C0F000100000000C0
:107EB0000020000000000041000008000020080031
:107EC0000021002113AE26FB0166080000000021FE
:107ED0000020100000000000000000000000000072
:107EE0000000000000000000000000000000002072
:107EF0000000000000000000002000200000004101
:107F00000000000000000020000000000020002011
:107F10000000000000000000000000000000000061
:107F20000000000000000000000000000000000051
:107F30000000000000000000000000000000000041
:107F40000000000000000000000000000000000031
:107F50000000000000000000000000000000000021
:107F600000000000000000000000000000000040D1
:107F700000000000080000001CF407FF07FF07FFD7
:107F800007FF07FF07DF07FF0FFF07FF07FF07FFD9
:107F900007FF07FF07FF07FF07FF07FF07FF0FDFC9
:107FA0000FFF07FF079F0FFF0F7C14110000000059
:107FB0000800000000000801002000000000080088
:107FC0000041000018E53EFD07FE2516134D1B6E0F
:107FD0001BCF13AD138D1BEF010400000000000048
:107FE0000000000000000000000000000000002071
:107FF0000000000000000020002000000800000039
:10800000000008000800000000000022000000003E
:108010000000000000000000000000000000000060
:108020000000000000000000000000000000000050
:108030000000000000000000000000000000000040
:108040000000000000000000000000000000000030
:108050000000000000000000000000000000000020
:108060000000000000000000000000000800080000
:1080700000000000000000000A4A1F1C0FFF07DF7D
:1080800007DF07FF0FFF07FF07FF07DF07FF07FFF8
:1080900007FF07FF07FF07FF07FF07FF07FF07DFD0
:1080A00007FF0FFF07DF07DF0FFF07FF130C00209D
:1080B0000800080100000800000000200000000087
:1080C0000040002029C72C91148F1CB21CD41CB274
:1080D0003C11149225351D9501A8002300000000D5
:1080E0000000000000000000000000000000000090
:1080F0000000080000000020000010000040000008
:10810000000000000021000000000000000000004E
:10811000000000000000000000000000000000005F
:10812000000000000000000000000000000000004F
:10813000000000000000000000000000000000003F
:10814000000000000000000000000000000000002F
:10815000000000000000000000000000000000001F
:1081600000000000000000000000000000200021CE
:10817000002000200000000100010A071E9A1FDFF6
:1081800007FF07DF07DF07FF07FF07FF07FF07FFFF
:1081900007FF07FF07FF07FF07FF07FF0FFF07DFC7
:1081A00007DF0FFF07FF07FF07DF07FF179E01E845
:1081B0000021000100000020080000200000000055
:1081C000002000200000002309450B8E0D5414F2FE
:1081D00013AE0B0C006200200860080200000000D3
:1081E000000000000000000000000000000000008F
:1081F0000000000000000000000000A200000021BC
:108200000000000008000000000000000020002026
:10821000002000200000000000000000000000001E
:10822000000000000000000000000000000000004E
:10823000000000000000000000000000000000003E
:10824000000000000000000000000000000000002E
:10825000000000000000000000000000000000001E
:108260000000000000000000000000000000080105
:10827000000000000020000100000000004114B2D6
:108280000FFE07FF07FF0FFF07FF07FE07FF07FFB0
:1082900007FF07FF07FF07FF07FF07FF07DF07FFCE
:1082A00007FF07FF07FF07FF07DF0FDF07DF1F7D60
:1082B000132C08000000000000010000080100006D
:1082C0000001002000C30D571FDF16DB0D960C7256
:1082D0001596177D273B02270000000100000000D3
:1082E0000000000000000000000000000060080026
:1082F00008000040002010000061248F25550188EF
:1083000008010020004000001021000108000000CA
:10831000000000000000002000000000000000003D
