:020000040800F2
:1000000010500020890200082D21000883190008E3
:1000100029210008E90700087B69000800000000AA
:10002000000000000000000000000000414800083F
:100030004915000800000000CD21000859490008BA
:10004000A3020008A3020008A3020008A3020008FC
:10005000A3020008A3020008A3020008A3020008EC
:10006000A3020008A3020008A3020008A3020008DC
:10007000A3020008A3020008A3020008A3020008CC
:10008000A3020008A3020008A3020008A3020008BC
:10009000A3020008A3020008A3020008A3020008AC
:1000A000A3020008A3020008A3020008A30200089C
:1000B000A3020008A3020008A3020008A30200088C
:1000C000A3020008A3020008A3020008A30200087C
:1000D000A3020008C5490008A3020008A302000803
:1000E000A3020008A3020008A3020008A30200085C
:1000F000A3020008A3020008A3020008A30200084C
:10010000A3020008992C0008A3020008A30200081B
:10011000A3020008A3020008A3020008A30200082B
:10012000A3020008A3020008A3020008A30200081B
:10013000A3020008A3020008A3020008A30200080B
:10014000A3020008A3020008A3020008BD210008C2
:10015000A3020008A3020008A3020008A3020008EB
:10016000A3020008A3020008A3020008A3020008DB
:10017000A3020008A3020008A3020008A3020008CB
:10018000A3020008A302000800F002F800F064F8DF
:100190000AA090E8000C82448344AAF10107DA45E2
:1001A00001D100F059F8AFF2090EBAE80F0013F0D0
:1001B000010F18BFFB1A43F001031847CCCB010015
:1001C000ECCB01000A444FF0000C10F8013B13F097
:1001D000070408BF10F8014B1D1108BF10F8015BA0
:1001E000641E05D010F8016B641E01F8016BF9D193
:1001F00013F0080F1EBF10F8014BAD1C0C1B09D1EA
:100200006D1E58BF01F801CBFAD505E014F8016B5B
:1002100001F8016B6D1EF9D59142D6D370470000ED
:100220000023002400250026103A28BF78C1FBD8FF
:10023000520728BF30C148BF0B607047642900F0E7
:100240003181782900F06A81002070471FB506F0DF
:10025000CDFF1FBD10B510BD00F094FA1146FFF799
:10026000F5FF06F0AFFD00F0B2FA03B4FFF7F2FFBE
:1002700003BC06F007FD000030BF72B6704762B6DF
:10028000704780F30888704709488047094800474D
:10029000FEE7FEE7FEE7FEE7FEE7FEE7FEE7FEE736
:1002A000FEE7FEE704480549034A054B7047000096
:1002B0005D49000889010008104C00201050002002
:1002C000104C0020704753EA020C00F069802DE9C1
:1002D000F04B4FF00006002B1FBFB3FA83F503FA73
:1002E00005F424FA05F65E4012BF1643B2FA82F511
:1002F00002FA05F4C5F120051EBF22FA05FC44EA06
:100300000C04203556EA044C4FEA144418BF641C10
:100310004FF000084FF00009904271EB030C39D305
:10032000002919BFB1FA81F701FA07F6B0FA80F790
:1003300000FA07F6C7F120071EBF20FA07FC46EABD
:100340000C062037B6FBF4FCA7EB0507103F07F0BF
:100350001F0BCBF120060CFA0BFB2CFA06F644BF60
:10036000B3460026202FA4BF5E464FF0000B5BEA89
:10037000060C08BF4FF0010B19EB0B09ABFB027C1D
:1003800048EB0608C01B06FB02CC0BFB03CC71EB51
:100390000C01C1E70B46024641464846BDE8F08BDA
:1003A00013B54FF000004FF00001AFF30080BDE83F
:1003B0001C40704710B54C1084EA530404D54042E9
:1003C000C1F1000138BF491E1B4204D55242C3F19E
:1003D000000338BF5B1EFFF776FF14F0804F04D098
:1003E0004042C1F1000138BF491E14F0004F04D053
:1003F0005242C3F1000338BF5B1E10BD0FB4044965
:1004000010B503AA029800F075F910BC5DF814FB52
:10041000180000200FB41CB5074B06AA7B446946A0
:100420000090059800F04DF90020694600F05CF955
:100430001CBC5DF814FB0000C90200002DE9F0416E
:100440000E460446002020622046E168884730B30B
:10045000252805D0D4E901219047206A401CF2E705
:10046000E168204600278847050018D0A5F1410023
:10047000192802D820354FF4006732462946204615
:100480002760FFF7DBFE40B1012804D0F61D26F0FF
:1004900007060836D8E7361DD6E72846DAE7206A89
:1004A000BDE8F0812DE9F041064600241068752969
:1004B000314616A510D0AFF30080002802DA404282
:1004C00013A507E031688A0701D512A502E04907A4
:1004D00004D511A5012401E0AFF3008000210A2218
:1004E00006F1240709E0B0FBF2FCB0FBF2F302FBDB
:1004F0001C00303078541846491C0028F3D123469C
:100500002A463046BDE8F04100F07DB8000000000A
:100510002D0000002B0000002000000070B50446F4
:100520000D4621461068AFF300802188090502D5E9
:100530000F4A7A4402E00E4A7A440E32002104F156
:10054000240305E000F00F060009965D5E54491C87
:100550000028F7D120780023000704D5702D02D0A1
:1005600009B1022311322046BDE8704000F04BB8BB
:1005700029C80100032A40F2308010F0030C00F07B
:10058000158011F8013BBCF1020F624498BF11F8CD
:1005900001CB00F8013B38BF11F8013BA2F1040286
:1005A00098BF00F801CB38BF00F8013B11F00303FE
:1005B00000F0B280083AC0F0088051F8043B083AD5
:1005C00051F804CBA0E80810F5E7121D5CBF51F804
:1005D000043B40F8043BAFF30080D20724BF11F87E
:1005E000013B11F801CB48BF11F8012B24BF00F8E3
:1005F000013B00F801CB48BF00F8012B7047704762
:100600007047704770472DE9F0470D46994692466E
:10061000044600F124080168880604D5E06921F049
:100620001001216000E00120A84201DD471B00E02D
:100630000027A1697A1902EB0900081AA061207845
:10064000C00602D42046AFF30080002608E0D4E9BB
:1006500001211AF806009047206A401C761C20628F
:100660004E45F4DB2078C0060AD52046AFF3008063
:1006700006E0D4E9012130209047206A401C206226
:10068000381EA7F10107F4DC07E0D4E9012118F8CE
:1006900005009047206A401C2062281EA5F1010534
:1006A000F3DC2046AFF300802078000602D502205C
:1006B000BDE8F0870120FBE701694A1C0261087868
:1006C000704700B58FB0CDE9013100210591054992
:1006D0007944CDE9031011466846FFF7AFFE0FB02D
:1006E00000BD0000E5FFFFFF0A6802F8010B0A6089
:1006F00070470000074B70B50D467B44FFF7E1FFE4
:100700000446284600F03AF810B14FF0FF3070BDB3
:10071000204670BDAB66000010B5203AC0F00B80DB
:10072000B1E81850203AA0E81850B1E81850A0E8F5
:100730001850BFF4F5AF5FEA027C24BFB1E818504F
:10074000A0E8185044BF18C918C0BDE810405FEABF
:10075000827C24BF51F8043B40F8043B08BF70473B
:10076000D20728BF31F8023B48BF11F8012B28BF40
:1007700020F8023B48BF00F8012B7047007B00F0D7
:1007800080007047754600F02BF8AE4605006946BC
:10079000534620F00700854618B020B5FFF782FDCC
:1007A000BDE820404FF000064FF000074FF0000872
:1007B0004FF0000B21F00701AC46ACE8C009ACE8F3
:1007C000C009ACE8C009ACE8C0098D46704710B557
:1007D0000446AFF300802046BDE81040FFF745BD5A
:1007E00000487047B04B002000BFFEE770B5002501
:1007F0004FF4803404E0802002F03AFA00B103E0C4
:10080000201EA4F10104F6D100BF0CB9032070BD75
:1008100040F2FF5002F002FA2846F8E770B50446AD
:1008200005E01648056805F0450000B100E0F8E76E
:1008300000BF042002F01CFA20B1042002F0EEF9FF
:10084000032070BD012002F013FA20B1012002F054
:10085000E5F90120F5E7094824380068A04201D0F5
:100860001020EEE740F2FF5002F0D8F9034820389C
:10087000006808210840C0B2E3E70000342C0140C2
:1008800070B500264FF4803505E01148046804F087
:10089000450000B103E0281EA5F10105F5D100BF18
:1008A00015B104F0040028B10326042002F0B6F9C3
:1008B000304670BD012002F0DBF918B1012601209D
:1008C00002F0ACF940F2FF5002F0A8F93046F0E730
:1008D000342C014010B505E00B48046804F04500D5
:1008E00000B100E0F8E700BF042002F0C1F920B138
:1008F000042002F093F9032010BD40F2FF5002F0F3
:100900008DF90020F8E70000342C01402DE9F0417A
:1009100005460E464FF0000805E02048076807F03E
:10092000450000B100E0F8E700BF042002F0A0F9A4
:1009300028B1042002F072F90320BDE8F081012003
:1009400002F096F920B1012002F068F90120F4E7E5
:10095000124824380068A84201D01020EDE740F288
:10096000FF5002F05BF90D482038046804F4604041
:1009700018B9200C30804046DFE704F4005008B17D
:100980001320DAE704F4804008B11020D5E704F41E
:10099000004008B10F20D0E74046CEE7342C01409C
:1009A00070B500264FF4803505E00F48046804F068
:1009B000450000B103E0281EA5F10105F5D100BFF7
:1009C00015B104F0040028B10326042002F026F932
:1009D000304670BD04F0400018B10026402002F0FF
:1009E0001DF93046F5E70000342C014070B506468D
:1009F0000C4604F08000802808D104F07F0000EB52
:100A0000800106F58E7000EBC10507E004F07F0061
:100A100000EB800106F55D7000EBC10504F07F007E
:100A2000287004F08000C00968702946304605F03F
:100A300063FC002070BD70B506460C4604F08000D3
:100A4000802808D104F07F0000EB800106F58E704D
:100A500000EBC10505E004EB840106F55D7000EBD9
:100A6000C1050020A87004F07F002870C4F3C010F6
:100A700068702946304605F017FC002070BD70B53F
:100A800005460C4604F08000802805D104F07F0163
:100A9000284605F02BFE02E0284605F001FE002066
:100AA00070BD2DE9F04106460D4690461F4605F003
:100AB0008000802808D105F07F0000EB800106F55A
:100AC0008E7000EBC10407E005F07F0000EB8001B1
:100AD00006F55D7000EBC10405F07F00207005F0A5
:100AE0008000C0096070C4F80880E770607808B1C1
:100AF0002078E080022F01D100202071214630466D
:100B000005F086FB0020BDE8F0812DE9F0410546A7
:100B10000E461746984606F07F0000EB800105F56B
:100B20005D7000EBC104E760C4F814800020A06190
:100B3000607006F07F002070E878012800D12761FE
:100B4000207820B92146284605F086FA03E02146A0
:100B5000284605F032FC0020BDE8F08108B50022EF
:100B60000092009A61F30A12009202691268009BD7
:100B70001A4303691A6008BD70B506460C4604F0B6
:100B80008000802808D104F07F0000EB800106F58A
:100B90008E7000EBC10505E004EB840106F55D7085
:100BA00000EBC1050120A87004F07F002870C4F399
:100BB000C01068702946304605F0CDFB002070BD9E
:100BC0002DE9F04107460D461646984605F07F0090
:100BD00000EB800107F58E7000EBC104012060700E
:100BE00005F07F002070E66026610020A061C4F857
:100BF0001480207820B92146384605F02DFA03E00C
:100C00002146384605F0D9FB0020BDE8F0811CB52F
:100C10000446204605F0EBF9E068C06800902046E5
:100C200005F08EFD03280BD10020A0704FF400705A
:100C3000A080009820F4705000F51050009009E05A
:100C40000120A0704020A080009820F4705000F592
:100C5000A05000900098E168C860002001900198C1
:100C600020F4005000F5005001900198E1684861BF
:100C700001201CBDF8B50546002400200090284640
:100C800005F09DFD064690E006F0010000287DD0AD
:100C9000E1B2284600F002FB0090009800F001004D
:100CA00030B3012000FA04F72869406BB843296982
:100CB000486300200090009820F00100401C009044
:100CC00005F1180050F8240000998160E1B239481C
:100CD0000068426828469047E878012808D13CB966
:100CE00040F21110405D042802D1284605F05FFA59
:100CF0000098C0F3C00060B100200090009820F080
:100D000008000830009005F1180050F82400009900
:100D100081600098C0F3001060B10020009000983E
:100D200020F010001030009005F1180050F8240059
:100D3000009981600098C0F3801060B1002000909D
:100D4000009820F040004030009005F1180050F865
:100D50002400009981600098C0F3400060B1002039
:100D60000090009820F00200801C009005F118000F
:100D700050F82400009981600098C0F3C01028B199
:100D80002146284600F09EFA002000E00BE000908B
:100D9000009820F080008030009005F1180050F895
:100DA000240000998160641C7608002E7FF46CAFEB
:100DB0000120F8BD600000207CB50446002500201D
:100DC0000190204605F003FD06466FE006F00100A5
:100DD000002869D0E9B2204605F001FD0190019894
:100DE00000F00100C8B300200190019820F001003C
:100DF000401C019004F1540050F8250001998160D5
:100E0000E078012817D104F1540050F8250000695A
:100E1000009005EB850104F55D7000EBC100806872
:100E20000099C1F31201411A05EB850204F55D70CA
:100E300000EBC2008161E9B21E48006802682046EA
:100E40009047E078012808D13DB940F21110005DCB
:100E5000052802D1204605F0AAF90198C0F3400008
:100E600060B100200190019820F00200801C0190E8
:100E700004F1540050F82500019981600198C0F3F5
:100E8000C00088B10B480068816820468847002070
:100E90000190019820F008000830019004F15400FE
:100EA00050F82500019981606D1C7608002E8DD1C7
:100EB00001207CBD600000203EB50446A07A70B1E0
:100EC000D4F80C010090009820F0020000900098E7
:100ED00020F0010000900099D4F80C01016000207E
:100EE0000190019820F00100401C019020694068A9
:100EF0000199884321694860084800688169204653
:100F0000884700200290029820F0004000F1004045
:100F100002900298E168486101203EBD6000002017
:100F20007CB5044600200190019820F0100010309C
:100F30000190E068806901998843E1688861E06810
:100F4000006A0090009800F00F0000EB800104F5AB
:100F50005D7000EBC1050098C0F3434007282DD217
:100F6000DFE800F02C04051D1E2C1F0027E0009870
:100F7000C0F30A1090B10098C0F30A122046E96845
:100F800005F037FCE8680099C1F30A110844E860ED
:100F9000A8690099C1F30A110844A8610FE00EE0A6
:100FA0000DE0082204F2CC51204605F022FCA8698D
:100FB0000099C1F30A110844A86100E000BF00BF16
:100FC000E068806901990843E168886101207CBD7F
:100FD00038B5044608480068C168204688470020A4
:100FE0000090009820F00800083000900098E16818
:100FF0004861012038BD0000600000201FB5044694
:10100000002000904FF48970005D00902348006834
:10101000416920468847206980680190002003903C
:10102000039820F4006000F5006003900398E168E5
:101030004861A07A70B3019800F0010050B340F20B
:101040001510005D012825D19DF80000032821D14D
:1010500000200290029820F00100401C0290D4F879
:101060000C01006802990843D4F80C11086002983A
:1010700020F00200801C0290D4F80C010068029954
:101080000843D4F80C1108600548006840F00600D9
:1010900003490860012004B010BD0000600000207A
:1010A00010ED00E030B587B00446002002900690B5
:1010B0000590049003900190029820F00100401CDC
:1010C00002902069406802998843216948600021A4
:1010D000204605F00BFB00250BE0FF2104F1180072
:1010E00050F82500816004F1540050F8250081601B
:1010F0006D1C6078A842F0D84FF0FF312069816103
:1011000006986FF30F00401C0690069880B200F519
:101110008030069006992069C161059820F008008A
:1011200008300590059820F00100401C05900598B6
:1011300020F00200801C0590059920694161049807
:1011400020F00100401C0490049820F008000830B2
:101150000490049820F00200801C049004992069F7
:101160000161206900680390039820F4FE600390F9
:10117000039920690160204605F019F800200190CC
:10118000019820F4805000F5805001900198E168AA
:10119000486104480068016920468847012007B07B
:1011A00030BD0000600000202DE9F04106460F46EA
:1011B0003946304605F032FB01214FF489708155E4
:1011C0000021801C8155002511E005EB850106F505
:1011D0008E7000EBC104012060702570E580002056
:1011E000E0704020A0600020E06060616D1C7078BD
:1011F000A842EAD8002510E005EB850106F55D70F0
:1012000000EBC104002060702570E580E070402094
:10121000A0600020E06060616D1C7078A842EBD88F
:10122000304604F0D3FE304604F000FD0021304685
:1012300005F05CFB304604F08CFD304605F01FFAEB
:10124000BDE8F08138B504460020009007480068EA
:10125000C16920468847009820F4801000F580106E
:1012600000900098E1684861012038BD60000020CE
:1012700038B504460020009007480068016A2046FF
:101280008847009820F4001000F5001000900098A6
:10129000E1684861012038BD6000002030B5024699
:1012A00015692B6915696C6B24FA01F505F00105C8
:1012B00043EAC51302F1180555F82150AD6805EA57
:1012C000030030BD2DE9F84307460E4600250020F7
:1012D000009006EB860107F58E7000EBC104D4E99F
:1012E0000501451AA068A84200D2A568E81C4FEA8B
:1012F000900807F1180050F82600806900901BE064
:10130000D4E90501451AA068A84200D2A568E81CE6
:101310004FEA9008ABB2F2B23846E16805F00DFB37
:10132000E0682844E060A0692844A06107F1180043
:1013300050F8260080690090009880B2404506D998
:10134000D4E90510884202D260690028D8D1012072
:10135000BDE8F88321B1026842F00102026003E0B7
:10136000026822F00102026070470000016821F06B
:10137000010101600021016041608160C160016183
:10138000212141614A49884204D13D21484A103A0D
:1013900091608CE046491831884205D14FF4746160
:1013A000434A103A916082E041493031884205D188
:1013B0004FF474113E4A103A916078E03C4948314C
:1013C000884205D14FF07461394A103A91606EE05D
:1013D00037496031884204D13649354A103AD160E4
:1013E00065E033497831884204D13349304A103AB4
:1013F000D1605CE02E499031884204D12F492C4ABB
:10140000103AD16053E02A49A831884205D14FF003
:101410003D51274A103AD16049E02949884204D118
:101420003D21274A083A116041E025491831884298
:1014300005D14FF47461224A083A116037E020491F
:101440003031884205D14FF474111D4A083A1160B9
:101450002DE01B494831884205D14FF07461184A8C
:10146000083A116023E016496031884204D11149DD
:10147000134A121F11601AE011497831884204D1D1
:101480000D490F4A121F116011E00D499031884239
:1014900004D10A490A4A121F116008E00849A8311C
:1014A000884204D14FF03D51054A121F1160704728
:1014B000106002403D000020400F002000003D2051
:1014C0001064024021B1026842F02002026003E091
:1014D000026822F0200202607047014600200A687C
:1014E00002F001020AB1012000E000207047000074
:1014F00010B500220268134B1A40CC680B682343D6
:101500004C6923438C692343CC6923430C6A2343EE
:101510004C6A23438C6A23434C6B23438C6B2343D9
:101520001A430260426922F00702D1E90B342343D7
:101530001A4342610B6943604B6883608B68C360E8
:1015400010BD00003F801CF0704700002DE9FC41F9
:1015500007460D4600260024002000900190082038
:101560005B49086010204860402088600020C86007
:101570004FF480600861084601F0C6FB1020FFF7B9
:101580004DF9044614B12046BDE8FC81514800885D
:1015900000044F49086037204860402088600020E0
:1015A000C8604FF480600861084601F0ADFB372049
:1015B000FFF734F904460CB12046E5E74FF0FF3061
:1015C0004549086008204860302088600220C860D3
:1015D0000020086101204861084601F02FFB00202F
:1015E0003B49086033204860402088600020C86084
:1015F0004FF480600861084601F086FB3320FFF756
:101600000DF904460CB12046BEE70CE04FF4001083
:1016100001F02EFB38B1314800684DF82600761CE9
:10162000022E00D307E02D484C38006840F22A61B2
:1016300008400028EAD000BF082001F019FB20B1C3
:10164000082001F0EBFA04209EE7022001F010FBD5
:1016500020B1022001F0E2FA022095E7202001F0FB
:1016600007FB20B1202001F0D9FA06208CE74FF4C7
:10167000007001F0FDFA28B14FF4007001F0CEFACD
:10168000072081E740F2FF5001F0C8FA00980006F9
:10169000009901F47F4140EA0120009901F47F01A3
:1016A00040EA1120009940EA116068600198000644
:1016B000019901F47F4140EA0120019901F47F0181
:1016C00040EA1120019940EA1160286020465BE75A
:1016D000A017002008000020B4170020802C014033
:1016E000F0B50A4600210023002400BF3DE001259B
:1016F00005FA01F3156805EA03049C4234D1056834
:101700004F000326BE40B543056015794E00B54035
:101710000668354305601579012D02D01579022D33
:1017200016D185684F000326BE40B54385605579C4
:101730004E00B540866835438560456801268E4079
:10174000B5434560456896798E40B6B235434560ED
:10175000C5684F000326BE40B543C560D5794E002D
:10176000B540C6683543C560491C1029BFD3F0BDDC
:10177000F0B5002300244D07ED0E02FA05F3CE105C
:1017800000F1200555F826504E07F70E0F26BE40F3
:10179000B543CF1000F1200646F82750CE1000F1D7
:1017A000200555F8265045EA0304CE1000F1200527
:1017B00045F82640F0BD4183704701837047000023
:1017C0002DE9F84F0746884693469A46DDF828905B
:1017D0000097B3E099F8000080283DDA99F800609E
:1017E0000D2E05D1009F08F110001FFA80F830E09F
:1017F000202E03DDA6F1200086B200E000260024A2
:1018000022E000251CE004EB06105049085C802112
:101810002941084040B108EB040291B27A1990B214
:101820005A4600F097F809E0D34507D008EB0402C8
:1018300091B27A1990B2524600F08CF8681CC5B289
:10184000082DE0DB601CC4B2102CDADB07F10800C5
:1018500087B209F1010971E0002668E006EB061085
:101860003B4911F8100099F8001088425DD106EB51
:101870000610374901EB4000407899F80110884282
:1018800053D100244FE0002520E006EB061030493C
:1018900001EB4000801C10F814108020284101400A
:1018A00041B108EB040291B27A1990B25A4600F0A5
:1018B00051F809E0D34507D008EB040291B27A1938
:1018C00090B2524600F046F8681CC5B2082DDCDB29
:1018D000002524E006EB06101D4901EB4000801CAA
:1018E000012101EB4401405C80212941084048B1BD
:1018F00008EB040291B27A19083290B25A4600F00D
:1019000029F80AE0D34508D008EB040291B27A190D
:10191000083290B2524600F01DF8681CC5B2082D7E
:10192000D8DB601CC4B2102CADDB701C86B23A2E22
:1019300094DB09F1020907F1100087B299F8000061
:1019400000287FF447AFBDE8F88F0000F67100086B
:10195000687F00082DE9F04104460D461646AF1C8D
:10196000BBB2E71CBAB26F1CB9B2A71CB8B200F088
:1019700001FA301200F028FAF0B200F025FABDE8C2
:10198000F08100BFFEE700001CB504460020019076
:101990000090224800880004214908600D2048601A
:1019A000402088600020C8604FF4806008610846CD
:1019B00001F0AAF91B480068009002E0194800688D
:1019C0000090009800F045000028F7D0012001F0B9
:1019D0004FF920B1012001F021F901201CBD0420A4
:1019E00001F046F920B1042001F018F90320F5E7D1
:1019F0000C48243800680D2801D01020EEE740F292
:101A0000FF5001F00BF90748203800680190019859
:101A1000C0F3432020700020E0E700000800002011
:101A2000A0170020342C01401CB50121084600F00D
:101A3000CFFB0120009000208DF8040003208DF8DA
:101A4000050002208DF8070069460248FFF748FEAE
:101A50001CBD0000000002401CB50121062000F062
:101A6000B7FB4FF20200009001208DF80400002027
:101A70008DF8060003208DF8050001208DF8070081
:101A800069461348FFF72CFE2020009001208DF8B6
:101A9000040000208DF8060003208DF805000120C9
:101AA0008DF8070069460B48FFF71AFE4FF4804196
:101AB0000748FFF782FE02210548FFF77EFE02215C
:101AC0000348FFF778FE02210148FFF776FE1CBDB0
:101AD000000402400008024010B52C20084908818B
:101AE0000020887180200880A02048802A2048811A
:101AF0002B208881C021362000F096F910BD00000F
:101B0000481A00201CB50121084600F061FB0220A4
:101B1000009001208DF8040000208DF806000320BD
:101B20008DF8050001208DF8070069460348FFF78E
:101B3000D7FD02210148FFF740FE1CBD0000024016
:101B400070B50446A02381220121022000F012F981
:101B50002C2000F051F900250BE0002606E02012B1
:101B600000F032F9E0B200F02FF9761C802EF6D3A7
:101B70006D1CA02DF1D370BD10B5FFF76DFF00F007
:101B8000E5F8112000F038F9C82005F0A5F8B120DB
:101B900000F032F9052000F017F93C2000F014F9AC
:101BA0003C2000F011F9B22000F026F9052000F0E9
:101BB0000BF93C2000F008F93C2000F005F9B320B7
:101BC00000F01AF9052000F0FFF83C2000F0FCF8C6
:101BD0003C2000F0F9F8052000F0F6F83C2000F079
:101BE000F3F83C2000F0F0F8B42000F005F90320F1
:101BF00000F0EAF8C02000F0FFF8282000F0E4F838
:101C0000082000F0E1F8042000F0DEF8C12000F028
:101C1000F3F8C02000F0D8F8C22000F0EDF80D2055
:101C200000F0D2F8002000F0CFF8C32000F0E4F874
:101C30008D2000F0C9F82A2000F0C6F8C42000F07A
:101C4000DBF88D2000F0C0F8EE2000F0BDF8C520D4
:101C500000F0D2F81A2000F0B7F8362000F0CCF8E7
:101C6000C02000F0B1F8E02000F0C6F8042000F039
:101C7000ABF8222000F0A8F8072000F0A5F80A2011
:101C800000F0A2F82E2000F09FF8302000F09CF821
:101C9000252000F099F82A2000F096F8282000F07E
:101CA00093F8262000F090F82E2000F08DF83A20CE
:101CB00000F08AF8002000F087F8012000F084F896
:101CC000032000F081F8132000F07EF8E12000F0FE
:101CD00093F8042000F078F8162000F075F806203C
:101CE00000F072F80D2000F06FF82D2000F06CF875
:101CF000262000F069F8232000F066F8272000F085
:101D000063F8272000F060F8252000F05DF82D2012
:101D100000F05AF83B2000F057F8002000F054F88B
:101D2000012000F051F8042000F04EF8132000F0DC
:101D30004BF83A2000F060F8052000F045F8292023
:101D400000F05AF8FFF7C8FE10BD000010B54FF4C0
:101D500080410748FFF72FFD642004F0BDFF4FF4DA
:101D600080410348FFF729FD642004F0B5FF10BD52
:101D7000000402402DE9F04104460D4616461F4678
:101D80002A2000F039F8002000F01EF8E0B200F040
:101D90001BF8002000F018F8F0B200F015F82B2026
:101DA00000F02AF8002000F00FF8E8B200F00CF87C
:101DB000002000F009F8F8B200F006F82C2000F03E
:101DC0001BF8BDE8F081000010B504464FF48051C7
:101DD0000748FFF7F0FC20210648FFF7EEFC2046FD
:101DE00002F072FC4FF480510148FFF7E6FC10BD91
:101DF000000402400008024010B504464FF4805130
:101E00000748FFF7D8FC20210648FFF7D4FC2046FE
:101E100002F05AFC4FF480510148FFF7CEFC10BD90
:101E2000000402400008024070B505460C462846F2
:101E3000FFF7E2FF2046FFF7C7FF70BD10B504466D
:101E40000D48007B48B90C48806830B10B480078D9
:101E500018B901212046FEF78FFE81212046FEF7AA
:101E60008BFE06480078022805D11F23024A012173
:101E70002046FEF74AFE10BD604B00207500002092
:101E800010B504462B4840682B49486029488068B3
:101E900088600121204603F0B6F81F2810D125489C
:101EA0000068264988420BD12248407B012807DC84
:101EB0002048807B012803DB1E48807B10280CDD36
:101EC0001C49487B2022052100F03AFD02201C49D4
:101ED00008702046FFF7B2FF2AE01648417B00F168
:101EE0000F02204600F09AFA002803DA2046FFF796
:101EF000A5FF1DE013480078022819D0114800788A
:101F0000012815D00F480078032811D00E4800880A
:101F1000002806DD0C4802880C49204600F0E0F855
:101F200006E00948008818B90021204600F0B8F8FA
:101F300010BD0000604B0020804B002055534243F1
:101F4000750000207400002072000020601B00203B
:101F500070B505460C460C480078022807D181214F
:101F60002846FEF709FE0020074908700BE004F040
:101F70008000802807D104480078012803D001217F
:101F8000284600F08DF870BD7500002070B504463D
:101F90000D4610480078022804D0032811D00428E8
:101FA00014D10DE00C48417B00F10F02204600F0F7
:101FB00035FA002803DA0121204600F071F806E026
:101FC00000BF0021204600F06BF800E000BF00BF1A
:101FD00070BD000074000020604B002070B5044606
:101FE0000D460D48007810B1012812D103E02046BB
:101FF000FFF746FF0EE00948417B00F10F02204643
:1020000000F00CFA002803DA0121204600F048F81D
:1020100000E000BF00BF70BD74000020604B0020D6
:102020000021014A117070477400002010B5044669
:1020300000200C4908700C4908700C4800680168C1
:102040000020884701212046FEF719FD8121204606
:10205000FEF715FD1F23064A01212046FEF755FD18
:1020600010BD000074000020750000204801002011
:10207000604B002010B5044600200649087001207E
:10208000054908701F23054A01212046FEF73DFD42
:1020900010BD00007400002075000020604B00207F
:1020A00070B505460C460A480A490860084604739C
:1020B0000020094908700D23064A81212846FEF7B1
:1020C0007FFD1F23054A01212846FEF71EFD70BD36
:1020D00055534253804B002074000020604B002079
:1020E00070B506460D4614460C488068A04202D2E0
:1020F0000A48806800E0204684B209488068001BD6
:1021000007498860002008730420064908702346A8
:102110002A4681213046FEF753FD70BD604B0020FA
:10212000804B00207400002000BFFEE770470000D5
:1021300070B5002100230F22C4781CB3174C24680B
:1021400004F4E064C4F5E064C4F30721C1F10404BD
:10215000E3B20A4144789C40E1B2847814402143C0
:102160000C07210E0E4C05786155047804F01F050C
:102170000124AC4005786D11AD0005F1E025C5F8EE
:10218000004109E0047804F01F050124AC40054D2E
:102190000678761145F8264070BD00000CED00E091
:1021A00000E400E080E100E002490143024A1160DE
:1021B000704700000000FA050CED00E010B5024881
:1021C00003F082F810BD00006C0100207047000091
:1021D00029B1064A12680243044B1A6004E0034A1C
:1021E00012688243014B1A60704700003038024089
:1021F00029B1064A12680243044B1A6004E0034AFC
:1022000012688243014B1A60704700003438024064
:1022100029B1064A12680243044B1A6004E0034ADB
:1022200012688243014B1A60704700004438024034
:1022300029B1064A12680243044B1A6004E0034ABB
:1022400012688243014B1A60704700002438024034
:10225000F0B5002100220024022500260223324F7F
:102260003F6807F00C0121B1042905D0082937D1B6
:1022700005E02E4F076036E02D4F076033E02A4F10
:102280003F1F3F68C7F38056274F3F1F3F6807F047
:102290003F036EB1264FB7FBF3F7DFF88CC0ACF10C
:1022A000040CDCF800C0CCF3881C07FB0CF40CE039
:1022B0001E4FB7FBF3F7DFF870C0ACF1040CDCF88D
:1022C00000C0CCF3881C07FB0CF4174F3F1F3F687E
:1022D000C7F301477F1C7D00B4FBF5F7076002E000
:1022E000124F076000BF00BF0F4F3F6807F0F001BB
:1022F0000909104F7A5C0768D74047600A4F3F686A
:1023000007F4E051890A0B4F7A5C4768D740876031
:10231000054F3F6807F46041490B064F7A5C4768F8
:10232000D740C760F0BD0000083802400024F40028
:1023300000127A001E00002070B506460C461546B5
:10234000601907490968884207D9212205213046CA
:1023500000F0F6FA4FF0FF3070BD0020FCE70000FF
:10236000D000002030B504460A46507800F0010045
:1023700010B10E4B07210CE00D480068C06904EB5A
:10238000C40500EB85031879411D1079884200DCF3
:1023900011790848018004E0481E81B2585C064D5E
:1023A00068540029F8D1002030BD000000CD01089C
:1023B0004801002072000020601B002010B502467A
:1023C0000B4608210648018005E0481E81B20548F9
:1023D000405C054C60540029F7D1002010BD00007E
:1023E000720000200FCD0108601B002010B50246CE
:1023F0000B4608210648018005E0481E81B20548C9
:10240000405C054C60540029F7D1002010BD00004D
:102410007200002007CD0108601B002070B5054642
:102420000E46144632480560207823283ED00DDC45
:102430001A2831D005DCB0B1032819D012284ED1AA
:102440001BE01B281ED01E2849D120E02A283CD0A2
:1024500004DC25282FD0282841D131E02F2839D07D
:102460005A283CD11DE02146304600F08FFA70BD5D
:102470002146304600F018FAF9E721463046FFF7CA
:1024800071FFF4E72146304600F078FAEFE7214685
:10249000304600F073FAEAE721463046FFF7A6FF20
:1024A000E5E721463046FFF789FFE0E72146304661
:1024B00000F0B6F9DBE72146304600F06BF9D6E7CD
:1024C0002146304600F0E4F8D1E72146304600F0DE
:1024D000ADFACCE72146304600F080FAC7E720226B
:1024E0000521304600F02CFA4FF0FF30BFE7000026
:1024F000E40000202DE9F041054627480068B0F5CA
:10250000405F02D22448006801E04FF44050044686
:1025100022480068B4FBF0F086B22048002320492E
:10252000026803C9FDF7CFFE07461E480068334620
:102530003A461D49D0F810C02846E047002808DA7E
:1025400011220421284600F0FBF94FF0FF30BDE8CE
:10255000F0812346144A812114480068FEF730FBBD
:102560000F48D0E90020121940F100000C49C1E9E0
:10257000002009480068001B074908600C48806873
:10258000001B0B4988600448006810B90320094902
:1025900008700020DBE70000E0000020CC000020F5
:1025A000D800002048010020601B0020E40000202B
:1025B000804B0020740000202DE9F04105462D4895
:1025C0000068B0F5405F02D22A48006801E04FF48D
:1025D0004050044628480068B4FBF0F086B2264814
:1025E00000232649026803C9FDF76DFE074624480B
:1025F000006833463A462349D0F814C02846E047DD
:10260000002808DA03220421284600F099F94FF047
:10261000FF30BDE8F0811948D0E90020121940F1DF
:1026200000001649C1E9002012480068001B11494A
:10263000086015488068001B134988600D480068D1
:1026400028B9002111480068FFF72AFD10E0094869
:102650000068B0F5405F02D20648006801E04FF420
:10266000405083B2074A012108480068FEF74DFA3E
:102670000020CEE7E0000020CC000020D8000020A1
:1026800048010020601B0020804B0020E400002057
:102690002DE9F04105460C4637480078002862D104
:1026A0003648007B00F08000802809D03349487B01
:1026B0002022052100F044F94FF0FF30BDE8F08101
:1026C0002F48006881682846884738B13A2202219D
:1026D000284600F035F94FF0FF30EFE7A07800060C
:1026E000E17840EA0140217940EA0120617908431C
:1026F000C117244A03C2207AE17940EA0120224925
:1027000008600846008882B21E4801682846FFF724
:1027100013FE002802DA4FF0FF30CFE702201649FF
:10272000087018480AC8194800680026A1FB00274D
:1027300003FB007001FB06001249C1E900201248AA
:1027400000681249096848430F4908600B488068CF
:102750000968884207D00949487B2022052100F0FA
:10276000EFF8701EAAE74FF4405009490880284648
:10277000FFF7C0FEA2E7000074000020604B0020BD
:1027800048010020D8000020E0000020CC000020FC
:102790007200002070B504460D461C4800681C4AB3
:1027A0001C4943682046984738B13A220221204606
:1027B00000F0C6F84FF0FF3070BD16480068401EAC
:1027C000000E1549087013480068401E000C487040
:1027D00010480088401E000A88700E480078401E8D
:1027E000C8700B480068000E087109480068000CAA
:1027F000487107480088000A887105480078C87148
:102800000820064908800020D6E700004801002083
:10281000CC000020D0000020601B002072000020AF
:102820007CB505460E46002404E000201B490855EF
:10283000601C84B20C2CF8DB1948006801AA6946B8
:1028400043682846984738B13A220221284600F0CA
:1028500077F84FF0FF307CBD08201049C870009811
:10286000401E000E08710098401E000C4871009830
:10287000401E000A88710098401EC871022008722C
:102880000198000C48720198000A88720198C87279
:102890000C20044908800020DDE70000601B0020B8
:1028A000480100207200002010B50346002204E019
:1028B00000201E4CA054501CC2B2122AF8DB70201B
:1028C0001A4C20700C20E07119480078194C2478BB
:1028D000A04221D01848164C247810F83400134C2C
:1028E000A0701548124C247800EBC40040790F4CBE
:1028F000207311480E4C247800EBC40000790B4C77
:1029000060730B480078401C094C2070204600780A
:10291000042801D1002020701220084C2080087962
:10292000122801DC08792080002010BD601B0020E7
:10293000C8000020C9000020904B00207200002039
:1029400030B50C4B0C4C247803F834101302094CAE
:10295000094D2D7804EBC5046360074B1B785B1CA5
:10296000054C237023461B78042B01D100232370D0
:1029700030BD0000904B0020C9000020024600201E
:10298000014B1880704700007200002070B50446AB
:102990000D460F48806840B10D49487B2022052133
:1029A000FFF7CEFF4FF0FF3070BD0A480068816826
:1029B0002046884738B13A2202212046FFF7C0FF5F
:1029C0004FF0FF30F0E700200349088000BFEBE73D
:1029D000604B0020480100207200002070B50546C1
:1029E0000C46607800F00200022807D1242205215D
:1029F0002846FFF7A5FF4FF0FF3070BD084800885C
:102A000082B2084801682846FFF796FC002802DADF
:102A10004FF0FF30F1E700200349088000BFECE7EA
:102A2000E0000020D8000020720000202DE9F041D5
:102A300005460C4646480078002878D14548007B7A
:102A400000F08000802809D14249487B20220521DE
:102A5000FFF776FF4FF0FF30BDE8F0813E48006899
:102A600081682846884738B13A2202212846FFF774
:102A700067FF4FF0FF30EFE737480068C16828462E
:102A8000884738B1272202212846FFF759FF4FF027
:102A9000FF30E1E7A0780006E17840EA01402179C3
:102AA00040EA012061790843C1172C4A03C2207A09
:102AB000E17940EA01202A4908600846008882B28C
:102AC000264801682846FFF737FC002802DA4FF055
:102AD000FF30C1E721480CC8224800680026A2FB4D
:102AE000001703FB007002FB06001C4AC2E900103D
:102AF0001B4800681B490968484319490860154884
:102B000080680968884207D01249487B2022052145
:102B1000FFF716FF701E9FE701200D49087010484F
:102B20000068B0F5405F03D20D48006802E009E09C
:102B30004FF4405083B20C4A01210C480068FDF765
:102B4000E4FF03E02846FFF737FD85E7002083E731
:102B500074000020604B002048010020D8000020B5
:102B6000E0000020CC000020601B0020E4000020DA
:102B70007CB50546002400200090019000260DB190
:102B8000022600E000262248006800F0007008B12C
:102B90000E207CBD1F49098888B26946FEF7D6FC25
:102BA00004460CB12046F4E7019800F4802060B39D
:102BB0001848008800041849086037204860402001
:102BC00088600020C8604FF480600861084600F00B
:102BD0009BF83720FDF722FE04460CB12046D8E7CB
:102BE0000D48066006200C4948604020886000209F
:102BF000C8604FF480600861084600F085F8062040
:102C0000FDF70CFE04462046C3E72520C1E700007F
:102C1000142C014008000020A01700200149086082
:102C200070470000382C01400146034A106820F02C
:102C3000FF00084310607047042C014000210B4B3B
:102C400002681A601B1D42681A601A1D116821F083
:102C5000F701D0E902231A4303691A4343691A436F
:102C60001143024A0832116070470000242C0140D1
:102C700001460020034A12680A400AB1012000E020
:102C800000207047342C01400248006800F0030027
:102C900070470000002C014010B500F08BFC10BD07
:102CA00000210A4A116847F6FF629143027D83685A
:102CB0001A4343681A43C3681A4303681A430369F3
:102CC0001A431143014A116070470000042C01406F
:102CD00000200B490860091D0860091D0860091DD6
:102CE0000860074924310860091D0860091D086053
:102CF00004480349383108600020091D0860704706
:102D0000002C0140FF07C0000021094B02681A6037
:102D10001A1D11686FF30A01D0E901231A43C36831
:102D20001A4303691A431143014A121D1160704787
:102D3000082C01400149086070470000002C014048
:102D400070B590B004460E46154600BF1A48FEF70F
:102D5000C4FB0028FAD11848FEF708FB4FF00060CA
:102D60000190164802900394049500200590069067
:102D70004FF4806007908000089080000990002048
:102D80000A904FF440300B9004200C9003200D90DB
:102D90004FF400000E9080100F9001A90648FEF736
:102DA000A7FB20210448FEF78DFB01210248FEF716
:102DB000D1FA10B070BD000058640240802C014070
:102DC00070B50446002516480078032802D127254F
:102DD000284670BD1248007838B1114800780128A3
:102DE00003D00F480078022817D1B4F5805F02D1D4
:102DF00027252846EDE7E0B2FFF7BAFE054665B99C
:102E00000848006820F4C050064908600846006879
:102E1000204308600846006808602846D9E700009B
:102E200004000020042C0140F0B5014600200022DF
:102E3000BE4B1B7881F85630BD4B1B88A1F854302F
:102E4000BC4B1B681A0E93090B70C2F383034B70C3
:102E500002F003038B70B74B1B68C3F30742CA70C1
:102E6000B44B1B88C3F307220A71B24B1A784A711C
:102E70005B681A0E1301CB80AE4B5B68C3F307424D
:102E8000CB8843EA1213CB8002F00F030B72A94BDD
:102E90009B88C3F30722D3094B72C2F380138B7252
:102EA000C2F34013CB72C2F300130B7300234B73B6
:102EB0009E4B1B783BB19D4B1B78012B03D09B4B4A
:102EC0001B78032B4FD193071B0D0B61994B1A797C
:102ED0000B6943EA82030B61964B9B681A0E0B69E0
:102EE00043EA92130B61C2F3C2030B7502F00703AE
:102EF0004B75904B9B68C3F3074253098B75C2F324
:102F00008203CB7593075B0F0B768A4B1B89C3F348
:102F100007220B7E43EAD2130B760B695B1C00245D
:102F2000C1E912340B7E9B1C012404FA03F3DC1765
:102F3000D1E91256A5FB037C06FB03C305FB043352
:102F4000C1E912730C7A0123A3400B650024D1E977
:102F500012650B6DA6FB037C05FB03C306FB043364
:102F6000C1E912732EE0714B1B78022B2AD1714BF1
:102F70001A7993069B0A0B616E4B9B681A0E0B69BC
:102F800043EA02230B616B4B9B68C3F307420B6957
:102F900013430B61674B1B89C3F307220B695B1C4F
:102FA0004FF40074A3FB04464FF480630025A4FB98
:102FB000037C06FB03C304FB0533C1E912734FF422
:102FC00000730B65C2F3801301F8193F93065B0E83
:102FD0004B70584B1A7A4B7843EAD2134B7002F07D
:102FE0007F038B70534BDB681A0ED309CB70C2F38F
:102FF00041130B71C2F382034B7193071B0F8B714B
:103000004C4BDB68C3F307428B7943EA92138B7115
:10301000C2F34013CB7100230B7202F001034B7219
:10302000444B9B89C3F30722D3098B72C2F38013ED
:10303000CB72C2F340130B73C2F300134B73C2F392
:1030400081038B7302F00303CB733A4B1A7B530853
:103050000B7401234B74384B1B681A0ECA74193950
:10306000354B1B68C3F307421402CC85324B1B88D7
:10307000C3F30722CB8D1343CB852F4B1A7814064D
:103080000C635B681A0E0B6B43EA02440C632A4B19
:103090005B68C3F307420B6B43EA02240C63264BC5
:1030A0009B88C3F307220B6B13430B63224B1A79E4
:1030B00034235A54204B9B681A0E35235A541E4B06
:1030C0009B68C3F3074214068C631B4B1B89C3F335
:1030D00007228B6B43EA02448C63174B1A7A8B6B83
:1030E00043EA02248C63144BDB681A0E8B6B134388
:1030F0008B63114BDB68C3F307423C235B5C43EA01
:1031000012143C235C5413071C0DCC870A4B9B897B
:10311000C3F30722CB8F1343CB87074B1A7B54088B
:1031200040235C54012441235C54F0BD0400002082
:1031300008000020CC170020DC1700203EB500243A
:10314000002501214448FFF743F80121C802FFF799
:103150005FF80121C802FFF76BF84FF4F8500190B7
:1031600002208DF808008DF8090000208DF80A0073
:1031700001208DF80B0001A93848FEF7B1FA0420B0
:10318000019001A93648FEF7ABFA0C22082133481A
:10319000FEF7EEFA0C2209213048FEF7E9FA0C227C
:1031A0000A212E48FEF7E4FA0C220B212B48FEF7E9
:1031B000DFFA0C2211462948FEF7DAFA0C22022126
:1031C0002748FEF7D5FA00214FF40060FFF730F8EA
:1031D000FFF77EFD31208DF8000000208DF8010002
:1031E0008DF8020001208DF803006846FEF7A0FF6D
:1031F00000F0EEF8044614B900F038F804461CB9A3
:103200001848FFF711FE044634B91649B1F85410B6
:10321000080400F073FD044624B94FF40060FFF782
:10322000CFFD04461CB110480078032812D10D4888
:1032300090F8560020B10B4890F85600012801D1B3
:10324000022500E000252846FFF7EEFC002000F0F4
:103250006DFD044620463EBD0C00400000080240C3
:10326000000C0240F01700200400002038B50024B4
:1032700001200090FFF708FD10B92524204638BD35
:103280004D480078042824D000204C4908600220D2
:103290004860C02088600020C8604FF480600861EA
:1032A0000846FFF731FDFDF7EBFA04460CB1204666
:1032B000E5E743480068434908604148001D00684D
:1032C00048603F480830006888603D480C3000681E
:1032D000C8603948007858B137480078012807D0CD
:1032E00035480078062803D033480078022816D1E4
:1032F0000020324908600320486040208860002098
:10330000C8604FF4806008610846FFF7FDFC69461D
:103310000320FDF7FBFA04460CB12046AFE7264830
:103320000078032816D1BDF8000000042349086086
:1033300003204860402088600020C8604FF480600F
:1033400008610846FFF7E0FCFDF79AFA04460CB165
:10335000204694E71848007804282AD0BDF80000D9
:1033600019490860BDF800000004144908600920EC
:103370004860C02088600020C8604FF48060086109
:103380000846FFF7C1FCFDF77BFA04460CB1204666
:1033900075E70B4800680D4908600948001D006882
:1033A0004860074808300068886005480C300068AD
:1033B000C860002063E7000004000020A017002080
:1033C000142C0140DC17002008000020CC1700203E
:1033D0002DE9F0470027002400260025A046A1463D
:1033E00076206E4908750020086048608860C860D3
:1033F00008610846FFF754FC0320FFF79BFC684870
:10340000006840F480706649086000BF12E0002048
:103410006449086048608860C8604FF48060086153
:103420000846FFF771FCFDF7E1F9044604B903E033
:10343000781CC7B24A2FEADB00BF14B12046BDE8B2
:10344000F0874FF4D5705749086008204860402045
:1034500088600020C8604FF4806008610846FFF76C
:1034600053FCFDF79DFA044624B901204E4908702B
:103470004FF0804900204B490860372048604020C9
:1034800088600020C8604FF4806008610846FFF73C
:103490003BFC3720FDF7C2F90446002C4CD135E047
:1034A00000204049086037204860402088600020A4
:1034B000C8604FF4806008610846FFF725FC37209C
:1034C000FDF7ACF904460CB12046B8E7374849EAA5
:1034D00000003449086029204860402088600020AE
:1034E000C8604FF4806008610846FFF70DFCFDF7E7
:1034F000F1F904460CB12046A1E7294810300668CE
:10350000012080EAD67080F001086D1CB8F1000F30
:1035100003D14FF6FF708542C2D34FF6FF7085424C
:1035200002D31B2420468AE706F08040061E33D0D3
:1035300002201D4908702FE01DE01D481949086050
:1035400001204860402088600020C8604FF48060FF
:1035500008610846FFF7D8FBFDF7BCF904460CB13B
:1035600020466CE70E4810300668012080EAD670CD
:1035700080F001086D1CB8F1000F03D14FF6FF7009
:103580008542DAD34FF6FF70854202D31B242046D2
:1035900055E7032004490870204650E788170020AB
:1035A000042C0140A017002004000020000010801F
:1035B0000080FF8010B54FF48070FFF759FB78B39F
:1035C0004C480078012814D100204B4908600C2099
:1035D0004860402088600020C8604FF48060086127
:1035E0000846FFF791FB0C20FDF718F943490870D6
:1035F00002E00020414908704148006840F48070B2
:103600003F490860081D00684CF23A3188433C4944
:10361000091D086001203B4908703848007810BD3A
:10362000FFE70220FFF724FB78B10220FFF7F6FA4C
:103630003348001D00684CF23A3188433049091D77
:10364000086002202D490870E9E70820FFF710FB09
:1036500078B10820FFF7E2FA2948001D00684CF213
:103660003A3188432649091D08600420234908701F
:10367000D5E72020FFF7FCFA78B12020FFF7CEFA3B
:103680001F48001D00684CF23A3188431C49091D4F
:103690000860062019490870C1E71020FFF7E8FA12
:1036A00078B11020FFF7BAFA1548001D00684CF2F7
:1036B0003A3188431249091D086005200F490870F6
:1036C000ADE74FF40070FFF7D3FA80B14FF400700C
:1036D000FFF7A4FA0A48001D00684CF23A3188430B
:1036E0000749091D086007200449087097E7002072
:1036F00095E700000D000020A01700200E0000201C
:10370000382C01400F0000202DE9F84F8146174664
:1037100098460A9C4FF0000AD3464D464FF0FF36BC
:10372000B9F1000F02D12620BDE8F88F00208649AC
:10373000086086480078022805D10402780A40EA29
:10374000C8574FEA68280020814988604860401EB9
:103750000860012048610020C86008610846FFF742
:103760006DFA79481838006800F0007008B10E2032
:10377000DAE7002C21DDB4F5006F1EDC601E20406E
:10378000D8B9204603F080FA0090724804601020F7
:1037900070494860402088600020C8604FF4806015
:1037A00008610846FFF7B0FA1020FDF737F88246A7
:1037B000BAF1000F03D05046B6E72620B4E70098D0
:1037C000000163498860084644604FF0FF3008609C
:1037D000012048610220C860002008610846FFF708
:1037E0002DFA5C48076011205A49486040208860E3
:1037F0000020C8604FF4806008610846FFF784FA33
:103800001120FDF70BF88246BAF1000F01D05046A7
:103810008AE75148007800285CD1FCF72EFD18E0BB
:103820004FF40040FFF724FA78B14FF0000B06E0A8
:1038300045485430006845F82B000BF1010BBBF1F3
:10384000080FF5D32035454E03E00EB904206BE791
:10385000761E3D480830006840F22A610840002882
:10386000DED00820FFF704FA20B10820FFF7D6F9D0
:10387000042059E70220FFF7FBF920B10220FFF7EF
:10388000CDF9022050E72020FFF7F2F920B12020E7
:10389000FFF7C4F9062047E74FF40070FFF7E8F997
:1038A00028B14FF40070FFF7B9F907203CE704E0B6
:1038B00025485430006828602D1D4FF40010FFF794
:1038C000D7F90028F4D1FCF7DAFC40F2FF50FFF7FB
:1038D000A5F936E020480078012832D1002020499F
:1038E0000870204908702049087017481030006897
:1038F00040F22A3108431449103108601248006828
:1039000040F0080010490860002221464846FFF7B1
:1039100017FA00E0761E1548006800F0006038B91C
:103920001148007820B90E48007808B9002EF1D16E
:103930000EB90420F8E60A48007810B1084890F85B
:1039400000A05046F0E600002C2C014004000020AE
:10395000B4170020A01700200C000020FFFF7F00FC
:103960000E0000200D0000200F0000200064024027
:103970002DE9FE4F83460C4691460020029000261A
:1039800025462C46700240EAD5566D020BF0030026
:10399000F0B14FF0000A18E04FF4007000904FEAC9
:1039A0004A20471946EBE0733A461648FFF7ACFE4B
:1039B00002904FF4007213495846FCF7DBFD0BF5FB
:1039C000007B0AF1010000F0FF0ACA45E4DB16E0C3
:1039D000B9F1010F09D14FF400702A463346009027
:1039E0005846FFF791FE029009E04FF400702A4616
:1039F0003346CDE90009584600F006F802900298D7
:103A0000BDE8FE8F481800202DE9FF5F1746984655
:103A1000DDE90E464FF00009CA464FF0FF35AC49CC
:103A2000009808600020AB490860AB480078022885
:103A300005D10402780A40EAC8574FEA68280020F6
:103A4000A64988604860401E086001204861002047
:103A5000C86008610846FFF7F1F89E48183800680A
:103A600000F0007018B10E2004B0BDE8F09F002CEB
:103A700021DDB4F5006F1EDC601E2040D8B9204661
:103A800003F002F983469648046010209449486088
:103A9000402088600020C8604FF4806008610846BC
:103AA000FFF732F91020FCF7B9FE8146B9F1000F9B
:103AB00003D04846D8E72620D6E7012E71D906FB69
:103AC00004F0B0F1007F01D32620CDE74FEA0B10C0
:103AD0008249886006FB04F048604FF0FF300860C0
:103AE000012048610220C860002008610846FFF7F5
:103AF000A5F87B480760122079494860402088601B
:103B00000020C8604FF4806008610846FFF7FCF8A9
:103B10001220FCF783FE8146B9F1000F01D0484620
:103B2000A2E77048007800287ED1FCF7A6FB1EE0D3
:103B30004FF40040FFF79CF8A8B14FF0000A08E0EE
:103B40006448543000686249096841F82A000AF163
:103B5000010ABAF1080FF3D35D48006820305C49D0
:103B60000860614D03E00DB904207DE76D1E5948E2
:103B70000830006840F22A3108400028D8D00820D8
:103B8000FFF776F820B10820FFF748F804206BE72C
:103B90000220FFF76DF828B10220FFF73FF802205E
:103BA00062E792E02020FFF763F820B12020FFF7C2
:103BB00035F8062058E74FF40070FFF759F828B1A0
:103BC0004FF40070FFF72AF807204DE70AE041485C
:103BD000543000683E49096808603D480068001D8F
:103BE0003B4908604FF40010FFF742F80028EED17F
:103BF0004FF48070FFF73CF820B33748007838B1B5
:103C000035480078012803D033480078022819D1BC
:103C10000020334908600C20486040208860002064
:103C2000C8604FF4806000E013E008610846FFF7C9
:103C30006BF80C20FCF7F2FD8146B9F1000F01D0C2
:103C4000484611E7FCF71BFB40F2FF50FEF7E6FF8A
:103C50003BE024480078012837D100202349087030
:103C600001202349087000202249087019481030AB
:103C7000006840F22A31084316491031086015489F
:103C8000006840F008001349086006FB04F10022B8
:103C90000098FFF755F800E06D1E1748006800F027
:103CA000006008B9002DF7D10DB90420DCE600BF93
:103CB0001048007818B90D4800780028F8D00B4853
:103CC000007810B1094890F800904846CCE6000012
:103CD000100000202C2C014004000020B41700200C
:103CE000A01700200C000020FFFF7F000E00002026
:103CF0000D0000200F0000200064024010B50446B3
:103D00000948046007200849486040208860002076
:103D1000C8604FF4806008610846FEF7F5FF072091
:103D2000FCF77CFD10BD0000A0170020014600201C
:103D3000012900D011B9024B197000E0262070470C
:103D40000C0000202DE9FF5F86B017469846149DB1
:103D500000260020059004900024814603908246AE
:103D600002900195DDF818B0DDF818B0BBF1000F36
:103D700003D126200AB0BDE8F09F0020C9490860A1
:103D8000C94988604860401E0860012048610020E1
:103D9000C86008610846FEF751FFC248183800683D
:103DA00000F0007008B10E20E4E7C0480078022857
:103DB00005D10502780A40EAC8574FEA6828002D65
:103DC0001FDDB5F5006F1CDC681E2840C8B9284609
:103DD00002F05AFF0590B64805601020B4494860CB
:103DE000402088600020C8604FF480600861084669
:103DF000FEF78AFF1020FCF711FD06461EB1304683
:103E0000B8E72620B6E7AB4800880004A849086058
:103E10000D204860402088600020C8604FF480601A
:103E200008610846FEF770FF0D20FCF7F7FC064618
:103E30000EB130469EE79B481838006803904FF05B
:103E4000FF341CE0641E9B48008800049849086009
:103E50000D204860402088600020C8604FF48060DA
:103E600008610846FEF750FF0D20FCF7D7FC064618
:103E70000EB130467EE78B481838006803900398EF
:103E800000F4807008B9002CDCD10CB9292071E74E
:103E900087480760182086494860402088600020D5
:103EA000C8604FF4806008610846FEF72DFF1820B7
:103EB000FCF7B4FC06460EB130465BE700207E49B5
:103EC00008700598000178498860084645604FF001
:103ED000FF300860012048610020C8600861084682
:103EE000FEF7ACFE4FF0FF347448007800287ED116
:103EF000FCF7C3F945E04FF48040FEF7B9FED8B3B4
:103F00000198A0EB0900202822D20198A0EB09001B
:103F100000F0030020B90198A0EB0900800804E03C
:103F20000198A0EB09008008401C02904FF0000AA5
:103F30000AE05C495431DBF8000008600AF1010A2C
:103F40000BF1040B09F1040902988245F1D310E04A
:103F50004FF0000A06E05BF82A005249543108602D
:103F60000AF1010ABAF1080FF5D30BF1200B09F1A0
:103F700020096FF0404404E0FFE70CB90420F9E6A3
:103F8000641E48480830006840F21A610840002862
:103F9000B1D00820FEF76CFE20B10820FEF73EFEEF
:103FA0000420E7E60220FEF763FE20B10220FEF7C0
:103FB00035FE0220DEE61020FEF75AFE20B110206A
:103FC000FEF72CFE0520D5E64FF40070FEF750FEFC
:103FD00030B14FF40070FEF721FE0720CAE606E07C
:103FE000FCF74DF940F2FF50FEF718FE41E0334870
:103FF000007801283DD10020314908702E49087011
:104000003049087027481030006840F21A310843E0
:10401000244910310860402229460698FEF790FE98
:104020002048006840F008001E49086000E0641E57
:104030002548006800F0006008B9002CF7D11CB9D1
:10404000FFF77CF8042095E64FF0FF3400E0641E93
:104050001C48007820B91A48007808B9002CF6D11D
:104060000CB9042086E61648007810B11448007890
:1040700080E640F2FF50FEF7D1FD04A8FDF784FC76
:10408000064603E004A8FDF77FFC06463EB99DF80E
:1040900010000728F6D09DF810000628F2D0304610
:1040A00068E600002C2C0140B4170020040000201A
:1040B000A0170020080000200D0000200C000020A8
:1040C0000E0000200F000020006402402DE9FE4F8A
:1040D00081460C46924600200290002625462C463A
:1040E000700240EAD5566D0209F00300F0B14FF0BE
:1040F000000B18E04FF4007249461948FCF73AFAF1
:104100004FF4007000904FEA4B20471946EBE073E4
:104110003A461348FFF716FE029009F500790BF1B5
:10412000010000F0FF0BD345E4DB16E0BAF1010F0C
:1041300009D14FF400702A46334600904846FFF7F5
:1041400001FE029009E04FF400702A463346CDE9A3
:10415000000A484600F006F802900298BDE8FE8F7B
:10416000481800202DE9FF5F84B0DDE912470026E2
:10417000002003900290002580468146019007FBB5
:1041800004FBDDF810A0DDF810A0BAF1000F03D198
:10419000262008B0BDE8F09F0020DC490860DC491B
:1041A00088604860401E0860012048610020C860A7
:1041B00008610846FEF742FDD4481838006800F050
:1041C000007008B10E20E4E7D2480078022808D138
:1041D0000402DDE90601400A40EAC1504912CDE976
:1041E0000601002C1FDDB4F5006F1CDC601E2040B2
:1041F000C8B9204602F048FD0390C748046010206B
:10420000C5494860402088600020C8604FF4806045
:1042100008610846FEF778FD1020FCF7FFFA064615
:104220001EB13046B5E72620B3E7012F6FD907FB53
:1042300004F0B0F1007F01D32620AAE7B54800784A
:1042400038B1B4480078012803D0B2480078022879
:104250002DD1B24800880004AF490860372048607B
:10426000402088600020C8604FF4806008610846E4
:10427000FEF74AFD3720FCF7D1FA06460EB130466C
:1042800087E7A54807601720A34948604020886059
:104290000020C8604FF4806008610846FEF734FDD6
:1042A0001720FCF7BBFA06460EB1304671E79A4973
:1042B0000698086019204860402088600020C86087
:1042C0004FF4806008610846FEF71EFD1920FCF7D8
:1042D000A5FA06460EB130465BE7039800018C490B
:1042E000886007FB04F048604FF0FF300860012051
:1042F00048610020C86008610846FEF79FFC8848B6
:104300000078002874D1451EFBF7B7FF42E0E4E0D7
:104310004FF48040FEF7ACFCB8B3ABEB08002028AC
:104320001FD2ABEB080000F0030018B9ABEB08009C
:10433000800803E0ABEB08008008401C01904FF0C0
:1043400000090AE071495431DAF80000086009F107
:1043500001090AF1040A08F1040801988145F1D322
:1043600010E04FF0000906E05AF82900674954317F
:10437000086009F10109B9F1080FF5D30AF1200A23
:1043800008F120086FF0404504E0FFE70DB9042074
:10439000FFE66D1E5D480830006840F21A310840A3
:1043A0000028B5D00820FEF763FC20B10820FEF7F6
:1043B00035FC0420EDE60220FEF75AFC20B1022075
:1043C000FEF72CFC0220E4E61020FEF751FC20B1A1
:1043D0001020FEF723FC0520DBE64FF40070FEF70B
:1043E00047FC30B14FF40070FEF718FC0720D0E610
:1043F0002CE04FF48070FEF73BFC00B3454800789A
:1044000038B144480078012803D042480078022897
:1044100015D10020404908600C2048604020886089
:104420000020C8604FF4806008610846FEF76CFC0D
:104430000C20FCF7F3F906460EB13046A9E6FBF76F
:104440001EFF40F2FF50FEF7E9FB46E034480078DB
:10445000012842D1002033490870012032490870F8
:1044600000203249087029481030006840F21A31A3
:10447000084326491031086007FB04F140220498E4
:10448000FEF75EFC2148006840F008001F49086004
:104490004FF0FF3500E06D1E2548006800F0006019
:1044A00008B9002DF7D11DB9FEF748FE042070E6CB
:1044B0004FF0FF3500E06D1E1C48007820B9194808
:1044C000007808B9002DF6D10DB9042061E6154831
:1044D000007810B1134800785BE640F2FF50FEF719
:1044E0009DFB02A8FDF750FA064603E002A8FDF77F
:1044F0004BFA06463EB99DF808000728F6D09DF80D
:1045000008000628F2D0304643E600002C2C01407B
:10451000B417002004000020A0170020080000208D
:104520000C0000200E0000200D0000200F000020D5
:104530000064024000B587B001210220FDF748FE6B
:1045400001210803FDF764FE3820059002208DF854
:10455000180000208DF81A0003208DF819000120A2
:104560008DF81B0005A92248FDF7BAF805220321A2
:104570001F48FDF7FDF8052204211D48FDF7F8F856
:10458000052211461A48FDF7F3F801210803FDF74B
:104590004FFE00214FF48050FDF74AFE0020ADF899
:1045A00000004FF48270ADF802000020ADF8040066
:1045B0000220ADF806000120ADF808004002ADF879
:1045C0000A003820ADF80C000020ADF80E000720DE
:1045D000ADF810006946074800F058F80121054879
:1045E00000F03AF8FF2000F007F807B000BD000027
:1045F000000402400030014010B5044600BF022113
:104600000A4800F035F80028F9D02146074800F0A4
:104610003BF800BF0121054800F02AF80028F9D036
:10462000024800F02EF8C0B210BD0000003001407A
:1046300010B50446074800884FF6C7710840054981
:10464000088008460088204308800121014800F0C6
:1046500003F810BD0030014021B1028842F0400251
:10466000028004E002884FF6BF731A400280704750
:104670000246002013890B400BB1012000E000200E
:1046800070470146888970478181704710B50022C4
:10469000028802F441520B884C8823438C882343C0
:1046A000CC8823430C8923434C8923438C8923439F
:1046B000CC8923431A430280838B4FF2FF7423403B
:1046C00083830B8A038210BD70B50446002508253C
:1046D0001BE004F0800028B14FF400410C48FDF7C6
:1046E0006CF804E04FF400410948FDF764F84FF41A
:1046F00000510748FDF75FF84FF400510448FDF7FB
:104700005CF86006040E681EC5B2002DE1DC70BDC9
:10471000000402402DE9F04180460C461546B8F1F0
:10472000010F0DD14FF40070286009484FF400725A
:104730000023D0E912613046FBF73CFE206004E024
:104740004FF400702860C00020600020BDE8F081B8
:10475000F01700200120704710B50446FEF7EEFC6C
:1047600002F03AF9002010BD01460448007840F0FC
:104770001000024A10700020704700002401002041
:1047800001460020704700002DE9F04106460F4623
:1047900015461C464FF000081148007840F0020012
:1047A0000F490870012E10D1E2B229463846FFF7B2
:1047B000DFF84FFA80F8B8F1000F0ED00848007803
:1047C00040F008000649087007E04FF6FF7000EA65
:1047D00044226902384602F02FF94046BDE8F081D4
:1047E000240100202DE9F04106460F4615461C46DF
:1047F0004FF000081148007840F001000F490870A0
:10480000012E10D1E2B229463846FFF75FFC4FFA7D
:1048100080F8B8F1000F0ED00848007840F004008E
:104820000649087007E04FF6FF7000EA442269026B
:10483000384602F06DF94046BDE8F08124010020C1
:10484000704700000CB500200190009034480068CB
:1048500040F480303249086000BF3148006800F4FD
:10486000003000900198401C0190009818B9019800
:10487000B0F5A04FF1D12A48006800F4003010B123
:104880000120009001E0002000900098012846D10E
:1048900023484030006840F0805021494031086092
:1048A0002048006840F440401E4908601C48083019
:1048B00000681B49083108600846006840F4004061
:1048C00008600846006840F4A05008601648091FB8
:1048D0000860081F006840F08070091F086000BF72
:1048E0000F48006800F000700028F9D040F2057011
:1048F0000E4908600A480830006820F003000849A3
:10490000083108600846006840F00200086000BFF7
:1049100003480830006800F00C000828F8D10CBDEE
:10492000003802400070004008544007003C02403C
:10493000042808D14FF0E021096941F004014FF04B
:10494000E022116107E04FF0E021096921F0040144
:104950004FF0E022116170477047000010B5154814
:10496000006840F47000134908601348006840F084
:1049700001001149086000200F49083108600E4805
:1049800000680E4908400C4908600D48091D086080
:10499000081F006820F48020091F086000200649D5
:1049A0000C310860FFF74EFF4FF00060014980397D
:1049B000086010BD88ED00E000380240FFFFF6FE01
:1049C0001030002410B540F225511D4800F04AF87F
:1049D00010B31B4800F000F9C4B21A48008800F474
:1049E0000040C8B91748008800F4804060B10A2C24
:1049F00003D000201349088020E01248008840F4CA
:104A000000401049088019E00D2C06D10D4800889F
:104A100040F480400B49088010E00A480088C0F349
:104A20000D0009490C5407480088401C05490880BE
:104A300008460088C72801DD0020088010BD00005E
:104A4000001001401C000020561A002021B182896C
:104A500042F40052828104E082894DF6FF731A40CD
:104A60008281704770B50246002400230025002093
:104A700040F66A16B14200D100BFC1F3421501F001
:104A80001F03012606FA03F3012D02D19689334054
:104A900006E0022D02D1168A334001E0968A3340A7
:104AA0000C12012606FA04F41688344013B10CB136
:104AB000012000E0002070BDF0B503460024002670
:104AC0000025002040F66A17B94200D100BF184601
:104AD000C1F3421401F01F06012707FA06F5012C65
:104AE00001D10C3004E0022C01D1103000E0143070
:104AF0001AB107682F43076002E00768AF430760F9
:104B0000F0BD00002DE9FF4705460E460024A146F2
:104B100000BFA046B08900B100BF2C8A24F44054E5
:104B2000F08804432C82AC8941F20C608443B08845
:104B300031890843718908430443AC81AC8A24F469
:104B40004074B0890443AC826846FDF781FB20487D
:104B5000854202D01F48854202D1DDF80C9001E069
:104B6000DDF80890A88900F4004040B109EBC900C5
:104B700000EB091031684900B0FBF1F707E009EBE1
:104B8000C90000EB091031688900B0FBF1F764201F
:104B9000B7FBF0F004012009642101FB1078A8891B
:104BA00000F4004040B1322000EBC800B0FBF1F04F
:104BB00000F00700044308E0322000EB08106421F5
:104BC000B0FBF1F000F00F0004432C81BDE8FF873B
:104BD000001001400014014001468888C0F308001D
:104BE000704770B504460D46D4F8E405294642687E
:104BF00020469047002070BD70B504460D464FF426
:104C00008970005D022802D0032812D100E000BFA5
:104C1000688801280CD100214FF48C700151D4F820
:104C2000E4052946826820469047204600F05EF859
:104C300004E02946204600F021F800BF00BF70BD07
:104C40002DE9F04106460C46154600272B46224624
:104C500000213046FBF759FF3846BDE8F0812DE9C9
:104C6000F04106460C46154600272B4622460021F9
:104C70003046FBF7A5FF3846BDE8F08170B5044625
:104C80000D4680212046FBF777FF00212046FBF7E9
:104C900073FF204601F08BFA70BD70B50446002505
:104CA000052140F21110015500231A4619462046ED
:104CB000FBF72BFF204601F07AFA284670BD2DE95C
:104CC000F04104460E4615460027C4F83C51C4F88E
:104CD0003851022140F2111001552B463246002175
:104CE0002046FBF76DFF3846BDE8F08170B50446FD
:104CF0000025042140F21110015500231A461946DF
:104D00002046FBF75DFF204601F051FA284670BDB2
:104D100070B505460E46002E51D105F58E7440F251
:104D20001110405D02283DD1A168E069884211D987
:104D3000A168E069401AE061E878012803D1D4E96C
:104D400002100844E060A08B82B22846E168FFF7B9
:104D500086FF27E0A168206AB0FBF1F201FB120098
:104D600078B9A168206A88420BD3D4E90801884247
:104D700007D2002211462846FFF771FF002060622B
:104D800010E0D5F8E405C06848B14FF48970405D83
:104D9000032804D1D5F8E405C16828468847284689
:104DA000FFF77BFF4FF48B70405D012816D128463A
:104DB00000F046FB00214FF48B7041550EE0D5F812
:104DC000E405406950B14FF48970405D032805D176
:104DD000D5F8E4053146426928469047002070BD69
:104DE00070B505460E46A6BB05F55D7440F2111080
:104DF000405D03283DD1A168E069884217D9A168C8
:104E0000E069401AE061E878012803D1D4E9021092
:104E10000844E060A368E069984201D2E06900E0DC
:104E2000A06882B22846E168FFF70AFF21E0D5F8C2
:104E3000E405006948B14FF48970405D032804D14E
:104E4000D5F8E4050169284688472846FFF74EFF54
:104E50000FE0FFE7D5F8E405806950B14FF48970A1
:104E6000405D032805D1D5F8E4053146826928461E
:104E70009047002070BD01460020704770B5044681
:104E80000D46E888012804D029462046FFF7F6FEA3
:104E90001AE04FF48970005D022802D003280DD17A
:104EA00005E0012209492046FFF709FF0BE0012236
:104EB00004F588712046FFF702FF04E029462046EA
:104EC000FFF7DCFE00BF00BF70BD000068000020DF
:104ED000F8B504460E467088001208286CD2DFE848
:104EE00000F06B0416226B6B6166A078D4F8EC15A9
:104EF0000A68694690470546F088402804D04FF478
:104F00008970005D012801D10820009059E0A07847
:104F1000D4F8E4158A6A694690470546022169700B
:104F2000C4F8F0554DE0B078062834D2DFE800F040
:104F3000030B131B232BA078D4F8EC154A686946A1
:104F4000904705462CE0A078D4F8EC158A686946AD
:104F50009047054624E0A078D4F8EC15CA68694665
:104F6000904705461CE0A078D4F8EC150A6969461C
:104F70009047054614E0A078D4F8EC154A696946D4
:104F8000904705460CE0A078D4F8EC158A6969468C
:104F90009047054604E031462046FFF76FFEF8BD16
:104FA00000BF0EE031462046FFF768FEF7E73146C6
:104FB0002046FFF763FEF2E731462046FFF75EFE2C
:104FC000EDE700BFBDF8000088B1F08878B1F08847
:104FD000BDF80010884202DDBDF8000000E0F08856
:104FE0000090BDF8002029462046FFF768FE00BF6C
:104FF000D5E70146002002E0421CD0B2491C0A78E5
:10500000002AF9D17047024601EB810302F55D7079
:1050100000EBC300008B80B27047000070B50446FF
:105020000D464FF48970005D022802D0032813D189
:1050300000E000BF01200C4908604FF48C7000595B
:1050400020B10846006840F00200086002220649CC
:105050002046FFF734FE04E029462046FFF70EFE07
:1050600000BF00BF70BD00006C0000202DE9F041C2
:1050700004460D4617460026FCB12046FFF7B9FF4F
:10508000022101EB400038803A783046711CCEB2E4
:105090002A5403223046711CCEB22A540AE014F876
:1050A000012B3046711CCEB22A5400223046711CAE
:1050B000CEB22A5420780028F1D1BDE8F0812DE944
:1050C000F04104460F4615461E46DDF8188020467E
:1050D00000F076FD2046FFF7CEFEC4F8E465C4F884
:1050E000E885C4F8EC5539462046FCF75DF8D4F85D
:1050F000E81508688047204600F050FDBDE8F081C3
:1051000010B50446D4F8E405016A2046884700201B
:1051100010BD10B50446D4F8E405416A204688471E
:10512000002010BD70B504460D4629462046FCF708
:105130002DFF002070BD70B504460D46294620465F
:10514000FCF74CFF002070BD70B504460D46812170
:105150002046FBF74BFC01212046FBF747FC20468D
:10516000FCF75EFF002070BD024620200880014849
:1051700070470000A400002070B504460D46294683
:105180002046FFF7E1FF0223402281212046FBF762
:1051900088FC0223402201212046FBF782FC2046A6
:1051A000FCF744FF002070BD70B505460C46207822
:1051B00000F06000002849D020287BD16078FE28CC
:1051C00002D0FF283AD125E06088E0B9E0880128C4
:1051D00019D1207800F08000802814D1374909685F
:1051E000886980473649087008460078002804DD41
:1051F00001222846FFF763FD0BE021462846FFF712
:105200003DFD022070BD21462846FFF737FD0220F4
:10521000F8E719E0608850B9E08840B9207800F0DC
:105220008000802803D02846FCF724FF05E02146B3
:105230002846FFF723FD0220E4E705E02146284643
:10524000FFF71CFD0220DDE700BF34E06078012895
:105250000ED00A2802D00B2829D105E001221949D5
:105260002846FFF72CFD22E0A078164908701EE0C2
:1052700021792846FBF703FC21792846FBF7B6FB8A
:10528000207900F08000802806D121790223402275
:105290002846FBF706FC05E0217902234022284638
:1052A000FBF7FFFB21792846FCF752FE00BF00BF49
:1052B00001E0FFE700BF00BF0020A3E74801002096
:1052C000C4000020C50000207CB505460024284607
:1052D00001F062FA002865D0284601F068FA0190D2
:1052E000019808B900207CBD0198C0F3C04018B1F6
:1052F0002846FBF761FD04430198C0F3804018B1D4
:105300002846FBF7B7FC04430198C0F3400050B1B6
:1053100000200090009820F00200801C009000986F
:10532000E968486100BF0198C00F18B12846FBF733
:10533000C3FD04430198C0F3C02018B12846FBF711
:105340005DFE04430198C0F3C00018B12846FBF786
:105350003FFE04430198C0F3001018B12846FBF744
:10536000DFFD04430198C0F3003018B12846FBF775
:1053700099FE04430198C0F3403018B12846FBF76A
:1053800046FC04430198C0F3005018B12846FBF7CF
:1053900059FF04430198C0F3405018B12846FBF769
:1053A00067FF044320469EE790F8CC250A7090F8EA
:1053B000CD254A7090F8CE3590F8CF2503EB022228
:1053C0004A8090F8D03590F8D12503EB02228A80EC
:1053D00090F8D23590F8D32503EB0222CA80CB880F
:1053E0004FF4A0721350012340F21112135470476E
:1053F00010B504460023402219462046FBF751FB16
:105400000023402280212046FBF74BFB01214FF473
:1054100089700155A078D4F8E825516888470020A4
:1054200010BD10B50446D4F8E8150869804740F26D
:105430001310015D401E015503210155002010BDD0
:105440000146034802680869426000207047000076
:105450003000002010B50446D4F8E405C06920B13E
:10546000D4F8E405C16920468847002010BD70B516
:1054700004460D46A88818BBE88808BBA87800F049
:105480007F064FF48970005D032804D12946204629
:10549000FFF7F4FB18E04FF48A70065531462046BA
:1054A000FBF75CFB2046FFF721FC26B102214FF4FD
:1054B0008970015508E001214FF48970015503E01E
:1054C00029462046FFF7DAFB70BD70B504460D464D
:1054D000D4F8E4052946026820469047D4F8E81538
:1054E00088688047002070BD70B504460D46A878D6
:1054F0003049087008460078012804DD2946204616
:10550000FFF7BCFB55E04FF48970005D022802D024
:10551000032848D117E02748007880B12548007853
:1055200084F8100103214FF4897001552148017856
:105530002046FFF7CAFF2046FFF7D8FB02E02046CF
:10554000FFF7D4FB34E01B48007880B902214FF408
:10555000897001551748007884F8100115480178C2
:105560002046FFF73EFB2046FFF7C0FB1AE094F809
:10557000100110490978884211D094F81011204682
:10558000FFF72FFB0B48007884F8100109480178D9
:105590002046FFF79AFF2046FFF7A8FB02E02046CF
:1055A000FFF7A4FB04E029462046FFF767FB00BF96
:1055B00000BF70BD70000020F8B504460D460026FF
:1055C000688801280DD101214FF48C700151D4F865
:1055D000E40529468268204690472046FFF786FB6F
:1055E00039E06888022836D12879A0BB2069406854
:1055F0000090A8880612062E22D2DFE806F02103CA
:10560000090F151B009820F070001030009017E073
:10561000009820F070002030009011E0009820F0F9
:105620007000303000900BE0009820F070004030A7
:10563000009005E0009820F070005030009000BF0E
:1056400000BF05480099016001214FF48B7001559E
:105650002046FFF74BFBF8BD300000201CB5044688
:1056600069462046FFF7A0FE9DF8000000F01F00ED
:1056700020B1012807D002280FD109E06946204651
:1056800000F016F811E06946204600F0F9F80CE049
:105690006946204600F046F807E09DF8000000F05B
:1056A00080012046FBF768FA00BF00BF00201CBD48
:1056B00070B505460C46002660780A2829D2DFE836
:1056C00000F01923281E280A0528140F2146284611
:1056D000FFF7FEFB22E021462846FFF7C8FE1DE04B
:1056E00021462846FFF700FF18E021462846FFF72D
:1056F000C5FB13E021462846FFF790FC0EE021464B
:105700002846FFF759FF09E021462846FFF774FABB
:1057100004E021462846FFF7B1FA00BF00BF30463B
:1057200070BD00002DE9F04105460E460027347992
:105730007078002857D001282BD0032875D14FF45A
:105740008970405D022802D003281BD107E02CB1EC
:10575000802C03D021462846FBF70EFA17E070880C
:1057600030B92CB1802C03D021462846FBF704FA2F
:10577000D5F8E40531468268284690472846FFF769
:10578000B5FA04E031462846FFF778FA00BF00BFBB
:1057900070E04FF48970405D022802D003281BD1CD
:1057A00007E02CB1802C03D021462846FBF7E4F912
:1057B00017E0708878B95CB1802C09D02146284662
:1057C000FBF739F9D5F8E405314682682846904759
:1057D0002846FFF78BFA04E031462846FFF74EFAD9
:1057E00000BF00BF46E04FF48970405D022802D040
:1057F000032837D107E02CB1802C03D0214628465E
:10580000FBF7BAF933E004F08000802812D104F0ED
:105810007F0000EB800105F58E7000EBC100807801
:1058200020B101201549086016E022E0002013494C
:10583000086011E004F0800070B904EB840105F504
:105840005D7000EBC100807818B101200B49086041
:1058500002E0002009490860022208492846FFF7B3
:105860002EFA04E031462846FFF708FA00BF00BFD1
:1058700000E000BF00BF3846BDE8F08164000020B2
:1058800070B504460D4600264FF48970005D03286C
:1058900014D1287901280CDCD4F8E4052946826863
:1058A00020469047E88840B93EB92046FFF71EFAE7
:1058B00003E029462046FFF7E1F904E029462046A7
:1058C000FFF7DCF900BF00BF304670BD10B50446DD
:1058D0004FF48970015D401C01550421401E0155A3
:1058E000D4F8E815C8688047002010BD70B505469B
:1058F0000C462DB92246064906A0FFF7B7FB04E087
:105900002246034903A0FFF7B1FB014870BD000028
:105910001E1B00204D534320436F6E6669670000D5
:1059200010B502A0FAF76AFD10BD00004D534320E8
:10593000496E746572666163652073746172746523
:10594000642E0D0A0000000010B501200249087005
:1059500002A0FAF753FD10BD4C0100205553422020
:1059600044657669636520436F6E6E656374656434
:105970002E0D0A00024612200880014870470000E0
:105980000401002010B500200249087002A0FAF7B7
:1059900035FD10BD4C010020555342204465766909
:1059A000636520446973636F6E6E65637465642E0E
:1059B0000D0A000010B5044614B1012C08D103E013
:1059C00006A0FAF71BFD07E00DA0FAF717FD03E0AC
:1059D00014A0FAF713FD00BF00BF10BD55534220BD
:1059E000446576696365204C6962726172792076DC
:1059F000312E312E3020205B48535D0D0A0000000F
:105A000055534220446576696365204C6962726132
:105A100072792076312E312E3020205B46535D0D79
:105A20000A00000055534220446576696365204CA6
:105A30006962726172792076312E312E3020205BBE
:105A40003F3F5D0D0A00000010B502A0FAF7D6FC3A
:105A500010BD000044657669636520526573756DFD
:105A600065640D0A0000000010B502A0FAF7C6FC3C
:105A700010BD000044657669636520496E2073752A
:105A80007370656E64206D6F64652E0D0A000000F2
:105A90007047000070B505460C462DB922460649F0
:105AA00006A0FFF7E3FA04E02246034903A0FFF74C
:105AB000DDFA014870BD00001E1B00204D5343203D
:105AC000496E7465726661636500000002460420D9
:105AD00008800148704700002001002070B505468D
