:020000040800F2
:10000000580700203D020008B5060008AD060008AC
:10001000B1060008D1050008971000080000000094
:10002000000000000000000000000000910800082F
:10003000D50500080000000045070008A9090008D0
:10004000570200085702000857020008570200082C
:10005000570200085702000857020008570200081C
:10006000570200085702000857020008570200080C
:1000700057020008570200085702000857020008FC
:1000800057020008570200085702000857020008EC
:1000900057020008570200085702000857020008DC
:1000A00057020008570200085702000857020008CC
:1000B00057020008570200085702000857020008BC
:1000C00057020008570200085702000857020008AC
:1000D00057020008790E000857020008570200086E
:1000E000570200085702000857020008570200088C
:1000F000570200085702000857020008570200087C
:100100005702000857020008F10B000857020008C8
:10011000570200085702000857020008570200085B
:10012000570200085702000857020008570200084B
:10013000570200085702000857020008570200083B
:10014000570200085702000857020008570200082B
:10015000570200085702000857020008570200081B
:10016000570200085702000857020008570200080B
:1001700057020008570200085702000857020008FB
:10018000570200085702000800F002F800F046F895
:100190000AA090E8000C82448344AAF10107DA45E2
:1001A00001D100F03BF8AFF2090EBAE80F0013F0EE
:1001B000010F18BFFB1A43F0010318472811000074
:1001C00048110000103A24BF78C878C1FAD8520705
:1001D00024BF30C830C144BF04680C6070470000C1
:1001E0000023002400250026103A28BF78C1FBD840
:1001F000520728BF30C148BF0B60704703681B0A15
:1002000028BF41F08001E42900F0468000207047BB
:100210001FB501F061F81FBD10B510BD00F0A6F9C3
:100220001146FFF7F5FF00F0A9FF00F0C4F903B491
:10023000FFF7F2FF03BC00F030FF000009488047E1
:1002400009480047FEE7FEE7FEE7FEE7FEE7FEE7B8
:10025000FEE7FEE7FEE7FEE704480549054A064BD0
:1002600070470000AD09000889010008580100200E
:100270005807002058030020580300207047000052
:100280000FB4044910B503AA029800F041F910BC5C
:100290005DF814FB0C0000202DE9F0418046D21DD2
:1002A00022F007020025D2E90002F52915A614D094
:1002B000011E72F1000106DA0023D0EB030063EBAC
:1002C000020211A608E0D8F800108B0701D50FA68E
:1002D00002E0490701D50EA601251146002408F1C8
:1002E000240704E000F076F830323A55641C50EAF6
:1002F0000102F7D12B46324621464046BDE8F04187
:1003000000F0ADB8000000002D0000002B00000040
:10031000200000002DE9F0410F460546002028622C
:100320002846E968884770B3252805D0D5E901211A
:100330009047286A401CF2E7E9682846002688476B
:100340006C2804460AD0682C08D04C2C35D06A2C76
:1003500031D0742C31D07A2C2FD016E0E9680646C3
:1003600028468847B042044608D16C2E23D04FF46B
:1003700080662846E9688847044606E06C2E03D06C
:100380004FF4807601E01EE04026E4B1A4F1410084
:10039000192802D8203446F400663A4621462846F9
:1003A0002E60FFF72BFF60B1012808D0FF1D27F05A
:1003B00007070837B4E78026DBE70026D9E73F1DAB
:1003C000AEE72046B2E7286ABDE8F0817047704783
:1003D0007047704730B5B0F10A024FEA900E71F1E4
:1003E00000034EEA817EB0EB0E0061EB91014FEA13
:1003F000101E4EEA017E10EB0E0041EB11114FEA88
:10040000102E4EEA016E10EB0E0041EB11214FEA67
:10041000104E4EEA014E10EB0E0041EB1141401818
:1004200041F100014FEAD00040EA41704FEAD101AA
:1004300010EB80054FEA810444EA907444EB010418
:100440006D1944EB0404521BA3414FF0000348BF55
:100450000A3200D530BD401C41F1000130BD2DE90C
:10046000F0470D4699469246044600F1240801687B
:10047000880604D5E06921F01001216000E0012028
:10048000A84201DD471B00E00027A1697A1902EBB1
:100490000900081AA0612078C00602D42046AFF3F4
:1004A0000080002608E0D4E901211AF806009047F0
:1004B000206A401C761C20624E45F4DB2078C00682
:1004C0000AD52046AFF3008006E0D4E901213020B0
:1004D0009047206A401C2062381EA7F10107F4DC17
:1004E00007E0D4E9012118F805009047206A401C74
:1004F0002062281EA5F10105F3DC2046AFF3008041
:100500002078000602D50220BDE8F0870120FBE735
:10051000074B70B50D467B4400F011F804462846A1
:1005200000F020F810B14FF0FF3070BD204670BDD4
:10053000470C000001694A1C02610878704700B549
:100540008FB0CDE901310021059105497944CDE90C
:10055000031011466846FFF7DDFE0FB000BD000036
:10056000E5FFFFFF007B00F080007047754600F05C
:100570002BF8AE4605006946534620F00700854635
:1005800018B020B5FFF768FEBDE820404FF0000628
:100590004FF000074FF000084FF0000B21F007016B
:1005A000AC46ACE8C009ACE8C009ACE8C009ACE8AE
:1005B000C0098D46704710B50446AFF30080204651
:1005C000BDE81040FFF733BE00487047F800002038
:1005D00000BFFEE77047F0B50A4600210023002463
:1005E00000BF3DE0012505FA01F3156805EA0304A3
:1005F0009C4234D105684F000326BE40B5430560D8
:1006000015794E00B5400668354305601579012D12
:1006100002D01579022D16D185684F000326BE4001
:10062000B543856055794E00B54086683543856091
:10063000456801268E40B5434560456896798E40F1
:10064000B6B235434560C5684F000326BE40B5438A
:10065000C560D5794E00B540C6683543C560491CB4
:100660001029BFD3F0BDF0B5002300244D07ED0ED7
:1006700002FA05F3CE1000F1200555F826504E077A
:10068000F70E0F26BE40B543CF1000F1200646F806
:100690002750CE1000F1200555F8265045EA0304F6
:1006A000CE1000F1200545F82640F0BD00BFFEE762
:1006B00000BFFEE77047000070B5002100230F2245
:1006C000C4781CB3174C246804F4E064C4F5E064F7
:1006D000C4F30721C1F10404E3B20A4144789C4009
:1006E000E1B28478144021430C07210E0E4C0578AA
:1006F0006155047804F01F050124AC4005786D11A4
:10070000AD0005F1E025C5F8004109E0047804F0EA
:100710001F050124AC40054D0678761145F82640AA
:1007200070BD00000CED00E000E400E080E100E0BE
:1007300002490143024A1160704700000000FA05B7
:100740000CED00E07047000029B1064A1268024330
:10075000044B1A6004E0034A12688243014B1A609A
:10076000704700003038024029B1064A126802433F
:10077000044B1A6004E0034A12688243014B1A607A
:10078000704700004038024029B1064A126802430F
:10079000044B1A6004E0034A12688243014B1A605A
:1007A0007047000044380240F0B5002100220024C8
:1007B000022500260223324F3F6807F00C0121B1C9
:1007C000042905D0082937D105E02E4F076036E00F
:1007D0002D4F076033E02A4F3F1F3F68C7F3805615
:1007E000274F3F1F3F6807F03F036EB1264FB7FB0F
:1007F000F3F7DFF88CC0ACF1040CDCF800C0CCF3EC
:10080000881C07FB0CF40CE01E4FB7FBF3F7DFF876
:1008100070C0ACF1040CDCF800C0CCF3881C07FB02
:100820000CF4174F3F1F3F68C7F301477F1C7D0043
:10083000B4FBF5F7076002E0124F076000BF00BF8E
:100840000F4F3F6807F0F0010909104F7A5C076805
:10085000D74047600A4F3F6807F4E051890A0B4FC1
:100860007A5C4768D7408760054F3F6807F460416E
:10087000490B064F7A5C4768D740C760F0BD00005F
:10088000083802400024F40000127A001200002010
:10089000704700000CB500200190009034480068BB
:1008A00040F480303249086000BF3148006800F4ED
:1008B000003000900198401C0190009818B90198F0
:1008C000B0F5A04FF1D12A48006800F4003010B113
:1008D0000120009001E0002000900098012846D1FE
:1008E00023484030006840F0805021494031086082
:1008F0002048006840F440401E4908601C48083009
:1009000000681B49083108600846006840F4004050
:1009100008600846006840F4A05008601648091FA7
:100920000860081F006840F08070091F086000BF61
:100930000F48006800F000700028F9D040F2057000
:100940000E4908600A480830006820F00300084992
:10095000083108600846006840F00200086000BFE7
:1009600003480830006800F00C000828F8D10CBDDE
:10097000003802400070004008544007003C02402C
:10098000042808D14FF0E021096941F004014FF03B
:10099000E022116107E04FF0E021096921F0040134
:1009A0004FF0E022116170477047000010B5154804
:1009B000006840F47000134908601348006840F074
:1009C00001001149086000200F49083108600E48F5
:1009D00000680E4908400C4908600D48091D086070
:1009E000081F006820F48020091F086000200649C5
:1009F0000C310860FFF74EFF4FF00060014980396D
:100A0000086010BD88ED00E000380240FFFFF6FEF0
:100A100010300024F0B50C46154600210022068C4B
:100A20004FF6FE773E400684018B028C4FF60C7623
:100A300031407E1C06EA03162E4331434FF6F5760D
:100A4000324044F00106324301830284F0BDF0B528
:100A50000C461546002100220026078C4FF6EF7C3D
:100A600007EA0C070784018B028C4FF6FF7707EA31
:100A7000041640F6FF4739404FF6FF7707EA033781
:100A800039434FF6FF7707EA052739434FF65F777B
:100A90003A4046F010073A4301830284F0BDF0B5B6
:100AA0000C461546002100220026078C4FF6FF6CED
:100AB00007EA0C070784818B028C4FF6FF7707EA61
:100AC00004264FF60C7739404FF6FF7707EA0317F5
:100AD0002F4339434FF2FF573A4046F480773A4369
:100AE00081830284F0BDF0B50C461546002100223A
:100AF0000026078C4EF6FF7C07EA0C070784818BE3
:100B0000028C4FF6FF7707EA043640F6FF4739407C
:100B10004FF6FF7707EA052739434FF6FF7707EAD5
:100B20000337394345F6FF773A4046F480573A4356
:100B300081830284F0BD000030B587B004460D46C5
:100B400001210820FFF710FE01210846FFF7FCFDF8
:100B50000120059002208DF8180003208DF819005F
:100B600000208DF81A0002208DF81B0005A91D48F1
:100B7000FFF731FD022200211A48FFF774FDADF89E
:100B800008500020ADF80A000394ADF8100002A947
:100B9000154800F02FF900201449088048800120F2
:100BA00088800020C88008810F4800F0ACF801223E
:100BB00003210D4800F0DEF801210B4800F083F816
:100BC00032208DF8040002208DF8050000208DF8F9
:100BD000060001208DF8070001A8FFF76DFD07B0A2
:100BE00030BD000000000240000C00402400002046
:100BF00010B53048007800F08000002854D1012161
:100C00002D4800F06FF8D0B12A48007800F040007D
:100C1000A8B12848007800F03F003F280AD12548B5
:100C2000007840F08000234908704FF0FF302349DE
:100C3000086004E01F480078401C1E49087002212B
:100C40001D4800F04FF878B31A48007800F04000D3
:100C500078B11848007840F08000164908701648AE
:100C600000F03DF8154908600021134800F08BF8AA
:100C70001AE000200F490870104908600D480078FC
:100C800040F040000B49087000210B4800F01BF8B1
:100C90000021094800F080F80221074800F073F8AD
:100CA0000121054800F00FF80321034800F008F87F
:100CB00010BD000000000020000C004004000020D7
:100CC000CA430282704721B1028842F001020280C9
:100CD00004E002884FF6FE731A4002807047014616
:100CE000486B704730B50246002000230024158A67
:100CF00005EA0103958905EA010413B10CB101204D
:100D000000E0002030BD70B505460C46208850B983
:100D10002389A28861882846FFF77CFEE18828465F
:100D200000F03CF825E0208804280AD12389A28815
:100D300061882846FFF78BFEE188284600F037F8E7
:100D400017E0208808280AD12389A28861882846CC
:100D5000FFF7A5FEE188284600F036F809E0238970
:100D6000A28861882846FFF7BEFEE188284600F089
:100D700034F870BD1AB183890B43838102E0838903
:100D80008B43838170470A460021018C4FF6FD7327
:100D9000194011430184704741627047028B4FF63E
:100DA000F3731A400283028B0A4302837047028B5B
:100DB0004FF2FF331A400283028B4FF6FF7303EAB0
:100DC00001231A4302837047828B4FF6F3731A4054
:100DD0008283828B0A4382837047828B4FF2FF3378
:100DE0001A408283828B4FF6FF7303EA01231A4372
:100DF0008283704700220288184B98420ED0184B0D
:100E000098420BD0B0F1804F08D0164B984205D0D5
:100E1000154B984202D0154B984204D14FF68F7370
:100E20001A404B881A43124B984207D0114B9842F4
:100E300004D04FF6FF431A400B891A4302804B68D7
:100E4000C3620B880385054B984202D0044B98423D
:100E500001D18B7A03860123838270470000014011
:100E6000000401400004004000080040000C004065
:100E7000001000400014004010B540F225511D48FC
:100E800000F04AF810B31B4800F000F9C4B21A4849
:100E9000008800F40040C8B91748008800F480407A
:100EA00060B10A2C03D000201349088020E01248CA
:100EB000008840F400401049088019E00D2C06D14C
:100EC0000D48008840F480400B49088010E00A4833
:100ED0000088C0F30D0009490C5407480088401CE5
:100EE0000549088008460088C72801DD00200880E1
:100EF00010BD000000100140100000202E00002056
:100F000021B1828942F40052828104E082894DF647
:100F1000FF731A408281704770B502460024002397
:100F20000025002040F66A16B14200D100BFC1F38F
:100F3000421501F01F03012606FA03F3012D02D129
:100F40009689334006E0022D02D1168A334001E033
:100F5000968A33400C12012606FA04F416883440AF
:100F600013B10CB1012000E0002070BDF0B50346C4
:100F7000002400260025002040F66A17B94200D15F
:100F800000BF1846C1F3421401F01F06012707FAFB
:100F900006F5012C01D10C3004E0022C01D11030F7
:100FA00000E014301AB107682F43076002E00768B9
:100FB000AF430760F0BD00002DE9FF4705460E4630
:100FC0000024A14600BFA046B08900B100BF2C8A12
:100FD00024F44054F08804432C82AC8941F20C6024
:100FE0008443B08831890843718908430443AC8144
:100FF000AC8A24F44074B0890443AC826846FFF79D
:10100000D3FB2048854202D01F48854202D1DDF83B
:101010000C9001E0DDF80890A88900F4004040B190
:1010200009EBC90000EB091031684900B0FBF1F78A
:1010300007E009EBC90000EB091031688900B0FB3B
:10104000F1F76420B7FBF0F004012009642101FBF3
:101050001078A88900F4004040B1322000EBC800AD
:10106000B0FBF1F000F00700044308E0322000EB91
:1010700008106421B0FBF1F000F00F0004432C8154
:10108000BDE8FF8700100140001401400146888838
:10109000C0F30800704700BFFEE700BF70470000C4
:1010A00010B504466FF00400FFF76AFCE11704EB8B
:1010B0005171C1F3C701074A11701046007800EB67
:1010C0004001C1EBC0104FF6FF7101EAC0000249B8
:1010D000088010BD080000200A00002070B50446FA
:1010E0004FF4077094FBF0F0C6B24FF4077094FB16
:1010F000F0F100FB114085B205E04FF4077000F0FD
:1011000009F8701EC6B2002EF7D115B1284600F0BE
:1011100001F870BD0146114A12884A434FF0E0239E
:101120005A6100229A611A46126942F001021A615C
:1011300000BF4FF0E022106900F001021AB100F484
:101140008032002AF5D04FF0E022126922F001022D
:101150004FF0E0231A6100229A6170470A000020D4
:1011600000BF054A128802F04002002AF9D0C2B23C
:10117000014B9A80704700000010014000BF4FF4FF
:10118000A060FFF7D5FAA820FFF78AFF4FF4E130FF
:1011900000F04CF817A0FFF773F853214FF0FF3021
:1011A000FFF7CAFC25E00A20FFF798FF19480078EE
:1011B00000F08000E8B11748007800F03F00C51744
:1011C00004464FF0FF3300262146A1FB030705FB31
:1011D000037204FB062504460F480068241845F1F5
:1011E000000522462B460DA0FFF74AF800200949CA
:1011F0000870D8E7B6A8CAB1C6F7B2B6BBF1CAB58F
:10120000D1E9A3BAB0B4BCFCB0B4CFC2CAB1BCE49B
:101210000D0A000000000020040000204849474853
:101220003A256C6C642075730D0A000010B588B007
:10123000044601210846FFF787FA01211020FFF735
:10124000A3FA072209212248FFF70DFA07220A21F3
:101250001F48FFF708FA4FF4C060069002208DF88F
:101260001C008DF81D0000208DF81E0001208DF857
:101270001F0006A91648FFF7AEF902940020ADF84A
:101280000C00ADF80E00ADF81000ADF814000C2005
:10129000ADF8120002A90F48FFF78EFE01210D489C
:1012A000FFF72EFE012240F225510A48FFF75EFEAD
:1012B00025208DF8040003208DF805008DF8060028
:1012C00001208DF8070001A8FFF7F6F908B010BD5E
:1012D00000000240001001404FF04070E1EE100AA3
:1012E00070470000041300080000002024000000E4
:1012F000C40100082813000824000020340700005F
:10130000E0010008000000000000000000000000F4
:1013100000000000000000000000010203040102C0
:081320000304060708090000A0
:040000050800018965
:00000001FF
