:020000040800F2
:100000005807002041020008211B000803170008C0
:100010001D1B00085B1400085322000800000000AC
:10002000000000000000000000000000491D000862
:100030005F14000800000000B11B0008611E0008EA
:100040005B0200085B0200085B0200085B0200081C
:100050005B0200085B0200085B0200085B0200080C
:100060005B0200085B0200085B0200085B020008FC
:100070005B0200085B0200085B0200085B020008EC
:100080005B0200085B0200085B0200085B020008DC
:100090005B0200085B0200085B0200085B020008CC
:1000A0005B0200085B0200085B0200085B020008BC
:1000B0005B020008CD1E00085B0200085B0200081E
:1000C0005B0200085B0200085B0200085B0200089C
:1000D0005B020008352000085B0200085B02000894
:1000E0005B0200085B0200085B0200085B0200087C
:1000F0005B0200085B0200085B0200085B0200086C
:100100005B0200085B0200085B0200085B0200085B
:100110005B0200085B0200085B0200085B0200084B
:100120005B0200085B0200085B0200085B0200083B
:100130005B0200085B0200085B0200085B0200082B
:100140005B0200085B0200085B0200085B0200081B
:100150005B0200085B0200085B0200085B0200080B
:100160005B0200085B0200085B0200085B020008FB
:100170005B0200085B0200085B0200085B020008EB
:100180005B0200085B02000800F002F800F049F88A
:100190000AA090E8000C82448344AAF10107DA45E2
:1001A00001D100F03EF8AFF2090EBAE80F0013F0EB
:1001B000010F18BFFB1A43F001031847C88E010056
:1001C000E88E0100103A24BF78C878C1FAD85207E7
:1001D00024BF30C830C144BF04680C6070470000C1
:1001E0000023002400250026103A28BF78C1FBD840
:1001F000520728BF30C148BF0B607047662902F024
:100200004785002070471FB502F03DFD00F0FCFB64
:1002100004000020002102F0A9FCE0601FBD10B521
:1002200010BD00F0F1FC1146FFF7EDFF02F0D6FA29
:1002300000F00FFD03B4FFF7F2FF03BC02F06BFA0E
:100240000948804709480047FEE7FEE7FEE7FEE76A
:10025000FEE7FEE7FEE7FEE7FEE7FEE704480549A6
:10026000054A064B70470000651E0008890100081A
:100270005801002058070020580300205803002090
:10028000DFED300AB5EEC00A60EE200ABDEEE01ADE
:1002900011EE100AF1EE10FA38BF401E00EE100AFF
:1002A0009FED291AB8EEC00A70EEC00A20EE810A4E
:1002B000BCEEC00A10EE100A00EE100A0028B8EEDC
:1002C000C00A10EE810AB8BF002004DBB0F5807FC1
:1002D000C8BF4FF480701D4960EE000AB6EE001AE8
:1002E000DFED1C2A9FED1A2A60EE011A60EE225AF9
:1002F00020EE813A20EE022A21EEA01A01EB8000C6
:1003000073EE655A62EE202AB7EE006A33EE003AC9
:10031000D0EC043A76EE611A71EE600A35EEE20A2C
:1003200033EE413A32EEC21A70EEA10A20EE230AF1
:1003300064EE831A04EE200A45EE011A31EE800ABB
:100340007047000083F9223E00008043A087010827
:10035000ABAA2A3EABAAAA3EDFED300AB5EEC00A30
:1003600060EE200ABDEEE01A11EE100AF1EE10FA6E
:1003700038BF401E00EE100A9FED291AB8EEC00AE1
:1003800070EEC00A20EE810ABCEEC00A10EE100A20
:1003900000EE100A0028B8EEC00A10EE810AB8BFBD
:1003A000002004DBB0F5807FC8BF4FF480701D498A
:1003B00060EE000AB6EE001ADFED1C2A9FED1A2A45
:1003C00060EE011A60EE225A20EE813A20EE022AF7
:1003D00021EEA01A01EB800073EE655A62EE202A2E
:1003E000B7EE006A33EE003AD0EC043A76EE611ACA
:1003F00071EE600A35EEE20A33EE413A32EEC21A8D
:1004000070EEA10A20EE230A64EE831A04EE200A9D
:1004100045EE011A31EE800A7047000083F9223E52
:1004200000008043B08B0108ABAA2A3EABAAAA3ECB
:10043000704700000FB41CB5074B06AA7B44694601
:100440000090059800F0C7FA0020694600F0D6FA3F
:100450001CBC5DF814FB0000BD0500002DE9F05F39
:10046000894604464FF0000ADFF824B1FB44C0F887
:1004700020A02046E168884700287DD0252806D0A6
:10048000D4E901219047206A401C2062F1E7002551
:100490005F462046E16888472028064607DB312E64
:1004A00005D2B81910F8200C08B10543F1E7A807E8
:1004B00001D525F00405C4F81CA00027C4F818A035
:1004C0002A2E09D0304602F01FF938B304EB870812
:1004D000303EC8F8186019E059F8041B204604EBB8
:1004E00087029161E1688847012F064618D1E069CB
:1004F000002820DA25F020051DE0D8F8180000EBD0
:10050000800006EB40003038C8F818002046E1684B
:100510008847064602F0F8F80028EED1012F0AD0ED
:100520002E2E08D12046E16888477F1C0646022F00
:1005300045F02005C4DBA069002803DA404245F0FD
:100540000105A061E80701D025F01005A6B1A6F1CC
:100550004100192802D8203645F400654A46314644
:10056000204625604D46FFF749FE60B1012807D0BF
:10057000ED1D25F0070000E007E000F1080978E72D
:1005800005F1040975E730467AE7206ABDE8F09F77
:100590004C8B0100704770477047704710B500F0F2
:1005A00037FA006810BD10B5044600F031FA046057
:1005B00010BD70472DE9FF4F0C461E464FF0FF3728
:1005C0008BB0D2E90001DDF860800A908A46C1F361
:1005D0000A5505B93D46002108464FF00000BAF122
:1005E000000F00F4400005DA00EB80004FF44001FA
:1005F00001EA50004FEA9059B9F1010F00DDB94608
:100600000A9850EA4A000ED044F61050A5F2FF3581
:1006100045432F14B8F1000F1ED07542291E1EDD70
:10062000C9F100021CE0B8F1010F4FF0000001D049
:10063000302103E0F24305E02154401CB042FBDBD3
:1006400030460022002121540B99C1F80880C1E9ED
:1006500000200FB0BDE8F08FBD1B6D1CDEE74A46E1
:1006600000DA694206A800F05DFA06AB93E80700DD
:1006700003AB83E8070050460A9900F033FB8DE88E
:100680000700A0F500501F3800900398002D09DDE9
:1006900042F21F014A46084403A90390684600F04D
:1006A00092FD08E0A0F500504A461F3803A90390C8
:1006B000684600F09CFD8DE807000004000C03D0A4
:1006C0004FF0FF30410800E01046B8F1000F03D0B2
:1006D0000022009215461EE0751E05D400F09CF91C
:1006E000303262556D1EF9D5B3460122084302D05F
:1006F00000227F1C04E02078302801D100227F1ED8
:10070000002A099786D01DE0112D07DA00F084F940
:10071000303262556D1C50EA0102F5D1084302D017
:100720000098C8B10EE00021681E05E0235C625C01
:1007300063542254401E491C8142F7DBAB46A81B80
:10074000401E0990002004F80B000B98099AC0F88D
:100750000880C0E9002B7CE711264FF0000859E71C
:100760002DE9F04F88460446D21D22F0070191B0D2
:10077000D1E90001CDE90A0101F06DFD02460B98B7
:10078000C00F01D02D2007E02068810701D52B2064
:1007900002E0202101EAC000032A099001D0072AC3
:1007A00005DB03464146204600F07CF90BE120784A
:1007B000800601D5E06900E00620B8F1650F8146AA
:1007C00006D0B8F1660F18D0B8F1670F70D131E0DC
:1007D0000020B9F1110F009001DB112301E009F1B4
:1007E00001030AAA01A90CA8FFF7E4FEDDE90C70D9
:1007F000002609F10105834647E001204B460090A1
:100800004FF000470AAA01A90CA8FFF7D3FEDDE9C3
:100810000DB00C995D46002610B909F101000D18C4
:10082000B9EB050003D4C0F1FF3609F10105A5EBD2
:1008300009002BE0B9F1010F01DA4FF001090020A6
:10084000B9F1110F0090484601DD112300E0034685
:100850000AAA01A90CA8FFF7ADFEDDE90C704D4610
:1008600000268346207800070AD4AB4500DA5D46AF
:1008700001A8012D04DD411911F8011C302907D010
:100880004F4502DA17F1040F04DA012082460FE027
:100890006D1EEEE7002F02DCED1B3E4403E0781CEA
:1008A000A84200DD7D1CB81B00F1010A4FF0004793
:1008B0002078000703D4AA4501DB4FF0FF3A00215E
:1008C000B7F1004F0DF143088DF8431024D00220FA
:1008D0002B23002F01DA7F422D230A21021EA0F1D3
:1008E000010000DC5FB197FBF1FC97FBF1F201FB2B
:1008F0001C7C17460CF1300C08F801CDEEE7A8F18E
:10090000010003702188090501D5452100E065211A
:10091000A0F1010800F8011C09980FA9A1EB080734
:10092000FF1D00B10120411901EBEA70A1693844B3
:10093000081A401EA0612078C00602D42046AFF3FA
:100940000080099828B1D4E901219047206A401C11
:1009500020622078C00622D52046AFF300801EE03A
:10096000002E04DBB34502DD01A8805D00E03020ED
:10097000D4E901219047206A401C2062761CAAF12C
:1009800001005FEA000A0AD100F03EF8C068016881
:10099000405CD4E901219047206A401C2062281E57
:1009A000A5F10105DCDC07E0D4E9012118F8010B11
:1009B0009047206A401C2062381EA7F10107F3DC33
:1009C0002046AFF30080032011B043E601694A1CC2
:1009D00002610878704700B58FB0CDE90131002180
:1009E000059105497944CDE9031011466846FFF7A2
:1009F00035FD0FB000BD0000E5FFFFFF0A6802F8FB
:100A0000010B0A6070470000004870471801002081
:100A100000487047F800002030B5B0F10A024FEAF4
:100A2000900E71F100034EEA817EB0EB0E0061EB97
:100A300091014FEA101E4EEA017E10EB0E0041EBD1
:100A400011114FEA102E4EEA016E10EB0E0041EB31
:100A500011214FEA104E4EEA014E10EB0E0041EB11
:100A60001141401841F100014FEAD00040EA4170C5
:100A70004FEAD10110EB80054FEA810444EA9074FB
:100A800044EB01046D1944EB0404521BA3414FF0E5
:100A9000000348BF0A3200D530BD401C41F10001BF
:100AA00030BD00002DE9F0411F46044603260168D1
:100AB000072A01F4006004DB08B116A505E016A5BD
:100AC00003E008B115A500E015A521F01000206095
:100AD000A069C01EA0610FB1401EA0612046AFF307
:100AE00000804FB1D4E9012138469047206A401C6C
:100AF0002062C01C206206E0206AFAE7D4E90121E6
:100B000015F8010B9047761EF8D22046AFF300800F
:100B1000BDE8F0814E414E006E616E00494E4600C8
:100B2000696E66002DE9F047814616468AB0334863
:100B300078440DC88DE80D0030487844801C03AC23
:100B40000DC884E80D0041F69B300844372190FB26
:100B5000F1F290FBF1F5A5F1800501FB12041B3CBD
:100B600002D56442012000E00020DFF890A080461A
:100B70000027FA44AAF1BE0A0DE0E00709D0324688
:100B8000684607EB47010AEB810100F030FB8DE876
:100B9000070064107F1C002CEFD1184F7F44AC3F3E
:100BA00018E0E80714D007EB04100DF1180A90E8DC
:100BB0000E008AE80E00C068F04201D19819089032
:100BC000324606A903A800F012FB03AB83E8070036
:100BD0006D10641C002DE4D132466946B8F1000F57
:100BE00003A802D000F0EFFA01E000F000FBC9E931
:100BF0000001C9F808200AB0BDE8F0873885010077
:100C000000487047F80000207546FFF7F9FFAE4630
:100C100005006946534620F00700854618B020B508
:100C2000FFF71CFBBDE820404FF000064FF0000727
:100C30004FF000084FF0000B21F00701AC46ACE884
:100C4000C009ACE8C009ACE8C009ACE8C0098D46F1
:100C5000704710B50446AFF300802046BDE8104051
:100C6000FFF7E8BA4FF0013C50F8042B51F8043B71
:100C70009A4221D1A2EB0C03934313EACC1317D170
:100C800050F8042B51F8043B9A4215D1A2EB0C0307
:100C9000934313EACC130BD150F8042B51F8043BC7
:100CA0009A4209D1A2EB0C03934313EACC13DBD095
:100CB0004FF00000704700BFD01A01BAB1FA81F1BD
:100CC00001F0180122FA01F0CB40C1F12001DBB2A2
:100CD000C0B2C01A2CFA01F3D11A914311EAC31120
:100CE000E6D170475FEA400C08BF91F0000F4FEA71
:100CF0008C234FEAC12243EA51514FEA1C5018BFDE
:100D000000F5F0404FEA300018BF41F000415FEAC3
:100D10006C5C00F02980BCF1FF3F08BF40F08040D0
:100D20007047130C06BF12044FF0100C4FF0000C6C
:100D3000130E04BF12020CF1080C130F04BF1201B2
:100D40000CF1040C930F04BF92000CF1020CD30FB2
:100D500004BF52000CF1010C11464FF00002A0F14B
:100D60001F00A0EB0C00704711F0004F08BF704748
:100D700031F000413FF4D5AF0B0C06BF09044FF032
:100D8000100C4FF0000C0B0E04BF09020CF1080C04
:100D90000B0F04BF09010CF1040C8B0F04BF890079
:100DA0000CF1020CCB0F04BF49000CF1010CCCF18B
:100DB0002003A0EB0C0022FA03F302FA0CF241EA42
:100DC000030100F10100704720F07F4C80EA03002E
:100DD00023F07F47ACEB070303F57C5300F00040A2
:100DE00003F1FF032DE980494FEA154B09B44FEA9F
:100DF000144325EA0B4E24EA03480FF2042606EBBF
:100E0000132749083E785FEA320203FB0667C7F5FD
:100E1000000707FB06F64FEA54374FEAD64606F1BD
:100E2000020607FB066CCCF1005C4FEA1C472CEA7B
:100E3000074C07FB06F40CFB06F504EB15464FEADE
:100E4000961634BF00204FF000404FEAD13706FB22
:100E500007FC4FEA1C4C0CFB0BF7D21B03FB0CF7F7
:100E600061EB07010CFB0EF7B0EB074072EB17428A
:100E70000CFB08F734BFA2EB0742B2EB074261EB71
:100E800017414FEA0C444FEA910706FB07FC4FEA73
:100E90001C4C0CFB0BF7B0EBC74072EB573203FB5B
:100EA0000CF734BFA2EBC742B2EBC74261EB57313C
:100EB0000CFB0EF7B0EBC70072EB57720CFB08F798
:100EC00034BFA2EBC702B2EBC70261EB5771039FBD
:100ED0004FEA816141EA921104EBCC044FEAD13729
:100EE0004FEA826206FB07FC42EA90124FEA8060FA
:100EF0004FEA1C4C0CFB0BF7D21B03FB0CF761EB0E
:100F000007010CFB0EF7B0EB074072EB17420CFB2E
:100F100008F734BFA2EB0742B2EB074261EB17417F
:100F20004FEA8C554FEA910704EB9C2406FB07FC23
:100F30004FEA1C4C0CFB0BF7B0EBC74072EB57327F
:100F400003FB0CF734BFA2EBC742B2EBC74261EB25
:100F500057310CFB0EF7B0EBC70072EB57720CFB6E
:100F600008F734BFA2EBC702B2EBC70261EB5771BF
:100F700015EB4C254FEA816141EA92114FEA8262FA
:100F80004FEAD13742EA901206FB07FC44F1000415
:100F90004FEA80604FEA1C4C0CFB0BF7D21B03FBA3
:100FA0000CF761EB07010CFB0EF7B0EB074072EB9F
:100FB00017420CFB08F734BFA2EB0742B2EB074223
:100FC00061EB174115EB1C154FEA813141EA924163
:100FD0004FEA823242EA90424FEA80304FEA0C7682
:100FE00044F1000448EA03434EEA0B484FF0000E78
:100FF000B2EB080C71EB030724BF624639464EEB97
:101000000E0E4FF0000B0018524149414BEB0B0BF9
:10101000B2EB080C71EB03077BF1000B24BF6246B7
:1010200039464EEB0E0E4FF0000B0018524149416D
:101030004BEB0B0BB2EB080C71EB03077BF1000BD6
:1010400024BF624639464EEB0E0E51EA020718BF26
:1010500046F0010616EB0E7655F1000254F1000140
:1010600003D5BDE88901BDE80088BDE88901BDE878
:101070000048B619524141EB0101A3F10103704749
:1010800080807F7E7D7C7B7A7978777676757473C5
:10109000727171706F6E6E6D6C6C6B6A6A69686884
:1010A000676666656464636362616160605F5F5E1A
:1010B0005E5D5D5C5C5B5B5A5A5959585857575690
:1010C00056555555545453535252525151505050F5
:1010D0004F4F4F4E4E4D4D4D4C4C4C4B4B4B4A4A47
:1010E0004A4949494848484747474746464645458B
:1010F00045444444444343434342424242414141C4
:10110000002B26D4770021D01CB54FEA370703B453
:101110004FF010004FF010014FF000000FBCBDE881
:1011200010400BF1010BBBF1010F08BF5FEA17077D
:1011300022BF12F1010211F101014FF0004143F110
:10114000000300F0004043EA00007047F9D357085D
:10115000DAE746EA064613F1400F4FEA16461FDD6E
:1011600013F1200FDFBF16430A46002120335B42F4
:10117000C8D0C3F1200746EA064602FA07F74FEA4D
:10118000164646EA0706C3F1200722FA03F201FADF
:1011900007F721FA03F14FF0000342EA0702B1E733
:1011A00046EA020646EA06464FEA164646EA0106BF
:1011B000BCBF46EA0646360C4FF000034FF0000273
:1011C0004FF000019EE72DE9C048934630B491E806
:1011D000380007C831EA400C48BF34EA430C03D555
:1011E000FFF7F2FDFFF78CFFF0BCBDE800882DE9AA
:1011F000C048934630B491E8380007C810F0804FDB
:1012000008BF13F0804F03D100F005F8FFF778FF17
:10121000F0BCBDE8008820F07F4780EA030023F09F
:101220007F4C07EB0C03A3F57C5300F00040A3F1C7
:10123000FE0392F0000F00F0B38095F0000F00F075
:1012400077802DE901494FEA11404FEA144621EA1F
:10125000004800FB06FC24EA064708FB06F607FBED
:1012600008F800FB07F718EB06484CEB164C4FEA62
:10127000124B18EB07484FEA15464CEB174022EA91
:101280000B4E0BFB06FC25EA06470EFB06F607FB9A
:101290000EFE0BFB07F71EEB064E4CEB164C4FF009
:1012A00000061EEB074E4CEB174B18EB0B0840F1FA
:1012B000000018EB0E0B58EB000840F100008F1AED
:1012C0004FF000013CBFC943661B14BFB5EB040CD3
:1012D00000213CBFC943F61B4FEA17444EEA8E0E6D
:1012E00027EA04454FEA1C4704FB07622CEA074C37
:1012F00005FB07F70CFB05F604FB0CFC16EB074699
:1013000042EB174216EB0C4642EB1C421BEB060667
:1013100058EB0202414146EA9E0601D5BDE801892B
:10132000B619524141EB0101A3F10103BDE8018966
:101330004FEA14454FEA114724EA054621EA074CD3
:1013400005FB07F406FB07F70CFB06F105FB0CFC9D
:1013500011EB074144EB17444FEA124711EB0C41E4
:1013600044EB1C4422EA074C05FB07F206FB07F797
:101370000CFB06F605FB0CFC16EB074642EB17428E
:1013800016EB0C4642EB1C456A1854F1000148BFAD
:101390007047B619524141EB0101A3F101037047B7
:1013A00095F0000F37D04FEA11424FEA144721EA77
:1013B000024624EA074C02FB07F106FB07F70CFB89
:1013C00006F402FB0CFC14EB074441EB17414FEA17
:1013D000154714EB0C4441EB1C4125EA074C02FB7A
:1013E00007F506FB07F70CFB06F602FB0CFC16EBF9
:1013F000074645EB174516EB0C4645EB1C42121908
:1014000051F1000148BF7047B619524141EB01014B
:10141000A3F1010370474FEA14454FEA114724EA4C
:10142000054621EA074C05FB07F106FB07F70CFB15
:1014300006F24FF0000605FB0CFC12EB074241EBF5
:10144000174112EB0C4251EB1C4148BF70479218F8
:1014500041EB0101A3F10103704700BFFEE77047B4
:10146000F0B50A4600210023002400BF3DE001251D
:1014700005FA01F3156805EA03049C4234D10568B6
:101480004F000326BE40B543056015794E00B540B8
:101490000668354305601579012D02D01579022DB6
:1014A00016D185684F000326BE40B5438560557947
:1014B0004E00B540866835438560456801268E40FC
:1014C000B5434560456896798E40B6B23543456070
:1014D000C5684F000326BE40B543C560D5794E00B0
:1014E000B540C6683543C560491C1029BFD3F0BD5F
:1014F000F0B5002300244D07ED0E02FA05F3CE10DF
:1015000000F1200555F826504E07F70E0F26BE4075
:10151000B543CF1000F1200646F82750CE1000F159
:10152000200555F8265045EA0304CE1000F12005A9
:1015300045F82640F0BD41837047018370470000A5
:101540002DE9F84F0746884693469A46DDF82890DD
:101550000097B3E099F8000080283DDA99F8006020
:101560000D2E05D1009F08F110001FFA80F830E021
:10157000202E03DDA6F1200086B200E00026002424
:1015800022E000251CE004EB06105049085C802195
:101590002941084040B108EB040291B27A1990B297
:1015A0005A4600F097F809E0D34507D008EB04024B
:1015B00091B27A1990B2524600F08CF8681CC5B20C
:1015C000082DE0DB601CC4B2102CDADB07F1080048
:1015D00087B209F1010971E0002668E006EB061008
:1015E0003B4911F8100099F8001088425DD106EBD4
:1015F0000610374901EB4000407899F80110884205
:1016000053D100244FE0002520E006EB06103049BE
:1016100001EB4000801C10F814108020284101408C
:1016200041B108EB040291B27A1990B25A4600F027
:1016300051F809E0D34507D008EB040291B27A19BA
:1016400090B2524600F046F8681CC5B2082DDCDBAB
:10165000002524E006EB06101D4901EB4000801C2C
:10166000012101EB4401405C80212941084048B13F
:1016700008EB040291B27A19083290B25A4600F08F
:1016800029F80AE0D34508D008EB040291B27A1990
:10169000083290B2524600F01DF8681CC5B2082D01
:1016A000D8DB601CC4B2102CADDB701C86B23A2EA5
:1016B00094DB09F1020907F1100087B299F80000E4
:1016C00000287FF447AFBDE8F88F0000942C000895
:1016D000063A00082DE9F04104460D461646AF1CB7
:1016E000BBB2E71CBAB26F1CB9B2A71CB8B200F00B
:1016F000B1F9301200F0D8F9F0B200F0D5F9BDE838
:10170000F08100BFFEE700001CB50121084600F093
:1017100051FA0120009000208DF8040003208DF87C
:10172000050002208DF8070069460248FFF798FE81
:101730001CBD0000000002401CB50121062000F085
:1017400039FA4FF20200009001208DF804000020C9
:101750008DF8060003208DF8050001208DF80700A4
:1017600069461348FFF77CFE2020009001208DF889
:10177000040000208DF8060003208DF805000120EC
:101780008DF8070069460B48FFF76AFE4FF4804169
:101790000748FFF7D2FE02210548FFF7CEFE0221DF
:1017A0000348FFF7C8FE02210148FFF7C6FE1CBD33
:1017B000000402400008024010B52C2008490881AE
:1017C0000020887180200880A02048802A2048813D
:1017D0002B208881C021362000F096F910BD000032
:1017E000200000201CB50121084600F0E3F902208A
:1017F000009001208DF8040000208DF806000320E1
:101800008DF8050001208DF8070069460348FFF7B1
:1018100027FE02210148FFF790FE1CBD0000024098
:1018200070B50446A02381220121022000F012F9A4
:101830002C2000F051F900250BE0002606E02012D4
:1018400000F032F9E0B200F02FF9761C802EF6D3CA
:101850006D1CA02DF1D370BD10B5FFF76DFF00F02A
:10186000E5F8112000F038F9C82000F075FFB1202C
:1018700000F032F9052000F017F93C2000F014F9CF
:101880003C2000F011F9B22000F026F9052000F00C
:101890000BF93C2000F008F93C2000F005F9B320DA
:1018A00000F01AF9052000F0FFF83C2000F0FCF8E9
:1018B0003C2000F0F9F8052000F0F6F83C2000F09C
:1018C000F3F83C2000F0F0F8B42000F005F9032014
:1018D00000F0EAF8C02000F0FFF8282000F0E4F85B
:1018E000082000F0E1F8042000F0DEF8C12000F04C
:1018F000F3F8C02000F0D8F8C22000F0EDF80D2079
:1019000000F0D2F8002000F0CFF8C32000F0E4F897
:101910008D2000F0C9F82A2000F0C6F8C42000F09D
:10192000DBF88D2000F0C0F8EE2000F0BDF8C520F7
:1019300000F0D2F81A2000F0B7F8362000F0CCF80A
:10194000C02000F0B1F8E02000F0C6F8042000F05C
:10195000ABF8222000F0A8F8072000F0A5F80A2034
:1019600000F0A2F82E2000F09FF8302000F09CF844
:10197000252000F099F82A2000F096F8282000F0A1
:1019800093F8262000F090F82E2000F08DF83A20F1
:1019900000F08AF8002000F087F8012000F084F8B9
:1019A000032000F081F8132000F07EF8E12000F021
:1019B00093F8042000F078F8162000F075F806205F
:1019C00000F072F80D2000F06FF82D2000F06CF898
:1019D000262000F069F8232000F066F8272000F0A8
:1019E00063F8272000F060F8252000F05DF82D2036
:1019F00000F05AF83B2000F057F8002000F054F8AF
:101A0000012000F051F8042000F04EF8132000F0FF
:101A10004BF83A2000F060F8052000F045F8292046
:101A200000F05AF8FFF7C8FE10BD000010B54FF4E3
:101A300080410748FFF77FFD642000F08DFE4FF4E2
:101A400080410348FFF779FD642000F085FE10BD5A
:101A5000000402402DE9F04104460D4616461F469B
:101A60002A2000F039F8002000F01EF8E0B200F063
:101A70001BF8002000F018F8F0B200F015F82B2049
:101A800000F02AF8002000F00FF8E8B200F00CF89F
:101A9000002000F009F8F8B200F006F82C2000F061
:101AA0001BF8BDE8F081000010B504464FF48051EA
:101AB0000748FFF740FD20210648FFF73EFD20467E
:101AC00000F01CF94FF480510148FFF736FD10BDBE
:101AD000000402400008024010B504464FF4805153
:101AE0000748FFF728FD20210648FFF724FD204680
:101AF00000F004F94FF480510148FFF71EFD10BDBE
:101B0000000402400008024070B505460C46284615
:101B1000FFF7E2FF2046FFF7C7FF70BD00BFFEE7FB
:101B20007047000070B5002100230F22C4781CB359
:101B3000174C246804F4E064C4F5E064C4F307219E
:101B4000C1F10404E3B20A4144789C40E1B28478D4
:101B5000144021430C07210E0E4C05786155047882
:101B600004F01F050124AC4005786D11AD0005F1AE
:101B7000E025C5F8004109E0047804F01F050124C0
:101B8000AC40054D0678761145F8264070BD000042
:101B90000CED00E000E400E080E100E002490143D8
:101BA000024A1160704700000000FA050CED00E0E9
:101BB0007047000029B1064A12680243044B1A60BC
:101BC00004E0034A12688243014B1A607047000028
:101BD0003038024029B1064A12680243044B1A60A9
:101BE00004E0034A12688243014B1A607047000008
:101BF0004038024029B1064A12680243044B1A6079
:101C000004E0034A12688243014B1A6070470000E7
:101C100044380240F0B500210022002402250026AD
:101C20000223324F3F6807F00C0121B1042905D08F
:101C3000082937D105E02E4F076036E02D4F0760A9
:101C400033E02A4F3F1F3F68C7F38056274F3F1F9F
:101C50003F6807F03F036EB1264FB7FBF3F7DFF89D
:101C60008CC0ACF1040CDCF800C0CCF3881C07FB82
:101C70000CF40CE01E4FB7FBF3F7DFF870C0ACF1CB
:101C8000040CDCF800C0CCF3881C07FB0CF4174FE5
:101C90003F1F3F68C7F301477F1C7D00B4FBF5F78A
:101CA000076002E0124F076000BF00BF0F4F3F68A0
:101CB00007F0F0010909104F7A5C0768D7404760C8
:101CC0000A4F3F6807F4E051890A0B4F7A5C476876
:101CD000D7408760054F3F6807F46041490B064FC6
:101CE0007A5C4768D740C760F0BD00000838024002
:101CF0000024F40000127A000E00002070B50446A3
:101D0000002508251BE004F0800028B14FF40041B5
:101D10000C48FFF712FC04E04FF400410948FFF7BC
:101D20000AFC4FF400510748FFF705FC4FF400513F
:101D30000448FFF702FC6006040E681EC5B2002DC1
:101D4000E1DC70BD00040240704700000CB50020CB
:101D5000019000903448006840F4803032490860B7
:101D600000BF3148006800F4003000900198401C2A
:101D70000190009818B90198B0F5A04FF1D12A4808
:101D8000006800F4003010B10120009001E0002054
:101D900000900098012846D123484030006840F068
:101DA00080502149403108602048006840F440409C
:101DB0001E4908601C48083000681B49083108604B
:101DC0000846006840F4004008600846006840F497
:101DD000A05008601648091F0860081F006840F0FE
:101DE0008070091F086000BF0F48006800F0007095
:101DF0000028F9D040F205700E4908600A48083002
:101E0000006820F0030008490831086008460068AF
:101E100040F00200086000BF03480830006800F08E
:101E20000C000828F8D10CBD0038024000700040BA
:101E300008544007003C0240042808D14FF0E0213C
:101E4000096941F004014FF0E022116107E04FF011
:101E5000E021096921F004014FF0E022116170478F
:101E60007047000010B51548006840F47000134931
:101E700008601348006840F0010011490860002024
:101E80000F49083108600E4800680E4908400C49A7
:101E900008600D48091D0860081F006820F48020B4
:101EA000091F0860002006490C310860FFF74EFF4B
:101EB0004FF0006001498039086010BD88ED00E0F6
:101EC00000380240FFFFF6FE1030002410B501215B
:101ED000074800F051F8012804D106480078401C5A
:101EE000044908700121024800F034F810BD0000D8
:101EF00000040040000000207FB505460C4601218B
:101F00000220FFF767FE0295ADF804400020ADF80F
:101F10000600ADF80C0001A90D4800F049F80122B7
:101F200011460B4800F039F80121094800F015F876
:101F30001D208DF8000001208DF8010003208DF890
:101F4000020001208DF803006846FFF7EBFD7FBD1E
:101F500000040040CA430282704721B1028842F067
:101F60000102028004E002884FF6FE731A400280EC
:101F700070470146486A704730B50246002000238A
:101F80000024158A05EA0103958905EA010413B1C5
:101F90000CB1012000E0002030BD1AB183890B4351
:101FA000838102E083898B4383817047416270475C
:101FB00000220288184B98420ED0184B98420BD042
:101FC000B0F1804F08D0164B984205D0154B98427F
:101FD00002D0154B984204D14FF68F731A404B88AC
:101FE0001A43124B984207D0114B984204D04FF637
:101FF000FF431A400B891A4302804B68C3620B8867
:102000000385054B984202D0044B984201D18B7A4C
:1020100003860123838270470000014000040140D1
:102020000004004000080040000C00400010004088
:102030000014004010B540F225511D4800F04AF848
:1020400010B31B4800F000F9C4B21A48008800F42D
:102050000040C8B91748008800F4804060B10A2CDD
:1020600003D000201349088020E01248008840F483
:1020700000401049088019E00D2C06D10D48008859
:1020800040F480400B49088010E00A480088C0F303
:102090000D0009490C5407480088401C0549088078
:1020A00008460088C72801DD0020088010BD000018
:1020B000001001400C0000202E00002021B1828978
:1020C00042F40052828104E082894DF6FF731A4087
:1020D0008281704770B5024600240023002500204D
:1020E00040F66A16B14200D100BFC1F3421501F0BB
:1020F0001F03012606FA03F3012D02D1968933400E
:1021000006E0022D02D1168A334001E0968A334060
:102110000C12012606FA04F41688344013B10CB1EF
:10212000012000E0002070BDF0B503460024002629
:102130000025002040F66A17B94200D100BF1846BA
:10214000C1F3421401F01F06012707FA06F5012C1E
:1021500001D10C3004E0022C01D1103000E0143029
:102160001AB107682F43076002E00768AF430760B2
:10217000F0BD00002DE9FF4705460E460024A146AC
:1021800000BFA046B08900B100BF2C8A24F440549F
:10219000F08804432C82AC8941F20C608443B088FF
:1021A00031890843718908430443AC81AC8A24F423
:1021B0004074B0890443AC826846FFF72BFD204889
:1021C000854202D01F48854202D1DDF80C9001E023
:1021D000DDF80890A88900F4004040B109EBC9007F
:1021E00000EB091031684900B0FBF1F707E009EB9B
:1021F000C90000EB091031688900B0FBF1F76420D9
:10220000B7FBF0F004012009642101FB1078A889D4
:1022100000F4004040B1322000EBC800B0FBF1F008
:1022200000F00700044308E0322000EB08106421AE
:10223000B0FBF1F000F00F0004432C81BDE8FF87F4
:10224000001001400014014001468888C0F30800D6
:10225000704700BFFEE703B401984100009850EAC0
:10226000C12018BF04204A0D18BF40F0010040F201
:10227000FF72B2EB515F08BF40F00200012808BFB7
:10228000052002B070474100080218BF04200A0E62
:1022900018BF40F001004FF07F4232EA010108BF51
:1022A00040F00200012808BF0520704710EE101A08
:1022B00008B5444A6846B2EB410F28D94FF0E640D2
:1022C000B0EB410F94BF00204FF0FF30009000981A
:1022D000002861DB60EE000A10F0010F45D010F01D
:1022E000020FDFED391A9FED391A00EEE11ADFED2A
:1022F000381A40EE811A21EEA01AF0EE400A40EEA4
:10230000010A08BFF1EE600AB0EE600A08BD314B69
:1023100021F0004293423CD911F0004FDFED2E0A2C
:1023200020EE201ADFED2D0A19BF31EE601A71EE92
:10233000200A31EE201A71EE600ABDEEE01A11EEAD
:10234000100A9FED271A00F0030000EEC10A9FED6E
:10235000251A009000EEC10A9FED231A00EEC10A73
:102360009FED221A00EEC10AB1E79FED211A9FED01
:10237000210A10F0020F00EE810A9FED1F1A00EEF5
:10238000801AB7EE000A00EE810A18BFB1EE400ACB
:1023900008BD00F00FF99AE710EE100A4000B0F106
:1023A0007F4F3CBFB7EE000A08BD07D14FF00100D8
:1023B000FEF7F9F8BDE8084000F0ECB8BDE80840C9
:1023C00000F0E4B8B61F927E336D4C39DA82083CD7
:1023D000A0AA2ABE490E494683F9223F0000004BBD
:1023E0000000C93F00A0FD390020A2331A61342C3F
:1023F000B93AB2BACA9F2A3DDDFFFFBE00B510EE62
:10240000101A2DED028B81B0524A6846B2EB410F93
:102410002ED94FF0E640B0EB410F94BF00204FF0B3
:10242000FF3000900098B0EE408A00286ADB10F080
:10243000010F4BD068EE080A9FED471A9FED470A3F
:1024400000EE810A9FED461A10F0020F00EE801A8E
:10245000B7EE000A00EE810A02BF01B0BDEC028BAC
:1024600000BD00BF01B0B1EE400ABDEC028B00BD63
:102470003C4B21F00042934241D911F0004FDFED77
:102480003A0A20EE201ADFED390A19BF31EE601A40
:1024900071EE200A31EE201A71EE600ABDEEE01AEC
:1024A00011EE100A9FED321A00F0030000EEC10A8F
:1024B0009FED301A009000EEC10A9FED2F1A00EE3A
:1024C000C10A9FED2E1A00EEC10AABE728EE080AFA
:1024D0009FED2B1ADFED2B0A10F0020F40EE410AA0
:1024E0009FED291A00EE201A61EE000AB0EE480AAC
:1024F00008EE200AB6D101B0BDEC028B00BD00F0A1
:1025000059F88FE718EE100A4000B0F17F4F0DD256
:1025100018EE100AFFF7B7FE042808BF00F042F8D3
:10252000B0EE480A01B0BDEC028B00BD09D101201C
:10253000FEF739F801B0BDEC028B5DF804EB00F05A
:1025400029B801B0B0EE480ABDEC028B5DF804EB8F
:1025500000F01CB8B61F927EB93AB2BACA9F2A3DA3
:10256000DDFFFFBE490E494683F9223F0000004BC4
:102570000000C93F00A0FD390020A2331A61342CAD
:10258000336D4C39DA82083CA0AA2ABE30EE000A2C
:1025900070470000DFED020A80EEA00A70470000DD
:1025A000000000009FED020A20EE000A70470000C4
:1025B000000000102DE9F0014FF07F42B2EB410F17
:1025C0009FBF4FF0FF310160BDE8F00170474FF051
:1025D000004242EA0123C1F3C752783A551112F082
:1025E0001F0C434CCCF120067C44C1F3C752A2F12E
:1025F00078024FEA621204EB820254F8254008BFC9
:10260000D2E9015612D0556804FA0CF425FA06F7FF
:102610003C43976805FA0CF527FA06F8D26807FAE2
:102620000CFCF24045EA08054CEA0206A4FB034C08
:10263000A5FB0352A6FB03631D449D4234BF012644
:1026400000261319334416B1934202D903E0934292
:1026500001D2012200E00022624402F1200C920625
:10266000DC0C42EA443200EE102A5B03DFED210A63
:10267000F8EEC01A00EE103A4FEA9C1C11F0004F21
:10268000B8EE400AC0F800C020EE201A00EE105A42
:10269000DFED190AB8EE400A20EE200A71EE810A39
:1026A00070EE800A10EE902A02F500626FF30B02C2
:1026B00000EE902A70EEE11A31EEC11ADFED101A29
:1026C00030EE411A9FED0D0A20EE800A01EE210A3C
:1026D0009FED0C1A00EE810A04BFBDE8F0017047BF
:1026E000CCF180510160BDE8F001B1EE400A7047C5
:1026F000E4690100000000360000802C22AAFD29B8
:10270000DB0FC92F0000C92F30380A2801D2012061
:1027100070470020704700BF7047000010B50446A6
:102720006FF00400FFF788FBE11704EB5171C1F370
:10273000C701074A11701046007800EB4001C1EB59
:10274000C0104FF6FF7101EAC0000249088010BDB9
:10275000020000200400002070B504464FF407700A
:1027600094FBF0F0C6B24FF4077094FBF0F100FB5D
:10277000114085B205E04FF4077000F009F8701EB3
:10278000C6B2002EF7D115B1284600F001F870BD91
:102790000146114A12884A434FF0E0235A61002251
:1027A0009A611A46126942F001021A6100BF4FF0A5
:1027B000E022106900F001021AB100F48032002A10
:1027C000F5D04FF0E022126922F001024FF0E02331
:1027D0001A6100229A617047040000202DED048BDD
:1027E0008EB04FF4A060FFF7D9F9A820FFF796FF4D
:1027F0004FF4E13000F064F9FEF7F4FFFEF784FFD8
:1028000042F2CF014FF6FF70FFF776FBFFF724F897
:102810004EF67D70FFF704F853A04EF67D734FF42B
:102820007842102100900020FEF78AFE52A04EF65A
:102830007D734FF47842202100900020FEF780FE47
:1028400051A04EF67D734FF4784230210090002065
:10285000FEF776FE87E000214E48FFF7A7FB002039
:102860004D49087000214D489FED4D0A00F0B8F821
:1028700004464848FFF77DFB4749097800EB0140D3
:1028800000EE100AB8EE400AB0EE408AB2EE040A3A
:10289000C8EE000A10EE905A284600F083F941EC89
:1028A000190B53EC192B3FA101A8FDF7C3FD4CB93F
:1028B00001A84EF67D731F22402100900020FEF7F4
:1028C0003FFE08E03BA04EF67D731F2240210090A2
:1028D0000020FEF735FE00212E48FFF767FB0020A1
:1028E0002D49087001212D489FED2D0A00F078F840
:1028F00004462848FFF73DFB2749097800EB0140D3
:1029000000EE100AB8EE400AB0EE408AB2EE040AB9
:10291000C8EE000A10EE905A284600F043F941EC48
:10292000190B53EC192B29A101A8FDF783FD4CB914
:1029300001A84EF67D731F22502100900020FEF763
:10294000FFFD08E01BA04EF67D731F225021009072
:102950000020FEF7F5FD2148006808B9012000E0DD
:1029600000201E49086076E72053544D3332463428
:10297000787820B2E2CAD4002044535020426173D8
:1029800069634D617468200020323031382F352F53
:10299000350000000004004000000020400D03004E
:1029A000920A063F204E6F4453503A25302E31662E
:1029B0006D730000206572726F72A3A12020202029
:1029C000202020202020202020202000205573655A
:1029D0004453503A25302E31666D730084024042D4
:1029E00070B52DED048BF0EE409A05460E4600249E
:1029F00086BB00BF2BE0B0EE690AFFF757FCB0EED4
:102A0000408AB0EE690AFFF7F9FCF0EE408A28EE42
:102A1000A80A08EE080AB0EE409AB7EE000A39EEAE
:102A2000400AB0EEC00AB0EE409A9FED230AB4EE21
:102A3000C09AF1EE10FA03DDFF20BDEC048B70BDEF
:102A40009FED1E0A39EE800AF0EE409A641CAC42FB
:102A5000D1D32EE0FFE7002429E0B0EE690AFDF7AC
:102A60000FFCB0EE408AB0EE690AFDF775FCF0EE9F
:102A7000408A28EEA80A08EE080AB0EE409AB7EE9F
:102A8000000A39EE400AB0EEC00AB0EE409A9FED5F
:102A90000A0AB4EEC09AF1EE10FA01DDFF20CCE78D
:102AA0009FED060A39EE800AF0EE409A641CAC42B3
:102AB000D3D30020C1E70000BD3786356F12833ABB
:102AC00010B588B0044601210846FFF773F80121CC
:102AD0001020FFF78FF8072209212248FEF708FD92
:102AE00007220A211F48FEF703FD4FF4C06006903D
:102AF00002208DF81C008DF81D0000208DF81E00AE
:102B000001208DF81F0006A91648FEF7A9FC0294C3
:102B10000020ADF80C00ADF80E00ADF81000ADF8D7
:102B200014000C20ADF8120002A90F48FFF722FB99
:102B300001210D48FFF7C2FA012240F225510A484F
:102B4000FFF7F2FA25208DF8040003208DF8050028
:102B50008DF8060001208DF8070001A8FEF7E2FFBE
:102B600008B010BD000002400010014010B500295F
:102B70000AD00878002807D005487844FEF772F894
:102B8000002801D0002010BD0248784410BD00008C
:102B90002A650100226501000808A0F500114FEA2E
:102BA0003101704743004FEAD30C4FEA3C0C4340DD
:102BB0001FBF40070CF1605113F0FE4F70471CF02F
:102BC000006F03D100200CF0004170470CF000436F
:102BD00043EA507010B540EACC0000F00EF800BF98
:102BE000000000924FEA0001FFF7D6BF4FF000410E
:102BF0004FF00000A1F5002170470EF1020E2EF0FB
:102C0000030E5EF8044B244204D44FEA4102B2F1B1
:102C10007F4F11D84FEA4003B3F17F4F0CD80ED14C
:102C20004FEAD07CB2F17F4F0CEB4C0C0CF1020C54
:102C300008BF4CEBD17C04E04FF0080C01E04FEAF8
:102C4000D17C0CEB4C0324FA03F404F00704B4F138
:102C5000040C06D20EEB840CBDE810404CF0010CC5
:102C60006047DFE80CF0070802024FF00040A0F5D3
:102C7000800010BD0846420018BFD2F1807288BFA4
:102C800000F0004010BD4FF04070E1EE100A7047B8
:102C9000FDF766BD0000000000000000000000001D
:102CA0000000000000101010101010101010000094
:102CB0001010000000006C6C2424000000000100D3
:102CC000000000000024242424FE48484848FC90CA
:102CD0009090900000103C54929050381412129230
:102CE000547810000000225C94A8481010242A5246
:102CF00054880000000030484850206E54948C885E
:102D00008A74000000003030101000000000000045
:102D100000000000000408101020202020202010B7
:102D20001008040000804020201010101010102007
:102D3000204080000000000010543810385410006B
:102D40000000000000000010101010FE1010101005
:102D50000000000000000000000000000000000073
:102D60001010200000000000000000FE0000000025
:102D70000000000000000000000000000000000053
:102D8000101000000000040408081010202040402B
:102D900080800000000038448282828282828282A7
:102DA00044380000000010701010101010101010A7
:102DB000107C000000003844828204081020408209
:102DC00084FC0000000038448202043804020282BD
:102DD000443800000000040C141424244444FE046D
:102DE000040E00000000FC808080B8C482020282D1
:102DF0008478000000003C428280B8C482828282D3
:102E00004438000000007E428204040808081010C4
:102E100010100000000038448282443844828282CC
:102E2000443800000000384482828282463A02829E
:102E300044380000000000001010000000001010D6
:102E40000000000000000000101000000000001052
:102E500010200000000000000618608060180600C6
:102E600000000000000000000000FE0000FE000066
:102E70000000000000000000C0300C020C30C00058
:102E80000000000000384482820204081010100084
:102E90001010000000003844829AAAAAAAAAAA9692
:102EA00080423C00000010101028282844447C4434
:102EB00044EE00000000FC424242427C4242424258
:102EC00042FC000000003C4482808080808082823E
:102ED000443800000000F84442424242424242422A
:102EE00044F800000000FC444240447C444040421E
:102EF00044FC00000000FC444240447C444040400C
:102F000040F000000000344C828080808E848484F5
:102F10004C3400000000EE444444447C44444444A7
:102F200044EE000000007C10101010101010101063
:102F3000107C000000003E080808080808080888FF
:102F4000887000000000EE444848506050484844F3
:102F500044EE00000000E04040404040404040421D
:102F600044FC00000000C6446C6C6C54545444444F
:102F700044EE00000000CE4464646454544C4C4C55
:102F800044E400000000384482828282828282828D
:102F9000443800000000F844424242447840404037
:102FA00040E000000000384482828282828282BA3D
:102FB000443C02000000F048444444487048444403
:102FC00044E6000000003C44828040300C02028253
:102FD0004478000000007C54921010101010101063
:102FE000103800000000EE44444444444444444447
:102FF000443800000000EE444444442828282810A7
:10300000101000000000EE44545454545454282826
:10301000282800000000EE444428281010282844E6
:1030200044EE00000000EE44442828281010101040
:103030001038000000007E448408081020204082E0
:1030400084FC0000001C1010101010101010101044
:1030500010101C000000EE445454FE545454282810
:103060002828000000701010101010101010101000
:1030700010107000003048840000000000000000C4
:103080000000000000000000000000000000000040
:103090000000FE00004020000000000000000000D2
:1030A000000000000000000000007884047C84849C
:1030B0008C7600000000C0404040586442424242CA
:1030C00064580000000000000000384480808080C8
:1030D0004438000000000C040404344C84848484CC
:1030E0004C360000000000000000788484FC8080E2
:1030F00084780000000018242020F82020202020C0
:10310000207000000000000000003A444478807CF9
:1031100082827C000000C0404040586444444444E3
:1031200044EE0000000010100000301010101010CD
:1031300010380000000010100000301010101010A7
:10314000109060000000C04040405C485060504813
:1031500044EE00000000301010101011101010107C
:1031600010390000000000000000ACD29292929250
:1031700092D6000000000000000058E4444444449B
:1031800044EE000000000000000038448282828289
:1031900044380000000000000000D864424242644D
:1031A0005840E000000000000000364C8484844C4D
:1031B00034040E000000000000006C3020202020AD
:1031C00020700000000000000000788884601884EF
:1031D00044780000000000202020F820202020203B
:1031E00024180000000000000000C6424242424293
:1031F000463A0000000000000000EE444428282861
:1032000010100000000000000000EE444454542858
:1032100028280000000000000000EE4428101028BC
:1032200044EE0000000000000000EE444428281096
:1032300010A0C0000000000000007E448810204262
:1032400084FC0000000C1010101010601010101002
:1032500010100C0000101010101010101010101092
:103260001010100000C02020202020182020202036
:103270002020C00000000000000000728C00000050
:10328000000000000000000000001FE000003FF010
:1032900000003FF000001FE0000180060003C00FA7
:1032A0000003C00F0003C00F0003C00F0003C00FD6
:1032B0000003C00F0003C00F0003C00F0003000392
:1032C00000000000000000000000000000030003F8
:1032D0000003C00F0003C00F0003C00F0003C00FA6
:1032E0000003C00F0003C00F0003C00F0003C00F96
:1032F0000001800600001FE000003FF000003FF0EA
:1033000000001FE00000000000000000000000803E
:10331000000001800000038000000780000007809B
:103320000000078000000780000007800000078081
:103330000000078000000780000007800000018077
:1033400000000000000000000000000000000180FC
:103350000000078000000780000007800000078051
:103360000000078000000780000007800000078041
:103370000000078000000380000001800000008042
:10338000000000000000000000001FE000003FF00F
:103390000000FFF00001FFE0000000060000000F49
:1033A0000000000F0000000F0000000F0000000FE1
:1033B0000000000F0000000F0000000F00001FE3DE
:1033C00000007FF800007FF800001FE0000300000D
:1033D0000003C0000003C0000003C0000003C000E1
:1033E0000003C0000003C0000003C0000003C000D1
:1033F0000001800000001FF000003FF800003FFCCB
:1034000000001FFE000000000003FF800001FFC05D
:103410000000FFC000007F80000000180000003C9A
:103420000000003C0000003C0000003C0000003CAC
:103430000000003C0000003C0000003C00007F8CCD
:103440000001FFE00001FFF000007F800000000CA1
:103450000000003C0000003C0000003C0000003C7C
:103460000000003C0000003C0000003C0000003C6C
:103470000000001800007F800000FFC00001FFC0B6
:103480000003FF80000000000000000000020001B7
:1034900000030003000380070003C00F0003C00FF8
:1034A0000003C00F0003C00F0003C00F0003C00FD4
:1034B0000003C00F0003C00F0003C00F00031FE391
:1034C00000007FF800007FFC00001FE00000000308
:1034D0000000000F0000000F0000000F0000000FB0
:1034E0000000000F0000000F0000000F0000000FA0
:1034F0000000000F000000070000000300000001B2
:10350000000000000000000000001FFC00003FF869
:1035100000003FF000001FE0000180000003C00039
:103520000003C0000003C0000003C0000003C0008F
:103530000003C0000003C0000003C00000031FE040
:1035400000007FF800007FF800001FE0000000038B
:103550000000000F0000000F0000000F0000000F2F
:103560000000000F0000000F0000000F0000000F1F
:103570000000000600003FE000007FF00000FFF0C8
:103580000001FFE00000000000001FFC00003FF809
:1035900000003FF000001FE0000180000003C000B9
:1035A0000003C0000003C0000003C0000003C0000F
:1035B0000003C0000003C0000003C00000031FE0C0
:1035C00000007FF800007FFC00001FE00003000304
:1035D0000003C00F0003C00F0003C00F0003C00FA3
:1035E0000003C00F0003C00F0003C00F0003C00F93
:1035F0000001800600001FE000003FF000003FF0E7
:1036000000001FE0000000000007FFE00003FFC013
:103610000001FF880000FF1800000038000000785B
:1036200000000078000000780000007800000078BA
:10363000000000780000007800000078000000180A
:103640000000000000000000000000000000001862
:10365000000000780000007800000078000000788A
:10366000000000780000007800000078000000787A
:10367000000000780000003800000018000000087A
:10368000000000000000000000001FE000003FF00C
:1036900000003FF000001FE0000180060003C00FA3
:1036A0000003C00F0003C00F0003C00F0003C00FD2
:1036B0000003C00F0003C00F0003C00F00031FE38F
:1036C00000007FF800007FFC00001FE00003000303
:1036D0000003C00F0003C00F0003C00F0003C00FA2
:1036E0000003C00F0003C00F0003C00F0003C00F92
:1036F0000001800600001FE000003FF000003FF0E6
:1037000000001FE00000000000001FE000003FF08C
:1037100000003FF000001FE0000180060003C00F22
:103720000003C00F0003C00F0003C00F0003C00F51
:103730000003C00F0003C00F0003C00F00031FE30E
:1037400000007FF800007FFC00001FE00000000385
:103750000000000F0000000F0000000F0000000F2D
:103760000000000F0000000F0000000F0000000F1D
:103770000000000600001FE000003FF000007FF0A6
:103780000000FFE00000000000000000000000005A
:103790000000000000000000000000000000000029
:1037A0000000000000000000000000000000000019
:1037B0000000000000000000000000000000000009
:1037C00000000000000000000000000000000000F9
:1037D00000000000000000000000780000007800F9
:1037E00000007800000078000000780000007800F9
:1037F00000000000000000000000000000000000C9
:1038000000000000000000000000000000000000B8
:1038100000000000000000000000000000000000A8
:10382000000000000000070000000F8000000F8073
:1038300000000F80000007000000000000000000F2
:103840000000000000000000000000000000000078
:103850000000070000000F8000000F8000000F80B4
:103860000000070000000000000000000000000051
:103870000000000000000000000000000000000048
:103880000000000000000000000000000000000038
:10389000000000000007C006000FE0060000000C5A
:1038A0000030181800301818003018300030183068
:1038B00000301860003008C00007C0C0000FE08072
:1038C000000000000000000FE0000607C000063006
:1038D00018000C3018000C30180018301800303068
:1038E00018003030180060000000C00FE000C00772
:1038F000C000000000000000000000000000000008
:1039000000000000000000000000000000000000B7
:10391000000000000000000000000000000700E0C0
:10392000000887FC00088E03000898018007180033
:1039300080003000000030000000700000006000D7
:1039400000006000000060000000600000006000F7
:10395000000070000000300000003000000038005F
:103960000000180100000C03000007FC000001F03B
:103970000000000000000000000000000000000047
:103980000000000000000000000000000000000037
:103990000000000000000000000000000000000027
:1039A0000000000000000000000000000000000017
:1039B0000000000000000000000000000000000007
:1039C00000003FF000007FF000007FE00000FFC03B
:1039D00000000000000000000000000000000000E7
:1039E00000000000000000000000000000000000D7
:1039F00000000000000000000000000000000000C7
:103A0000000000000000B5E70200020002007FF0A5
:103A1000421042107FF0421042107FF04200020834
:103A2000020801F800000000D7D37FF0002000401A
:103A3000008001000200FFF8020002000200020004
:103A4000020002000E0000000000C8AB01000100EF
:103A500002800440082010102FE8C1060100010078
:103A60001FF00100010001007FFC0000B6AF004024
:103A700000407C40004001FC0044FE4420442044BF
:103A8000208448844484FD04450402280410BCBCFE
:103A900010201020102013FEFC201020102015FCF8
:103AA00018843088D04810501020105051882606B5
:103AB000CAF501000120011001107FFC03800540C0
:103AC00005400920111021084104010201000100F4
:103AD0000100D2BA0080404027F8114001408278AE
:103AE000424816A81AD02350222042204250028871
:103AF00000000000BEA73FE020203FE020203FE084
:103B00000000FDF885088508FDF885088508FDF8A2
:103B1000850800000000B2E200084F8828880AA843
:103B20008AA84AA80AA82AA82AA842284508848858
:103B30008888103800000000CAD440502048204037
:103B40000FF80040E04027402240224022202A284F
:103B500033A82E18000800000000B3CC00001BF0B2
:103B6000E210221023F0F800200033F0688060801B
:103B7000A3F02080208027F800000000D0F202008F
:103B800001003FF820002FF02020224021803FF844
:103B90002088209040804080838000000000D1D5A4
:103BA000200010F87E20444028F87E8848A850A8BD
:103BB00064A848A872A88450188861080000000012
:103BC000C9AB100010003FE0404080807FF0421001
:103BD000421042107FF04000400840083FF80000CB
:103BE0000000CCEE20802FF8208027F0F41027F082
:103BF000241027F0241027F03410CFF802200410EE
:103C000000000000B3E404000200FFF808001040C8
:103C100020207FF008900880088008801088208885
:103C2000C07800000000CEC4040002000200FFF8CB
:103C30001040104008800880050002000500088040
:103C40003060C01800000000D7D604000200FFF862
:103C5000800880083FC0008001000200FFF80200D9
:103C6000020002000E0000000000CFD43FE0202040
:103C700020203FE0202020203FE00880489028902E
:103C800028A008800880FFF800000000CABE0000DD
:103C90003FE0000000000000FFF802001240122088
:103CA00022104208820802000E0000000000CDBC75
:103CB0007FF84008440847C84848548843084CC81F
:103CC000733840884C08430840887FF800000000A3
:103CD000C6AC00802080208020803FF020002000A3
:103CE00020003FC020402040204040408040000055
:103CF0000000B4A520403840484091F07D50555018
:103D000055507D5055F054407C40545057F88C0825
:103D100000000000C3FE2220222027F8FA2027F00E
:103D2000241027F03410E7F020802FF821402220C3
:103D3000EC1800000000CAE440804140F22044102A
:103D40008BE8A000F78824A827A834A8E7A824A80F
:103D5000248825B800000000C8EB08000400040017
:103D60000200020005000500088008801040104095
:103D700020204010800800000000C8AB02000200B4
:103D80000500088010402020DFD8020002001FC07C
:103D9000020002000200FFF800000000B3CC0000A7
:103DA0001BF0E210221023F0F800200033F06880AE
:103DB0006080A3F02080208027F800000000BCBCB9
:103DC000208020802080F7F02080208027E0322093
:103DD000E2202140208021402220EC180000000039
:103DE000CAF50200024002200200FFF807000A8024
:103DF0000A801240222042108208020002000000C5
:103E00000000D6A702000200FFF8020002007FE0D7
:103E100010201040088005000200050018C0E0389E
:103E200000000000B3D62080208023F0F88020809E
:103E300027F828203020E7F82020222021202020E9
:103E4000E0E000000000D7A8020002007FF00400BC
:103E50000400FFF8080010003FE0002000401C8034
:103E60000300008000000000D7A201004080200075
:103E700017F0008080804080008017F01080208044
:103E8000208040804FF800000000C5FA2040244008
:103E90002440F4482450276024403440E440244027
:103EA000244025482648E43800000000B7A202005C
:103EB0002220221044007FF8040008000FE01420A4
:103EC00024404280810006C0383800000000B3C999
:103ED00000A0009000807FF8408040907C9044904B
:103EE00044A044A0444858A841188208000000009B
:103EF000B9A601000100F90023F0211021102110C2
:103F0000211021103910C2100210041008600000A6
:103F10000000D2C60000002000780CE4790451684B
:103F200010307E6019981A3C2FE448E408380030BD
:103F300000600000D1A100000120012003FC6220EC
:103F40003420042003FC240021B021202220323E12
:103F500018000FE00000D4F10000000010FC130472
:103F6000110C3DF8703E10D015907CF0503E1810AA
:103F70001BFE023000200000CFEE0000000003FE18
:103F800000607C4012FC11041106113611241F44FC
:103F9000794400C0009C01860000C4BF00000000FE
:103FA0000FE03C18200820043E04600460047E04F6
:103FB0006004200C20081FF001800000B6CC000037
:103FC000080011FC103E3EF82D8C29044904090418
:103FD0003E8C50FC10881EC811FC100E0000B0B4BE
:103FE00000000040006012FE13023A427F4410C4F9
:103FF0001BFE3C987190113011A00078004C00001D
:10400000C8B70000004000F878C41F8C313821EC9C
:104010002126413A7DE2272225FA3D26012401048A
:104020000000B6A80000010001705FFC70042004CD
:104030002FF801001100113821C431003F0063E066
:1040400040380000B3A4000000000818086008C051
:104050000B001E00181C7FF01000118010E01838B3
:10406000098E0F000000B0B400000040006012FE96
:1040700013023A427F4410C41BFE3C9871901130E9
:1040800011A00078004C0000B7B50000000007F850
:104090000600240014F8078C04042408261825F0D0
:1040A000647C64C220801FC00000BBD800000000F8
:1040B0001FF030182008278C2C44284428442CC496
:1040C00027842004300C1FF803800000C7B60100CD
:1040D000210821083FF800202220223EFF4222949E
:1040E00022103E10221022283E2822440082CABDFF
:1040F0000048004400440040FFFE004000403E40B5
:1041000008400840082008220F12780A2006000202
:10411000BFAA00007FFC08200820082008200820F3
:10412000FFFE082008200820082010201020202052
:104130004020B7A201001110110822003FFC02002C
:10414000040007F80A080908111010A0204040A038
:1041500003181C06CDF800007FFC40044004421404
:1041600052944A54442444244A544A545294610474
:10417000400440144008D6D00100010001000100B5
:104180003FF8210821082108210821083FF82108CB
:104190000100010001000100CEC402000100010085
:1041A000FFFE1010101008200820044002800100BB
:1041B0000280044008203018C006B2E2000427C480
:1041C00014441454855445544554155415542554D9
:1041D000E55421042284224424140808CAD4002867
:1041E00020241024102007FE0020F02017E01120CA
:1041F00011101110151019CA170A0206000200004A
:1042000000000000000000000000000000000000AE
:10421000000000000000000000000000000000009E
:10422000B4BF000000000000020100063FC00C3FC8
:10423000E01803001002003336603726203E663057
:104240001C643018642031FEE03F1FC01C0C0000CD
:104250000C000704003E07F00001C0000000000051
:1042600000000000000000000000C9AB00000000DA
:10427000000001FE0003E3000703000C03001C3FE5
:10428000003BFFC03F30600C30200C30200C102071
:104290000C10600FFFC0083F000800000800600E0F
:1042A0003FE007FC000000000000000000000000EC
:1042B00000000000CCEE0000000000000003000041
:1042C000FFE00C07F00C06000CFF803FF0E01FC081
:1042D000600CFE300CCC3004F83004FF2004C02009
:1042E0001FFE603EC06001FFF001FFF00060600053
:1042F0004000000000000000000000000000B3E4E7
:1043000000000000000000200000300007FFF03F28
:10431000FFE00300000601800C01800801C01807BF
:10432000E00FFE7007E0000206000604000404002F
:104330000404000C06700C07E00000000000000000
:104340000000000000000000B2E2000000000000D9
:1043500000003039FC301FCC300706B00F06F019D2
:1043600007B03137B03136F01F27F00167F001E5B3
:10437000F001E1F00041F00CF8B03CD830008C3096
:10438000008030000000000000000000000000007D
:104390000000CAD40000000000000803600C037095
:1043A0000C0330003FE0003F800801003C01800426
:1043B0007F80047D800C00800C10C00C10C00C1895
:1043C000400C1C600F7E6006703000003000000062
:1043D000000000000000000000000000CEC400004B
:1043E0000000C00000E00000700001FFE01FFFC0FF
:1043F000180100000300000600000E00001C000E63
:10440000180007300001E00000F00000FC00018F00
:10441000000303C00201E0000000000000000000F3
:10442000000000000000D7D60000000000000020BF
:1044300000003F0031FFE03FC02038003030FE2058
:1044400033C660100200000C0000180000180000C5
:104450000C0007FFE03FFFE0000400000C00000C30
:10446000000000000000000000000000000000004C
:10447000CFD400000000000007FF000F03C00C00B5
:10448000401FF8601800600800400E01C007FF00E0
:104490000000000184000184001987800F8CE00770
:1044A0008C2000CC0003FFE01FFFC00000000000D4
:1044B00000000000000000000000CABE0000000074
:1044C00000000E00001FFFC0007FE00000000000A1
:1044D00000000000000000003FC03FFFE00030008F
:1044E0000030000030000613000C13C00C18F01848
:1044F0001800181800000000000000000000000074
:1045000000000000CDBC00000000000007FF000F0D
:1045100003801CC0C019FC6011C66033062033E65E
:104520003036FF30301FF030703030FC30339F3089
:1045300036002010E060187C400E01C003FF000030
:104540003800000000000000000000000000C6ACC1
:1045500000000000000008180018080018080018E3
:104560000800180C201FFFF01FF8001800001000B2
:104570000010F8001FFE001E0300100300100300CF
:1045800010030010030018020000000000000000EB
:104590000000000000000000CFD400000000000078
:1045A00007FF000F03C00C00401FF86018006008F0
:1045B00000400E01C007FF000000000184000184DC
:1045C000001987800F8CE0078C2000CC0003FFE0EF
:1045D0001FFFC000000000000000000000000000FD
:1045E0000000CABE0000000000000E00001FFFC057
:1045F000007FE0000000000000000000000000005C
:104600003FC03FFFE00030000030000030000613E4
:10461000000C13C00C18F018180018180000000047
:10462000000000000000000000000000B4A5000031
:10463000000000000601800FC1801E6180304FC065
:1046400020CFE0078D303FC9303379303379303FA8
:10465000FB3037FF203267E03FE3803FE3C0326347
:10466000603267F0304FB000000000000000000032
:10467000000000000000C3FE000000000000003049
:10468000C000FFF00C79C00C1F800C7FE03FE060A1
:104690000CC0300CFC3004C03007C0301E60603CE1
:1046A0003FC0041C00047FE000FFE00030C0006059
:1046B000600000000000000000000000000000009A
:1046C000CAE40000000000000C03800C0FC0081CAE
:1046D000703F70001F9FC0101FC0100000367C305C
:1046E00017E6301FE3B0067FB00277F007E3F03F34
:1046F0007FF01336F0032630032630000000000060
:1047000000000000000000000000C8EB00000000F6
:10471000000006000003800001C00000E0000070FF
:104720000000780000CC0000C60001830003018077
:104730000700C00600E00C007018003018000030C0
:104740000000000000000000000000000000000069
:104750000000000000000000000000000000000059
:104760000000000000000000000000000000000049
:104770000000000000000000000000000000000039
:106FC00000000000000000000000000000000020A1
:106FD0000800000000200000080000200020080039
:106FE000002000820905126A0C300D350D16057659
:106FF0000BEF08E40000002000000000002000006B
:107000000801000100200000000000200000000036
:107010000000000000000000000000000000000070
:1070200008000001002000000001080000000081AD
:107030000020000008000040002000400000000088
:107040000000000000000000000000000000000040
:107050000000000000000000000000000000000030
:107060000000000000000000000000000000000020
:107070000000000000000000000000000000000010
:107080000000000000000000000000000000000000
:1070900000000000000000000000000000000000F0
:1070A00000000000000000000000000000000000E0
:1070B00000000000000000000000000000000000D0
:1070C00000000000000000000000000000000000C0
:1070D000000000000020000000000060000000C56B
:1070E00025551FFD079D17BE17FF07FF07FF07FE6A
:1070F00017FF1FFE1CB310C50000000008000000B1
:10710000002000200801000000000800002100000D
:10711000000000000000000000000000000000026D
:1071200008200800000100200206253416191F1B44
:1071300026DB05D81DFA171B1E3709A60020000004
:10714000000000000000000000000000000000003F
:10715000000000000000000000000000000000002F
:10716000000000000000000000000000000000001F
:10717000000000000000000000000000000000000F
:1071800000000000000000000000000000000000FF
:1071900000000000000000000000000000000000EF
:1071A00000000000000000000000000000000000DF
:1071B00000000000000000000000000000000000CF
:1071C00000000000000000000000000000000000BF
:1071D0000000002000000000004008000A8B1F9DF6
:1071E0000FFF07FF07BF17FF07FF07DF0FFF07DFCF
:1071F00007FF07FF07DF07FE15D611C800210000B3
:107200000820000000000000000000010000000055
:10721000000000000000000000000000000000006E
:1072200008000000084111A917FF1DB60B4B0249C9
:10723000124A02CA0ACA0A6912AA006300010000BF
:10724000000000000000000000000000000000003E
:10725000000000000000000000000000000000002E
:10726000000000000000000000000000000000001E
:10727000000000000000000000000000000000000E
:1072800000000000000000000000000000000000FE
:1072900000000000000000000000000000000000EE
:1072A00000000000000000000000000000000000DE
:1072B00000000000000000000000000000000000CE
:1072C00000000000000000000000000000000000BE
:1072D000000000000001082000000105275C07FFF6
:1072E00007DF07FF07FF07FE07FE07FF0F9F07FFE8
:1072F00007FF07FF0FDF07BF07FF077B1BD010004B
:1073000000200020002000000001002008000000F4
:10731000000000000000000000000000000000006D
:107320000020002008002D971D970000000000009D
:1073300000200000000000200000000000200000ED
:10734000000000000000000000000000000000003D
:10735000000000000000000000000000000000002D
:10736000000000000000000000000000000000001D
:10737000000000000000000000000000000000000D
:1073800000000000000000000000000000000000FD
:1073900000000000000000000000000000000000ED
:1073A00000000000000000000000000000000000DD
:1073B00000000000000000000000000000000000CD
:1073C000000000000000000000000000000000209D
:1073D000080008000000000010831E5807FF079FE8
:1073E00007FF07FF0FFF0FFF07DF07DF07FF0FDEB6
:1073F00007FF07FF0FDF07FF07FF0FFF0FDF26184D
:1074000009050000000000010061000000200000EC
:107410000000000000000000000000000000080064
:107420000001080000000D3325F8000000000000F6
:1074300000200020002000200000080000000000C4
:10744000000000000000000000000000000000003C
:10745000000000000000000000000000000000002C
:10746000000000000000000000000000000000001C
:10747000000000000000000000000000000000000C
:1074800000000000000000000000000000000000FC
:1074900000000000000000000000000000000000EC
:1074A00000000000000000000000000000000000DC
:1074B00000000000000000000000000000000000CC
:1074C00000000000000000000000000000000000BC
:1074D00008000000000000410B0C0FFE07FF07FE34
:1074E00007FF07FF07DF07FF07FF07DF07FF07FFAC
:1074F00007DF07FF07BF07DF07FF07FF07FF07DFFC
:107500001F1B328B0000002008010020000000003B
:10751000000000000000000000000000000000204B
:1075200000000063002011870F3C1CD40A69094643
:10753000082200821063000100C300000040000028
:10754000000000000000000000000000000000003B
:10755000000000000000000000000000000000002B
:10756000000000000000000000000000000000001B
:10757000000000000000000000000000000000000B
:1075800000000000000000000000000000000000FB
:1075900000000000000000000000000000000000EB
:1075A00000000000000000000000000000000000DB
:1075B00000000000000000000000000000000000CB
:1075C00000000000000000000000000000000000BB
:1075D00000000020100000200D5407DF07DF07FD2A
:1075E00007DE07FF07FF07DF0FDF07FF07FF07DFE4
:1075F00007DF0FFF07FF07DF07FF07FF0FDE0FFFA4
:1076000007FF0FFD1B4D00000021000100000000DE
:107610000000000000000000000000000000000169
:10762000006000010800008015341FFF07DE1F3ACC
:1076300016B90E391E3A16FB1E160904000000008A
:10764000000000000000000000000000000000003A
:10765000000000000000000000000000000000002A
:10766000000000000000000000000000000000001A
:10767000000000000000000000000000000000000A
:1076800000000000000000000000000000000000FA
:1076900000000000000000000000000000000000EA
:1076A00000000000000000000000000000000000DA
:1076B00000000000000000000000000000000000CA
:1076C00000000000000000000000000000000000BA
:1076D0000001000000200000157607DF0FFE07FF05
:1076E00007FF07FF07FF07FF07FF07FF07FF0FDF82
:1076F0000FFF07BF07FF07FF0FBF07FF07FF07FECB
:1077000007FF0FDF1FFF14710000080008010000D1
:107710000000000000000000000000000000000069
:1077200000000800080013AD0FFF15B7092501047C
:107730000124114509040165010400210000000035
:107740000000000000000000000000000000000039
:107750000000000000000000000000000000000029
:107760000000000000000000000000000000000019
:107770000000000000000000000000000000000009
:1077800000000000000000000000000000000000F9
:1077900000000000000000000000000000000000E9
:1077A00000000000000000000000000000000000D9
:1077B00000000000000000000000000000000000C9
:1077C0000000000000000000000000000000004079
:1077D00008010000004000001C7217FF07DF07FFD0
:1077E00007FF07DF07FF07FF07FF07FF07FF07FF89
:1077F00007FF07FF07FF07FF07FF07FF07FF07FF59
:1078000007FF07BF07FF17BE1390000100400002EB
:1078100000400000000100200020000100010040A5
:107820000801000010001FDD0472080000000001C4
:1078300000000020000000000001004100000000E6
:107840000000000000000000000000000000000038
:107850000000000000000000000000000800002000
:1078600000000000004000000800080000200000A8
:107870000000000000000000000000000000000008
:1078800000000000000000000000000000000000F8
:1078900000000000000000000000000000000000E8
:1078A00000000000000000000000000000000000D8
:1078B00000000000000000000000000000000000C8
:1078C00000000000000000000000000000000000B8
:1078D00000001000000000000208177C07FF07FDF1
:1078E00007FE07FF07FF07DF0FFF07FF07FE07FF82
:1078F00007FF07FF07FF07FF07FF07FF07FF07DF78
:107900000FDF07FF07FF0FFF1FBD0C0F0001000077
:1079100000000020000000000041000008000020DE
:1079200008000021002113AE26FB016608000000BC
:1079300000210020100000000000000000000000F6
:107940000000000000000000000000000000000037
:1079500000200000000000000000002000200000C7
:107960000041000000000000002000000000002096
:1079700000200000000000000000000000000000E7
:1079800000000000000000000000000000000000F7
:1079900000000000000000000000000000000000E7
:1079A00000000000000000000000000000000000D7
:1079B00000000000000000000000000000000000C7
:1079C00000000000000000000000000000000000B7
:1079D000004000000000080000001CF407FF07FF43
:1079E00007FF07FF07FF07DF07FF0FFF07FF07FF7F
:1079F00007FF07FF07FF07FF07FF07FF07FF07FF57
:107A00000FDF0FFF07FF079F0FFF0F7C1411000010
:107A10000000080000000000080100200000000035
:107A200008000041000018E53EFD07FE2516134D35
:107A30001B6E1BCF13AD138D1BEF01040000000064
:107A40000000000000000000000000000000000036
:107A500000200000000000000020002000000800BE
:107A600000000000080008000000000000220000E4
:107A70000000000000000000000000000000000006
:107A800000000000000000000000000000000000F6
:107A900000000000000000000000000000000000E6
:107AA00000000000000000000000000000000000D6
:107AB00000000000000000000000000000000000C6
:107AC00000000000000000000000000000000800AE
:107AD000080000000000000000000A4A1F1C0FFF01
:107AE00007DF07DF07FF0FFF07FF07FF07DF07FFBE
:107AF00007FF07FF07FF07FF07FF07FF07FF07FF56
:107B000007DF07FF0FFF07DF07DF0FFF07FF130C7C
:107B1000002008000801000008000000002000000C
:107B200000000040002029C72C91148F1CB21CD4E7
:107B30001CB23C11149225351D9501A800230000AC
:107B40000000000000000000000000000000000035
:107B500000000000080000000020000010000040AD
:107B600000000000000000210000000000000000F4
:107B70000000000000000000000000000000000005
:107B800000000000000000000000000000000000F5
:107B900000000000000000000000000000000000E5
:107BA00000000000000000000000000000000000D5
:107BB00000000000000000000000000000000000C5
:107BC0000000000000000000000000000000002095
:107BD0000021002000200000000100010A071E9A79
:107BE0001FDF07FF07DF07DF07FF07FF07FF07FFAD
:107BF00007FF07FF07FF07FF07FF07FF07FF0FFF4D
:107C000007DF07DF0FFF07FF07FF07DF07FF179EED
:107C100001E8002100010000002008000020000011
:107C20000000002000200000002309450B8E0D54A9
:107C300014F213AE0B0C0062002008600802000072
:107C40000000000000000000000000000000000034
:107C500000000000000000000000000000A2000082
:107C600000210000000008000000000000000020CB
:107C700000200020002000000000000000000000A4
:107C800000000000000000000000000000000000F4
:107C900000000000000000000000000000000000E4
:107CA00000000000000000000000000000000000D4
:107CB00000000000000000000000000000000000C4
:107CC00000000000000000000000000000000000B4
:107CD0000801000000000020000100000000004139
:107CE00014B20FFE07FF07FF0FFF07FF07FE07FF96
:107CF00007FF07FF07FF07FF07FF07FF07FF07DF74
:107D000007FF07FF07FF07FF07FF07DF0FDF07DF9B
:107D10001F7D132C08000000000000010000080176
:107D200000000001002000C30D571FDF16DB0D9679
:107D30000C721596177D273B0227000000010000FA
:107D400000000000000000000000000000000060D3
:107D5000080008000040002010000061248F255515
:107D600001880801002000400000102100010800E7
:107D700000000000000000000020000000000000E3
:107D800000000000000000000000000000000000F3
:107D900000000000000000000000000000000000E3
:107DA00000000000000000000000000000000000D3
:107DB00000000000000000000000000000000000C3
:107DC00000000000000000000000000000000000B3
:107DD000000000000000000000000800000008A3F0
:107DE0001CD20FFE07FF07FF07FF07FF0FFF07FF6C
:107DF00007FF07FF07FF07FF07FF07FF07FF07FF53
:107E00000FFF07FF07FF07FF0FBE07DF07FF1FFF7B
:107E1000177D01E70000002008000020000000009E
:107E2000002000010820130C27FE1AAA08200800D1
:107E30000040000000642DD81F9D01A8080000002C
:107E40000000000000000000000000000000002012
:107E500008000800002000201000002002261F9DBE
:107E600017BC0E570BAE11A70061000008000001FF
:107E70000001000100000000000000000000000000
:107E800000000000000000000000000000000000F2
:107E900000000000000000000000000000000000E2
:107EA00000000000000000000000000000000000D2
:107EB00000000000000000000000000000000000C2
:107EC0000000000000000000000000000000002092
:107ED0000000004008000800002000000A292F7D53
:107EE0000FFF07FF07DF0FFE07FE07DF07FF07FF94
:107EF00007FF07FF07FF07FF07FF07FF07FF07FF52
:107F000007FF07DF07FF07FF07FF07FF17FF07FE52
:107F1000120A0801002100000020080000200020B3
:107F2000080200000020157624D40800000000019B
:107F300008020000004000010F7B02EC000000007E
:107F40000000000000000000000000000000000031
:107F500000000000000000000000000008010061B7
:107F600009251B4E2DB726FB16DA15951C50032B41
:107F70000B0B0A69014500410000000008000000E9
:107F800000000000000000000000000000000000F1
:107F900000000000000000000000000000000000E1
:107FA00000000000000000000000000000000000D1
:107FB00000000000000000000000000000000000C1
:107FC00000000000000000000000000000000800A9
:107FD0000020000000000020080009A7177E07FF0E
:107FE00007FF07FF07FF07FF07FF07FF07FF07FF61
:107FF00007FF07FF07FF07FF07FF07FF07FF07FF51
:1080000007DF07FE0FDF07BF07FF07FD0F5D1944FE
:108010000040000000000000000000000000000020
:1080200000000041000014D22636002000010800A4
:1080300000400000000001842F5F01650000000087
:1080400000200020080008000000000000000000E0
:108050000000000000000000000000000000000020
:1080600008000000000000C302080BEF25751FBECA
:108070001F1D2FDF1FBE053402AB09A60103000040
:108080000000004008010021006100000001000024
:1080900000000000000000000000000000000000E0
:1080A00000000000000000000000000000000000D0
:1080B00000000000000000000000000000000000C0
:1080C00000000000000000000000000000000000B0
:1080D000000000200000002008421DF50FFF07FFF0
:1080E00007FF07FF07FF07FF07FF07FF07FF07FF60
:1080F00007FF07FF07FF07FF07FF07FF07FF0FDF68
:1081000007FE07FF07DF07FF07FF07FF1ACB006126
:10811000000000000000000000000000000000005F
:1081200000600000000010E62F9D0B6D082000018C
:108130000800000020C7163905B71000000008012C
:10814000000000000020000000000000000000000F
:1081500000000000000000000000000000000020FF
:10816000002000200000000000000000006200620B
:108170000082010512EC1D141E1826BC1FBF163B01
:108180001C32138D014410000800000000000000A4
:1081900000000000000000000000000000000000DF
:1081A00000000000000000000000000000000000CF
:1081B00000000000000000000000000000000000BF
:1081C000000000000000000000000000000000208F
:1081D000000000000000002001C827FF07FF07FF84
:1081E00007FF07FF07FF07FF07FF07FF07FF07FF5F
:1081F00007FF07FF07FF07FF07FF07FF07FF0FDE68
:1082000007FF07FF0FFF07FF0FDF1410000000003C
:10821000000000000000000000000000000000015D
:108220000800000008611986271D0FFF1EDA257956
:10823000161716782F9D0FFF167A1DB625F83DF5F7
:10824000124900010800002000200000000000008A
:10825000000000000000000000000000000000001E
:1082600000000000000000200000000000000000EE
:108270000020004000000800000000E309E70C10A7
:1082800016990EDB2EDC15F61D52092300000000A6
:1082900000000000000000000000000000000000DE
:1082A00000000000000000000000000000000000CE
:1082B00000000000000000000000000000000000BE
:1082C000000000000000000000000000000000208E
:1082D0000000000000000000141117BF07DE07FFB8
:1082E00007FF07FF07FF07FF07FF07FF07FF07FF5E
:1082F00007FF07FF07FF07FF07FF07FF07FF07FF4E
:1083000007FF07FF07DF07FF141008000000000049
:10831000000000000000000000000020000000003D
