:020000040800F2
:1000000000C4012049020008A1140008E30F000801
:100010009D140008B1070008C33500080000000067
:100020000000000000000000000000002132000875
:10003000A90B000800000000311500083933000842
:1000400063020008630200086302000863020008FC
:1000500063020008630200086302000863020008EC
:1000600063020008630200086302000863020008DC
:1000700063020008630200086302000863020008CC
:1000800063020008630200086302000863020008BC
:1000900063020008630200086302000863020008AC
:1000A000630200086302000863020008630200089C
:1000B000630200086302000863020008630200088C
:1000C000630200086302000863020008630200087C
:1000D00063020008A53300086302000863020008F9
:1000E000630200086302000863020008630200085C
:1000F000630200086302000863020008630200084C
:1001000063020008A51700086302000863020008E4
:10011000630200086302000863020008630200082B
:10012000630200086302000863020008630200081B
:10013000630200086302000863020008630200080B
:1001400063020008630200086302000863020008FB
:1001500063020008630200086302000863020008EB
:1001600063020008630200086302000863020008DB
:1001700063020008630200086302000863020008CB
:10018000630200086302000800F002F800F044F87F
:100190000AA090E8000C82448344AAF10107DA45E2
:1001A00001D100F039F8AFF2090EBAE80F0013F0F0
:1001B000010F18BFFB1A43F001031847FC5E04004F
:1001C0001C5F0400103A24BF78C878C1FAD85207DF
:1001D00024BF30C830C144BF04680C6070470000C1
:1001E0000023002400250026103A28BF78C1FBD840
:1001F000520728BF30C148BF0B607047642900F028
:10020000BD80782900F0F680002070471FB505F00A
:1002100021FB1FBD10B510BD00F098FA1146FFF785
:10022000F5FF04F0D7FE00F0B6FA03B4FFF7F2FFD3
:1002300003BC03F04BFB000030BF72B6704762B6E0
:10024000704780F30888704709488047094800478D
:10025000FEE7FEE7FEE7FEE7FEE7FEE7FEE7FEE776
:10026000FEE7FEE704480549054A064B70470000D3
:100270003D3300088901000800BE012000C40120B0
:1002800000C0012000C00120704710B54C1084EA66
:10029000530404D54042C1F1000138BF491E1B423E
:1002A00004D55242C3F1000338BF5B1E00F017F9BA
:1002B00014F0804F04D04042C1F1000138BF491E04
:1002C00014F0004F04D05242C3F1000338BF5B1E4C
:1002D00010BD00000FB4044910B503AA029800F045
:1002E000EDF910BC5DF814FB180000200FB41CB52C
:1002F000074B06AA7B4469460090059800F0C5F9B3
:100300000020694600F0D4F91CBC5DF814FB000025
:10031000B90300002DE9F0410E460446002020629A
:100320002046E168884730B3252805D0D4E901216B
:100330009047206A401CF2E7E16820460027884782
:10034000050018D0A5F14100192802D820354FF436
:1003500000673246294620462760FFF74FFF40B12D
:10036000012804D0F61D26F007060836D8E7361D0A
:10037000D6E72846DAE7206ABDE8F0812DE9F041AA
:100380000646002410687529314616A510D0AFF333
:100390000080002802DA404213A507E031688A078E
:1003A00001D512A502E0490704D511A5012401E0F9
:1003B000AFF3008000210A2206F1240709E0B0FB18
:1003C000F2FCB0FBF2F302FB1C003030785418460C
:1003D000491C0028F3D123462A463046BDE8F041A7
:1003E00000F0F4B8000000002D0000002B00000019
:1003F0002000000070B504460D4621461068AFF39A
:1004000000802188090502D50F4A7A4402E00E4A8D
:100410007A440E32002104F1240305E000F00F06B7
:100420000009965D5E54491C0028F7D1207800230E
:10043000000704D5702D02D009B1022311322046E5
:10044000BDE8704000F0C2B8805C0400032A40F2AE
:10045000308010F0030C00F0158011F8013BBCF166
:10046000020F624498BF11F801CB00F8013B38BF7E
:1004700011F8013BA2F1040298BF00F801CB38BF8C
:1004800000F8013B11F0030300F02A81083AC0F0A4
:10049000088051F8043B083A51F804CBA0E8081052
:1004A000F5E7121D5CBF51F8043B40F8043BAFF385
:1004B0000080D20724BF11F8013B11F801CB48BFDF
:1004C00011F8012B24BF00F8013B00F801CB48BF15
:1004D00000F8012B7047704770477047704753EA28
:1004E000020C00F069802DE9F04B4FF00006002B64
:1004F0001FBFB3FA83F503FA05F424FA05F65E404C
:1005000012BF1643B2FA82F502FA05F4C5F12005CE
:100510001EBF22FA05FC44EA0C04203556EA044CBE
:100520004FEA144418BF641C4FF000084FF0000954
:10053000904271EB030C39D3002919BFB1FA81F74E
:1005400001FA07F6B0FA80F700FA07F6C7F12007BC
:100550001EBF20FA07FC46EA0C062037B6FBF4FC67
:10056000A7EB0507103F07F01F0BCBF120060CFA95
:100570000BFB2CFA06F644BFB3460026202FA4BF7F
:100580005E464FF0000B5BEA060C08BF4FF0010B14
:1005900019EB0B09ABFB027C48EB0608C01B06FB02
:1005A00002CC0BFB03CC71EB0C01C1E70B460246FE
:1005B00041464846BDE8F08B13B54FF000004FF0C0
:1005C0000001AFF30080BDE81C4070472DE9F04703
:1005D0000D4699469246044600F1240801688806B3
:1005E00004D5E06921F01001216000E00120A8425B
:1005F00001DD471B00E00027A1697A1902EB090021
:10060000081AA0612078C00602D42046AFF300800B
:10061000002608E0D4E901211AF806009047206A74
:10062000401C761C20624E45F4DB2078C0060AD5BB
:100630002046AFF3008006E0D4E901213020904746
:10064000206A401C2062381EA7F10107F4DC07E095
:10065000D4E9012118F805009047206A401C206267
:10066000281EA5F10105F3DC2046AFF300802078B9
:10067000000602D50220BDE8F0870120FBE700005C
:1006800001694A1C02610878704700B58FB0CDE956
:1006900001310021059105497944CDE90310114646
:1006A0006846FFF737FE0FB000BD0000E5FFFFFF13
:1006B0000A6802F8010B0A6070470000074B70B52A
:1006C0000D467B44FFF7E1FF0446284600F03AF868
:1006D00010B14FF0FF3070BD204670BDBB47000029
:1006E00010B5203AC0F00B80B1E81850203AA0E8CD
:1006F0001850B1E81850A0E81850BFF4F5AF5FEA01
:10070000027C24BFB1E81850A0E8185044BF18C9B3
:1007100018C0BDE810405FEA827C24BF51F8043B5A
:1007200040F8043B08BF7047D20728BF31F8023BAE
:1007300048BF11F8012B28BF20F8023B48BF00F842
:10074000012B7047007B00F080007047754600F079
:100750002BF8AE4605006946534620F00700854653
:1007600018B020B5FFF77EFDBDE820404FF0000631
:100770004FF000074FF000084FF0000B21F0070189
:10078000AC46ACE8C009ACE8C009ACE8C009ACE8CC
:10079000C0098D46704710B50446AFF3008020466F
:1007A000BDE81040FFF741BD004870479CBD0120E7
:1007B00000BFFEE770B500254FF4803404E08020D0
:1007C00000F0DCFF00B103E0201EA4F10104F6D12B
:1007D00000BF0CB9032070BD40F2FF5000F0A4FF31
:1007E0002846F8E770B5044605E01648056805F0A8
:1007F000450000B100E0F8E700BF042000F0BEFFB4
:1008000020B1042000F090FF032070BD012000F013
:10081000B5FF20B1012000F087FF0120F5E709486E
:1008200024380068A04201D01020EEE740F2FF50CB
:1008300000F07AFF03482038006808210840C0B261
:10084000E3E70000342C014070B500264FF48035FA
:1008500005E01148046804F0450000B103E0281EDB
:10086000A5F10105F5D100BF15B104F0040028B1D0
:100870000326042000F058FF304670BD012000F030
:100880007DFF18B10126012000F04EFF40F2FF501D
:1008900000F04AFF3046F0E7342C014010B505E087
:1008A0000B48046804F0450000B100E0F8E700BF21
:1008B000042000F063FF20B1042000F035FF032086
:1008C00010BD40F2FF5000F02FFF0020F8E70000BD
:1008D000342C01402DE9F04105460E464FF000084A
:1008E00005E02048076807F0450000B100E0F8E7A0
:1008F00000BF042000F042FF28B1042000F014FFE4
:100900000320BDE8F081012000F038FF20B1012074
:1009100000F00AFF0120F4E7124824380068A842DA
:1009200001D01020EDE740F2FF5000F0FDFE0D4831
:100930002038046804F4604018B9200C3080404628
:10094000DFE704F4005008B11320DAE704F4804034
:1009500008B11020D5E704F4004008B10F20D0E71B
:100960004046CEE7342C014070B500264FF4803568
:1009700005E00F48046804F0450000B103E0281EBC
:10098000A5F10105F5D100BF15B104F0040028B1AF
:100990000326042000F0C8FE304670BD04F040007D
:1009A00018B10026402000F0BFFE3046F5E70000F9
:1009B000342C014021B1026842F00102026003E0E0
:1009C000026822F00102026070470000016821F015
:1009D000010101600021016041608160C16001612D
:1009E000212141614A49884204D13D21484A103AB7
:1009F00091608CE046491831884205D14FF474610A
:100A0000434A103A916082E041493031884205D131
:100A10004FF474113E4A103A916078E03C494831F5
:100A2000884205D14FF07461394A103A91606EE006
:100A300037496031884204D13649354A103AD1608D
:100A400065E033497831884204D13349304A103A5D
:100A5000D1605CE02E499031884204D12F492C4A64
:100A6000103AD16053E02A49A831884205D14FF0AD
:100A70003D51274A103AD16049E02949884204D1C2
:100A80003D21274A083A116041E025491831884242
:100A900005D14FF47461224A083A116037E02049C9
:100AA0003031884205D14FF474111D4A083A116063
:100AB0002DE01B494831884205D14FF07461184A36
:100AC000083A116023E016496031884204D1114987
:100AD000134A121F11601AE011497831884204D17B
:100AE0000D490F4A121F116011E00D4990318842E3
:100AF00004D10A490A4A121F116008E00849A831C6
:100B0000884204D14FF03D51054A121F11607047D1
:100B1000106002403D000020400F002000003D20FA
:100B20001064024021B1026842F02002026003E03A
:100B3000026822F0200202607047014600200A6825
:100B400002F001020AB1012000E00020704700001D
:100B500010B500220268134B1A40CC680B6823437F
:100B60004C6923438C692343CC6923430C6A234398
:100B70004C6A23438C6A23434C6B23438C6B234383
:100B80001A430260426922F00702D1E90B34234381
:100B90001A4342610B6943604B6883608B68C36092
:100BA00010BD00003F801CF0704700002DE9FC41A3
:100BB00007460D46002600240020009001900820E2
:100BC0005B49086010204860402088600020C860B1
:100BD0004FF480600861084600F01CFE1020FFF70B
:100BE00001FE044614B12046BDE8FC81514800884E
:100BF00000044F490860372048604020886000208A
:100C0000C8604FF480600861084600F003FE37209A
:100C1000FFF7E8FD04460CB12046E5E74FF0FF3052
:100C20004549086008204860302088600220C8607C
:100C30000020086101204861084600F085FD002081
:100C40003B49086033204860402088600020C8602D
:100C50004FF480600861084600F0DCFD3320FFF7A8
:100C6000C1FD04460CB12046BEE70CE04FF4001075
:100C700000F084FD38B1314800684DF82600761C3C
:100C8000022E00D307E02D484C38006840F22A615C
:100C900008400028EAD000BF082000F06FFD20B116
:100CA000082000F041FD04209EE7022000F066FDD0
:100CB00020B1022000F038FD022095E7202000F04E
:100CC0005DFD20B1202000F02FFD06208CE74FF4C1
:100CD000007000F053FD28B14FF4007000F024FDC7
:100CE000072081E740F2FF5000F01EFD009800064B
:100CF000009901F47F4140EA0120009901F47F014D
:100D000040EA1120009940EA1160686001980006ED
:100D1000019901F47F4140EA0120019901F47F012A
:100D200040EA1120019940EA1160286020465BE703
:100D3000B010002008000020C4100020802C0140CA
:100D4000F0B50A4600210023002400BF3DE0012544
:100D500005FA01F3156805EA03049C4234D10568DD
:100D60004F000326BE40B543056015794E00B540DF
:100D70000668354305601579012D02D01579022DDD
:100D800016D185684F000326BE40B543856055796E
:100D90004E00B540866835438560456801268E4023
:100DA000B5434560456896798E40B6B23543456097
:100DB000C5684F000326BE40B543C560D5794E00D7
:100DC000B540C6683543C560491C1029BFD3F0BD86
:100DD000F0B5002300244D07ED0E02FA05F3CE1006
:100DE00000F1200555F826504E07F70E0F26BE409D
:100DF000B543CF1000F1200646F82750CE1000F181
:100E0000200555F8265045EA0304CE1000F12005D0
:100E100045F82640F0BD41837047018370470000CC
:100E20002DE9F84F0746884693469A46DDF8289004
:100E30000097B3E099F8000080283DDA99F8006047
:100E40000D2E05D1009F08F110001FFA80F830E048
:100E5000202E03DDA6F1200086B200E0002600244B
:100E600022E000251CE004EB06105049085C8021BC
:100E70002941084040B108EB040291B27A1990B2BE
:100E80005A4600F097F809E0D34507D008EB040272
:100E900091B27A1990B2524600F08CF8681CC5B233
:100EA000082DE0DB601CC4B2102CDADB07F108006F
:100EB00087B209F1010971E0002668E006EB06102F
:100EC0003B4911F8100099F8001088425DD106EBFB
:100ED0000610374901EB4000407899F8011088422C
:100EE00053D100244FE0002520E006EB06103049E6
:100EF00001EB4000801C10F81410802028410140B4
:100F000041B108EB040291B27A1990B25A4600F04E
:100F100051F809E0D34507D008EB040291B27A19E1
:100F200090B2524600F046F8681CC5B2082DDCDBD2
:100F3000002524E006EB06101D4901EB4000801C53
:100F4000012101EB4401405C80212941084048B166
:100F500008EB040291B27A19083290B25A4600F0B6
:100F600029F80AE0D34508D008EB040291B27A19B7
:100F7000083290B2524600F01DF8681CC5B2082D28
:100F8000D8DB601CC4B2102CADDB701C86B23A2ECC
:100F900094DB09F1020907F1100087B299F800000B
:100FA00000287FF447AFBDE8F88F00005E580008C6
:100FB000D06500082DE9F04104460D461646AF1CE9
:100FC000BBB2E71CBAB26F1CB9B2A71CB8B200F032
:100FD00001FA301200F028FAF0B200F025FABDE86C
:100FE000F08100BFFEE700001CB504460020019020
:100FF0000090224800880004214908600D204860C4
:10100000402088600020C8604FF480600861084676
:1010100000F000FC1B480068009002E019480068DE
:101020000090009800F045000028F7D0012000F063
:10103000A5FB20B1012000F077FB01201CBD04209E
:1010400000F09CFB20B1042000F06EFB0320F5E7CC
:101050000C48243800680D2801D01020EEE740F23B
:10106000FF5000F061FB07482038006801900198AC
:10107000C0F3432020700020E0E7000008000020BB
:10108000B0100020342C01401CB50121084600F0AE
:1010900051FA0120009000208DF8040003208DF803
:1010A000050002208DF8070069460248FFF748FE58
:1010B0001CBD0000000002401CB50121062000F00C
:1010C00039FA4FF20200009001208DF80400002050
:1010D0008DF8060003208DF8050001208DF807002B
:1010E00069461348FFF72CFE2020009001208DF860
:1010F000040000208DF8060003208DF80500012073
:101100008DF8070069460B48FFF71AFE4FF480413F
:101110000748FFF782FE02210548FFF77EFE022105
:101120000348FFF778FE02210148FFF776FE1CBD59
:10113000000402400008024010B52C200849088134
:101140000020887180200880A02048802A204881C3
:101150002B208881C021362000F096F910BD0000B8
:10116000581300201CB50121084600F0E3F90220C5
:10117000009001208DF8040000208DF80600032067
:101180008DF8050001208DF8070069460348FFF738
:10119000D7FD02210148FFF740FE1CBD00000240C0
:1011A00070B50446A02381220121022000F012F92B
:1011B0002C2000F051F900250BE0002606E020125B
:1011C00000F032F9E0B200F02FF9761C802EF6D351
:1011D0006D1CA02DF1D370BD10B5FFF76DFF00F0B1
:1011E000E5F8112000F038F9C82002F063FCB120C6
:1011F00000F032F9052000F017F93C2000F014F956
:101200003C2000F011F9B22000F026F9052000F092
:101210000BF93C2000F008F93C2000F005F9B32060
:1012200000F01AF9052000F0FFF83C2000F0FCF86F
:101230003C2000F0F9F8052000F0F6F83C2000F022
:10124000F3F83C2000F0F0F8B42000F005F903209A
:1012500000F0EAF8C02000F0FFF8282000F0E4F8E1
:10126000082000F0E1F8042000F0DEF8C12000F0D2
:10127000F3F8C02000F0D8F8C22000F0EDF80D20FF
:1012800000F0D2F8002000F0CFF8C32000F0E4F81E
:101290008D2000F0C9F82A2000F0C6F8C42000F024
:1012A000DBF88D2000F0C0F8EE2000F0BDF8C5207E
:1012B00000F0D2F81A2000F0B7F8362000F0CCF891
:1012C000C02000F0B1F8E02000F0C6F8042000F0E3
:1012D000ABF8222000F0A8F8072000F0A5F80A20BB
:1012E00000F0A2F82E2000F09FF8302000F09CF8CB
:1012F000252000F099F82A2000F096F8282000F028
:1013000093F8262000F090F82E2000F08DF83A2077
:1013100000F08AF8002000F087F8012000F084F83F
:10132000032000F081F8132000F07EF8E12000F0A7
:1013300093F8042000F078F8162000F075F80620E5
:1013400000F072F80D2000F06FF82D2000F06CF81E
:10135000262000F069F8232000F066F8272000F02E
:1013600063F8272000F060F8252000F05DF82D20BC
:1013700000F05AF83B2000F057F8002000F054F835
:10138000012000F051F8042000F04EF8132000F086
:101390004BF83A2000F060F8052000F045F82920CD
:1013A00000F05AF8FFF7C8FE10BD000010B54FF46A
:1013B00080410748FFF72FFD642002F07BFB4FF4CC
:1013C00080410348FFF729FD642002F073FB10BD44
:1013D000000402402DE9F04104460D4616461F4622
:1013E0002A2000F039F8002000F01EF8E0B200F0EA
:1013F0001BF8002000F018F8F0B200F015F82B20D0
:1014000000F02AF8002000F00FF8E8B200F00CF825
:10141000002000F009F8F8B200F006F82C2000F0E7
:101420001BF8BDE8F081000010B504464FF4805170
:101430000748FFF7F0FC20210648FFF7EEFC2046A6
:1014400001F0C8FE4FF480510148FFF7E6FC10BDE3
:10145000000402400008024010B504464FF48051D9
:101460000748FFF7D8FC20210648FFF7D4FC2046A8
:1014700001F0B0FE4FF480510148FFF7CEFC10BDE3
:10148000000402400008024070B505460C4628469C
:10149000FFF7E2FF2046FFF7C7FF70BD00BFFEE782
:1014A0007047000070B5002100230F22C4781CB3E0
:1014B000174C246804F4E064C4F5E064C4F3072125
:1014C000C1F10404E3B20A4144789C40E1B284785B
:1014D000144021430C07210E0E4C05786155047809
:1014E00004F01F050124AC4005786D11AD0005F135
:1014F000E025C5F8004109E0047804F01F05012447
:10150000AC40054D0678761145F8264070BD0000C8
:101510000CED00E000E400E080E100E0024901435E
:10152000024A1160704700000000FA050CED00E06F
:101530007047000029B1064A12680243044B1A6042
:1015400004E0034A12688243014B1A6070470000AE
:101550003038024029B1064A12680243044B1A602F
:1015600004E0034A12688243014B1A60704700008E
:101570004438024029B1064A12680243044B1A60FB
:1015800004E0034A12688243014B1A60704700006E
:1015900024380240F0B50021002200240225002654
:1015A0000223324F3F6807F00C0121B1042905D016
:1015B000082937D105E02E4F076036E02D4F076030
:1015C00033E02A4F3F1F3F68C7F38056274F3F1F26
:1015D0003F6807F03F036EB1264FB7FBF3F7DFF824
:1015E0008CC0ACF1040CDCF800C0CCF3881C07FB09
:1015F0000CF40CE01E4FB7FBF3F7DFF870C0ACF152
:10160000040CDCF800C0CCF3881C07FB0CF4174F6B
:101610003F1F3F68C7F301477F1C7D00B4FBF5F710
:10162000076002E0124F076000BF00BF0F4F3F6826
:1016300007F0F0010909104F7A5C0768D74047604E
:101640000A4F3F6807F4E051890A0B4F7A5C4768FC
:10165000D7408760054F3F6807F46041490B064F4C
:101660007A5C4768D740C760F0BD00000838024088
:101670000024F40000127A001E0000207CB505460C
:10168000002400200090019000260DB1022600E009
:1016900000262248006800F0007008B10E207CBDD2
:1016A0001F49098888B26946FFF780FA04460CB1E1
:1016B0002046F4E7019800F4802060B318480088C1
:1016C00000041849086037204860402088600020E6
:1016D000C8604FF480600861084600F09BF837202E
:1016E000FFF780F804460CB12046D8E70D480660A5
:1016F00006200C494860402088600020C8604FF4F4
:1017000080600861084600F085F80620FFF76AF857
:1017100004462046C3E72520C1E70000142C014001
:1017200008000020B0100020014908607047000048
:10173000382C01400146034A106820F0FF0008439E
:1017400010607047042C014000210B4B02681A60A6
:101750001B1D42681A601A1D116821F0F701D0E9BB
:1017600002231A4303691A4343691A431143024A85
:101770000832116070470000242C0140014600200F
:10178000034A12680A400AB1012000E000207047B5
:10179000342C01400248006800F00300704700004C
:1017A000002C014010B500F08BFC10BD00210A4A4E
:1017B000116847F6FF629143027D83681A434368CC
:1017C0001A43C3681A4303681A4303691A4311434F
:1017D000014A116070470000042C014000200B49B1
:1017E0000860091D0860091D0860091D0860074997
:1017F00024310860091D0860091D08600448034978
:10180000383108600020091D08607047002C014035
:10181000FF07C0000021094B02681A601A1D1168F9
:101820006FF30A01D0E901231A43C3681A4303691D
:101830001A431143014A121D11607047082C0140E0
:101840000149086070470000002C014070B590B05D
:1018500004460E46154600BF1A48FFF76EF90028E9
:10186000FAD11848FFF7B2F84FF00060019016481F
:101870000290039404950020059006904FF4806038
:101880000790800008908000099000200A904FF493
:1018900040300B9004200C9003200D904FF400007A
:1018A0000E9080100F9001A90648FFF751F92021F2
:1018B0000448FFF737F901210248FFF77BF810B021
:1018C00070BD000058640240802C014070B5044691
:1018D000002516480078032802D12725284670BD28
:1018E0001248007838B111480078012803D00F4819
:1018F0000078022817D1B4F5805F02D12725284649
:10190000EDE7E0B2FFF7BAFE054665B908480068A2
:1019100020F4C0500649086008460068204308606B
:101920000846006808602846D9E700000400002047
:10193000042C0140F0B5014600200022BE4B1B786C
:1019400081F85630BD4B1B88A1F85430BC4B1B6846
:101950001A0E93090B70C2F383034B7002F003035A
:101960008B70B74B1B68C3F30742CA70B44B1B881C
:10197000C3F307220A71B24B1A784A715B681A0ED8
:101980001301CB80AE4B5B68C3F30742CB8843EABD
:101990001213CB8002F00F030B72A94B9B88C3F389
:1019A0000722D3094B72C2F380138B72C2F3401328
:1019B000CB72C2F300130B7300234B739E4B1B7847
:1019C0003BB19D4B1B78012B03D09B4B1B78032B0A
:1019D0004FD193071B0D0B61994B1A790B6943EAA1
:1019E00082030B61964B9B681A0E0B6943EA9213B4
:1019F0000B61C2F3C2030B7502F007034B75904BEA
:101A00009B68C3F3074253098B75C2F38203CB75FE
:101A100093075B0F0B768A4B1B89C3F307220B7E60
:101A200043EAD2130B760B695B1C0024C1E9123424
:101A30000B7E9B1C012404FA03F3DC17D1E9125638
:101A4000A5FB037C06FB03C305FB0433C1E912734A
:101A50000C7A0123A3400B650024D1E912650B6DBC
:101A6000A6FB037C05FB03C306FB0433C1E9127329
:101A70002EE0714B1B78022B2AD1714B1A799306F9
:101A80009B0A0B616E4B9B681A0E0B6943EA02239B
:101A90000B616B4B9B68C3F307420B6913430B61EC
:101AA000674B1B89C3F307220B695B1C4FF400745F
:101AB000A3FB04464FF480630025A4FB037C06FBD4
:101AC00003C304FB0533C1E912734FF400730B65C4
:101AD000C2F3801301F8193F93065B0E4B70584B0D
:101AE0001A7A4B7843EAD2134B7002F07F038B7063
:101AF000534BDB681A0ED309CB70C2F341130B7141
:101B0000C2F382034B7193071B0F8B714C4BDB6845
:101B1000C3F307428B7943EA92138B71C2F34013EC
:101B2000CB7100230B7202F001034B72444B9B8973
:101B3000C3F30722D3098B72C2F38013CB72C2F3B3
:101B400040130B73C2F300134B73C2F381038B7307
:101B500002F00303CB733A4B1A7B53080B74012337
:101B60004B74384B1B681A0ECA741939354B1B68F5
:101B7000C3F307421402CC85324B1B88C3F3072200
:101B8000CB8D1343CB852F4B1A7814060C635B68FF
:101B90001A0E0B6B43EA02440C632A4B5B68C3F3D7
:101BA00007420B6B43EA02240C63264B9B88C3F36A
:101BB00007220B6B13430B63224B1A7934235A54BD
:101BC000204B9B681A0E35235A541E4B9B68C3F357
:101BD000074214068C631B4B1B89C3F307228B6BD4
:101BE00043EA02448C63174B1A7A8B6B43EA022454
:101BF0008C63144BDB681A0E8B6B13438B63114B96
:101C0000DB68C3F307423C235B5C43EA12143C23CA
:101C10005C5413071C0DCC870A4B9B89C3F3072226
:101C2000CB8F1343CB87074B1A7B540840235C545C
:101C3000012441235C54F0BD040000200800002072
:101C4000DC100020EC1000203EB50024002501210E
:101C50004448FFF76FFC0121C802FFF77BFC01211C
:101C6000C802FFF787FC4FF4F850019002208DF86E
:101C700008008DF8090000208DF80A0001208DF879
:101C80000B0001A93848FFF75BF80420019001A977
:101C90003648FFF755F80C2208213348FFF798F82B
:101CA0000C2209213048FFF793F80C220A212E4814
:101CB000FFF78EF80C220B212B48FFF789F80C2236
:101CC00011462948FFF784F80C2202212748FFF724
:101CD0007FF800214FF40060FFF74CFCFFF77EFD1A
:101CE00031208DF8000000208DF801008DF80200F1
:101CF00001208DF803006846FFF7D4FB00F0EEF8F2
:101D0000044614B900F038F804461CB91848FFF727
:101D100011FE044634B91649B1F85410080400F015
:101D200073FD044624B94FF40060FFF7CFFD04466D
:101D30001CB110480078032812D10D4890F85600C5
:101D400020B10B4890F85600012801D1022500E08F
:101D500000252846FFF7EEFC002000F06DFD04464C
:101D600020463EBD0C00400000080240000C02402E
:101D7000001100200400002038B50024012000904C
:101D8000FFF708FD10B92524204638BD4D480078DE
:101D9000042824D000204C49086002204860C0205C
:101DA00088600020C8604FF4806008610846FFF733
:101DB00031FDFEF749FD04460CB12046E5E74348F6
:101DC0000068434908604148001D006848603F487A
:101DD0000830006888603D480C300068C8603948A9
:101DE000007858B137480078012807D03548007886
:101DF000062803D033480078022816D10020324943
:101E0000086003204860402088600020C8604FF4CC
:101E1000806008610846FFF7FDFC69460320FEF775
:101E200059FD04460CB12046AFE726480078032848
:101E300016D1BDF800000004234908600320486063
:101E4000402088600020C8604FF480600861084628
:101E5000FFF7E0FCFEF7F8FC04460CB1204694E7DF
:101E60001848007804282AD0BDF8000019490860F5
:101E7000BDF8000000041449086009204860C02033
:101E800088600020C8604FF4806008610846FFF752
:101E9000C1FCFEF7D9FC04460CB1204675E70B489F
:101EA00000680D4908600948001D0068486007483F
:101EB00008300068886005480C300068C860002061
:101EC00063E7000004000020B0100020142C014043
:101ED000EC10002008000020DC1000202DE9F04765
:101EE0000027002400260025A046A14676206E4942
:101EF00008750020086048608860C860086108466E
:101F0000FFF754FC0320FFF79BFC6848006840F48F
:101F100080706649086000BF12E0002064490860D4
:101F200048608860C8604FF4806008610846FFF729
:101F300071FCFEF73FFC044604B903E0781CC7B20D
:101F40004A2FEADB00BF14B12046BDE8F0874FF40A
:101F5000D5705749086008204860402088600020FC
:101F6000C8604FF4806008610846FFF753FCFEF735
:101F7000FBFC044624B901204E4908704FF080490B
:101F800000204B49086037204860402088600020CE
:101F9000C8604FF4806008610846FFF73BFC3720BB
:101FA000FEF720FC0446002C4CD135E000204049CF
:101FB000086037204860402088600020C8604FF4E7
:101FC000806008610846FFF725FC3720FEF70AFC11
:101FD00004460CB12046B8E7374849EA00003449C6
:101FE000086029204860402088600020C8604FF4C5
:101FF000806008610846FFF70DFCFEF74FFC0446C1
:102000000CB12046A1E7294810300668012080EA7B
:10201000D67080F001086D1CB8F1000F03D14FF6A7
:10202000FF708542C2D34FF6FF70854202D31B2456
:1020300020468AE706F08040061E33D002201D4964
:1020400008702FE01DE01D48194908600120486014
:10205000402088600020C8604FF480600861084616
:10206000FFF7D8FBFEF71AFC04460CB120466CE7DC
:102070000E4810300668012080EAD67080F0010812
:102080006D1CB8F1000F03D14FF6FF708542DAD313
:102090004FF6FF70854202D31B24204655E70320EC
:1020A00004490870204650E798100020042C014095
:1020B000B010002004000020000010800080FF808D
:1020C00010B54FF48070FFF759FB78B34C48007897
:1020D000012814D100204B4908600C2048604020A2
:1020E00088600020C8604FF4806008610846FFF7F0
:1020F00091FB0C20FEF776FB4349087002E00020BC
:10210000414908704148006840F480703F490860C8
:10211000081D00684CF23A3188433C49091D0860AB
:1021200001203B4908703848007810BDFFE70220C5
:10213000FFF724FB78B10220FFF7F6FA3348001DC1
:1021400000684CF23A3188433049091D086002208A
:102150002D490870E9E70820FFF710FB78B1082047
:10216000FFF7E2FA2948001D00684CF23A31884333
:102170002649091D0860042023490870D5E720205E
:10218000FFF7FCFA78B12020FFF7CEFA1F48001DB8
:1021900000684CF23A3188431C49091D086006204A
:1021A00019490870C1E71020FFF7E8FA78B110204C
:1021B000FFF7BAFA1548001D00684CF23A3188431F
:1021C0001249091D086005200F490870ADE74FF45A
:1021D0000070FFF7D3FA80B14FF40070FFF7A4FA54
:1021E0000A48001D00684CF23A3188430749091D2E
:1021F000086007200449087097E7002095E7000071
:102200000D000020B01000200E000020382C0140EE
:102210000F0000202DE9F84F8146174698460A9C8A
:102220004FF0000AD3464D464FF0FF36B9F1000F8C
:1022300002D12620BDE8F88F002086490860864834
:102240000078022805D10402780A40EAC8574FEA0C
:1022500068280020814988604860401E086001208D
:1022600048610020C86008610846FFF76DFA7948A8
:102270001838006800F0007008B10E20DAE7002C72
:1022800021DDB4F5006F1EDC601E2040D8B9204669
:1022900001F07DFB00907248046010207049486096
:1022A000402088600020C8604FF4806008610846C4
:1022B000FFF7B0FA1020FEF795FA8246BAF1000F48
:1022C00003D05046B6E72620B4E7009800016349E2
:1022D0008860084644604FF0FF3008600120486184
:1022E0000220C860002008610846FFF72DFA5C480C
:1022F000076011205A494860402088600020C8606B
:102300004FF4806008610846FFF784FA1120FEF759
:1023100069FA8246BAF1000F01D050468AE7514867
:10232000007800285CD1FDF788FF18E04FF40040EA
:10233000FFF724FA78B14FF0000B06E0454854301F
:10234000006845F82B000BF1010BBBF1080FF5D32A
:102350002035454E03E00EB904206BE7761E3D485C
:102360000830006840F22A6108400028DED00820CA
:10237000FFF704FA20B10820FFF7D6F9042059E747
:102380000220FFF7FBF920B10220FFF7CDF9022070
:1023900050E72020FFF7F2F920B12020FFF7C4F921
:1023A000062047E74FF40070FFF7E8F928B14FF433
:1023B0000070FFF7B9F907203CE704E025485430E6
:1023C000006828602D1D4FF40010FFF7D7F9002892
:1023D000F4D1FDF734FF40F2FF50FFF7A5F936E0E6
:1023E00020480078012832D1002020490870204977
:1023F00008702049087017481030006840F22A31F0
:1024000008431449103108601248006840F0080081
:1024100010490860002221464846FFF717FA00E0FD
:10242000761E1548006800F0006038B91148007841
:1024300020B90E48007808B9002EF1D10EB9042059
:10244000F8E60A48007810B1084890F800A0504615
:10245000F0E600002C2C014004000020C4100020F5
:10246000B01000200C000020FFFF7F000E000020B5
:102470000D0000200F000020006402402DE9FE4FF7
:1024800083460C46914600200290002625462C46A5
:10249000700240EAD5566D020BF00300F0B14FF028
:1024A000000A18E04FF4007000904FEA4A204719E4
:1024B00046EBE0733A461648FFF7ACFE02904FF445
:1024C000007213495846FDF7C1FF0BF5007B0AF176
:1024D000010000F0FF0ACA45E4DB16E0B9F1010F84
:1024E00009D14FF400702A46334600905846FFF752
:1024F00091FE029009E04FF400702A463346CDE980
:102500000009584600F006F802900298BDE8FE8FD8
:10251000581100202DE9FF5F17469846DDE90E4669
:102520004FF00009CA464FF0FF35AC4900980860EB
:102530000020AB490860AB480078022805D10402AE
:10254000780A40EAC8574FEA68280020A649886000
:102550004860401E0860012048610020C860086192
:102560000846FFF7F1F89E481838006800F0007040
:1025700018B10E2004B0BDE8F09F002C21DDB4F5A9
:10258000006F1EDC601E2040D8B9204601F0FFF924
:102590008346964804601020944948604020886033
:1025A0000020C8604FF4806008610846FFF732F9E8
:1025B0001020FEF717F98146B9F1000F03D0484605
:1025C000D8E72620D6E7012E71D906FB04F0B0F13A
:1025D000007F01D32620CDE74FEA0B1082498860A7
:1025E00006FB04F048604FF0FF30086001204861AE
:1025F0000220C860002008610846FFF7A5F87B4864
:102600000760122079494860402088600020C86037
:102610004FF4806008610846FFF7FCF81220FEF7CF
:10262000E1F88146B9F1000F01D04846A2E77048B1
:10263000007800287ED1FDF700FE1EE04FF4004038
:10264000FFF79CF8A8B14FF0000A08E06448543046
:1026500000686249096841F82A000AF1010ABAF1E2
:10266000080FF3D35D48006820305C490860614D75
:1026700003E00DB904207DE76D1E5948083000685D
:1026800040F22A3108400028D8D00820FFF776F819
:1026900020B10820FFF748F804206BE70220FFF77D
:1026A0006DF828B10220FFF73FF8022062E792E0C0
:1026B0002020FFF763F820B12020FFF735F806202F
:1026C00058E74FF40070FFF759F828B14FF4007045
:1026D000FFF72AF807204DE70AE041485430006828
:1026E0003E49096808603D480068001D3B49086094
:1026F0004FF40010FFF742F80028EED14FF480703D
:10270000FFF73CF820B33748007838B135480078F7
:10271000012803D033480078022819D1002033491A
:1027200008600C204860402088600020C8604FF49A
:10273000806000E013E008610846FFF76BF80C20AA
:10274000FEF750F88146B9F1000F01D0484611E775
:10275000FDF775FD40F2FF50FEF7E6FF3BE0244831
:102760000078012837D1002023490870012023492F
:10277000087000202249087019481030006840F2A3
:102780002A3108431649103108601548006840F0A6
:1027900008001349086006FB04F100220098FFF7C7
:1027A00055F800E06D1E1748006800F0006008B999
:1027B000002DF7D10DB90420DCE600BF10480078E9
:1027C00018B90D4800780028F8D00B48007810B1EF
:1027D000094890F800904846CCE600001000002020
:1027E0002C2C014004000020C4100020B010002058
:1027F0000C000020FFFF7F000E0000200D000020D5
:102800000F0000200064024010B50446094804602F
:10281000072008494860402088600020C8604FF4C5
:10282000806008610846FEF7F5FF0720FDF7DAFF34
:1028300010BD0000B010002001460020012900D08A
:1028400011B9024B197000E0262070470C000020DF
:102850002DE9FF5F86B017469846149D002600209C
:1028600005900490002481460390824602900195D1
:10287000DDF818B0DDF818B0BBF1000F03D1262049
:102880000AB0BDE8F09F0020C9490860C9498860C6
:102890004860401E0860012048610020C86008614F
:1028A0000846FEF751FFC2481838006800F0007073
:1028B00008B10E20E4E7C0480078022805D10502DF
:1028C000780A40EAC8574FEA6828002D1FDDB5F5A1
:1028D000006F1CDC681E2840C8B9284601F057F874
:1028E0000590B64805601020B449486040208860D3
:1028F0000020C8604FF4806008610846FEF78AFF38
:102900001020FDF76FFF06461EB13046B8E72620BF
:10291000B6E7AB4800880004A84908600D2048606D
:10292000402088600020C8604FF48060086108463D
:10293000FEF770FF0D20FDF755FF06460EB130463D
:102940009EE79B481838006803904FF0FF341CE066
:10295000641E9B4800880004984908600D20486068
:10296000402088600020C8604FF4806008610846FD
:10297000FEF750FF0D20FDF735FF06460EB130463D
:102980007EE78B48183800680390039800F4807045
:1029900008B9002CDCD10CB9292071E78748076001
:1029A000182086494860402088600020C8604FF4A5
:1029B000806008610846FEF72DFF1820FDF712FF22
:1029C00006460EB130465BE700207E490870059848
:1029D000000178498860084645604FF0FF30086084
:1029E000012048610020C86008610846FEF7ACFE7F
:1029F0004FF0FF347448007800287ED1FDF71DFCAD
:102A000045E04FF48040FEF7B9FED8B30198A0EB43
:102A10000900202822D20198A0EB090000F0030051
:102A200020B90198A0EB0900800804E00198A0EB10
:102A300009008008401C02904FF0000A0AE05C493F
:102A40005431DBF8000008600AF1010A0BF1040BB5
:102A500009F1040902988245F1D310E04FF0000A11
:102A600006E05BF82A005249543108600AF1010A75
:102A7000BAF1080FF5D30BF1200B09F120096FF023
:102A8000404404E0FFE70CB90420F9E6641E48481E
:102A90000830006840F21A6108400028B1D00820D0
:102AA000FEF76CFE20B10820FEF73EFE0420E7E6AC
:102AB0000220FEF763FE20B10220FEF735FE022061
:102AC000DEE61020FEF75AFE20B11020FEF72CFEA5
:102AD0000520D5E64FF40070FEF750FE30B14FF4FC
:102AE0000070FEF721FE0720CAE606E0FDF7A7FB0F
:102AF00040F2FF50FEF718FE41E03348007801280D
:102B00003DD10020314908702E49087030490870C5
:102B100027481030006840F21A3108432449103128
:102B20000860402229460698FEF790FE204800687B
:102B300040F008001E49086000E0641E2548006857
:102B400000F0006008B9002CF7D11CB9FFF77CF841
:102B5000042095E64FF0FF3400E0641E1C48007826
:102B600020B91A48007808B9002CF6D10CB9042015
:102B700086E61648007810B11448007880E640F2E6
:102B8000FF50FEF7D1FD04A8FEF72EFA064603E03B
:102B900004A8FEF729FA06463EB99DF8100007285A
:102BA000F6D09DF810000628F2D0304668E6000006
:102BB0002C2C0140C410002004000020B010002084
:102BC000080000200D0000200C0000200E00002056
:102BD0000F000020006402402DE9FE4F81460C46A4
:102BE000924600200290002625462C46700240EABC
:102BF000D5566D0209F00300F0B14FF0000B18E05C
:102C00004FF4007249461948FDF720FC4FF400705C
:102C100000904FEA4B20471946EBE0733A461348C1
:102C2000FFF716FE029009F500790BF1010000F0A4
:102C3000FF0BD345E4DB16E0BAF1010F09D14FF4E5
:102C400000702A46334600904846FFF701FE029086
:102C500009E04FF400702A463346CDE9000A4846A1
:102C600000F006F802900298BDE8FE8F581100208F
:102C70002DE9FF5F84B0DDE91247002600200390B4
:102C80000290002580468146019007FB04FBDDF899
:102C900010A0DDF810A0BAF1000F03D1262008B073
:102CA000BDE8F09F0020DC490860DC49886048608E
:102CB000401E0860012048610020C8600861084685
:102CC000FEF742FDD4481838006800F0007008B1E3
:102CD0000E20E4E7D2480078022808D10402DDE99A
:102CE0000601400A40EAC1504912CDE90601002C14
:102CF0001FDDB4F5006F1CDC601E2040C8B9204603
:102D000000F045FE0390C74804601020C5494860A4
:102D1000402088600020C8604FF480600861084649
:102D2000FEF778FD1020FDF75DFD06461EB130462A
:102D3000B5E72620B3E7012F6FD907FB04F0B0F108
:102D4000007F01D32620AAE7B548007838B1B448FF
:102D50000078012803D0B248007802282DD1B2486B
:102D600000880004AF490860372048604020886030
:102D70000020C8604FF4806008610846FEF74AFDF5
:102D80003720FDF72FFD06460EB1304687E7A548F0
:102D900007601720A3494860402088600020C86071
:102DA0004FF4806008610846FEF734FD1720FDF7F8
:102DB00019FD06460EB1304671E79A49069808603B
:102DC00019204860402088600020C8604FF480606F
:102DD00008610846FEF71EFD1920FDF703FD0646B3
:102DE0000EB130465BE7039800018C49886007FB11
:102DF00004F048604FF0FF30086001204861002077
:102E0000C86008610846FEF79FFC884800780028E3
:102E100074D1451EFDF711FA42E0E4E04FF4804022
:102E2000FEF7ACFCB8B3ABEB080020281FD2ABEB2D
:102E3000080000F0030018B9ABEB0800800803E0BD
:102E4000ABEB08008008401C01904FF000090AE03D
:102E500071495431DAF80000086009F101090AF1FA
:102E6000040A08F1040801988145F1D310E04FF0FD
:102E7000000906E05AF8290067495431086009F151
:102E80000109B9F1080FF5D30AF1200A08F1200869
:102E90006FF0404504E0FFE70DB90420FFE66D1E2A
:102EA0005D480830006840F21A3108400028B5D06B
:102EB0000820FEF763FC20B10820FEF735FC042053
:102EC000EDE60220FEF75AFC20B10220FEF72CFCB2
:102ED0000220E4E61020FEF751FC20B11020FEF79E
:102EE00023FC0520DBE64FF40070FEF747FC30B111
:102EF0004FF40070FEF718FC0720D0E62CE04FF4EA
:102F00008070FEF73BFC00B34548007838B1444878
:102F10000078012803D042480078022815D100200B
:102F2000404908600C204860402088600020C8604C
:102F30004FF4806008610846FEF76CFC0C20FDF73A
:102F400051FC06460EB13046A9E6FDF778F940F28D
:102F5000FF50FEF7E9FB46E034480078012842D1F3
:102F6000002033490870012032490870002032499E
:102F7000087029481030006840F21A310843264989
:102F80001031086007FB04F140220498FEF75EFC54
:102F90002148006840F008001F4908604FF0FF35E5
:102FA00000E06D1E2548006800F0006008B9002DA3
:102FB000F7D11DB9FEF748FE042070E64FF0FF354B
:102FC00000E06D1E1C48007820B91948007808B947
:102FD000002DF6D10DB9042061E61548007810B136
:102FE000134800785BE640F2FF50FEF79DFB02A815
:102FF000FDF7FAFF064603E002A8FDF7F5FF0646D7
:103000003EB99DF808000728F6D09DF8080006286C
:10301000F2D0304643E600002C2C0140C4100020C2
:1030200004000020B0100020080000200C00002048
:103030000E0000200D0000200F0000200064024060
:1030400000B587B001210220FEF774FA01210803C0
:10305000FEF780FA3820059002208DF81800002035
:103060008DF81A0003208DF8190001208DF81B003F
:1030700005A92248FDF764FE052203211F48FDF73C
:10308000A7FE052204211D48FDF7A2FE05221146D8
:103090001A48FDF79DFE01210803FEF76BFA002197
:1030A0004FF48050FEF766FA0020ADF800004FF4B0
:1030B0008270ADF802000020ADF804000220ADF8E7
:1030C00006000120ADF808004002ADF80A003820E3
:1030D000ADF80C000020ADF80E000720ADF8100090
:1030E0006946074800F058F80121054800F03AF811
:1030F000FF2000F007F807B000BD00000004024008
:103100000030014010B5044600BF02210A4800F01B
:1031100035F80028F9D02146074800F03BF800BFF9
:103120000121054800F02AF80028F9D0024800F0F3
:103130002EF8C0B210BD00000030014010B50446AA
:10314000074800884FF6C7710840054908800846BF
:103150000088204308800121014800F003F810BDD9
:103160000030014021B1028842F04002028004E0B8
:1031700002884FF6BF731A40028070470246002053
:1031800013890B400BB1012000E00020704701467D
:10319000888970478181704710B50022028802F447
:1031A00041520B884C8823438C882343CC8823438B
:1031B0000C8923434C8923438C892343CC892343A3
:1031C0001A430280838B4FF2FF74234083830B8A60
:1031D000038210BD70B50446002508251BE004F0ED
:1031E000800028B14FF400410C48FDF716FE04E0C2
:1031F0004FF400410948FDF70EFE4FF40051074817
:10320000FDF709FE4FF400510448FDF706FE600685
:10321000040E681EC5B2002DE1DC70BD0004024042
:10322000704700000CB50020019000903448006801
:1032300040F480303249086000BF3148006800F433
:10324000003000900198401C0190009818B9019836
:10325000B0F5A04FF1D12A48006800F4003010B159
:103260000120009001E0002000900098012846D144
:1032700023484030006840F08050214940310860C8
:103280002048006840F440401E4908601C4808304F
:1032900000681B49083108600846006840F4004097
:1032A00008600846006840F4A05008601648091FEE
:1032B0000860081F006840F08070091F086000BFA8
:1032C0000F48006800F000700028F9D040F2057047
:1032D0000E4908600A480830006820F003000849D9
:1032E000083108600846006840F00200086000BF2E
:1032F00003480830006800F00C000828F8D10CBD25
:10330000003802400070004008544007003C024072
:10331000042808D14FF0E021096941F004014FF081
:10332000E022116107E04FF0E021096921F004017A
:103330004FF0E022116170477047000010B515484A
:10334000006840F47000134908601348006840F0BA
:1033500001001149086000200F49083108600E483B
:1033600000680E4908400C4908600D48091D0860B6
:10337000081F006820F48020091F0860002006490B
:103380000C310860FFF74EFF4FF0006001498039B3
:10339000086010BD88ED00E000380240FFFFF6FE37
:1033A0001030002410B540F225511D4800F04AF8B5
:1033B00010B31B4800F000F9C4B21A48008800F4AA
:1033C0000040C8B91748008800F4804060B10A2C5A
:1033D00003D000201349088020E01248008840F400
:1033E00000401049088019E00D2C06D10D480088D6
:1033F00040F480400B49088010E00A480088C0F380
:103400000D0009490C5407480088401C05490880F4
:1034100008460088C72801DD0020088010BD000094
:10342000001001401C0000206613002021B1828999
:1034300042F40052828104E082894DF6FF731A4003
:103440008281704770B502460024002300250020C9
:1034500040F66A16B14200D100BFC1F3421501F037
:103460001F03012606FA03F3012D02D1968933408A
:1034700006E0022D02D1168A334001E0968A3340DD
:103480000C12012606FA04F41688344013B10CB16C
:10349000012000E0002070BDF0B5034600240026A6
:1034A0000025002040F66A17B94200D100BF184637
:1034B000C1F3421401F01F06012707FA06F5012C9B
:1034C00001D10C3004E0022C01D1103000E01430A6
:1034D0001AB107682F43076002E00768AF4307602F
:1034E000F0BD00002DE9FF4705460E460024A14629
:1034F00000BFA046B08900B100BF2C8A24F440541C
:10350000F08804432C82AC8941F20C608443B0887B
:1035100031890843718908430443AC81AC8A24F49F
:103520004074B0890443AC826846FEF733F8204803
:10353000854202D01F48854202D1DDF80C9001E09F
:10354000DDF80890A88900F4004040B109EBC900FB
:1035500000EB091031684900B0FBF1F707E009EB17
:10356000C90000EB091031688900B0FBF1F7642055
:10357000B7FBF0F004012009642101FB1078A88951
:1035800000F4004040B1322000EBC800B0FBF1F085
:1035900000F00700044308E0322000EB081064212B
:1035A000B0FBF1F000F00F0004432C81BDE8FF8771
:1035B000001001400014014001468888C0F3080053
:1035C000704700BFFEE7000010B50446214610A07A
:1035D000FCF780FE240300F01BF900F0B3F8002094
:1035E0000D4908602020FFF78DFDC4F30740FFF769
:1035F00089FDC4F30720FFF785FDE0B2FFF782FDE8
:1036000001200649C1F8BC0200F09CF810BD000082
:1036100066653A25780D0A00BC024042000040422F
:103620001CB501210846FDF785FF01210220FDF7A9
:1036300081FF4FF40040009001208DF8040000202D
:103640008DF8060003208DF8050001208DF8070095
:1036500069460848FDF774FB012007490860FFF739
:10366000EFFC0820FFF76AFD00F032F803490880FC
:103670001CBD000000000240BC02404200000020CF
:103680002DE9F04106460C46174600200F49086018
:103690000320FFF737FDC4F30740FFF733FDC4F302
:1036A0000720FFF72FFDE0B2FFF72CFD002505E016
:1036B000FF20FFF727FD7055681C85B2BD42F7DB80
:1036C000012002490860BDE8F0810000BC024042D0
:1036D00010B5002400200E4908609020FFF712FD6D
:1036E0000020FFF70FFD0020FFF70CFD0020FFF783
:1036F00009FDFF20FFF706FD44EA0024FF20FFF745
:1037000001FD044301200349C1F8BC02204610BD5D
:10371000BC0240420000404210B50024002007498E
:1037200008600520FFF7EEFCFF20FFF7EBFC0446E6
:1037300001200349C1F8BC02204610BDBC02404232
:103740000000404210B500BFFFF7E6FF00F00100A7
:103750000028F9D110BD00002DE9F05F81460F4629
:103760001646DFF8A8B04FEA1738C7F30B0ACAF5B8
:103770008054A64200DC344644E04FEA08314FF45E
:1037800080525846FFF77CFF002508E00AEB050051
:103790001BF80000FF2800D003E0681C85B2A5429A
:1037A000F4DB00BFA54216DA4046FFF70DFF002507
:1037B00007E019F8050005EB0A010BF80100681C89
:1037C00085B2A542F5DB4FEA08314FF480525846E6
:1037D00000F02EF804E022463946484600F028F86A
:1037E000A64200D10FE008F101084FF0000AA14401
:1037F0002744301B86B2B6F5805F02DD4FF480545B
:1038000000E03446B9E700BFBDE8F09F9400002017
:1038100010B50020044908600620FFF773FC012062
:103820000249C1F8BC0210BDBC0240420000404247
:103830002DE9F04107460E461446F0B2C0F58075FA
:10384000AC4200DC254612E02A463146384600F0FC
:1038500013F8AC4200D10BE02F442E44601B84B21D
:10386000B4F5807F02DD4FF4807500E02546EBE77C
:1038700000BFBDE8F08100002DE9F04106460C468E
:103880001746FFF7C5FF00200F4908600220FFF729
:1038900039FCC4F30740FFF735FCC4F30720FFF7FA
:1038A00031FCE0B2FFF72EFC002504E0705DFFF76D
:1038B00029FC681C85B2BD42F8DB01200249086082
:1038C000FFF740FFBDE8F081BC02404200BF7047F7
:1038D00070B504460D4600202071401EE062294666
:1038E000204601F024FD08B1032070BD94F82E128B
:1038F00094F82F0241EA00204AF65521884201D06F
:103900000220F2E794F86900010694F8680041EAA1
:10391000004194F8670041EA002094F866100843DB
:1039200020F07F400D49884201D10020DDE794F866
:103930008500010694F8840041EA004194F8830070
:1039400041EA002094F88210084320F07F400349A8
:10395000884201D10020C8E70120C6E74641540053
:10396000024600E0521C107810B110788842F9D15C
:10397000107870470246891E5069801E884201D81F
:10398000002070479378906A01FB0300F9E7014635
:10399000002002E04910421CD0B20129FAD1704740
:1039A0002DE9F04704468946B9F1000F06D1E768D2
:1039B00017B16069B84215D8012713E0494620467F
:1039C00001F06CFA0646022E02D20120BDE8F08713
:1039D000701C08B93046F9E76069B04201D9304639
:1039E000F4E74F463D4600BF6D1C6069A84204D80D
:1039F0000225BD4201D90020E8E72946204601F012
:103A00004DFA064606B909E0701C08B1012E01D135
:103A10003046DBE7BD42E7D10020D7E700BF6FF0BB
:103A200070422946204601F089FD8046B8F1000F1A
:103A300008D1B9F1000F05D02A464946204601F0C9
:103A40007DFD8046B8F1000F0BD1E5602069401C78
:103A500078B12069401E2061607940F001006071FA
:103A600007E0B8F1010F02D14FF0FF3000E0012074
:103A700005462846AAE7000010B504466FF004008A
:103A8000FFF746FCE11704EB5171C1F3C701074A88
:103A900011701046007800EB4001C1EBC0104FF6EA
:103AA000FF7101EAC0000249088010BD1400002027
:103AB0001600002070B504464FF4077094FBF0F038
:103AC000C6B24FF4077094FBF0F100FB114085B2D1
:103AD00005E04FF4077000F009F8701EC6B2002E22
:103AE000F7D115B1284600F001F870BD0146114A22
:103AF00012884A434FF0E0235A6100229A611A4625
:103B0000126942F001021A6100BF4FF0E022106911
:103B100000F001021AB100F48032002AF5D04FF013
:103B2000E022126922F001024FF0E0231A61002224
:103B30009A617047160000202DE9F04104460E46B8
:103B40000021204600F010F90546EDB9002700BF1E
:103B50002169206801F0EBFB054605B113E06069BF
:103B60000078E52802D06069007820B9781C074603
:103B7000B04201D107E000270121204600F00AF8F9
:103B80000546002DE4D000BF042D00D107252846AE
:103B9000BDE8F0812DE9F04104468846E088461CE6
:103BA000B0B208B1206910B90420BDE8F08106F078
:103BB0000F0000286CD12069401C2061E06828B902
:103BC00020680089B04263D80420EEE7206880783E
:103BD000401E00EA161000285AD1E168206801F062
:103BE0005DF90546012D01D80220DEE7681C08B901
:103BF0000120DAE720684069A84243D8B8F1000FF5
:103C000001D10420D1E7E1682068FFF7C9FE05462D
:103C10000DB90720C9E7012D01D10220C5E7681CB5
:103C200008B90120C1E7206801F097FD08B1012023
:103C3000BBE7216801F130004FF40072002101F070
:103C40006CFB29462068FFF795FE2168C8620027B3
:103C50000EE0012021680871206801F07EFD08B1A6
:103C60000120A2E72068C06A401C2168C8627F1C4E
:103C700020688078B842ECD82068C06AC01B2168F0
:103C8000C86200BFE56029462068FFF773FE206127
:103C9000E6802068303006F00F0100EB41106061D3
:103CA000002082E72DE9F05F04468A464FF0FF09C5
:103CB000CB4604274EE02169206801F038FB074617
:103CC00007B14AE0666935780DB9042745E0F07A16
:103CD00000F03F08E52D09D02E2D07D0B8F1080FD0
:103CE00001D1012000E00020504502D04FF0FF0933
:103CF00029E0B8F10F0F1AD105F0400030B196F865
:103D00000DB025F04005A946E08820844D450AD134
:103D1000707B584507D13146E06901F0D5FB10B101
:103D2000A9F1010000E0FF2000F0FF090BE0B9F16C
:103D3000000F04D1304601F09CFC584502D04FF6EC
:103D4000FF70208409E000212046FFF723FF07468B
:103D500007B102E020690028ADD100BF0FB10020FB
:103D600020613846BDE8F09F2DE9F04104460E463B
:103D7000E680A568012D03D020684069A84202D8DA
:103D80000220BDE8F0812DB920680078032801D118
:103D90002068456A45B920680089B04201D80220F0
:103DA000EFE72068476A1EE0206880784FEA001835
:103DB00012E02946206801F071F80546681C08B930
:103DC0000120DEE7022D03D320684069A84201D814
:103DD0000220D6E7A6EB08064645EAD22946206827
:103DE000FFF7C8FD0746E5600FB90220C9E707EBFA
:103DF000161020612068303006F00F0100EB4110F2
:103E000060610020BDE7000070B50446002514B1D4
:103E1000012C0BD103E0FDF717FF054608E0FFF783
:103E2000FFFB4FF480500549088001E0012500BFE9
:103E300000BF0DB1012070BD0020FCE75400002040
:103E40002DE9F04706468946154646BBB9F1000FF5
:103E500009D0B9F1010F13D0B9F1020F05D0B9F1B2
:103E6000030F19D106E0002418E04FF40070286019
:103E7000002413E01D48B0F85000288000240DE015
:103E80001A484FF400720023D0E912713846FCF74B
:103E9000FCF92860002401E0042400BF22E0012E88
:103EA0001FD1B9F1000F09D0B9F1010F11D0B9F14B
:103EB000020F05D0B9F1030F10D106E000240FE086
:103EC0004FF40070288000240AE008202880002495
:103ED00006E0074800882860002401E0042400BFB1
:103EE00000E001242046BDE8F0870000001100201A
:103EF000540000202DE9F04107460E4615461C46A9
:103F00004FF0000814B90420BDE8F08117B1012F6B
:103F100022D112E0E2B229463046FEF7AFFA8046DF
:103F200007E0FDF791FEE2B229463046FEF7A6FA19
:103F30008046B8F1000FF4D111E009E069024FF4B6
:103F400000723046FFF79CFB6D1C06F50076641E80
:103F5000002CF3D1A04602E04FF0010800BF00BFE3
:103F6000B8F1000F01D10020CEE70120CCE70146D7
:103F7000002070472DE9F04107460E4615461C46C5
:103F80004FF0000814B90420BDE8F08117B1012FEB
:103F900022D112E0E2B229463046FEF71DFE8046ED
:103FA00007E0FDF751FEE2B229463046FEF714FE67
:103FB0008046B8F1000FF4D111E009E069024FF436
:103FC00000723046FFF7C8FB6D1C06F50076641ED4
:103FD000002CF3D1A04602E04FF0010800BF00BF63
:103FE000B8F1000F01D10020CEE70120CCE72DE988
:103FF000FC4707460C461546002000908046814647
:1040000001AA6946384600F059F806468EB901986B
:104010004069801E0199897800FB01F90198807838
:10402000009900FB01F84FEA590020604FEA580060
:1040300028603046BDE8FC8710B500240EE04FF440
:104040000C71002001F022FA184941F824000846BA
:1040500050F8240000B903E0601CC4B2032CEEDB6E
:1040600000BF4FF40A71002001F010FA10490860F7
:104070004FF40A71002001F009FA0E4908604FF46C
:104080000071002001F002FA0B490860032C0AD1EC
:104090000748006838B10748006820B10846006842
:1040A00008B1002010BD0120FCE700004CBD01203C
:1040B000580000205C000020680000202DE9F74F28
:1040C00082B08A46002202A9049800F015FD0190F2
:1040D00004980468019800286DD1D4E90410801E6A
:1040E000814203D82069CAF8000064E094F800B067
:1040F0000026BBF1010F1CD1022700BF3946204624
:1041000000F0CCFE804608F1010010B901200190BA
:104110000EE0B8F1010F02D10220019008E0B8F1E1
:10412000000F00D1761C781C074661698842E5D3F0
:104130003AE06769206A00904FF00009002500BF4F
:10414000B9F1000F0ED10098421C014620460092A2
:1041500001F0EDF80190019800B124E004F1300580
:104160004FF40079BBF1020F09D12878697840EA51
:10417000012000B9761CAD1CA9F1020910E0E87815
:104180000006A97840EA0140697840EA01202978D0
:10419000084320F0704000B9761C2D1DA9F10409D8
:1041A000781E071ECCD100BF2661607940F0010067
:1041B0006071CAF80060019805B0BDE8F08F00009A
:1041C0002DE9F74F90B0914610A800F0DDFE0F905A
:1041D0000F98002803DA0B2013B0BDE8F08F119878
:1041E000012801DD1320F7E7A9F1010000EA090029
:1041F00008B11320F0E7FE490F9851F820B0BBF149
:10420000000F01D10C20E7E700208BF800000F9889
:10421000C0B20C9000200B900C98FFF7F5FD0190B8
:10422000019800F0010008B10320D5E7019800F0E3
:10423000040008B10A20CFE700BF04AA01210C98AE
:10424000FFF7FEFD10B90498802801D20120C3E7D2
:10425000119808B1002000E03F2080460498A0EBB0
:1042600008000490B9F1000F13D14FF4FA610498DB
:10427000B0FBF1F00A904FF0000A01E00AF1010AE8
:10428000DC4830F81A100A988142F7D8DA4830F83A
:104290001A904FEA5929B9F1000F01D14FF00109E5
:1042A000B9F1800F01D94FF080090498B0FBF9F7FC
:1042B000012540F6F670874200D302254FF6F670CE
:1042C000874200D30325032D0AD1082000EB870085
:1042D00000F2FF10460A202003900020029011E017
:1042E000012D05D107EB4700401C4008C01C01E030
:1042F0007800001D064606F2FF10460A01200390D2
:10430000202002900398404407900798304406907C
:10431000029906980844059005984844A0EB0800C7
:104320000499884201D90E2056E709AA03210C9866
:10433000FFF786FD28B9099818B10998B0F5004F24
:1043400001D901200990099905980844401E491E89
:104350008843099009990598081A0990032D08D1F6
:10436000099903980844039009990798084407900D
:1043700001E009980644DDE90301081A811B02984F
:10438000081AB0FBF9F7022D03D140F6F670874208
:1043900005D3032D05D14FF6F670874201D20E20CA
:1043A0001AE7032D02D10C200D9010E0012D06D14B
:1043B0000498B0F5803F02D201200D9007E00498E8
:1043C000B0F5803F01D2042000E006200D9000BF30
:1043D000119810B1F0200E9044E04FF400720021CB
:1043E0000BF1300000F099FF0BF5F77401206070BD
:1043F000A0700020E0700D982071FE20607104987C
:1044000040443F21B0FBF1F0FF21B0FBF1F00990F7
:104410003F21099841EA9000A0710998E0713F207E
:10442000207200216172A172E172049820730498D5
:10443000010A61730498010CA1730498010EE173E1
:1044400055218BF82E12AA218BF82F12012300225E
:104450000BF130010C98FFF78DFD08B10120BBE690
:10446000F8200E900BF130044FF40072002120462A
:1044700000F053FF0B2261A1204600F041FF4FF4F2
:10448000007A84F80BA04FEA1A21217384F80D906A
:104490000398A0730398010AE17301202074032D8F
:1044A00001D1002001E04FF40070824684F811A091
:1044B0004FEA1A21A1740498B0F5803F05D2049800
:1044C000E0740498010A217510E0049884F8200033
:1044D0000498C0F30721212001550498C0F3074137
:1044E000222001550498010E232001550E98607575
:1044F0003F20207600216176FF20A076E17684F8C7
:104500001C804FEA182161774FEA1841A1774FEAE2
:104510001861E17700F036FD0990032D3ED109982E
:1045200084F843000998C0F30721442001550998F5
:10453000C0F30741452001550998010E4620015559
:1045400084F82460C6F3072125200155C6F30741EE
:1045500026200155310E27200155022084F82C0019
:1045600000212D2001552E2001552F20015501201D
:1045700084F8300031200155062084F832003320C1
:104580000155802084F84000292084F8420013223D
:104590001DA104F1470000F0B3FE1FE0099884F864
:1045A00027000998C0F30721282001550998C0F376
:1045B0000741292001550998010E2A200155A675A9
:1045C000310AE175802084F82400292084F826002F
:1045D000132212A104F12B0000F092FE552084F862
:1045E000FE01AA2140F2FF100155012342461FE0BF
:1045F00040BD01209AB30108B0B30108EBFE904D15
:1046000053444F53352E30004E4F204E414D4520E0
:104610002020204641543332202020004E4F204E8F
:10462000414D4520202020464154202020202000BC
:1046300021460C98FFF79EFC08B10120CCE5032D24
:1046400006D1012308F1060221460C98FFF792FCDF
:10465000079808904FF0000A61E04FF400720021C3
:10466000204600F05AFE0E980990032D14D0012D1B
:1046700001D1624801E06FF0FF00099908430990F9
:10468000099820700998000A60700998000CA070C1
:104690000998000EE07019E0099860F0FF00099099
:1046A000099820700998000A60700998000CA070A1
:1046B0000998000EE070FF202071FF216171A17147
:1046C000E17120726172A1720F21E1720898411CA0
:1046D00002460123089121460C98FFF74BFC08B1D4
:1046E000012079E54FF400720021204600F015FE0C
:1046F000012009900EE00898411C02460123089110
:1047000021460C98FFF736FC08B1012064E50998B2
:10471000401C09900998B042EDD30AF1010ABAF1A0
:10472000000F9AD0032D01D1484600E0029882463E
:1047300000BF0898411C02460123089121460C98AD
:10474000FFF718FC08B1012046E5AAF10100B0F11D
:10475000000AEED1032D46D15220207060706120F6
:10476000A0704120E070722084F8E401722140F2D0
:10477000E51001554121401C01556121401C0155A6
:10478000781E84F8E801C0F3072140F2E9100155D2
:10479000781EC0F307414FF4F5700155781E010EE5
:1047A00040F2EB100155022084F8EC01002140F2A8
:1047B000ED100155401C0155401C0155552084F851
:1047C000FE01AA2140F2FF100155012308F1010268
:1047D00021460C98FFF7CEFB012308F10702214682
:1047E0000C98FFF7C7FB002211460C98FFF728FB37
:1047F00008B10120F0E40020EEE4000000FFFF001B
:10480000F7B582B016460398019001A800F0BCFBF2
:104810000546002D02DA0B2005B0F0BD0E4850F819
:1048200025400CB100202070029810B100200299A0
:1048300008700949029841F82500029808B1012E34
:1048400001D00020E8E7002203A902A800F054F9F3
:1048500007463846E0E7000040BD01202DE9F14F52
:104860008CB001220CA903A800F046F98146B9F1E9
:10487000000F03D048460DB0BDE8F08F00208DF842
:104880000000002700E07F1C0C98C05D0028FAD1D2
:1048900000E07F1E27B1781E0C99085C2028F8D014
:1048A000002F5ED00026B04600BF3046761C0C9923
:1048B0000C5C812C20DBE0B2FE281DDCB8F10A0F75
:1048C00018D2BE4216D20C98805D402803DB0C98AB
:1048D000805D7E2807DD0C98805D80280ADB0C98BF
:1048E000805DFE2806DC3046761C0C99085C40EAA8
:1048F000042000E0002084B20121204600F0A2F84C
:10490000834600F0DDF88246002100F09BF8044663
:104910005CB1214647A0FFF723F830B9FF2C01DD39
:104920000A2000E00B20404501D80620A3E7FF2C19
:1049300005DD2212404608F101080DF80020E2B220
:10494000404608F101080DF80020BE42ADD305E055
:104950002022404608F101080DF80020B8F10B0FA5
:10496000F6D300200590002103A8FFF7FDF981464A
:10497000B9F1000F5BD1012103A8FFF793F981463C
:10498000B9F1000F21D19DF8000098B10B226946C2
:10499000089800F0B5FC00F0F5FA054608998D7509
:1049A000290A0898C175290C08980176290E0898DB
:1049B000417602E0E520089908700120039908710A
:1049C000039800F066FE814631E0B9F1040F2ED164
:1049D0004FF000099DF8000048B3012103A8FFF73C
:1049E000ABF88146B9F1000F21D1202200210898AF
:1049F00000F093FC0B226946089800F081FC082027
:104A00000899C87200F0BEFA054608998D75290A02
:104A10000898C175290C08980176290E08984176E6
:104A2000012003990871039800F033FE814648463F
:104A300021E70000222A2B2C2E3A3B3C3D3E3F5BD7
:104A40005D7C7F002DE9F04102460F46802A01DAA5
:104A500010462FE01FB1184B45F2205602E0174BCD
:104A600045F220560025102416E0A6EB050C0CEBB1
:104A7000DC7805EB68014FEA410C33F81CC0944523
:104A800000D10BE04FEA410C33F81CC0944501DA29
:104A90000D4600E00E46641E002CE6D100BF34B186
:104AA0004FF0010C0CEB410C33F81CC001E04FF04F
:104AB000000C6046BDE8F0814A080308C6B301084F
:104AC0000246002100E0491C094830F8110020B1DD
:104AD000074830F811009042F5D1054830F8110030
:104AE00018B1044830F8110070471046FCE7000088
:104AF000CE5C0408AE5E04082DE9F74F88B00021B3
:104B000008980160099800F03FFA0790079800287C
:104B100003DA0B200BB0BDE8F08FD549079851F8A8
:104B200020400CB90C20F5E708980460207878B193
:104B30006078FFF71CFA804608F0010040B90A9837
:104B400020B108F0040008B10A20E3E70020E1E703
:104B500000202070079860706078FFF755F9804654
:104B600008F0010008B10320D4E70A9820B108F04A
:104B7000040008B10A20CDE7002739462046FEF799
:104B8000A7FE0546012D01D06DBB2CE0002614E0E8
:104B900004F5F77101EB0610017951B1C17A0A06EB
:104BA000817A42EA0142417A42EA0121027A1143C2
:104BB00000E000214DF82610761C042EE8D30026D4
:104BC00006B1761E00BF5DF8267027B13946204633
:104BD000FEF77EFE00E0022005461DB1701C064671
:104BE0000428F0D300BF032D01D1012092E70DB1BD
:104BF0000D208FE73B20015D94F83C0041EA002046
:104C0000B0F5007F01D00D2084E74620015D94F8C7
:104C1000470041EA0029B9F1000F0ED194F857007E
:104C2000010694F8560041EA004194F8550041EA23
:104C3000002094F8541040EA0109C4F8189040206C
:104C4000005DE070E078012804D0E078022801D00F
:104C50000D205FE7E07809FB00F93D20005DA070C2
:104C6000A07818B1A078411E084008B10D2051E786
:104C70004120015D94F8420041EA00202081207A21
:104C800000F00F0008B10D2044E74320015D94F8C7
:104C9000440041EA002BBBF1000F0ED194F8530001
:104CA000010694F8520041EA004194F8510041EAAB
:104CB000002094F8501040EA010B3E20015D94F86A
:104CC0003F0041EA00200490049808B90D2021E734
:104CD00004984844218900EB1110069006988345FA
:104CE00001D20D2016E70698ABEB0000A178B0FBCF
:104CF000F1FABAF1000F01D10D200BE7012540F6C2
:104D0000F670824500D302254FF6F670824500D337
:104D100003250AF102006061E761049838442062CB
:104D200006983844A062032D16D1208908B10D20C1
:104D3000F0E694F85F00010694F85E0041EA004155
:104D400094F85D0041EA002094F85C10084360622A
:104D500060698000059014E0208908B90D20D9E62B
:104D6000206A48446062022D02D16069400007E079
:104D7000207D00F00100616901EB410100EB510071
:104D80000590A169059800F2FF10B1EB502F01D2F8
:104D90000D20BFE64FF0FF302061E06080206071A1
:104DA000032D5AD194F8601094F8610041EA002074
:104DB000012852D1791C204600F0B9FAE8BB002046
:104DC000607194F82E1294F82F0241EA00204AF6FE
:104DD0005521884241D13320005D01063220005D1B
:104DE00041EA00413120005D41EA002094F8301092
:104DF00008432049884230D194F81702010694F8FC
:104E0000160241EA004194F8150241EA002094F8A4
:104E100014120843184988421FD194F81B02010656
:104E200094F81A0241EA004194F8190241EA00207C
:104E300094F818120843206100E00EE094F81F0275
:104E4000010694F81E0241EA004194F81D0241EA6D
:104E5000002094F81C120843E06025700748008881
:104E6000401C80B205490880E080002052E6000026
:104E700040BD0120525261417272416156000020D2
:104E800000BF054A128802F04002002AF9D0C2B2DF
:104E9000014B9A8070470000001001402DE9F0415D
:104EA00005460C46022C02D36869A04202D80120B4
:104EB000BDE8F0812878012804D002282CD00328EE
:104EC0005AD13DE0274607EB5707286A00EB5721E8
:104ED000284600F02CFA00B150E0C7F3080105F1B4
:104EE000300010F801807F1C286A00EB572128460B
:104EF00000F01DFA00B141E0C7F3080105F13000F0
:104F0000405C48EA002804F0010010B14FEA181094
:104F1000CEE7C8F30B00CBE7286A00EB1421284644
:104F200000F005FA00B129E040F2FF1000EA440168
:104F300005F130000E183078717840EA0120B7E7AB
:104F4000286A00EBD411284600F0F1F900B115E011
:104F500040F2FF1000EA840105F130000E18F078ED
:104F60000006B17840EA0140717840EA01203178CA
:104F7000084320F070409BE7012099E700BF4FF005
:104F8000FF3095E70020704770B502464FF0FF30C4
:104F90001568E5B1116800E0491C0D78202D02D399
:104FA0000D783A2DF8D10D783A2D0FD1146814F8F8
:104FB000015BA5F130030A2B07D28C4205D1032BEC
:104FC00003D218464D1C2946156070BD002000BF55
:104FD000FBE700000EB5002500244FF4A060FCF7AD
:104FE0009DFAA820FEF748FD4FF4E13000F0DCFB0D
:104FF000FCF7B8F8FCF748F8FEF712FB002000F0C9
:10500000AFF9022000F0ACF9FCF7E6F84EF67D703F
:10501000FCF7C6F873A04EF67D734FF4784210216A
:1050200000900020FBF7FCFE72A04EF67D734FF45B
:105030007842202100900020FBF7F2FE70A04EF68F
:105040007D734FF47842302100900020FBF7E8FE9A
:1050500021E06EA04EF67D731F22502100900020AB
:10506000FBF7DEFE4FF4FA70FEF724FD6BA04EF660
:105070007D731F22602100900020FBF7D1FE4FF4CA
:10508000FA70FEF717FD6948006808B9012000E0D2
:10509000002066490860FCF7D7FD0028D9D1FEF74B
:1050A000CBFF63490122086862A1FFF7A9FB6049B1
:1050B0000122486860A1FFF7A3FB04460D2C2AD10A
:1050C0005EA04EF67D731F22502100900020FBF75A
:1050D000A7FE4FF48052012157A0FFF771F8044654
:1050E00064B95DA0FFF7BAFB5EA04EF67D731F2288
:1050F000502100900020FBF793FE08E060A04EF6E0
:105100007D731F22502100900020FBF789FE4FF491
:105110007A70FEF7CFFC61A04EF67D731F225021FE
:1051200000900020FBF77CFE1FE062A04EF67D732E
:105130001F22502100900020FBF772FEC820FEF7CE
:10514000B9FC56A04EF67D731F225021009000201E
:10515000FBF766FEC820FEF7ADFC3448006808B9CE
:10516000012000E000203149086001AA02A957A0EF
:10517000FEF73DFF0028D8D155A04EF67D731F22C3
:10518000502100900020FBF74BFE0298820A53A1A9
:105190005648FBF7ABF855484EF67D731F22602149
:1051A00000900020FBF73CFE0198820A50A14F4876
:1051B000FBF79CF84D484EF67D731F22702100903E
:1051C0000020FBF72DFE0CE0681CC5B2C820FEF7DE
:1051D00071FC1648006808B9012000E0002013495E
:1051E0000860F1E72053544D33324634787820B2CA
:1051F000E2CAD4002046415446532054455354003B
:1052000020323031382F352F3500000053442043F1
:10521000617264204572726F72210000506C65618A
:10522000736520436865636B21200000840240425F
:105230004CBD0120303A0000313A0000466C6173E9
:1052400068204469736B20466F726D617474696E77
:10525000672E2E2E00000000313A6D63756465766E
:1052600000000000466C617368204469736B20463F
:105270006F726D61742046696E697368000000008A
:10528000466C617368204469736B20466F726D6170
:1052900074204572726F72200000000020202020D0
:1052A00020202020202020202020202020202020FE
:1052B000000000005344204361726420466174661C
:1052C00073204572726F72210000000030000000F0
:1052D0004641544653204F4B210000005344205474
:1052E0006F74616C3A2564204D4200006C00002010
:1052F000534420467265653A2564204D4200000003
:1053000070B503460C4603E014F8015B03F8015B3B
:10531000151EA2F10102F7D170BD30B5034601E0C0
:1053200003F8011B141EA2F10102F9D130BD70B5C2
:1053300004460D46E06AA84210D0204600F00DFA5F
:1053400008B1012070BD607801232A4604F13001C4
:10535000FEF7D0FD08B10120F4E7E5620020F1E797
:1053600010B504460C4951F824104A000B4951F875
:105370002400002100F09EF8094951F82420074933
:105380000C3951F82400002100F094F80121034861
:105390000C30015510BD000068B301084400002026
:1053A00080B301082DE9F04704460F460025A946C1
:1053B0002348005D20B922482038016820468847EC
:1053C0001FB94FF0FF30BDE8F0871E4850F82400A9
:1053D000B7FBF0F61B4850F82400B7FBF0F100FBD8
:1053E000117000B1761C184850F82400451E22E0C8
:1053F00013480C3850F8240030F8150010B909F1A2
:10540000010901E04FF00009B14513D14FF0000848
:1054100009E00B480C3850F8240005EB080220F88E
:10542000126008F10108B045F3D3064850F8240093
:105430006843C8E76D1E002DDADA4FF0FF30C2E78F
:105440005000002074B3010868B3010810B501468C
:105450000023002207E00B4850F8210030F812002A
:1054600000B15B1C521C084850F821009042F2D851
:1054700064205843044C54F82140B0FBF4F0C0B20F
:1054800010BD00004400002068B3010870B5044658
:105490000E4631462046FFF785FF0546681C08B9D1
:1054A000002070BD024850F824002844F9E70000AD
:1054B0003800002030B5034601E003F8011B141E3C
:1054C000A2F10102F9D130BDF0B50346087800F031
:1054D0003F00401E00EB800707EBC00200250126BD
:1054E00000BF1548405D085C134F7F5D0F447F7817
:1054F00040EA07244EB1FF2A01D30020F0BD264622
:105500001046521C23F8104005E04FF6FF7084420D
:1055100001D00020F2E7681C05460D28E1D3087889
:1055200000F0400030B1FF2A01D30020E6E7002060
:1055300023F812000120E1E78CB301082DE9F047C0
:1055400005460E461746022E02D36869B04202D8BD
:105550004FF002088AE02878012804D0022841D0C0
:1055600003287DD154E0B14609EB5909286A00EBC4
:1055700059212846FFF7DBFE8046B8F1000F00D026
:1055800071E0C9F3080105F130000C1806F00100C4
:1055900020B1F9B2207861F31F1000E03846207086
:1055A00009F1010901202871286A00EB59212846D8
:1055B000FFF7BDFE8046B8F1000F00D053E0C9F3FD
:1055C000080105F130000C1806F0010010B1C7F316
:1055D000071005E0207800F0F000C7F3032108432E
:1055E000207040E0286A00EB16212846FFF79FFE56
:1055F0008046B8F1000F00D035E040F2FF1000EA1D
:10560000460105F130000C182770380A60702AE056
:10561000286A00EBD6112846FFF789FE8046B8F1CC
:10562000000F00D01FE040F2FF1000EA860105F1F4
:1056300030000C18E0780006A17840EA014061785B
:1056400040EA01202178084300F0704007432770AA
:10565000380A6070380CA070380EE07003E0FFE785
:105660004FF0020800BF00BF012028714046BDE88E
:10567000F08730B5014600200B2200BF431003EB3A
:10568000C01411F8015B6319D8B2531E1A1EF5D16C
:1056900030BD70B50446204600F05FF80546002D89
:1056A00059D1207803284FD1607901284CD142028A
:1056B000002104F13000FFF730FE552184F82E124E
:1056C000AA2184F82F12522084F830005221312070
:1056D00001556121322001554121332001557221AC
:1056E00084F8141284F81512412184F816126121ED
:1056F00084F81712217C84F81812208A010A84F891
:1057000019122069010C84F81A122069010E84F81C
:105710001B12217B84F81C12A089010A84F81D1237
:10572000E068010C84F81E12E068010E84F81F1274
:10573000E069401CE0626078012304F13001E26A14
:10574000FEF718FC00206071607800221146FEF719
:1057500077FB00B10125284670BD70B5044620795D
:10576000F8B1E56A607801232A4604F13001FEF7BA
:1057700001FC08B1012070BD00202071206A281AA8
:10578000A16988420DD2E67809E0A06905446078F5
:1057900001232A4604F13001FEF7ECFB761E022EAF
:1057A000F3D20020E7E7000010B588B004460121DD
:1057B0000846FBF7BFFE01211020FBF7CBFE0722B6
:1057C00009212248FBF704FB07220A211F48FBF7A7
:1057D000FFFA4FF4C060069002208DF81C008DF88F
:1057E0001D0000208DF81E0001208DF81F0006A965
:1057F0001648FBF7A5FA02940020ADF80C00ADF8AE
:105800000E00ADF81000ADF814000C20ADF8120039
:1058100002A90F48FDF766FE01210D48FDF706FEBF
:10582000012240F225510A48FDF736FE25208DF869
:10583000040003208DF805008DF8060001208DF886
:10584000070001A8FBF72EFE08B010BD00000240C3
:10585000001001404FF04070E1EE100A7047000068
:105860000000000000000000000000000000001028
:105870001010101010101010000010100000000088
:105880006C6C2424000000000100000000000024D3
:10589000242424FE48484848FC9090909000001032
:1058A0003C54929050381412129254781000000018
:1058B000225C94A8481010242A525488000000004A
:1058C00030484850206E54948C888A740000000040
:1058D0003030101000000000000000000000000444
:1058E0000810102020202020201010080400008024
:1058F00040202010101010101020204080000000C8
:10590000000010543810385410000000000000004F
:105910000010101010FE1010101000000000000009
:105920000000000000000000000010102000000037
:105930000000000000FE0000000000000000000069
:105940000000000000000000000010100000000037
:10595000040408081010202040408080000000004F
:10596000384482828282828282824438000000002F
:1059700010701010101010101010107C000000009B
:105980003844828204081020408284FC0000000019
:1059900038448202043804020282443800000000C5
:1059A000040C141424244444FE04040E00000000DB
:1059B000FC808080B8C482020282847800000000EB
:1059C0003C428280B8C48282828244380000000057
:1059D0007E42820404080808101010100000000025
:1059E0003844828244384482828244380000000075
:1059F000384482828282463A0282443800000000A3
:105A00000000101000000000101000000000000056
:105A10000000101000000000001010200000000026
:105A200000000618608060180600000000000000FA
:105A300000000000FE0000FE00000000000000006A
:105A40000000C0300C020C30C00000000000003824
:105A500044828202040810101000101000000000A0
:105A60003844829AAAAAAAAAAA9680423C000000B8
:105A700010101028282844447C4444EE0000000004
:105A8000FC424242427C4242424242FC0000000050
:105A90003C44828080808080828244380000000004
:105AA000F844424242424242424244F8000000006E
:105AB000FC444240447C4440404244FC000000001E
:105AC000FC444240447C4440404040F00000000020
:105AD000344C828080808E8484844C3400000000AA
